{
	"Parkinglot.sol": {
		"ParkingLotApp": {
			"abi": [
				{
					"inputs": [],
					"stateMutability": "nonpayable",
					"type": "constructor"
				},
				{
					"anonymous": false,
					"inputs": [
						{
							"indexed": true,
							"internalType": "uint256",
							"name": "spotId",
							"type": "uint256"
						},
						{
							"indexed": true,
							"internalType": "address",
							"name": "occupant",
							"type": "address"
						}
					],
					"name": "checkedIn",
					"type": "event"
				},
				{
					"anonymous": false,
					"inputs": [
						{
							"indexed": true,
							"internalType": "uint256",
							"name": "spotId",
							"type": "uint256"
						},
						{
							"indexed": true,
							"internalType": "address",
							"name": "occupant",
							"type": "address"
						},
						{
							"indexed": false,
							"internalType": "uint256",
							"name": "duration",
							"type": "uint256"
						},
						{
							"indexed": false,
							"internalType": "uint256",
							"name": "cost",
							"type": "uint256"
						}
					],
					"name": "checkedOut",
					"type": "event"
				},
				{
					"anonymous": false,
					"inputs": [
						{
							"indexed": true,
							"internalType": "uint256",
							"name": "spotId",
							"type": "uint256"
						}
					],
					"name": "parkingSpotAdded",
					"type": "event"
				},
				{
					"inputs": [],
					"name": "addParkingSpot",
					"outputs": [],
					"stateMutability": "nonpayable",
					"type": "function"
				},
				{
					"inputs": [
						{
							"internalType": "uint256",
							"name": "_spotId",
							"type": "uint256"
						}
					],
					"name": "checkIn",
					"outputs": [],
					"stateMutability": "payable",
					"type": "function"
				},
				{
					"inputs": [
						{
							"internalType": "uint256",
							"name": "_spotId",
							"type": "uint256"
						}
					],
					"name": "checkOut",
					"outputs": [],
					"stateMutability": "nonpayable",
					"type": "function"
				},
				{
					"inputs": [],
					"name": "owner",
					"outputs": [
						{
							"internalType": "address",
							"name": "",
							"type": "address"
						}
					],
					"stateMutability": "view",
					"type": "function"
				},
				{
					"inputs": [],
					"name": "parkingSpotCount",
					"outputs": [
						{
							"internalType": "uint256",
							"name": "",
							"type": "uint256"
						}
					],
					"stateMutability": "view",
					"type": "function"
				},
				{
					"inputs": [
						{
							"internalType": "uint256",
							"name": "",
							"type": "uint256"
						}
					],
					"name": "parkingSpots",
					"outputs": [
						{
							"internalType": "uint256",
							"name": "id",
							"type": "uint256"
						},
						{
							"internalType": "address",
							"name": "occupant",
							"type": "address"
						},
						{
							"internalType": "uint256",
							"name": "checkinTime",
							"type": "uint256"
						},
						{
							"internalType": "bool",
							"name": "isOccupied",
							"type": "bool"
						}
					],
					"stateMutability": "view",
					"type": "function"
				},
				{
					"inputs": [],
					"name": "pricePerHour",
					"outputs": [
						{
							"internalType": "uint256",
							"name": "",
							"type": "uint256"
						}
					],
					"stateMutability": "view",
					"type": "function"
				},
				{
					"inputs": [],
					"name": "withdrawFunds",
					"outputs": [],
					"stateMutability": "nonpayable",
					"type": "function"
				}
			],
			"devdoc": {
				"kind": "dev",
				"methods": {},
				"version": 1
			},
			"evm": {
				"assembly": "    /* \"Parkinglot.sol\":61:2332  contract ParkingLotApp{... */\n  mstore(0x40, 0x80)\n    /* \"Parkinglot.sol\":291:292  0 */\n  0x00\n    /* \"Parkinglot.sol\":257:292  uint256 public parkingSpotCount = 0 */\n  0x01\n  sstore\n    /* \"Parkinglot.sol\":329:336  1 ether */\n  0x0de0b6b3a7640000\n    /* \"Parkinglot.sol\":299:336  uint256 public pricePerHour = 1 ether */\n  0x02\n  sstore\n    /* \"Parkinglot.sol\":760:810  constructor(){... */\n  callvalue\n  dup1\n  iszero\n  tag_1\n  jumpi\n  0x00\n  dup1\n  revert\ntag_1:\n  pop\n    /* \"Parkinglot.sol\":792:802  msg.sender */\n  caller\n    /* \"Parkinglot.sol\":784:789  owner */\n  0x00\n  dup1\n    /* \"Parkinglot.sol\":784:802  owner = msg.sender */\n  0x0100\n  exp\n  dup2\n  sload\n  dup2\n  0xffffffffffffffffffffffffffffffffffffffff\n  mul\n  not\n  and\n  swap1\n  dup4\n  0xffffffffffffffffffffffffffffffffffffffff\n  and\n  mul\n  or\n  swap1\n  sstore\n  pop\n    /* \"Parkinglot.sol\":61:2332  contract ParkingLotApp{... */\n  dataSize(sub_0)\n  dup1\n  dataOffset(sub_0)\n  0x00\n  codecopy\n  0x00\n  return\nstop\n\nsub_0: assembly {\n        /* \"Parkinglot.sol\":61:2332  contract ParkingLotApp{... */\n      mstore(0x40, 0x80)\n      jumpi(tag_1, lt(calldatasize, 0x04))\n      shr(0xe0, calldataload(0x00))\n      dup1\n      0x8da5cb5b\n      gt\n      tag_10\n      jumpi\n      dup1\n      0x8da5cb5b\n      eq\n      tag_6\n      jumpi\n      dup1\n      0xceb751da\n      eq\n      tag_7\n      jumpi\n      dup1\n      0xe95a644f\n      eq\n      tag_8\n      jumpi\n      dup1\n      0xf5defcd3\n      eq\n      tag_9\n      jumpi\n      jump(tag_1)\n    tag_10:\n      dup1\n      0x1bd2eeee\n      eq\n      tag_2\n      jumpi\n      dup1\n      0x24600fc3\n      eq\n      tag_3\n      jumpi\n      dup1\n      0x67b7babb\n      eq\n      tag_4\n      jumpi\n      dup1\n      0x74777614\n      eq\n      tag_5\n      jumpi\n    tag_1:\n      0x00\n      dup1\n      revert\n        /* \"Parkinglot.sol\":1502:2158  function checkOut(uint256 _spotId)... */\n    tag_2:\n      callvalue\n      dup1\n      iszero\n      tag_11\n      jumpi\n      0x00\n      dup1\n      revert\n    tag_11:\n      pop\n      tag_12\n      0x04\n      dup1\n      calldatasize\n      sub\n      dup2\n      add\n      swap1\n      tag_13\n      swap2\n      swap1\n      tag_14\n      jump\t// in\n    tag_13:\n      tag_15\n      jump\t// in\n    tag_12:\n      stop\n        /* \"Parkinglot.sol\":2166:2327  function withdrawFunds()... */\n    tag_3:\n      callvalue\n      dup1\n      iszero\n      tag_16\n      jumpi\n      0x00\n      dup1\n      revert\n    tag_16:\n      pop\n      tag_17\n      tag_18\n      jump\t// in\n    tag_17:\n      stop\n        /* \"Parkinglot.sol\":257:292  uint256 public parkingSpotCount = 0 */\n    tag_4:\n      callvalue\n      dup1\n      iszero\n      tag_19\n      jumpi\n      0x00\n      dup1\n      revert\n    tag_19:\n      pop\n      tag_20\n      tag_21\n      jump\t// in\n    tag_20:\n      mload(0x40)\n      tag_22\n      swap2\n      swap1\n      tag_23\n      jump\t// in\n    tag_22:\n      mload(0x40)\n      dup1\n      swap2\n      sub\n      swap1\n      return\n        /* \"Parkinglot.sol\":818:1058  function addParkingSpot()... */\n    tag_5:\n      callvalue\n      dup1\n      iszero\n      tag_24\n      jumpi\n      0x00\n      dup1\n      revert\n    tag_24:\n      pop\n      tag_25\n      tag_26\n      jump\t// in\n    tag_25:\n      stop\n        /* \"Parkinglot.sol\":230:250  address public owner */\n    tag_6:\n      callvalue\n      dup1\n      iszero\n      tag_27\n      jumpi\n      0x00\n      dup1\n      revert\n    tag_27:\n      pop\n      tag_28\n      tag_29\n      jump\t// in\n    tag_28:\n      mload(0x40)\n      tag_30\n      swap2\n      swap1\n      tag_31\n      jump\t// in\n    tag_30:\n      mload(0x40)\n      dup1\n      swap2\n      sub\n      swap1\n      return\n        /* \"Parkinglot.sol\":299:336  uint256 public pricePerHour = 1 ether */\n    tag_7:\n      callvalue\n      dup1\n      iszero\n      tag_32\n      jumpi\n      0x00\n      dup1\n      revert\n    tag_32:\n      pop\n      tag_33\n      tag_34\n      jump\t// in\n    tag_33:\n      mload(0x40)\n      tag_35\n      swap2\n      swap1\n      tag_23\n      jump\t// in\n    tag_35:\n      mload(0x40)\n      dup1\n      swap2\n      sub\n      swap1\n      return\n        /* \"Parkinglot.sol\":1066:1494  function checkIn(uint256 _spotId)... */\n    tag_8:\n      tag_36\n      0x04\n      dup1\n      calldatasize\n      sub\n      dup2\n      add\n      swap1\n      tag_37\n      swap2\n      swap1\n      tag_14\n      jump\t// in\n    tag_37:\n      tag_38\n      jump\t// in\n    tag_36:\n      stop\n        /* \"Parkinglot.sol\":345:396  mapping(uint256 => ParkingSpot) public parkingSpots */\n    tag_9:\n      callvalue\n      dup1\n      iszero\n      tag_39\n      jumpi\n      0x00\n      dup1\n      revert\n    tag_39:\n      pop\n      tag_40\n      0x04\n      dup1\n      calldatasize\n      sub\n      dup2\n      add\n      swap1\n      tag_41\n      swap2\n      swap1\n      tag_14\n      jump\t// in\n    tag_41:\n      tag_42\n      jump\t// in\n    tag_40:\n      mload(0x40)\n      tag_43\n      swap5\n      swap4\n      swap3\n      swap2\n      swap1\n      tag_44\n      jump\t// in\n    tag_43:\n      mload(0x40)\n      dup1\n      swap2\n      sub\n      swap1\n      return\n        /* \"Parkinglot.sol\":1502:2158  function checkOut(uint256 _spotId)... */\n    tag_15:\n        /* \"Parkinglot.sol\":1569:1593  ParkingSpot storage spot */\n      0x00\n        /* \"Parkinglot.sol\":1596:1608  parkingSpots */\n      0x03\n        /* \"Parkinglot.sol\":1596:1617  parkingSpots[_spotId] */\n      0x00\n        /* \"Parkinglot.sol\":1609:1616  _spotId */\n      dup4\n        /* \"Parkinglot.sol\":1596:1617  parkingSpots[_spotId] */\n      dup2\n      mstore\n      0x20\n      add\n      swap1\n      dup2\n      mstore\n      0x20\n      add\n      0x00\n      keccak256\n        /* \"Parkinglot.sol\":1569:1617  ParkingSpot storage spot = parkingSpots[_spotId] */\n      swap1\n      pop\n        /* \"Parkinglot.sol\":1636:1640  spot */\n      dup1\n        /* \"Parkinglot.sol\":1636:1651  spot.isOccupied */\n      0x03\n      add\n      0x00\n      swap1\n      sload\n      swap1\n      0x0100\n      exp\n      swap1\n      div\n      0xff\n      and\n        /* \"Parkinglot.sol\":1636:1682  spot.isOccupied && spot.occupant == msg.sender */\n      dup1\n      iszero\n      tag_46\n      jumpi\n      pop\n        /* \"Parkinglot.sol\":1672:1682  msg.sender */\n      caller\n        /* \"Parkinglot.sol\":1655:1682  spot.occupant == msg.sender */\n      0xffffffffffffffffffffffffffffffffffffffff\n      and\n        /* \"Parkinglot.sol\":1655:1659  spot */\n      dup2\n        /* \"Parkinglot.sol\":1655:1668  spot.occupant */\n      0x01\n      add\n      0x00\n      swap1\n      sload\n      swap1\n      0x0100\n      exp\n      swap1\n      div\n      0xffffffffffffffffffffffffffffffffffffffff\n      and\n        /* \"Parkinglot.sol\":1655:1682  spot.occupant == msg.sender */\n      0xffffffffffffffffffffffffffffffffffffffff\n      and\n      eq\n        /* \"Parkinglot.sol\":1636:1682  spot.isOccupied && spot.occupant == msg.sender */\n    tag_46:\n        /* \"Parkinglot.sol\":1628:1714  require(spot.isOccupied && spot.occupant == msg.sender,\"Not the occupant od the spot\") */\n      tag_47\n      jumpi\n      mload(0x40)\n      0x08c379a000000000000000000000000000000000000000000000000000000000\n      dup2\n      mstore\n      0x04\n      add\n      tag_48\n      swap1\n      tag_49\n      jump\t// in\n    tag_48:\n      mload(0x40)\n      dup1\n      swap2\n      sub\n      swap1\n      revert\n    tag_47:\n        /* \"Parkinglot.sol\":1727:1743  uint256 duration */\n      0x00\n        /* \"Parkinglot.sol\":1765:1769  spot */\n      dup2\n        /* \"Parkinglot.sol\":1765:1781  spot.checkinTime */\n      0x02\n      add\n      sload\n        /* \"Parkinglot.sol\":1747:1762  block.timestamp */\n      timestamp\n        /* \"Parkinglot.sol\":1747:1781  block.timestamp - spot.checkinTime */\n      tag_50\n      swap2\n      swap1\n      tag_51\n      jump\t// in\n    tag_50:\n        /* \"Parkinglot.sol\":1727:1782  uint256 duration = (block.timestamp - spot.checkinTime) */\n      swap1\n      pop\n        /* \"Parkinglot.sol\":1793:1810  uint256 totalCost */\n      0x00\n        /* \"Parkinglot.sol\":1824:1836  pricePerHour */\n      sload(0x02)\n        /* \"Parkinglot.sol\":1813:1821  duration */\n      dup3\n        /* \"Parkinglot.sol\":1813:1836  duration * pricePerHour */\n      tag_52\n      swap2\n      swap1\n      tag_53\n      jump\t// in\n    tag_52:\n        /* \"Parkinglot.sol\":1793:1836  uint256 totalCost = duration * pricePerHour */\n      swap1\n      pop\n        /* \"Parkinglot.sol\":1882:1891  totalCost */\n      dup1\n        /* \"Parkinglot.sol\":1857:1878  address(this).balance */\n      selfbalance\n        /* \"Parkinglot.sol\":1857:1891  address(this).balance >= totalCost */\n      lt\n      iszero\n        /* \"Parkinglot.sol\":1849:1924  require(address(this).balance >= totalCost,\"Contract balance Insufficient\") */\n      tag_54\n      jumpi\n      mload(0x40)\n      0x08c379a000000000000000000000000000000000000000000000000000000000\n      dup2\n      mstore\n      0x04\n      add\n      tag_55\n      swap1\n      tag_56\n      jump\t// in\n    tag_55:\n      mload(0x40)\n      dup1\n      swap2\n      sub\n      swap1\n      revert\n    tag_54:\n        /* \"Parkinglot.sol\":1955:1960  false */\n      0x00\n        /* \"Parkinglot.sol\":1937:1941  spot */\n      dup4\n        /* \"Parkinglot.sol\":1937:1952  spot.isOccupied */\n      0x03\n      add\n      0x00\n        /* \"Parkinglot.sol\":1937:1960  spot.isOccupied = false */\n      0x0100\n      exp\n      dup2\n      sload\n      dup2\n      0xff\n      mul\n      not\n      and\n      swap1\n      dup4\n      iszero\n      iszero\n      mul\n      or\n      swap1\n      sstore\n      pop\n        /* \"Parkinglot.sol\":1995:1996  0 */\n      0x00\n        /* \"Parkinglot.sol\":1971:1975  spot */\n      dup4\n        /* \"Parkinglot.sol\":1971:1984  spot.occupant */\n      0x01\n      add\n      0x00\n        /* \"Parkinglot.sol\":1971:1997  spot.occupant = address(0) */\n      0x0100\n      exp\n      dup2\n      sload\n      dup2\n      0xffffffffffffffffffffffffffffffffffffffff\n      mul\n      not\n      and\n      swap1\n      dup4\n      0xffffffffffffffffffffffffffffffffffffffff\n      and\n      mul\n      or\n      swap1\n      sstore\n      pop\n        /* \"Parkinglot.sol\":2027:2028  0 */\n      0x00\n        /* \"Parkinglot.sol\":2008:2012  spot */\n      dup4\n        /* \"Parkinglot.sol\":2008:2024  spot.checkinTime */\n      0x02\n      add\n        /* \"Parkinglot.sol\":2008:2028  spot.checkinTime = 0 */\n      dup2\n      swap1\n      sstore\n      pop\n        /* \"Parkinglot.sol\":2049:2059  msg.sender */\n      caller\n        /* \"Parkinglot.sol\":2041:2069  payable(msg.sender).transfer */\n      0xffffffffffffffffffffffffffffffffffffffff\n      and\n        /* \"Parkinglot.sol\":2041:2080  payable(msg.sender).transfer(totalCost) */\n      0x08fc\n        /* \"Parkinglot.sol\":2070:2079  totalCost */\n      dup3\n        /* \"Parkinglot.sol\":2041:2080  payable(msg.sender).transfer(totalCost) */\n      swap1\n      dup2\n      iszero\n      mul\n      swap1\n      mload(0x40)\n      0x00\n      mload(0x40)\n      dup1\n      dup4\n      sub\n      dup2\n      dup6\n      dup9\n      dup9\n      call\n      swap4\n      pop\n      pop\n      pop\n      pop\n      iszero\n      dup1\n      iszero\n      tag_58\n      jumpi\n      returndatasize\n      0x00\n      dup1\n      returndatacopy\n      revert(0x00, returndatasize)\n    tag_58:\n      pop\n        /* \"Parkinglot.sol\":2118:2128  msg.sender */\n      caller\n        /* \"Parkinglot.sol\":2098:2150  checkedOut(_spotId, msg.sender, duration, totalCost) */\n      0xffffffffffffffffffffffffffffffffffffffff\n      and\n        /* \"Parkinglot.sol\":2109:2116  _spotId */\n      dup5\n        /* \"Parkinglot.sol\":2098:2150  checkedOut(_spotId, msg.sender, duration, totalCost) */\n      0xbe39273e44f9601865c70432e1be89cc761325b382adf3f258b89b9750065ac2\n        /* \"Parkinglot.sol\":2130:2138  duration */\n      dup5\n        /* \"Parkinglot.sol\":2140:2149  totalCost */\n      dup5\n        /* \"Parkinglot.sol\":2098:2150  checkedOut(_spotId, msg.sender, duration, totalCost) */\n      mload(0x40)\n      tag_59\n      swap3\n      swap2\n      swap1\n      tag_60\n      jump\t// in\n    tag_59:\n      mload(0x40)\n      dup1\n      swap2\n      sub\n      swap1\n      log3\n        /* \"Parkinglot.sol\":1558:2158  {... */\n      pop\n      pop\n      pop\n        /* \"Parkinglot.sol\":1502:2158  function checkOut(uint256 _spotId)... */\n      pop\n      jump\t// out\n        /* \"Parkinglot.sol\":2166:2327  function withdrawFunds()... */\n    tag_18:\n        /* \"Parkinglot.sol\":690:695  owner */\n      0x00\n      dup1\n      sload\n      swap1\n      0x0100\n      exp\n      swap1\n      div\n      0xffffffffffffffffffffffffffffffffffffffff\n      and\n        /* \"Parkinglot.sol\":676:695  msg.sender == owner */\n      0xffffffffffffffffffffffffffffffffffffffff\n      and\n        /* \"Parkinglot.sol\":676:686  msg.sender */\n      caller\n        /* \"Parkinglot.sol\":676:695  msg.sender == owner */\n      0xffffffffffffffffffffffffffffffffffffffff\n      and\n      eq\n        /* \"Parkinglot.sol\":668:732  require(msg.sender == owner,\"Only owner can call this function\") */\n      tag_62\n      jumpi\n      mload(0x40)\n      0x08c379a000000000000000000000000000000000000000000000000000000000\n      dup2\n      mstore\n      0x04\n      add\n      tag_63\n      swap1\n      tag_64\n      jump\t// in\n    tag_63:\n      mload(0x40)\n      dup1\n      swap2\n      sub\n      swap1\n      revert\n    tag_62:\n        /* \"Parkinglot.sol\":2237:2252  uint256 balance */\n      0x00\n        /* \"Parkinglot.sol\":2255:2276  address(this).balance */\n      selfbalance\n        /* \"Parkinglot.sol\":2237:2276  uint256 balance = address(this).balance */\n      swap1\n      pop\n        /* \"Parkinglot.sol\":2295:2300  owner */\n      0x00\n      dup1\n      sload\n      swap1\n      0x0100\n      exp\n      swap1\n      div\n      0xffffffffffffffffffffffffffffffffffffffff\n      and\n        /* \"Parkinglot.sol\":2287:2310  payable(owner).transfer */\n      0xffffffffffffffffffffffffffffffffffffffff\n      and\n        /* \"Parkinglot.sol\":2287:2319  payable(owner).transfer(balance) */\n      0x08fc\n        /* \"Parkinglot.sol\":2311:2318  balance */\n      dup3\n        /* \"Parkinglot.sol\":2287:2319  payable(owner).transfer(balance) */\n      swap1\n      dup2\n      iszero\n      mul\n      swap1\n      mload(0x40)\n      0x00\n      mload(0x40)\n      dup1\n      dup4\n      sub\n      dup2\n      dup6\n      dup9\n      dup9\n      call\n      swap4\n      pop\n      pop\n      pop\n      pop\n      iszero\n      dup1\n      iszero\n      tag_67\n      jumpi\n      returndatasize\n      0x00\n      dup1\n      returndatacopy\n      revert(0x00, returndatasize)\n    tag_67:\n      pop\n        /* \"Parkinglot.sol\":2226:2327  {... */\n      pop\n        /* \"Parkinglot.sol\":2166:2327  function withdrawFunds()... */\n      jump\t// out\n        /* \"Parkinglot.sol\":257:292  uint256 public parkingSpotCount = 0 */\n    tag_21:\n      sload(0x01)\n      dup2\n      jump\t// out\n        /* \"Parkinglot.sol\":818:1058  function addParkingSpot()... */\n    tag_26:\n        /* \"Parkinglot.sol\":690:695  owner */\n      0x00\n      dup1\n      sload\n      swap1\n      0x0100\n      exp\n      swap1\n      div\n      0xffffffffffffffffffffffffffffffffffffffff\n      and\n        /* \"Parkinglot.sol\":676:695  msg.sender == owner */\n      0xffffffffffffffffffffffffffffffffffffffff\n      and\n        /* \"Parkinglot.sol\":676:686  msg.sender */\n      caller\n        /* \"Parkinglot.sol\":676:695  msg.sender == owner */\n      0xffffffffffffffffffffffffffffffffffffffff\n      and\n      eq\n        /* \"Parkinglot.sol\":668:732  require(msg.sender == owner,\"Only owner can call this function\") */\n      tag_69\n      jumpi\n      mload(0x40)\n      0x08c379a000000000000000000000000000000000000000000000000000000000\n      dup2\n      mstore\n      0x04\n      add\n      tag_70\n      swap1\n      tag_64\n      jump\t// in\n    tag_70:\n      mload(0x40)\n      dup1\n      swap2\n      sub\n      swap1\n      revert\n    tag_69:\n        /* \"Parkinglot.sol\":890:906  parkingSpotCount */\n      0x01\n      0x00\n        /* \"Parkinglot.sol\":890:908  parkingSpotCount++ */\n      dup2\n      sload\n      dup1\n      swap3\n      swap2\n      swap1\n      tag_72\n      swap1\n      tag_73\n      jump\t// in\n    tag_72:\n      swap2\n      swap1\n      pop\n      sstore\n      pop\n        /* \"Parkinglot.sol\":952:1000  ParkingSpot(parkingSpotCount,address(0),0,false) */\n      mload(0x40)\n      dup1\n      0x80\n      add\n      0x40\n      mstore\n      dup1\n        /* \"Parkinglot.sol\":964:980  parkingSpotCount */\n      sload(0x01)\n        /* \"Parkinglot.sol\":952:1000  ParkingSpot(parkingSpotCount,address(0),0,false) */\n      dup2\n      mstore\n      0x20\n      add\n        /* \"Parkinglot.sol\":989:990  0 */\n      0x00\n        /* \"Parkinglot.sol\":952:1000  ParkingSpot(parkingSpotCount,address(0),0,false) */\n      0xffffffffffffffffffffffffffffffffffffffff\n      and\n      dup2\n      mstore\n      0x20\n      add\n        /* \"Parkinglot.sol\":992:993  0 */\n      0x00\n        /* \"Parkinglot.sol\":952:1000  ParkingSpot(parkingSpotCount,address(0),0,false) */\n      dup2\n      mstore\n      0x20\n      add\n        /* \"Parkinglot.sol\":994:999  false */\n      0x00\n        /* \"Parkinglot.sol\":952:1000  ParkingSpot(parkingSpotCount,address(0),0,false) */\n      iszero\n      iszero\n      dup2\n      mstore\n      pop\n        /* \"Parkinglot.sol\":919:931  parkingSpots */\n      0x03\n        /* \"Parkinglot.sol\":919:949  parkingSpots[parkingSpotCount] */\n      0x00\n        /* \"Parkinglot.sol\":932:948  parkingSpotCount */\n      sload(0x01)\n        /* \"Parkinglot.sol\":919:949  parkingSpots[parkingSpotCount] */\n      dup2\n      mstore\n      0x20\n      add\n      swap1\n      dup2\n      mstore\n      0x20\n      add\n      0x00\n      keccak256\n        /* \"Parkinglot.sol\":919:1000  parkingSpots[parkingSpotCount] = ParkingSpot(parkingSpotCount,address(0),0,false) */\n      0x00\n      dup3\n      add\n      mload\n      dup2\n      0x00\n      add\n      sstore\n      0x20\n      dup3\n      add\n      mload\n      dup2\n      0x01\n      add\n      exp(0x0100, 0x00)\n      dup2\n      sload\n      dup2\n      0xffffffffffffffffffffffffffffffffffffffff\n      mul\n      not\n      and\n      swap1\n      dup4\n      0xffffffffffffffffffffffffffffffffffffffff\n      and\n      mul\n      or\n      swap1\n      sstore\n      pop\n      0x40\n      dup3\n      add\n      mload\n      dup2\n      0x02\n      add\n      sstore\n      0x60\n      dup3\n      add\n      mload\n      dup2\n      0x03\n      add\n      exp(0x0100, 0x00)\n      dup2\n      sload\n      dup2\n      0xff\n      mul\n      not\n      and\n      swap1\n      dup4\n      iszero\n      iszero\n      mul\n      or\n      swap1\n      sstore\n      pop\n      swap1\n      pop\n      pop\n        /* \"Parkinglot.sol\":1033:1049  parkingSpotCount */\n      sload(0x01)\n        /* \"Parkinglot.sol\":1016:1050  parkingSpotAdded(parkingSpotCount) */\n      0x28d1a6f01116935efd8952d80cab2c4118924754917104df1bf73093fc102fad\n      mload(0x40)\n      mload(0x40)\n      dup1\n      swap2\n      sub\n      swap1\n      log2\n        /* \"Parkinglot.sol\":818:1058  function addParkingSpot()... */\n      jump\t// out\n        /* \"Parkinglot.sol\":230:250  address public owner */\n    tag_29:\n      0x00\n      dup1\n      sload\n      swap1\n      0x0100\n      exp\n      swap1\n      div\n      0xffffffffffffffffffffffffffffffffffffffff\n      and\n      dup2\n      jump\t// out\n        /* \"Parkinglot.sol\":299:336  uint256 public pricePerHour = 1 ether */\n    tag_34:\n      sload(0x02)\n      dup2\n      jump\t// out\n        /* \"Parkinglot.sol\":1066:1494  function checkIn(uint256 _spotId)... */\n    tag_38:\n        /* \"Parkinglot.sol\":1145:1169  ParkingSpot storage spot */\n      0x00\n        /* \"Parkinglot.sol\":1172:1184  parkingSpots */\n      0x03\n        /* \"Parkinglot.sol\":1172:1193  parkingSpots[_spotId] */\n      0x00\n        /* \"Parkinglot.sol\":1185:1192  _spotId */\n      dup4\n        /* \"Parkinglot.sol\":1172:1193  parkingSpots[_spotId] */\n      dup2\n      mstore\n      0x20\n      add\n      swap1\n      dup2\n      mstore\n      0x20\n      add\n      0x00\n      keccak256\n        /* \"Parkinglot.sol\":1145:1193  ParkingSpot storage spot = parkingSpots[_spotId] */\n      swap1\n      pop\n        /* \"Parkinglot.sol\":1213:1217  spot */\n      dup1\n        /* \"Parkinglot.sol\":1213:1228  spot.isOccupied */\n      0x03\n      add\n      0x00\n      swap1\n      sload\n      swap1\n      0x0100\n      exp\n      swap1\n      div\n      0xff\n      and\n        /* \"Parkinglot.sol\":1212:1228  !spot.isOccupied */\n      iszero\n        /* \"Parkinglot.sol\":1204:1256  require(!spot.isOccupied,\"Spot is already occupied\") */\n      tag_75\n      jumpi\n      mload(0x40)\n      0x08c379a000000000000000000000000000000000000000000000000000000000\n      dup2\n      mstore\n      0x04\n      add\n      tag_76\n      swap1\n      tag_77\n      jump\t// in\n    tag_76:\n      mload(0x40)\n      dup1\n      swap2\n      sub\n      swap1\n      revert\n    tag_75:\n        /* \"Parkinglot.sol\":1288:1300  pricePerHour */\n      sload(0x02)\n        /* \"Parkinglot.sol\":1275:1284  msg.value */\n      callvalue\n        /* \"Parkinglot.sol\":1275:1300  msg.value == pricePerHour */\n      eq\n        /* \"Parkinglot.sol\":1267:1321  require(msg.value == pricePerHour,\"Incorrect Payment\") */\n      tag_78\n      jumpi\n      mload(0x40)\n      0x08c379a000000000000000000000000000000000000000000000000000000000\n      dup2\n      mstore\n      0x04\n      add\n      tag_79\n      swap1\n      tag_80\n      jump\t// in\n    tag_79:\n      mload(0x40)\n      dup1\n      swap2\n      sub\n      swap1\n      revert\n    tag_78:\n        /* \"Parkinglot.sol\":1352:1356  true */\n      0x01\n        /* \"Parkinglot.sol\":1334:1338  spot */\n      dup2\n        /* \"Parkinglot.sol\":1334:1349  spot.isOccupied */\n      0x03\n      add\n      0x00\n        /* \"Parkinglot.sol\":1334:1356  spot.isOccupied = true */\n      0x0100\n      exp\n      dup2\n      sload\n      dup2\n      0xff\n      mul\n      not\n      and\n      swap1\n      dup4\n      iszero\n      iszero\n      mul\n      or\n      swap1\n      sstore\n      pop\n        /* \"Parkinglot.sol\":1383:1393  msg.sender */\n      caller\n        /* \"Parkinglot.sol\":1367:1371  spot */\n      dup2\n        /* \"Parkinglot.sol\":1367:1380  spot.occupant */\n      0x01\n      add\n      0x00\n        /* \"Parkinglot.sol\":1367:1393  spot.occupant = msg.sender */\n      0x0100\n      exp\n      dup2\n      sload\n      dup2\n      0xffffffffffffffffffffffffffffffffffffffff\n      mul\n      not\n      and\n      swap1\n      dup4\n      0xffffffffffffffffffffffffffffffffffffffff\n      and\n      mul\n      or\n      swap1\n      sstore\n      pop\n        /* \"Parkinglot.sol\":1423:1438  block.timestamp */\n      timestamp\n        /* \"Parkinglot.sol\":1404:1408  spot */\n      dup2\n        /* \"Parkinglot.sol\":1404:1420  spot.checkinTime */\n      0x02\n      add\n        /* \"Parkinglot.sol\":1404:1438  spot.checkinTime = block.timestamp */\n      dup2\n      swap1\n      sstore\n      pop\n        /* \"Parkinglot.sol\":1475:1485  msg.sender */\n      caller\n        /* \"Parkinglot.sol\":1456:1486  checkedIn(_spotId, msg.sender) */\n      0xffffffffffffffffffffffffffffffffffffffff\n      and\n        /* \"Parkinglot.sol\":1466:1473  _spotId */\n      dup3\n        /* \"Parkinglot.sol\":1456:1486  checkedIn(_spotId, msg.sender) */\n      0x088bcc30e88b58300f96dd11a5cfb0eb4fd1dd02e1417103f9dbc93c235b1f8c\n      mload(0x40)\n      mload(0x40)\n      dup1\n      swap2\n      sub\n      swap1\n      log3\n        /* \"Parkinglot.sol\":1134:1494  {... */\n      pop\n        /* \"Parkinglot.sol\":1066:1494  function checkIn(uint256 _spotId)... */\n      pop\n      jump\t// out\n        /* \"Parkinglot.sol\":345:396  mapping(uint256 => ParkingSpot) public parkingSpots */\n    tag_42:\n      mstore(0x20, 0x03)\n      dup1\n      0x00\n      mstore\n      keccak256(0x00, 0x40)\n      0x00\n      swap2\n      pop\n      swap1\n      pop\n      dup1\n      0x00\n      add\n      sload\n      swap1\n      dup1\n      0x01\n      add\n      0x00\n      swap1\n      sload\n      swap1\n      0x0100\n      exp\n      swap1\n      div\n      0xffffffffffffffffffffffffffffffffffffffff\n      and\n      swap1\n      dup1\n      0x02\n      add\n      sload\n      swap1\n      dup1\n      0x03\n      add\n      0x00\n      swap1\n      sload\n      swap1\n      0x0100\n      exp\n      swap1\n      div\n      0xff\n      and\n      swap1\n      pop\n      dup5\n      jump\t// out\n        /* \"#utility.yul\":88:205   */\n    tag_82:\n        /* \"#utility.yul\":197:198   */\n      0x00\n        /* \"#utility.yul\":194:195   */\n      dup1\n        /* \"#utility.yul\":187:199   */\n      revert\n        /* \"#utility.yul\":334:411   */\n    tag_84:\n        /* \"#utility.yul\":371:378   */\n      0x00\n        /* \"#utility.yul\":400:405   */\n      dup2\n        /* \"#utility.yul\":389:405   */\n      swap1\n      pop\n        /* \"#utility.yul\":334:411   */\n      swap2\n      swap1\n      pop\n      jump\t// out\n        /* \"#utility.yul\":417:539   */\n    tag_85:\n        /* \"#utility.yul\":490:514   */\n      tag_111\n        /* \"#utility.yul\":508:513   */\n      dup2\n        /* \"#utility.yul\":490:514   */\n      tag_84\n      jump\t// in\n    tag_111:\n        /* \"#utility.yul\":483:488   */\n      dup2\n        /* \"#utility.yul\":480:515   */\n      eq\n        /* \"#utility.yul\":470:533   */\n      tag_112\n      jumpi\n        /* \"#utility.yul\":529:530   */\n      0x00\n        /* \"#utility.yul\":526:527   */\n      dup1\n        /* \"#utility.yul\":519:531   */\n      revert\n        /* \"#utility.yul\":470:533   */\n    tag_112:\n        /* \"#utility.yul\":417:539   */\n      pop\n      jump\t// out\n        /* \"#utility.yul\":545:684   */\n    tag_86:\n        /* \"#utility.yul\":591:596   */\n      0x00\n        /* \"#utility.yul\":629:635   */\n      dup2\n        /* \"#utility.yul\":616:636   */\n      calldataload\n        /* \"#utility.yul\":607:636   */\n      swap1\n      pop\n        /* \"#utility.yul\":645:678   */\n      tag_114\n        /* \"#utility.yul\":672:677   */\n      dup2\n        /* \"#utility.yul\":645:678   */\n      tag_85\n      jump\t// in\n    tag_114:\n        /* \"#utility.yul\":545:684   */\n      swap3\n      swap2\n      pop\n      pop\n      jump\t// out\n        /* \"#utility.yul\":690:1019   */\n    tag_14:\n        /* \"#utility.yul\":749:755   */\n      0x00\n        /* \"#utility.yul\":798:800   */\n      0x20\n        /* \"#utility.yul\":786:795   */\n      dup3\n        /* \"#utility.yul\":777:784   */\n      dup5\n        /* \"#utility.yul\":773:796   */\n      sub\n        /* \"#utility.yul\":769:801   */\n      slt\n        /* \"#utility.yul\":766:885   */\n      iszero\n      tag_116\n      jumpi\n        /* \"#utility.yul\":804:883   */\n      tag_117\n      tag_82\n      jump\t// in\n    tag_117:\n        /* \"#utility.yul\":766:885   */\n    tag_116:\n        /* \"#utility.yul\":924:925   */\n      0x00\n        /* \"#utility.yul\":949:1002   */\n      tag_118\n        /* \"#utility.yul\":994:1001   */\n      dup5\n        /* \"#utility.yul\":985:991   */\n      dup3\n        /* \"#utility.yul\":974:983   */\n      dup6\n        /* \"#utility.yul\":970:992   */\n      add\n        /* \"#utility.yul\":949:1002   */\n      tag_86\n      jump\t// in\n    tag_118:\n        /* \"#utility.yul\":939:1002   */\n      swap2\n      pop\n        /* \"#utility.yul\":895:1012   */\n      pop\n        /* \"#utility.yul\":690:1019   */\n      swap3\n      swap2\n      pop\n      pop\n      jump\t// out\n        /* \"#utility.yul\":1025:1143   */\n    tag_87:\n        /* \"#utility.yul\":1112:1136   */\n      tag_120\n        /* \"#utility.yul\":1130:1135   */\n      dup2\n        /* \"#utility.yul\":1112:1136   */\n      tag_84\n      jump\t// in\n    tag_120:\n        /* \"#utility.yul\":1107:1110   */\n      dup3\n        /* \"#utility.yul\":1100:1137   */\n      mstore\n        /* \"#utility.yul\":1025:1143   */\n      pop\n      pop\n      jump\t// out\n        /* \"#utility.yul\":1149:1371   */\n    tag_23:\n        /* \"#utility.yul\":1242:1246   */\n      0x00\n        /* \"#utility.yul\":1280:1282   */\n      0x20\n        /* \"#utility.yul\":1269:1278   */\n      dup3\n        /* \"#utility.yul\":1265:1283   */\n      add\n        /* \"#utility.yul\":1257:1283   */\n      swap1\n      pop\n        /* \"#utility.yul\":1293:1364   */\n      tag_122\n        /* \"#utility.yul\":1361:1362   */\n      0x00\n        /* \"#utility.yul\":1350:1359   */\n      dup4\n        /* \"#utility.yul\":1346:1363   */\n      add\n        /* \"#utility.yul\":1337:1343   */\n      dup5\n        /* \"#utility.yul\":1293:1364   */\n      tag_87\n      jump\t// in\n    tag_122:\n        /* \"#utility.yul\":1149:1371   */\n      swap3\n      swap2\n      pop\n      pop\n      jump\t// out\n        /* \"#utility.yul\":1377:1503   */\n    tag_88:\n        /* \"#utility.yul\":1414:1421   */\n      0x00\n        /* \"#utility.yul\":1454:1496   */\n      0xffffffffffffffffffffffffffffffffffffffff\n        /* \"#utility.yul\":1447:1452   */\n      dup3\n        /* \"#utility.yul\":1443:1497   */\n      and\n        /* \"#utility.yul\":1432:1497   */\n      swap1\n      pop\n        /* \"#utility.yul\":1377:1503   */\n      swap2\n      swap1\n      pop\n      jump\t// out\n        /* \"#utility.yul\":1509:1605   */\n    tag_89:\n        /* \"#utility.yul\":1546:1553   */\n      0x00\n        /* \"#utility.yul\":1575:1599   */\n      tag_125\n        /* \"#utility.yul\":1593:1598   */\n      dup3\n        /* \"#utility.yul\":1575:1599   */\n      tag_88\n      jump\t// in\n    tag_125:\n        /* \"#utility.yul\":1564:1599   */\n      swap1\n      pop\n        /* \"#utility.yul\":1509:1605   */\n      swap2\n      swap1\n      pop\n      jump\t// out\n        /* \"#utility.yul\":1611:1729   */\n    tag_90:\n        /* \"#utility.yul\":1698:1722   */\n      tag_127\n        /* \"#utility.yul\":1716:1721   */\n      dup2\n        /* \"#utility.yul\":1698:1722   */\n      tag_89\n      jump\t// in\n    tag_127:\n        /* \"#utility.yul\":1693:1696   */\n      dup3\n        /* \"#utility.yul\":1686:1723   */\n      mstore\n        /* \"#utility.yul\":1611:1729   */\n      pop\n      pop\n      jump\t// out\n        /* \"#utility.yul\":1735:1957   */\n    tag_31:\n        /* \"#utility.yul\":1828:1832   */\n      0x00\n        /* \"#utility.yul\":1866:1868   */\n      0x20\n        /* \"#utility.yul\":1855:1864   */\n      dup3\n        /* \"#utility.yul\":1851:1869   */\n      add\n        /* \"#utility.yul\":1843:1869   */\n      swap1\n      pop\n        /* \"#utility.yul\":1879:1950   */\n      tag_129\n        /* \"#utility.yul\":1947:1948   */\n      0x00\n        /* \"#utility.yul\":1936:1945   */\n      dup4\n        /* \"#utility.yul\":1932:1949   */\n      add\n        /* \"#utility.yul\":1923:1929   */\n      dup5\n        /* \"#utility.yul\":1879:1950   */\n      tag_90\n      jump\t// in\n    tag_129:\n        /* \"#utility.yul\":1735:1957   */\n      swap3\n      swap2\n      pop\n      pop\n      jump\t// out\n        /* \"#utility.yul\":1963:2053   */\n    tag_91:\n        /* \"#utility.yul\":1997:2004   */\n      0x00\n        /* \"#utility.yul\":2040:2045   */\n      dup2\n        /* \"#utility.yul\":2033:2046   */\n      iszero\n        /* \"#utility.yul\":2026:2047   */\n      iszero\n        /* \"#utility.yul\":2015:2047   */\n      swap1\n      pop\n        /* \"#utility.yul\":1963:2053   */\n      swap2\n      swap1\n      pop\n      jump\t// out\n        /* \"#utility.yul\":2059:2168   */\n    tag_92:\n        /* \"#utility.yul\":2140:2161   */\n      tag_132\n        /* \"#utility.yul\":2155:2160   */\n      dup2\n        /* \"#utility.yul\":2140:2161   */\n      tag_91\n      jump\t// in\n    tag_132:\n        /* \"#utility.yul\":2135:2138   */\n      dup3\n        /* \"#utility.yul\":2128:2162   */\n      mstore\n        /* \"#utility.yul\":2059:2168   */\n      pop\n      pop\n      jump\t// out\n        /* \"#utility.yul\":2174:2715   */\n    tag_44:\n        /* \"#utility.yul\":2345:2349   */\n      0x00\n        /* \"#utility.yul\":2383:2386   */\n      0x80\n        /* \"#utility.yul\":2372:2381   */\n      dup3\n        /* \"#utility.yul\":2368:2387   */\n      add\n        /* \"#utility.yul\":2360:2387   */\n      swap1\n      pop\n        /* \"#utility.yul\":2397:2468   */\n      tag_134\n        /* \"#utility.yul\":2465:2466   */\n      0x00\n        /* \"#utility.yul\":2454:2463   */\n      dup4\n        /* \"#utility.yul\":2450:2467   */\n      add\n        /* \"#utility.yul\":2441:2447   */\n      dup8\n        /* \"#utility.yul\":2397:2468   */\n      tag_87\n      jump\t// in\n    tag_134:\n        /* \"#utility.yul\":2478:2550   */\n      tag_135\n        /* \"#utility.yul\":2546:2548   */\n      0x20\n        /* \"#utility.yul\":2535:2544   */\n      dup4\n        /* \"#utility.yul\":2531:2549   */\n      add\n        /* \"#utility.yul\":2522:2528   */\n      dup7\n        /* \"#utility.yul\":2478:2550   */\n      tag_90\n      jump\t// in\n    tag_135:\n        /* \"#utility.yul\":2560:2632   */\n      tag_136\n        /* \"#utility.yul\":2628:2630   */\n      0x40\n        /* \"#utility.yul\":2617:2626   */\n      dup4\n        /* \"#utility.yul\":2613:2631   */\n      add\n        /* \"#utility.yul\":2604:2610   */\n      dup6\n        /* \"#utility.yul\":2560:2632   */\n      tag_87\n      jump\t// in\n    tag_136:\n        /* \"#utility.yul\":2642:2708   */\n      tag_137\n        /* \"#utility.yul\":2704:2706   */\n      0x60\n        /* \"#utility.yul\":2693:2702   */\n      dup4\n        /* \"#utility.yul\":2689:2707   */\n      add\n        /* \"#utility.yul\":2680:2686   */\n      dup5\n        /* \"#utility.yul\":2642:2708   */\n      tag_92\n      jump\t// in\n    tag_137:\n        /* \"#utility.yul\":2174:2715   */\n      swap6\n      swap5\n      pop\n      pop\n      pop\n      pop\n      pop\n      jump\t// out\n        /* \"#utility.yul\":2721:2890   */\n    tag_93:\n        /* \"#utility.yul\":2805:2816   */\n      0x00\n        /* \"#utility.yul\":2839:2845   */\n      dup3\n        /* \"#utility.yul\":2834:2837   */\n      dup3\n        /* \"#utility.yul\":2827:2846   */\n      mstore\n        /* \"#utility.yul\":2879:2883   */\n      0x20\n        /* \"#utility.yul\":2874:2877   */\n      dup3\n        /* \"#utility.yul\":2870:2884   */\n      add\n        /* \"#utility.yul\":2855:2884   */\n      swap1\n      pop\n        /* \"#utility.yul\":2721:2890   */\n      swap3\n      swap2\n      pop\n      pop\n      jump\t// out\n        /* \"#utility.yul\":2896:3074   */\n    tag_94:\n        /* \"#utility.yul\":3036:3066   */\n      0x4e6f7420746865206f63637570616e74206f64207468652073706f7400000000\n        /* \"#utility.yul\":3032:3033   */\n      0x00\n        /* \"#utility.yul\":3024:3030   */\n      dup3\n        /* \"#utility.yul\":3020:3034   */\n      add\n        /* \"#utility.yul\":3013:3067   */\n      mstore\n        /* \"#utility.yul\":2896:3074   */\n      pop\n      jump\t// out\n        /* \"#utility.yul\":3080:3446   */\n    tag_95:\n        /* \"#utility.yul\":3222:3225   */\n      0x00\n        /* \"#utility.yul\":3243:3310   */\n      tag_141\n        /* \"#utility.yul\":3307:3309   */\n      0x1c\n        /* \"#utility.yul\":3302:3305   */\n      dup4\n        /* \"#utility.yul\":3243:3310   */\n      tag_93\n      jump\t// in\n    tag_141:\n        /* \"#utility.yul\":3236:3310   */\n      swap2\n      pop\n        /* \"#utility.yul\":3319:3412   */\n      tag_142\n        /* \"#utility.yul\":3408:3411   */\n      dup3\n        /* \"#utility.yul\":3319:3412   */\n      tag_94\n      jump\t// in\n    tag_142:\n        /* \"#utility.yul\":3437:3439   */\n      0x20\n        /* \"#utility.yul\":3432:3435   */\n      dup3\n        /* \"#utility.yul\":3428:3440   */\n      add\n        /* \"#utility.yul\":3421:3440   */\n      swap1\n      pop\n        /* \"#utility.yul\":3080:3446   */\n      swap2\n      swap1\n      pop\n      jump\t// out\n        /* \"#utility.yul\":3452:3871   */\n    tag_49:\n        /* \"#utility.yul\":3618:3622   */\n      0x00\n        /* \"#utility.yul\":3656:3658   */\n      0x20\n        /* \"#utility.yul\":3645:3654   */\n      dup3\n        /* \"#utility.yul\":3641:3659   */\n      add\n        /* \"#utility.yul\":3633:3659   */\n      swap1\n      pop\n        /* \"#utility.yul\":3705:3714   */\n      dup2\n        /* \"#utility.yul\":3699:3703   */\n      dup2\n        /* \"#utility.yul\":3695:3715   */\n      sub\n        /* \"#utility.yul\":3691:3692   */\n      0x00\n        /* \"#utility.yul\":3680:3689   */\n      dup4\n        /* \"#utility.yul\":3676:3693   */\n      add\n        /* \"#utility.yul\":3669:3716   */\n      mstore\n        /* \"#utility.yul\":3733:3864   */\n      tag_144\n        /* \"#utility.yul\":3859:3863   */\n      dup2\n        /* \"#utility.yul\":3733:3864   */\n      tag_95\n      jump\t// in\n    tag_144:\n        /* \"#utility.yul\":3725:3864   */\n      swap1\n      pop\n        /* \"#utility.yul\":3452:3871   */\n      swap2\n      swap1\n      pop\n      jump\t// out\n        /* \"#utility.yul\":3877:4057   */\n    tag_96:\n        /* \"#utility.yul\":3925:4002   */\n      0x4e487b7100000000000000000000000000000000000000000000000000000000\n        /* \"#utility.yul\":3922:3923   */\n      0x00\n        /* \"#utility.yul\":3915:4003   */\n      mstore\n        /* \"#utility.yul\":4022:4026   */\n      0x11\n        /* \"#utility.yul\":4019:4020   */\n      0x04\n        /* \"#utility.yul\":4012:4027   */\n      mstore\n        /* \"#utility.yul\":4046:4050   */\n      0x24\n        /* \"#utility.yul\":4043:4044   */\n      0x00\n        /* \"#utility.yul\":4036:4051   */\n      revert\n        /* \"#utility.yul\":4063:4257   */\n    tag_51:\n        /* \"#utility.yul\":4103:4107   */\n      0x00\n        /* \"#utility.yul\":4123:4143   */\n      tag_147\n        /* \"#utility.yul\":4141:4142   */\n      dup3\n        /* \"#utility.yul\":4123:4143   */\n      tag_84\n      jump\t// in\n    tag_147:\n        /* \"#utility.yul\":4118:4143   */\n      swap2\n      pop\n        /* \"#utility.yul\":4157:4177   */\n      tag_148\n        /* \"#utility.yul\":4175:4176   */\n      dup4\n        /* \"#utility.yul\":4157:4177   */\n      tag_84\n      jump\t// in\n    tag_148:\n        /* \"#utility.yul\":4152:4177   */\n      swap3\n      pop\n        /* \"#utility.yul\":4201:4202   */\n      dup3\n        /* \"#utility.yul\":4198:4199   */\n      dup3\n        /* \"#utility.yul\":4194:4203   */\n      sub\n        /* \"#utility.yul\":4186:4203   */\n      swap1\n      pop\n        /* \"#utility.yul\":4225:4226   */\n      dup2\n        /* \"#utility.yul\":4219:4223   */\n      dup2\n        /* \"#utility.yul\":4216:4227   */\n      gt\n        /* \"#utility.yul\":4213:4250   */\n      iszero\n      tag_149\n      jumpi\n        /* \"#utility.yul\":4230:4248   */\n      tag_150\n      tag_96\n      jump\t// in\n    tag_150:\n        /* \"#utility.yul\":4213:4250   */\n    tag_149:\n        /* \"#utility.yul\":4063:4257   */\n      swap3\n      swap2\n      pop\n      pop\n      jump\t// out\n        /* \"#utility.yul\":4263:4673   */\n    tag_53:\n        /* \"#utility.yul\":4303:4310   */\n      0x00\n        /* \"#utility.yul\":4326:4346   */\n      tag_152\n        /* \"#utility.yul\":4344:4345   */\n      dup3\n        /* \"#utility.yul\":4326:4346   */\n      tag_84\n      jump\t// in\n    tag_152:\n        /* \"#utility.yul\":4321:4346   */\n      swap2\n      pop\n        /* \"#utility.yul\":4360:4380   */\n      tag_153\n        /* \"#utility.yul\":4378:4379   */\n      dup4\n        /* \"#utility.yul\":4360:4380   */\n      tag_84\n      jump\t// in\n    tag_153:\n        /* \"#utility.yul\":4355:4380   */\n      swap3\n      pop\n        /* \"#utility.yul\":4415:4416   */\n      dup3\n        /* \"#utility.yul\":4412:4413   */\n      dup3\n        /* \"#utility.yul\":4408:4417   */\n      mul\n        /* \"#utility.yul\":4437:4467   */\n      tag_154\n        /* \"#utility.yul\":4455:4466   */\n      dup2\n        /* \"#utility.yul\":4437:4467   */\n      tag_84\n      jump\t// in\n    tag_154:\n        /* \"#utility.yul\":4426:4467   */\n      swap2\n      pop\n        /* \"#utility.yul\":4616:4617   */\n      dup3\n        /* \"#utility.yul\":4607:4614   */\n      dup3\n        /* \"#utility.yul\":4603:4618   */\n      div\n        /* \"#utility.yul\":4600:4601   */\n      dup5\n        /* \"#utility.yul\":4597:4619   */\n      eq\n        /* \"#utility.yul\":4577:4578   */\n      dup4\n        /* \"#utility.yul\":4570:4579   */\n      iszero\n        /* \"#utility.yul\":4550:4633   */\n      or\n        /* \"#utility.yul\":4527:4666   */\n      tag_155\n      jumpi\n        /* \"#utility.yul\":4646:4664   */\n      tag_156\n      tag_96\n      jump\t// in\n    tag_156:\n        /* \"#utility.yul\":4527:4666   */\n    tag_155:\n        /* \"#utility.yul\":4311:4673   */\n      pop\n        /* \"#utility.yul\":4263:4673   */\n      swap3\n      swap2\n      pop\n      pop\n      jump\t// out\n        /* \"#utility.yul\":4679:4858   */\n    tag_97:\n        /* \"#utility.yul\":4819:4850   */\n      0x436f6e74726163742062616c616e636520496e73756666696369656e74000000\n        /* \"#utility.yul\":4815:4816   */\n      0x00\n        /* \"#utility.yul\":4807:4813   */\n      dup3\n        /* \"#utility.yul\":4803:4817   */\n      add\n        /* \"#utility.yul\":4796:4851   */\n      mstore\n        /* \"#utility.yul\":4679:4858   */\n      pop\n      jump\t// out\n        /* \"#utility.yul\":4864:5230   */\n    tag_98:\n        /* \"#utility.yul\":5006:5009   */\n      0x00\n        /* \"#utility.yul\":5027:5094   */\n      tag_159\n        /* \"#utility.yul\":5091:5093   */\n      0x1d\n        /* \"#utility.yul\":5086:5089   */\n      dup4\n        /* \"#utility.yul\":5027:5094   */\n      tag_93\n      jump\t// in\n    tag_159:\n        /* \"#utility.yul\":5020:5094   */\n      swap2\n      pop\n        /* \"#utility.yul\":5103:5196   */\n      tag_160\n        /* \"#utility.yul\":5192:5195   */\n      dup3\n        /* \"#utility.yul\":5103:5196   */\n      tag_97\n      jump\t// in\n    tag_160:\n        /* \"#utility.yul\":5221:5223   */\n      0x20\n        /* \"#utility.yul\":5216:5219   */\n      dup3\n        /* \"#utility.yul\":5212:5224   */\n      add\n        /* \"#utility.yul\":5205:5224   */\n      swap1\n      pop\n        /* \"#utility.yul\":4864:5230   */\n      swap2\n      swap1\n      pop\n      jump\t// out\n        /* \"#utility.yul\":5236:5655   */\n    tag_56:\n        /* \"#utility.yul\":5402:5406   */\n      0x00\n        /* \"#utility.yul\":5440:5442   */\n      0x20\n        /* \"#utility.yul\":5429:5438   */\n      dup3\n        /* \"#utility.yul\":5425:5443   */\n      add\n        /* \"#utility.yul\":5417:5443   */\n      swap1\n      pop\n        /* \"#utility.yul\":5489:5498   */\n      dup2\n        /* \"#utility.yul\":5483:5487   */\n      dup2\n        /* \"#utility.yul\":5479:5499   */\n      sub\n        /* \"#utility.yul\":5475:5476   */\n      0x00\n        /* \"#utility.yul\":5464:5473   */\n      dup4\n        /* \"#utility.yul\":5460:5477   */\n      add\n        /* \"#utility.yul\":5453:5500   */\n      mstore\n        /* \"#utility.yul\":5517:5648   */\n      tag_162\n        /* \"#utility.yul\":5643:5647   */\n      dup2\n        /* \"#utility.yul\":5517:5648   */\n      tag_98\n      jump\t// in\n    tag_162:\n        /* \"#utility.yul\":5509:5648   */\n      swap1\n      pop\n        /* \"#utility.yul\":5236:5655   */\n      swap2\n      swap1\n      pop\n      jump\t// out\n        /* \"#utility.yul\":5661:5993   */\n    tag_60:\n        /* \"#utility.yul\":5782:5786   */\n      0x00\n        /* \"#utility.yul\":5820:5822   */\n      0x40\n        /* \"#utility.yul\":5809:5818   */\n      dup3\n        /* \"#utility.yul\":5805:5823   */\n      add\n        /* \"#utility.yul\":5797:5823   */\n      swap1\n      pop\n        /* \"#utility.yul\":5833:5904   */\n      tag_164\n        /* \"#utility.yul\":5901:5902   */\n      0x00\n        /* \"#utility.yul\":5890:5899   */\n      dup4\n        /* \"#utility.yul\":5886:5903   */\n      add\n        /* \"#utility.yul\":5877:5883   */\n      dup6\n        /* \"#utility.yul\":5833:5904   */\n      tag_87\n      jump\t// in\n    tag_164:\n        /* \"#utility.yul\":5914:5986   */\n      tag_165\n        /* \"#utility.yul\":5982:5984   */\n      0x20\n        /* \"#utility.yul\":5971:5980   */\n      dup4\n        /* \"#utility.yul\":5967:5985   */\n      add\n        /* \"#utility.yul\":5958:5964   */\n      dup5\n        /* \"#utility.yul\":5914:5986   */\n      tag_87\n      jump\t// in\n    tag_165:\n        /* \"#utility.yul\":5661:5993   */\n      swap4\n      swap3\n      pop\n      pop\n      pop\n      jump\t// out\n        /* \"#utility.yul\":5999:6219   */\n    tag_99:\n        /* \"#utility.yul\":6139:6173   */\n      0x4f6e6c79206f776e65722063616e2063616c6c20746869732066756e6374696f\n        /* \"#utility.yul\":6135:6136   */\n      0x00\n        /* \"#utility.yul\":6127:6133   */\n      dup3\n        /* \"#utility.yul\":6123:6137   */\n      add\n        /* \"#utility.yul\":6116:6174   */\n      mstore\n        /* \"#utility.yul\":6208:6211   */\n      0x6e00000000000000000000000000000000000000000000000000000000000000\n        /* \"#utility.yul\":6203:6205   */\n      0x20\n        /* \"#utility.yul\":6195:6201   */\n      dup3\n        /* \"#utility.yul\":6191:6206   */\n      add\n        /* \"#utility.yul\":6184:6212   */\n      mstore\n        /* \"#utility.yul\":5999:6219   */\n      pop\n      jump\t// out\n        /* \"#utility.yul\":6225:6591   */\n    tag_100:\n        /* \"#utility.yul\":6367:6370   */\n      0x00\n        /* \"#utility.yul\":6388:6455   */\n      tag_168\n        /* \"#utility.yul\":6452:6454   */\n      0x21\n        /* \"#utility.yul\":6447:6450   */\n      dup4\n        /* \"#utility.yul\":6388:6455   */\n      tag_93\n      jump\t// in\n    tag_168:\n        /* \"#utility.yul\":6381:6455   */\n      swap2\n      pop\n        /* \"#utility.yul\":6464:6557   */\n      tag_169\n        /* \"#utility.yul\":6553:6556   */\n      dup3\n        /* \"#utility.yul\":6464:6557   */\n      tag_99\n      jump\t// in\n    tag_169:\n        /* \"#utility.yul\":6582:6584   */\n      0x40\n        /* \"#utility.yul\":6577:6580   */\n      dup3\n        /* \"#utility.yul\":6573:6585   */\n      add\n        /* \"#utility.yul\":6566:6585   */\n      swap1\n      pop\n        /* \"#utility.yul\":6225:6591   */\n      swap2\n      swap1\n      pop\n      jump\t// out\n        /* \"#utility.yul\":6597:7016   */\n    tag_64:\n        /* \"#utility.yul\":6763:6767   */\n      0x00\n        /* \"#utility.yul\":6801:6803   */\n      0x20\n        /* \"#utility.yul\":6790:6799   */\n      dup3\n        /* \"#utility.yul\":6786:6804   */\n      add\n        /* \"#utility.yul\":6778:6804   */\n      swap1\n      pop\n        /* \"#utility.yul\":6850:6859   */\n      dup2\n        /* \"#utility.yul\":6844:6848   */\n      dup2\n        /* \"#utility.yul\":6840:6860   */\n      sub\n        /* \"#utility.yul\":6836:6837   */\n      0x00\n        /* \"#utility.yul\":6825:6834   */\n      dup4\n        /* \"#utility.yul\":6821:6838   */\n      add\n        /* \"#utility.yul\":6814:6861   */\n      mstore\n        /* \"#utility.yul\":6878:7009   */\n      tag_171\n        /* \"#utility.yul\":7004:7008   */\n      dup2\n        /* \"#utility.yul\":6878:7009   */\n      tag_100\n      jump\t// in\n    tag_171:\n        /* \"#utility.yul\":6870:7009   */\n      swap1\n      pop\n        /* \"#utility.yul\":6597:7016   */\n      swap2\n      swap1\n      pop\n      jump\t// out\n        /* \"#utility.yul\":7022:7255   */\n    tag_73:\n        /* \"#utility.yul\":7061:7064   */\n      0x00\n        /* \"#utility.yul\":7084:7108   */\n      tag_173\n        /* \"#utility.yul\":7102:7107   */\n      dup3\n        /* \"#utility.yul\":7084:7108   */\n      tag_84\n      jump\t// in\n    tag_173:\n        /* \"#utility.yul\":7075:7108   */\n      swap2\n      pop\n        /* \"#utility.yul\":7130:7196   */\n      0xffffffffffffffffffffffffffffffffffffffffffffffffffffffffffffffff\n        /* \"#utility.yul\":7123:7128   */\n      dup3\n        /* \"#utility.yul\":7120:7197   */\n      sub\n        /* \"#utility.yul\":7117:7220   */\n      tag_174\n      jumpi\n        /* \"#utility.yul\":7200:7218   */\n      tag_175\n      tag_96\n      jump\t// in\n    tag_175:\n        /* \"#utility.yul\":7117:7220   */\n    tag_174:\n        /* \"#utility.yul\":7247:7248   */\n      0x01\n        /* \"#utility.yul\":7240:7245   */\n      dup3\n        /* \"#utility.yul\":7236:7249   */\n      add\n        /* \"#utility.yul\":7229:7249   */\n      swap1\n      pop\n        /* \"#utility.yul\":7022:7255   */\n      swap2\n      swap1\n      pop\n      jump\t// out\n        /* \"#utility.yul\":7261:7435   */\n    tag_101:\n        /* \"#utility.yul\":7401:7427   */\n      0x53706f7420697320616c7265616479206f636375706965640000000000000000\n        /* \"#utility.yul\":7397:7398   */\n      0x00\n        /* \"#utility.yul\":7389:7395   */\n      dup3\n        /* \"#utility.yul\":7385:7399   */\n      add\n        /* \"#utility.yul\":7378:7428   */\n      mstore\n        /* \"#utility.yul\":7261:7435   */\n      pop\n      jump\t// out\n        /* \"#utility.yul\":7441:7807   */\n    tag_102:\n        /* \"#utility.yul\":7583:7586   */\n      0x00\n        /* \"#utility.yul\":7604:7671   */\n      tag_178\n        /* \"#utility.yul\":7668:7670   */\n      0x18\n        /* \"#utility.yul\":7663:7666   */\n      dup4\n        /* \"#utility.yul\":7604:7671   */\n      tag_93\n      jump\t// in\n    tag_178:\n        /* \"#utility.yul\":7597:7671   */\n      swap2\n      pop\n        /* \"#utility.yul\":7680:7773   */\n      tag_179\n        /* \"#utility.yul\":7769:7772   */\n      dup3\n        /* \"#utility.yul\":7680:7773   */\n      tag_101\n      jump\t// in\n    tag_179:\n        /* \"#utility.yul\":7798:7800   */\n      0x20\n        /* \"#utility.yul\":7793:7796   */\n      dup3\n        /* \"#utility.yul\":7789:7801   */\n      add\n        /* \"#utility.yul\":7782:7801   */\n      swap1\n      pop\n        /* \"#utility.yul\":7441:7807   */\n      swap2\n      swap1\n      pop\n      jump\t// out\n        /* \"#utility.yul\":7813:8232   */\n    tag_77:\n        /* \"#utility.yul\":7979:7983   */\n      0x00\n        /* \"#utility.yul\":8017:8019   */\n      0x20\n        /* \"#utility.yul\":8006:8015   */\n      dup3\n        /* \"#utility.yul\":8002:8020   */\n      add\n        /* \"#utility.yul\":7994:8020   */\n      swap1\n      pop\n        /* \"#utility.yul\":8066:8075   */\n      dup2\n        /* \"#utility.yul\":8060:8064   */\n      dup2\n        /* \"#utility.yul\":8056:8076   */\n      sub\n        /* \"#utility.yul\":8052:8053   */\n      0x00\n        /* \"#utility.yul\":8041:8050   */\n      dup4\n        /* \"#utility.yul\":8037:8054   */\n      add\n        /* \"#utility.yul\":8030:8077   */\n      mstore\n        /* \"#utility.yul\":8094:8225   */\n      tag_181\n        /* \"#utility.yul\":8220:8224   */\n      dup2\n        /* \"#utility.yul\":8094:8225   */\n      tag_102\n      jump\t// in\n    tag_181:\n        /* \"#utility.yul\":8086:8225   */\n      swap1\n      pop\n        /* \"#utility.yul\":7813:8232   */\n      swap2\n      swap1\n      pop\n      jump\t// out\n        /* \"#utility.yul\":8238:8405   */\n    tag_103:\n        /* \"#utility.yul\":8378:8397   */\n      0x496e636f7272656374205061796d656e74000000000000000000000000000000\n        /* \"#utility.yul\":8374:8375   */\n      0x00\n        /* \"#utility.yul\":8366:8372   */\n      dup3\n        /* \"#utility.yul\":8362:8376   */\n      add\n        /* \"#utility.yul\":8355:8398   */\n      mstore\n        /* \"#utility.yul\":8238:8405   */\n      pop\n      jump\t// out\n        /* \"#utility.yul\":8411:8777   */\n    tag_104:\n        /* \"#utility.yul\":8553:8556   */\n      0x00\n        /* \"#utility.yul\":8574:8641   */\n      tag_184\n        /* \"#utility.yul\":8638:8640   */\n      0x11\n        /* \"#utility.yul\":8633:8636   */\n      dup4\n        /* \"#utility.yul\":8574:8641   */\n      tag_93\n      jump\t// in\n    tag_184:\n        /* \"#utility.yul\":8567:8641   */\n      swap2\n      pop\n        /* \"#utility.yul\":8650:8743   */\n      tag_185\n        /* \"#utility.yul\":8739:8742   */\n      dup3\n        /* \"#utility.yul\":8650:8743   */\n      tag_103\n      jump\t// in\n    tag_185:\n        /* \"#utility.yul\":8768:8770   */\n      0x20\n        /* \"#utility.yul\":8763:8766   */\n      dup3\n        /* \"#utility.yul\":8759:8771   */\n      add\n        /* \"#utility.yul\":8752:8771   */\n      swap1\n      pop\n        /* \"#utility.yul\":8411:8777   */\n      swap2\n      swap1\n      pop\n      jump\t// out\n        /* \"#utility.yul\":8783:9202   */\n    tag_80:\n        /* \"#utility.yul\":8949:8953   */\n      0x00\n        /* \"#utility.yul\":8987:8989   */\n      0x20\n        /* \"#utility.yul\":8976:8985   */\n      dup3\n        /* \"#utility.yul\":8972:8990   */\n      add\n        /* \"#utility.yul\":8964:8990   */\n      swap1\n      pop\n        /* \"#utility.yul\":9036:9045   */\n      dup2\n        /* \"#utility.yul\":9030:9034   */\n      dup2\n        /* \"#utility.yul\":9026:9046   */\n      sub\n        /* \"#utility.yul\":9022:9023   */\n      0x00\n        /* \"#utility.yul\":9011:9020   */\n      dup4\n        /* \"#utility.yul\":9007:9024   */\n      add\n        /* \"#utility.yul\":9000:9047   */\n      mstore\n        /* \"#utility.yul\":9064:9195   */\n      tag_187\n        /* \"#utility.yul\":9190:9194   */\n      dup2\n        /* \"#utility.yul\":9064:9195   */\n      tag_104\n      jump\t// in\n    tag_187:\n        /* \"#utility.yul\":9056:9195   */\n      swap1\n      pop\n        /* \"#utility.yul\":8783:9202   */\n      swap2\n      swap1\n      pop\n      jump\t// out\n\n    auxdata: 0xa26469706673582212200e56e06f2fe954d6a40e339876e2e49cc11f2a0a8dedea1d2cb95c6a906aabf064736f6c63430008190033\n}\n",
				"bytecode": {
					"linkReferences": {},
					"object": "60806040525f600155670de0b6b3a7640000600255348015601e575f80fd5b50335f806101000a81548173ffffffffffffffffffffffffffffffffffffffff021916908373ffffffffffffffffffffffffffffffffffffffff160217905550610d058061006b5f395ff3fe60806040526004361061007a575f3560e01c80638da5cb5b1161004d5780638da5cb5b146100fc578063ceb751da14610126578063e95a644f14610150578063f5defcd31461016c5761007a565b80631bd2eeee1461007e57806324600fc3146100a657806367b7babb146100bc57806374777614146100e6575b5f80fd5b348015610089575f80fd5b506100a4600480360381019061009f919061087a565b6101ab565b005b3480156100b1575f80fd5b506100ba6103d1565b005b3480156100c7575f80fd5b506100d06104c8565b6040516100dd91906108b4565b60405180910390f35b3480156100f1575f80fd5b506100fa6104ce565b005b348015610107575f80fd5b5061011061066b565b60405161011d919061090c565b60405180910390f35b348015610131575f80fd5b5061013a61068e565b60405161014791906108b4565b60405180910390f35b61016a6004803603810190610165919061087a565b610694565b005b348015610177575f80fd5b50610192600480360381019061018d919061087a565b6107ec565b6040516101a2949392919061093f565b60405180910390f35b5f60035f8381526020019081526020015f209050806003015f9054906101000a900460ff16801561022a57503373ffffffffffffffffffffffffffffffffffffffff16816001015f9054906101000a900473ffffffffffffffffffffffffffffffffffffffff1673ffffffffffffffffffffffffffffffffffffffff16145b610269576040517f08c379a0000000000000000000000000000000000000000000000000000000008152600401610260906109dc565b60405180910390fd5b5f81600201544261027a9190610a27565b90505f6002548261028b9190610a5a565b9050804710156102d0576040517f08c379a00000000000000000000000000000000000000000000000000000000081526004016102c790610ae5565b60405180910390fd5b5f836003015f6101000a81548160ff0219169083151502179055505f836001015f6101000a81548173ffffffffffffffffffffffffffffffffffffffff021916908373ffffffffffffffffffffffffffffffffffffffff1602179055505f83600201819055503373ffffffffffffffffffffffffffffffffffffffff166108fc8290811502906040515f60405180830381858888f19350505050158015610379573d5f803e3d5ffd5b503373ffffffffffffffffffffffffffffffffffffffff16847fbe39273e44f9601865c70432e1be89cc761325b382adf3f258b89b9750065ac284846040516103c3929190610b03565b60405180910390a350505050565b5f8054906101000a900473ffffffffffffffffffffffffffffffffffffffff1673ffffffffffffffffffffffffffffffffffffffff163373ffffffffffffffffffffffffffffffffffffffff161461045e576040517f08c379a000000000000000000000000000000000000000000000000000000000815260040161045590610b9a565b60405180910390fd5b5f4790505f8054906101000a900473ffffffffffffffffffffffffffffffffffffffff1673ffffffffffffffffffffffffffffffffffffffff166108fc8290811502906040515f60405180830381858888f193505050501580156104c4573d5f803e3d5ffd5b5050565b60015481565b5f8054906101000a900473ffffffffffffffffffffffffffffffffffffffff1673ffffffffffffffffffffffffffffffffffffffff163373ffffffffffffffffffffffffffffffffffffffff161461055b576040517f08c379a000000000000000000000000000000000000000000000000000000000815260040161055290610b9a565b60405180910390fd5b60015f81548092919061056d90610bb8565b9190505550604051806080016040528060015481526020015f73ffffffffffffffffffffffffffffffffffffffff1681526020015f81526020015f151581525060035f60015481526020019081526020015f205f820151815f01556020820151816001015f6101000a81548173ffffffffffffffffffffffffffffffffffffffff021916908373ffffffffffffffffffffffffffffffffffffffff160217905550604082015181600201556060820151816003015f6101000a81548160ff0219169083151502179055509050506001547f28d1a6f01116935efd8952d80cab2c4118924754917104df1bf73093fc102fad60405160405180910390a2565b5f8054906101000a900473ffffffffffffffffffffffffffffffffffffffff1681565b60025481565b5f60035f8381526020019081526020015f209050806003015f9054906101000a900460ff16156106f9576040517f08c379a00000000000000000000000000000000000000000000000000000000081526004016106f090610c49565b60405180910390fd5b600254341461073d576040517f08c379a000000000000000000000000000000000000000000000000000000000815260040161073490610cb1565b60405180910390fd5b6001816003015f6101000a81548160ff02191690831515021790555033816001015f6101000a81548173ffffffffffffffffffffffffffffffffffffffff021916908373ffffffffffffffffffffffffffffffffffffffff1602179055504281600201819055503373ffffffffffffffffffffffffffffffffffffffff16827f088bcc30e88b58300f96dd11a5cfb0eb4fd1dd02e1417103f9dbc93c235b1f8c60405160405180910390a35050565b6003602052805f5260405f205f91509050805f015490806001015f9054906101000a900473ffffffffffffffffffffffffffffffffffffffff1690806002015490806003015f9054906101000a900460ff16905084565b5f80fd5b5f819050919050565b61085981610847565b8114610863575f80fd5b50565b5f8135905061087481610850565b92915050565b5f6020828403121561088f5761088e610843565b5b5f61089c84828501610866565b91505092915050565b6108ae81610847565b82525050565b5f6020820190506108c75f8301846108a5565b92915050565b5f73ffffffffffffffffffffffffffffffffffffffff82169050919050565b5f6108f6826108cd565b9050919050565b610906816108ec565b82525050565b5f60208201905061091f5f8301846108fd565b92915050565b5f8115159050919050565b61093981610925565b82525050565b5f6080820190506109525f8301876108a5565b61095f60208301866108fd565b61096c60408301856108a5565b6109796060830184610930565b95945050505050565b5f82825260208201905092915050565b7f4e6f7420746865206f63637570616e74206f64207468652073706f74000000005f82015250565b5f6109c6601c83610982565b91506109d182610992565b602082019050919050565b5f6020820190508181035f8301526109f3816109ba565b9050919050565b7f4e487b71000000000000000000000000000000000000000000000000000000005f52601160045260245ffd5b5f610a3182610847565b9150610a3c83610847565b9250828203905081811115610a5457610a536109fa565b5b92915050565b5f610a6482610847565b9150610a6f83610847565b9250828202610a7d81610847565b91508282048414831517610a9457610a936109fa565b5b5092915050565b7f436f6e74726163742062616c616e636520496e73756666696369656e740000005f82015250565b5f610acf601d83610982565b9150610ada82610a9b565b602082019050919050565b5f6020820190508181035f830152610afc81610ac3565b9050919050565b5f604082019050610b165f8301856108a5565b610b2360208301846108a5565b9392505050565b7f4f6e6c79206f776e65722063616e2063616c6c20746869732066756e6374696f5f8201527f6e00000000000000000000000000000000000000000000000000000000000000602082015250565b5f610b84602183610982565b9150610b8f82610b2a565b604082019050919050565b5f6020820190508181035f830152610bb181610b78565b9050919050565b5f610bc282610847565b91507fffffffffffffffffffffffffffffffffffffffffffffffffffffffffffffffff8203610bf457610bf36109fa565b5b600182019050919050565b7f53706f7420697320616c7265616479206f6363757069656400000000000000005f82015250565b5f610c33601883610982565b9150610c3e82610bff565b602082019050919050565b5f6020820190508181035f830152610c6081610c27565b9050919050565b7f496e636f7272656374205061796d656e740000000000000000000000000000005f82015250565b5f610c9b601183610982565b9150610ca682610c67565b602082019050919050565b5f6020820190508181035f830152610cc881610c8f565b905091905056fea26469706673582212200e56e06f2fe954d6a40e339876e2e49cc11f2a0a8dedea1d2cb95c6a906aabf064736f6c63430008190033",
					"opcodes": "PUSH1 0x80 PUSH1 0x40 MSTORE PUSH0 PUSH1 0x1 SSTORE PUSH8 0xDE0B6B3A7640000 PUSH1 0x2 SSTORE CALLVALUE DUP1 ISZERO PUSH1 0x1E JUMPI PUSH0 DUP1 REVERT JUMPDEST POP CALLER PUSH0 DUP1 PUSH2 0x100 EXP DUP2 SLOAD DUP2 PUSH20 0xFFFFFFFFFFFFFFFFFFFFFFFFFFFFFFFFFFFFFFFF MUL NOT AND SWAP1 DUP4 PUSH20 0xFFFFFFFFFFFFFFFFFFFFFFFFFFFFFFFFFFFFFFFF AND MUL OR SWAP1 SSTORE POP PUSH2 0xD05 DUP1 PUSH2 0x6B PUSH0 CODECOPY PUSH0 RETURN INVALID PUSH1 0x80 PUSH1 0x40 MSTORE PUSH1 0x4 CALLDATASIZE LT PUSH2 0x7A JUMPI PUSH0 CALLDATALOAD PUSH1 0xE0 SHR DUP1 PUSH4 0x8DA5CB5B GT PUSH2 0x4D JUMPI DUP1 PUSH4 0x8DA5CB5B EQ PUSH2 0xFC JUMPI DUP1 PUSH4 0xCEB751DA EQ PUSH2 0x126 JUMPI DUP1 PUSH4 0xE95A644F EQ PUSH2 0x150 JUMPI DUP1 PUSH4 0xF5DEFCD3 EQ PUSH2 0x16C JUMPI PUSH2 0x7A JUMP JUMPDEST DUP1 PUSH4 0x1BD2EEEE EQ PUSH2 0x7E JUMPI DUP1 PUSH4 0x24600FC3 EQ PUSH2 0xA6 JUMPI DUP1 PUSH4 0x67B7BABB EQ PUSH2 0xBC JUMPI DUP1 PUSH4 0x74777614 EQ PUSH2 0xE6 JUMPI JUMPDEST PUSH0 DUP1 REVERT JUMPDEST CALLVALUE DUP1 ISZERO PUSH2 0x89 JUMPI PUSH0 DUP1 REVERT JUMPDEST POP PUSH2 0xA4 PUSH1 0x4 DUP1 CALLDATASIZE SUB DUP2 ADD SWAP1 PUSH2 0x9F SWAP2 SWAP1 PUSH2 0x87A JUMP JUMPDEST PUSH2 0x1AB JUMP JUMPDEST STOP JUMPDEST CALLVALUE DUP1 ISZERO PUSH2 0xB1 JUMPI PUSH0 DUP1 REVERT JUMPDEST POP PUSH2 0xBA PUSH2 0x3D1 JUMP JUMPDEST STOP JUMPDEST CALLVALUE DUP1 ISZERO PUSH2 0xC7 JUMPI PUSH0 DUP1 REVERT JUMPDEST POP PUSH2 0xD0 PUSH2 0x4C8 JUMP JUMPDEST PUSH1 0x40 MLOAD PUSH2 0xDD SWAP2 SWAP1 PUSH2 0x8B4 JUMP JUMPDEST PUSH1 0x40 MLOAD DUP1 SWAP2 SUB SWAP1 RETURN JUMPDEST CALLVALUE DUP1 ISZERO PUSH2 0xF1 JUMPI PUSH0 DUP1 REVERT JUMPDEST POP PUSH2 0xFA PUSH2 0x4CE JUMP JUMPDEST STOP JUMPDEST CALLVALUE DUP1 ISZERO PUSH2 0x107 JUMPI PUSH0 DUP1 REVERT JUMPDEST POP PUSH2 0x110 PUSH2 0x66B JUMP JUMPDEST PUSH1 0x40 MLOAD PUSH2 0x11D SWAP2 SWAP1 PUSH2 0x90C JUMP JUMPDEST PUSH1 0x40 MLOAD DUP1 SWAP2 SUB SWAP1 RETURN JUMPDEST CALLVALUE DUP1 ISZERO PUSH2 0x131 JUMPI PUSH0 DUP1 REVERT JUMPDEST POP PUSH2 0x13A PUSH2 0x68E JUMP JUMPDEST PUSH1 0x40 MLOAD PUSH2 0x147 SWAP2 SWAP1 PUSH2 0x8B4 JUMP JUMPDEST PUSH1 0x40 MLOAD DUP1 SWAP2 SUB SWAP1 RETURN JUMPDEST PUSH2 0x16A PUSH1 0x4 DUP1 CALLDATASIZE SUB DUP2 ADD SWAP1 PUSH2 0x165 SWAP2 SWAP1 PUSH2 0x87A JUMP JUMPDEST PUSH2 0x694 JUMP JUMPDEST STOP JUMPDEST CALLVALUE DUP1 ISZERO PUSH2 0x177 JUMPI PUSH0 DUP1 REVERT JUMPDEST POP PUSH2 0x192 PUSH1 0x4 DUP1 CALLDATASIZE SUB DUP2 ADD SWAP1 PUSH2 0x18D SWAP2 SWAP1 PUSH2 0x87A JUMP JUMPDEST PUSH2 0x7EC JUMP JUMPDEST PUSH1 0x40 MLOAD PUSH2 0x1A2 SWAP5 SWAP4 SWAP3 SWAP2 SWAP1 PUSH2 0x93F JUMP JUMPDEST PUSH1 0x40 MLOAD DUP1 SWAP2 SUB SWAP1 RETURN JUMPDEST PUSH0 PUSH1 0x3 PUSH0 DUP4 DUP2 MSTORE PUSH1 0x20 ADD SWAP1 DUP2 MSTORE PUSH1 0x20 ADD PUSH0 KECCAK256 SWAP1 POP DUP1 PUSH1 0x3 ADD PUSH0 SWAP1 SLOAD SWAP1 PUSH2 0x100 EXP SWAP1 DIV PUSH1 0xFF AND DUP1 ISZERO PUSH2 0x22A JUMPI POP CALLER PUSH20 0xFFFFFFFFFFFFFFFFFFFFFFFFFFFFFFFFFFFFFFFF AND DUP2 PUSH1 0x1 ADD PUSH0 SWAP1 SLOAD SWAP1 PUSH2 0x100 EXP SWAP1 DIV PUSH20 0xFFFFFFFFFFFFFFFFFFFFFFFFFFFFFFFFFFFFFFFF AND PUSH20 0xFFFFFFFFFFFFFFFFFFFFFFFFFFFFFFFFFFFFFFFF AND EQ JUMPDEST PUSH2 0x269 JUMPI PUSH1 0x40 MLOAD PUSH32 0x8C379A000000000000000000000000000000000000000000000000000000000 DUP2 MSTORE PUSH1 0x4 ADD PUSH2 0x260 SWAP1 PUSH2 0x9DC JUMP JUMPDEST PUSH1 0x40 MLOAD DUP1 SWAP2 SUB SWAP1 REVERT JUMPDEST PUSH0 DUP2 PUSH1 0x2 ADD SLOAD TIMESTAMP PUSH2 0x27A SWAP2 SWAP1 PUSH2 0xA27 JUMP JUMPDEST SWAP1 POP PUSH0 PUSH1 0x2 SLOAD DUP3 PUSH2 0x28B SWAP2 SWAP1 PUSH2 0xA5A JUMP JUMPDEST SWAP1 POP DUP1 SELFBALANCE LT ISZERO PUSH2 0x2D0 JUMPI PUSH1 0x40 MLOAD PUSH32 0x8C379A000000000000000000000000000000000000000000000000000000000 DUP2 MSTORE PUSH1 0x4 ADD PUSH2 0x2C7 SWAP1 PUSH2 0xAE5 JUMP JUMPDEST PUSH1 0x40 MLOAD DUP1 SWAP2 SUB SWAP1 REVERT JUMPDEST PUSH0 DUP4 PUSH1 0x3 ADD PUSH0 PUSH2 0x100 EXP DUP2 SLOAD DUP2 PUSH1 0xFF MUL NOT AND SWAP1 DUP4 ISZERO ISZERO MUL OR SWAP1 SSTORE POP PUSH0 DUP4 PUSH1 0x1 ADD PUSH0 PUSH2 0x100 EXP DUP2 SLOAD DUP2 PUSH20 0xFFFFFFFFFFFFFFFFFFFFFFFFFFFFFFFFFFFFFFFF MUL NOT AND SWAP1 DUP4 PUSH20 0xFFFFFFFFFFFFFFFFFFFFFFFFFFFFFFFFFFFFFFFF AND MUL OR SWAP1 SSTORE POP PUSH0 DUP4 PUSH1 0x2 ADD DUP2 SWAP1 SSTORE POP CALLER PUSH20 0xFFFFFFFFFFFFFFFFFFFFFFFFFFFFFFFFFFFFFFFF AND PUSH2 0x8FC DUP3 SWAP1 DUP2 ISZERO MUL SWAP1 PUSH1 0x40 MLOAD PUSH0 PUSH1 0x40 MLOAD DUP1 DUP4 SUB DUP2 DUP6 DUP9 DUP9 CALL SWAP4 POP POP POP POP ISZERO DUP1 ISZERO PUSH2 0x379 JUMPI RETURNDATASIZE PUSH0 DUP1 RETURNDATACOPY RETURNDATASIZE PUSH0 REVERT JUMPDEST POP CALLER PUSH20 0xFFFFFFFFFFFFFFFFFFFFFFFFFFFFFFFFFFFFFFFF AND DUP5 PUSH32 0xBE39273E44F9601865C70432E1BE89CC761325B382ADF3F258B89B9750065AC2 DUP5 DUP5 PUSH1 0x40 MLOAD PUSH2 0x3C3 SWAP3 SWAP2 SWAP1 PUSH2 0xB03 JUMP JUMPDEST PUSH1 0x40 MLOAD DUP1 SWAP2 SUB SWAP1 LOG3 POP POP POP POP JUMP JUMPDEST PUSH0 DUP1 SLOAD SWAP1 PUSH2 0x100 EXP SWAP1 DIV PUSH20 0xFFFFFFFFFFFFFFFFFFFFFFFFFFFFFFFFFFFFFFFF AND PUSH20 0xFFFFFFFFFFFFFFFFFFFFFFFFFFFFFFFFFFFFFFFF AND CALLER PUSH20 0xFFFFFFFFFFFFFFFFFFFFFFFFFFFFFFFFFFFFFFFF AND EQ PUSH2 0x45E JUMPI PUSH1 0x40 MLOAD PUSH32 0x8C379A000000000000000000000000000000000000000000000000000000000 DUP2 MSTORE PUSH1 0x4 ADD PUSH2 0x455 SWAP1 PUSH2 0xB9A JUMP JUMPDEST PUSH1 0x40 MLOAD DUP1 SWAP2 SUB SWAP1 REVERT JUMPDEST PUSH0 SELFBALANCE SWAP1 POP PUSH0 DUP1 SLOAD SWAP1 PUSH2 0x100 EXP SWAP1 DIV PUSH20 0xFFFFFFFFFFFFFFFFFFFFFFFFFFFFFFFFFFFFFFFF AND PUSH20 0xFFFFFFFFFFFFFFFFFFFFFFFFFFFFFFFFFFFFFFFF AND PUSH2 0x8FC DUP3 SWAP1 DUP2 ISZERO MUL SWAP1 PUSH1 0x40 MLOAD PUSH0 PUSH1 0x40 MLOAD DUP1 DUP4 SUB DUP2 DUP6 DUP9 DUP9 CALL SWAP4 POP POP POP POP ISZERO DUP1 ISZERO PUSH2 0x4C4 JUMPI RETURNDATASIZE PUSH0 DUP1 RETURNDATACOPY RETURNDATASIZE PUSH0 REVERT JUMPDEST POP POP JUMP JUMPDEST PUSH1 0x1 SLOAD DUP2 JUMP JUMPDEST PUSH0 DUP1 SLOAD SWAP1 PUSH2 0x100 EXP SWAP1 DIV PUSH20 0xFFFFFFFFFFFFFFFFFFFFFFFFFFFFFFFFFFFFFFFF AND PUSH20 0xFFFFFFFFFFFFFFFFFFFFFFFFFFFFFFFFFFFFFFFF AND CALLER PUSH20 0xFFFFFFFFFFFFFFFFFFFFFFFFFFFFFFFFFFFFFFFF AND EQ PUSH2 0x55B JUMPI PUSH1 0x40 MLOAD PUSH32 0x8C379A000000000000000000000000000000000000000000000000000000000 DUP2 MSTORE PUSH1 0x4 ADD PUSH2 0x552 SWAP1 PUSH2 0xB9A JUMP JUMPDEST PUSH1 0x40 MLOAD DUP1 SWAP2 SUB SWAP1 REVERT JUMPDEST PUSH1 0x1 PUSH0 DUP2 SLOAD DUP1 SWAP3 SWAP2 SWAP1 PUSH2 0x56D SWAP1 PUSH2 0xBB8 JUMP JUMPDEST SWAP2 SWAP1 POP SSTORE POP PUSH1 0x40 MLOAD DUP1 PUSH1 0x80 ADD PUSH1 0x40 MSTORE DUP1 PUSH1 0x1 SLOAD DUP2 MSTORE PUSH1 0x20 ADD PUSH0 PUSH20 0xFFFFFFFFFFFFFFFFFFFFFFFFFFFFFFFFFFFFFFFF AND DUP2 MSTORE PUSH1 0x20 ADD PUSH0 DUP2 MSTORE PUSH1 0x20 ADD PUSH0 ISZERO ISZERO DUP2 MSTORE POP PUSH1 0x3 PUSH0 PUSH1 0x1 SLOAD DUP2 MSTORE PUSH1 0x20 ADD SWAP1 DUP2 MSTORE PUSH1 0x20 ADD PUSH0 KECCAK256 PUSH0 DUP3 ADD MLOAD DUP2 PUSH0 ADD SSTORE PUSH1 0x20 DUP3 ADD MLOAD DUP2 PUSH1 0x1 ADD PUSH0 PUSH2 0x100 EXP DUP2 SLOAD DUP2 PUSH20 0xFFFFFFFFFFFFFFFFFFFFFFFFFFFFFFFFFFFFFFFF MUL NOT AND SWAP1 DUP4 PUSH20 0xFFFFFFFFFFFFFFFFFFFFFFFFFFFFFFFFFFFFFFFF AND MUL OR SWAP1 SSTORE POP PUSH1 0x40 DUP3 ADD MLOAD DUP2 PUSH1 0x2 ADD SSTORE PUSH1 0x60 DUP3 ADD MLOAD DUP2 PUSH1 0x3 ADD PUSH0 PUSH2 0x100 EXP DUP2 SLOAD DUP2 PUSH1 0xFF MUL NOT AND SWAP1 DUP4 ISZERO ISZERO MUL OR SWAP1 SSTORE POP SWAP1 POP POP PUSH1 0x1 SLOAD PUSH32 0x28D1A6F01116935EFD8952D80CAB2C4118924754917104DF1BF73093FC102FAD PUSH1 0x40 MLOAD PUSH1 0x40 MLOAD DUP1 SWAP2 SUB SWAP1 LOG2 JUMP JUMPDEST PUSH0 DUP1 SLOAD SWAP1 PUSH2 0x100 EXP SWAP1 DIV PUSH20 0xFFFFFFFFFFFFFFFFFFFFFFFFFFFFFFFFFFFFFFFF AND DUP2 JUMP JUMPDEST PUSH1 0x2 SLOAD DUP2 JUMP JUMPDEST PUSH0 PUSH1 0x3 PUSH0 DUP4 DUP2 MSTORE PUSH1 0x20 ADD SWAP1 DUP2 MSTORE PUSH1 0x20 ADD PUSH0 KECCAK256 SWAP1 POP DUP1 PUSH1 0x3 ADD PUSH0 SWAP1 SLOAD SWAP1 PUSH2 0x100 EXP SWAP1 DIV PUSH1 0xFF AND ISZERO PUSH2 0x6F9 JUMPI PUSH1 0x40 MLOAD PUSH32 0x8C379A000000000000000000000000000000000000000000000000000000000 DUP2 MSTORE PUSH1 0x4 ADD PUSH2 0x6F0 SWAP1 PUSH2 0xC49 JUMP JUMPDEST PUSH1 0x40 MLOAD DUP1 SWAP2 SUB SWAP1 REVERT JUMPDEST PUSH1 0x2 SLOAD CALLVALUE EQ PUSH2 0x73D JUMPI PUSH1 0x40 MLOAD PUSH32 0x8C379A000000000000000000000000000000000000000000000000000000000 DUP2 MSTORE PUSH1 0x4 ADD PUSH2 0x734 SWAP1 PUSH2 0xCB1 JUMP JUMPDEST PUSH1 0x40 MLOAD DUP1 SWAP2 SUB SWAP1 REVERT JUMPDEST PUSH1 0x1 DUP2 PUSH1 0x3 ADD PUSH0 PUSH2 0x100 EXP DUP2 SLOAD DUP2 PUSH1 0xFF MUL NOT AND SWAP1 DUP4 ISZERO ISZERO MUL OR SWAP1 SSTORE POP CALLER DUP2 PUSH1 0x1 ADD PUSH0 PUSH2 0x100 EXP DUP2 SLOAD DUP2 PUSH20 0xFFFFFFFFFFFFFFFFFFFFFFFFFFFFFFFFFFFFFFFF MUL NOT AND SWAP1 DUP4 PUSH20 0xFFFFFFFFFFFFFFFFFFFFFFFFFFFFFFFFFFFFFFFF AND MUL OR SWAP1 SSTORE POP TIMESTAMP DUP2 PUSH1 0x2 ADD DUP2 SWAP1 SSTORE POP CALLER PUSH20 0xFFFFFFFFFFFFFFFFFFFFFFFFFFFFFFFFFFFFFFFF AND DUP3 PUSH32 0x88BCC30E88B58300F96DD11A5CFB0EB4FD1DD02E1417103F9DBC93C235B1F8C PUSH1 0x40 MLOAD PUSH1 0x40 MLOAD DUP1 SWAP2 SUB SWAP1 LOG3 POP POP JUMP JUMPDEST PUSH1 0x3 PUSH1 0x20 MSTORE DUP1 PUSH0 MSTORE PUSH1 0x40 PUSH0 KECCAK256 PUSH0 SWAP2 POP SWAP1 POP DUP1 PUSH0 ADD SLOAD SWAP1 DUP1 PUSH1 0x1 ADD PUSH0 SWAP1 SLOAD SWAP1 PUSH2 0x100 EXP SWAP1 DIV PUSH20 0xFFFFFFFFFFFFFFFFFFFFFFFFFFFFFFFFFFFFFFFF AND SWAP1 DUP1 PUSH1 0x2 ADD SLOAD SWAP1 DUP1 PUSH1 0x3 ADD PUSH0 SWAP1 SLOAD SWAP1 PUSH2 0x100 EXP SWAP1 DIV PUSH1 0xFF AND SWAP1 POP DUP5 JUMP JUMPDEST PUSH0 DUP1 REVERT JUMPDEST PUSH0 DUP2 SWAP1 POP SWAP2 SWAP1 POP JUMP JUMPDEST PUSH2 0x859 DUP2 PUSH2 0x847 JUMP JUMPDEST DUP2 EQ PUSH2 0x863 JUMPI PUSH0 DUP1 REVERT JUMPDEST POP JUMP JUMPDEST PUSH0 DUP2 CALLDATALOAD SWAP1 POP PUSH2 0x874 DUP2 PUSH2 0x850 JUMP JUMPDEST SWAP3 SWAP2 POP POP JUMP JUMPDEST PUSH0 PUSH1 0x20 DUP3 DUP5 SUB SLT ISZERO PUSH2 0x88F JUMPI PUSH2 0x88E PUSH2 0x843 JUMP JUMPDEST JUMPDEST PUSH0 PUSH2 0x89C DUP5 DUP3 DUP6 ADD PUSH2 0x866 JUMP JUMPDEST SWAP2 POP POP SWAP3 SWAP2 POP POP JUMP JUMPDEST PUSH2 0x8AE DUP2 PUSH2 0x847 JUMP JUMPDEST DUP3 MSTORE POP POP JUMP JUMPDEST PUSH0 PUSH1 0x20 DUP3 ADD SWAP1 POP PUSH2 0x8C7 PUSH0 DUP4 ADD DUP5 PUSH2 0x8A5 JUMP JUMPDEST SWAP3 SWAP2 POP POP JUMP JUMPDEST PUSH0 PUSH20 0xFFFFFFFFFFFFFFFFFFFFFFFFFFFFFFFFFFFFFFFF DUP3 AND SWAP1 POP SWAP2 SWAP1 POP JUMP JUMPDEST PUSH0 PUSH2 0x8F6 DUP3 PUSH2 0x8CD JUMP JUMPDEST SWAP1 POP SWAP2 SWAP1 POP JUMP JUMPDEST PUSH2 0x906 DUP2 PUSH2 0x8EC JUMP JUMPDEST DUP3 MSTORE POP POP JUMP JUMPDEST PUSH0 PUSH1 0x20 DUP3 ADD SWAP1 POP PUSH2 0x91F PUSH0 DUP4 ADD DUP5 PUSH2 0x8FD JUMP JUMPDEST SWAP3 SWAP2 POP POP JUMP JUMPDEST PUSH0 DUP2 ISZERO ISZERO SWAP1 POP SWAP2 SWAP1 POP JUMP JUMPDEST PUSH2 0x939 DUP2 PUSH2 0x925 JUMP JUMPDEST DUP3 MSTORE POP POP JUMP JUMPDEST PUSH0 PUSH1 0x80 DUP3 ADD SWAP1 POP PUSH2 0x952 PUSH0 DUP4 ADD DUP8 PUSH2 0x8A5 JUMP JUMPDEST PUSH2 0x95F PUSH1 0x20 DUP4 ADD DUP7 PUSH2 0x8FD JUMP JUMPDEST PUSH2 0x96C PUSH1 0x40 DUP4 ADD DUP6 PUSH2 0x8A5 JUMP JUMPDEST PUSH2 0x979 PUSH1 0x60 DUP4 ADD DUP5 PUSH2 0x930 JUMP JUMPDEST SWAP6 SWAP5 POP POP POP POP POP JUMP JUMPDEST PUSH0 DUP3 DUP3 MSTORE PUSH1 0x20 DUP3 ADD SWAP1 POP SWAP3 SWAP2 POP POP JUMP JUMPDEST PUSH32 0x4E6F7420746865206F63637570616E74206F64207468652073706F7400000000 PUSH0 DUP3 ADD MSTORE POP JUMP JUMPDEST PUSH0 PUSH2 0x9C6 PUSH1 0x1C DUP4 PUSH2 0x982 JUMP JUMPDEST SWAP2 POP PUSH2 0x9D1 DUP3 PUSH2 0x992 JUMP JUMPDEST PUSH1 0x20 DUP3 ADD SWAP1 POP SWAP2 SWAP1 POP JUMP JUMPDEST PUSH0 PUSH1 0x20 DUP3 ADD SWAP1 POP DUP2 DUP2 SUB PUSH0 DUP4 ADD MSTORE PUSH2 0x9F3 DUP2 PUSH2 0x9BA JUMP JUMPDEST SWAP1 POP SWAP2 SWAP1 POP JUMP JUMPDEST PUSH32 0x4E487B7100000000000000000000000000000000000000000000000000000000 PUSH0 MSTORE PUSH1 0x11 PUSH1 0x4 MSTORE PUSH1 0x24 PUSH0 REVERT JUMPDEST PUSH0 PUSH2 0xA31 DUP3 PUSH2 0x847 JUMP JUMPDEST SWAP2 POP PUSH2 0xA3C DUP4 PUSH2 0x847 JUMP JUMPDEST SWAP3 POP DUP3 DUP3 SUB SWAP1 POP DUP2 DUP2 GT ISZERO PUSH2 0xA54 JUMPI PUSH2 0xA53 PUSH2 0x9FA JUMP JUMPDEST JUMPDEST SWAP3 SWAP2 POP POP JUMP JUMPDEST PUSH0 PUSH2 0xA64 DUP3 PUSH2 0x847 JUMP JUMPDEST SWAP2 POP PUSH2 0xA6F DUP4 PUSH2 0x847 JUMP JUMPDEST SWAP3 POP DUP3 DUP3 MUL PUSH2 0xA7D DUP2 PUSH2 0x847 JUMP JUMPDEST SWAP2 POP DUP3 DUP3 DIV DUP5 EQ DUP4 ISZERO OR PUSH2 0xA94 JUMPI PUSH2 0xA93 PUSH2 0x9FA JUMP JUMPDEST JUMPDEST POP SWAP3 SWAP2 POP POP JUMP JUMPDEST PUSH32 0x436F6E74726163742062616C616E636520496E73756666696369656E74000000 PUSH0 DUP3 ADD MSTORE POP JUMP JUMPDEST PUSH0 PUSH2 0xACF PUSH1 0x1D DUP4 PUSH2 0x982 JUMP JUMPDEST SWAP2 POP PUSH2 0xADA DUP3 PUSH2 0xA9B JUMP JUMPDEST PUSH1 0x20 DUP3 ADD SWAP1 POP SWAP2 SWAP1 POP JUMP JUMPDEST PUSH0 PUSH1 0x20 DUP3 ADD SWAP1 POP DUP2 DUP2 SUB PUSH0 DUP4 ADD MSTORE PUSH2 0xAFC DUP2 PUSH2 0xAC3 JUMP JUMPDEST SWAP1 POP SWAP2 SWAP1 POP JUMP JUMPDEST PUSH0 PUSH1 0x40 DUP3 ADD SWAP1 POP PUSH2 0xB16 PUSH0 DUP4 ADD DUP6 PUSH2 0x8A5 JUMP JUMPDEST PUSH2 0xB23 PUSH1 0x20 DUP4 ADD DUP5 PUSH2 0x8A5 JUMP JUMPDEST SWAP4 SWAP3 POP POP POP JUMP JUMPDEST PUSH32 0x4F6E6C79206F776E65722063616E2063616C6C20746869732066756E6374696F PUSH0 DUP3 ADD MSTORE PUSH32 0x6E00000000000000000000000000000000000000000000000000000000000000 PUSH1 0x20 DUP3 ADD MSTORE POP JUMP JUMPDEST PUSH0 PUSH2 0xB84 PUSH1 0x21 DUP4 PUSH2 0x982 JUMP JUMPDEST SWAP2 POP PUSH2 0xB8F DUP3 PUSH2 0xB2A JUMP JUMPDEST PUSH1 0x40 DUP3 ADD SWAP1 POP SWAP2 SWAP1 POP JUMP JUMPDEST PUSH0 PUSH1 0x20 DUP3 ADD SWAP1 POP DUP2 DUP2 SUB PUSH0 DUP4 ADD MSTORE PUSH2 0xBB1 DUP2 PUSH2 0xB78 JUMP JUMPDEST SWAP1 POP SWAP2 SWAP1 POP JUMP JUMPDEST PUSH0 PUSH2 0xBC2 DUP3 PUSH2 0x847 JUMP JUMPDEST SWAP2 POP PUSH32 0xFFFFFFFFFFFFFFFFFFFFFFFFFFFFFFFFFFFFFFFFFFFFFFFFFFFFFFFFFFFFFFFF DUP3 SUB PUSH2 0xBF4 JUMPI PUSH2 0xBF3 PUSH2 0x9FA JUMP JUMPDEST JUMPDEST PUSH1 0x1 DUP3 ADD SWAP1 POP SWAP2 SWAP1 POP JUMP JUMPDEST PUSH32 0x53706F7420697320616C7265616479206F636375706965640000000000000000 PUSH0 DUP3 ADD MSTORE POP JUMP JUMPDEST PUSH0 PUSH2 0xC33 PUSH1 0x18 DUP4 PUSH2 0x982 JUMP JUMPDEST SWAP2 POP PUSH2 0xC3E DUP3 PUSH2 0xBFF JUMP JUMPDEST PUSH1 0x20 DUP3 ADD SWAP1 POP SWAP2 SWAP1 POP JUMP JUMPDEST PUSH0 PUSH1 0x20 DUP3 ADD SWAP1 POP DUP2 DUP2 SUB PUSH0 DUP4 ADD MSTORE PUSH2 0xC60 DUP2 PUSH2 0xC27 JUMP JUMPDEST SWAP1 POP SWAP2 SWAP1 POP JUMP JUMPDEST PUSH32 0x496E636F7272656374205061796D656E74000000000000000000000000000000 PUSH0 DUP3 ADD MSTORE POP JUMP JUMPDEST PUSH0 PUSH2 0xC9B PUSH1 0x11 DUP4 PUSH2 0x982 JUMP JUMPDEST SWAP2 POP PUSH2 0xCA6 DUP3 PUSH2 0xC67 JUMP JUMPDEST PUSH1 0x20 DUP3 ADD SWAP1 POP SWAP2 SWAP1 POP JUMP JUMPDEST PUSH0 PUSH1 0x20 DUP3 ADD SWAP1 POP DUP2 DUP2 SUB PUSH0 DUP4 ADD MSTORE PUSH2 0xCC8 DUP2 PUSH2 0xC8F JUMP JUMPDEST SWAP1 POP SWAP2 SWAP1 POP JUMP INVALID LOG2 PUSH5 0x6970667358 0x22 SLT KECCAK256 0xE JUMP 0xE0 PUSH16 0x2FE954D6A40E339876E2E49CC11F2A0A DUP14 0xED 0xEA SAR 0x2C 0xB9 TLOAD PUSH11 0x906AABF064736F6C634300 ADDMOD NOT STOP CALLER "
				},
				"gasEstimates": {
					"creation": {
						"codeDepositCost": "666600",
						"executionCost": "52076",
						"totalCost": "718676"
					},
					"external": {
						"addParkingSpot()": "110077",
						"checkIn(uint256)": "76992",
						"checkOut(uint256)": "infinite",
						"owner()": "2505",
						"parkingSpotCount()": "2470",
						"parkingSpots(uint256)": "infinite",
						"pricePerHour()": "2447",
						"withdrawFunds()": "infinite"
					}
				},
				"methodIdentifiers": {
					"addParkingSpot()": "74777614",
					"checkIn(uint256)": "e95a644f",
					"checkOut(uint256)": "1bd2eeee",
					"owner()": "8da5cb5b",
					"parkingSpotCount()": "67b7babb",
					"parkingSpots(uint256)": "f5defcd3",
					"pricePerHour()": "ceb751da",
					"withdrawFunds()": "24600fc3"
				}
			},
			"storageLayout": {
				"storage": [
					{
						"astId": 12,
						"contract": "Parkinglot.sol:ParkingLotApp",
						"label": "owner",
						"offset": 0,
						"slot": "0",
						"type": "t_address"
					},
					{
						"astId": 15,
						"contract": "Parkinglot.sol:ParkingLotApp",
						"label": "parkingSpotCount",
						"offset": 0,
						"slot": "1",
						"type": "t_uint256"
					},
					{
						"astId": 18,
						"contract": "Parkinglot.sol:ParkingLotApp",
						"label": "pricePerHour",
						"offset": 0,
						"slot": "2",
						"type": "t_uint256"
					},
					{
						"astId": 23,
						"contract": "Parkinglot.sol:ParkingLotApp",
						"label": "parkingSpots",
						"offset": 0,
						"slot": "3",
						"type": "t_mapping(t_uint256,t_struct(ParkingSpot)10_storage)"
					}
				],
				"types": {
					"t_address": {
						"encoding": "inplace",
						"label": "address",
						"numberOfBytes": "20"
					},
					"t_bool": {
						"encoding": "inplace",
						"label": "bool",
						"numberOfBytes": "1"
					},
					"t_mapping(t_uint256,t_struct(ParkingSpot)10_storage)": {
						"encoding": "mapping",
						"key": "t_uint256",
						"label": "mapping(uint256 => struct ParkingLotApp.ParkingSpot)",
						"numberOfBytes": "32",
						"value": "t_struct(ParkingSpot)10_storage"
					},
					"t_struct(ParkingSpot)10_storage": {
						"encoding": "inplace",
						"label": "struct ParkingLotApp.ParkingSpot",
						"members": [
							{
								"astId": 3,
								"contract": "Parkinglot.sol:ParkingLotApp",
								"label": "id",
								"offset": 0,
								"slot": "0",
								"type": "t_uint256"
							},
							{
								"astId": 5,
								"contract": "Parkinglot.sol:ParkingLotApp",
								"label": "occupant",
								"offset": 0,
								"slot": "1",
								"type": "t_address"
							},
							{
								"astId": 7,
								"contract": "Parkinglot.sol:ParkingLotApp",
								"label": "checkinTime",
								"offset": 0,
								"slot": "2",
								"type": "t_uint256"
							},
							{
								"astId": 9,
								"contract": "Parkinglot.sol:ParkingLotApp",
								"label": "isOccupied",
								"offset": 0,
								"slot": "3",
								"type": "t_bool"
							}
						],
						"numberOfBytes": "128"
					},
					"t_uint256": {
						"encoding": "inplace",
						"label": "uint256",
						"numberOfBytes": "32"
					}
				}
			},
			"userdoc": {
				"kind": "user",
				"methods": {},
				"version": 1
			}
		}
	}
}