{
	"Shopping.sol": {
		"ShoppingApp": {
			"abi": [
				{
					"anonymous": false,
					"inputs": [
						{
							"indexed": true,
							"internalType": "uint256",
							"name": "itemId",
							"type": "uint256"
						},
						{
							"indexed": true,
							"internalType": "address",
							"name": "seller",
							"type": "address"
						},
						{
							"indexed": false,
							"internalType": "string",
							"name": "name",
							"type": "string"
						},
						{
							"indexed": false,
							"internalType": "uint256",
							"name": "price",
							"type": "uint256"
						}
					],
					"name": "ItemListed",
					"type": "event"
				},
				{
					"anonymous": false,
					"inputs": [
						{
							"indexed": true,
							"internalType": "uint256",
							"name": "itemId",
							"type": "uint256"
						},
						{
							"indexed": true,
							"internalType": "address",
							"name": "buyer",
							"type": "address"
						},
						{
							"indexed": true,
							"internalType": "address",
							"name": "seller",
							"type": "address"
						},
						{
							"indexed": false,
							"internalType": "uint256",
							"name": "price",
							"type": "uint256"
						}
					],
					"name": "ItemPurchased",
					"type": "event"
				},
				{
					"inputs": [
						{
							"internalType": "uint256",
							"name": "_itemId",
							"type": "uint256"
						}
					],
					"name": "buyItem",
					"outputs": [],
					"stateMutability": "payable",
					"type": "function"
				},
				{
					"inputs": [],
					"name": "itemCount",
					"outputs": [
						{
							"internalType": "uint256",
							"name": "",
							"type": "uint256"
						}
					],
					"stateMutability": "view",
					"type": "function"
				},
				{
					"inputs": [
						{
							"internalType": "uint256",
							"name": "",
							"type": "uint256"
						}
					],
					"name": "items",
					"outputs": [
						{
							"internalType": "uint256",
							"name": "id",
							"type": "uint256"
						},
						{
							"internalType": "address payable",
							"name": "seller",
							"type": "address"
						},
						{
							"internalType": "string",
							"name": "name",
							"type": "string"
						},
						{
							"internalType": "uint256",
							"name": "price",
							"type": "uint256"
						},
						{
							"internalType": "bool",
							"name": "isSold",
							"type": "bool"
						}
					],
					"stateMutability": "view",
					"type": "function"
				},
				{
					"inputs": [
						{
							"internalType": "string",
							"name": "_name",
							"type": "string"
						},
						{
							"internalType": "uint256",
							"name": "_price",
							"type": "uint256"
						}
					],
					"name": "listItem",
					"outputs": [],
					"stateMutability": "nonpayable",
					"type": "function"
				}
			],
			"devdoc": {
				"kind": "dev",
				"methods": {},
				"version": 1
			},
			"evm": {
				"assembly": "    /* \"Shopping.sol\":85:1487  contract ShoppingApp{... */\n  mstore(0x40, 0x80)\n    /* \"Shopping.sol\":290:291  0 */\n  0x00\n    /* \"Shopping.sol\":263:291  uint256 public itemCount = 0 */\n  dup1\n  sstore\n    /* \"Shopping.sol\":85:1487  contract ShoppingApp{... */\n  callvalue\n  dup1\n  iszero\n  tag_1\n  jumpi\n  0x00\n  dup1\n  revert\ntag_1:\n  pop\n  dataSize(sub_0)\n  dup1\n  dataOffset(sub_0)\n  0x00\n  codecopy\n  0x00\n  return\nstop\n\nsub_0: assembly {\n        /* \"Shopping.sol\":85:1487  contract ShoppingApp{... */\n      mstore(0x40, 0x80)\n      jumpi(tag_1, lt(calldatasize, 0x04))\n      shr(0xe0, calldataload(0x00))\n      dup1\n      0x6bfb0d01\n      eq\n      tag_2\n      jumpi\n      dup1\n      0x8511c937\n      eq\n      tag_3\n      jumpi\n      dup1\n      0xbfb231d2\n      eq\n      tag_4\n      jumpi\n      dup1\n      0xe7fb74c7\n      eq\n      tag_5\n      jumpi\n    tag_1:\n      0x00\n      dup1\n      revert\n        /* \"Shopping.sol\":263:291  uint256 public itemCount = 0 */\n    tag_2:\n      callvalue\n      dup1\n      iszero\n      tag_6\n      jumpi\n      0x00\n      dup1\n      revert\n    tag_6:\n      pop\n      tag_7\n      tag_8\n      jump\t// in\n    tag_7:\n      mload(0x40)\n      tag_9\n      swap2\n      swap1\n      tag_10\n      jump\t// in\n    tag_9:\n      mload(0x40)\n      dup1\n      swap2\n      sub\n      swap1\n      return\n        /* \"Shopping.sol\":558:945  function listItem(string memory _name, uint256 _price)... */\n    tag_3:\n      callvalue\n      dup1\n      iszero\n      tag_11\n      jumpi\n      0x00\n      dup1\n      revert\n    tag_11:\n      pop\n      tag_12\n      0x04\n      dup1\n      calldatasize\n      sub\n      dup2\n      add\n      swap1\n      tag_13\n      swap2\n      swap1\n      tag_14\n      jump\t// in\n    tag_13:\n      tag_15\n      jump\t// in\n    tag_12:\n      stop\n        /* \"Shopping.sol\":298:336  mapping (uint256 => Item) public items */\n    tag_4:\n      callvalue\n      dup1\n      iszero\n      tag_16\n      jumpi\n      0x00\n      dup1\n      revert\n    tag_16:\n      pop\n      tag_17\n      0x04\n      dup1\n      calldatasize\n      sub\n      dup2\n      add\n      swap1\n      tag_18\n      swap2\n      swap1\n      tag_19\n      jump\t// in\n    tag_18:\n      tag_20\n      jump\t// in\n    tag_17:\n      mload(0x40)\n      tag_21\n      swap6\n      swap5\n      swap4\n      swap3\n      swap2\n      swap1\n      tag_22\n      jump\t// in\n    tag_21:\n      mload(0x40)\n      dup1\n      swap2\n      sub\n      swap1\n      return\n        /* \"Shopping.sol\":953:1482  function buyItem(uint256 _itemId)... */\n    tag_5:\n      tag_23\n      0x04\n      dup1\n      calldatasize\n      sub\n      dup2\n      add\n      swap1\n      tag_24\n      swap2\n      swap1\n      tag_19\n      jump\t// in\n    tag_24:\n      tag_25\n      jump\t// in\n    tag_23:\n      stop\n        /* \"Shopping.sol\":263:291  uint256 public itemCount = 0 */\n    tag_8:\n      sload(0x00)\n      dup2\n      jump\t// out\n        /* \"Shopping.sol\":558:945  function listItem(string memory _name, uint256 _price)... */\n    tag_15:\n        /* \"Shopping.sol\":674:675  0 */\n      0x00\n        /* \"Shopping.sol\":658:663  _name */\n      dup3\n        /* \"Shopping.sol\":652:671  bytes(_name).length */\n      mload\n        /* \"Shopping.sol\":652:675  bytes(_name).length > 0 */\n      gt\n        /* \"Shopping.sol\":644:700  require(bytes(_name).length > 0,\"Item name is required\") */\n      tag_27\n      jumpi\n      mload(0x40)\n      0x08c379a000000000000000000000000000000000000000000000000000000000\n      dup2\n      mstore\n      0x04\n      add\n      tag_28\n      swap1\n      tag_29\n      jump\t// in\n    tag_28:\n      mload(0x40)\n      dup1\n      swap2\n      sub\n      swap1\n      revert\n    tag_27:\n        /* \"Shopping.sol\":728:729  0 */\n      0x00\n        /* \"Shopping.sol\":719:725  _price */\n      dup2\n        /* \"Shopping.sol\":719:729  _price > 0 */\n      gt\n        /* \"Shopping.sol\":711:763  require(_price > 0,\"Price Should be greater than 0\") */\n      tag_30\n      jumpi\n      mload(0x40)\n      0x08c379a000000000000000000000000000000000000000000000000000000000\n      dup2\n      mstore\n      0x04\n      add\n      tag_31\n      swap1\n      tag_32\n      jump\t// in\n    tag_31:\n      mload(0x40)\n      dup1\n      swap2\n      sub\n      swap1\n      revert\n    tag_30:\n        /* \"Shopping.sol\":776:785  itemCount */\n      0x00\n      dup1\n        /* \"Shopping.sol\":776:787  itemCount++ */\n      dup2\n      sload\n      dup1\n      swap3\n      swap2\n      swap1\n      tag_33\n      swap1\n      tag_34\n      jump\t// in\n    tag_33:\n      swap2\n      swap1\n      pop\n      sstore\n      pop\n        /* \"Shopping.sol\":817:871  Item(itemCount,payable(msg.sender),_name,_price,false) */\n      mload(0x40)\n      dup1\n      0xa0\n      add\n      0x40\n      mstore\n      dup1\n        /* \"Shopping.sol\":822:831  itemCount */\n      sload(0x00)\n        /* \"Shopping.sol\":817:871  Item(itemCount,payable(msg.sender),_name,_price,false) */\n      dup2\n      mstore\n      0x20\n      add\n        /* \"Shopping.sol\":840:850  msg.sender */\n      caller\n        /* \"Shopping.sol\":817:871  Item(itemCount,payable(msg.sender),_name,_price,false) */\n      0xffffffffffffffffffffffffffffffffffffffff\n      and\n      dup2\n      mstore\n      0x20\n      add\n        /* \"Shopping.sol\":852:857  _name */\n      dup4\n        /* \"Shopping.sol\":817:871  Item(itemCount,payable(msg.sender),_name,_price,false) */\n      dup2\n      mstore\n      0x20\n      add\n        /* \"Shopping.sol\":858:864  _price */\n      dup3\n        /* \"Shopping.sol\":817:871  Item(itemCount,payable(msg.sender),_name,_price,false) */\n      dup2\n      mstore\n      0x20\n      add\n        /* \"Shopping.sol\":865:870  false */\n      0x00\n        /* \"Shopping.sol\":817:871  Item(itemCount,payable(msg.sender),_name,_price,false) */\n      iszero\n      iszero\n      dup2\n      mstore\n      pop\n        /* \"Shopping.sol\":798:803  items */\n      0x01\n        /* \"Shopping.sol\":798:814  items[itemCount] */\n      0x00\n        /* \"Shopping.sol\":804:813  itemCount */\n      dup1\n      sload\n        /* \"Shopping.sol\":798:814  items[itemCount] */\n      dup2\n      mstore\n      0x20\n      add\n      swap1\n      dup2\n      mstore\n      0x20\n      add\n      0x00\n      keccak256\n        /* \"Shopping.sol\":798:871  items[itemCount] = Item(itemCount,payable(msg.sender),_name,_price,false) */\n      0x00\n      dup3\n      add\n      mload\n      dup2\n      0x00\n      add\n      sstore\n      0x20\n      dup3\n      add\n      mload\n      dup2\n      0x01\n      add\n      exp(0x0100, 0x00)\n      dup2\n      sload\n      dup2\n      0xffffffffffffffffffffffffffffffffffffffff\n      mul\n      not\n      and\n      swap1\n      dup4\n      0xffffffffffffffffffffffffffffffffffffffff\n      and\n      mul\n      or\n      swap1\n      sstore\n      pop\n      0x40\n      dup3\n      add\n      mload\n      dup2\n      0x02\n      add\n      swap1\n      dup2\n      tag_35\n      swap2\n      swap1\n      tag_36\n      jump\t// in\n    tag_35:\n      pop\n      0x60\n      dup3\n      add\n      mload\n      dup2\n      0x03\n      add\n      sstore\n      0x80\n      dup3\n      add\n      mload\n      dup2\n      0x04\n      add\n      exp(0x0100, 0x00)\n      dup2\n      sload\n      dup2\n      0xff\n      mul\n      not\n      and\n      swap1\n      dup4\n      iszero\n      iszero\n      mul\n      or\n      swap1\n      sstore\n      pop\n      swap1\n      pop\n      pop\n        /* \"Shopping.sol\":911:921  msg.sender */\n      caller\n        /* \"Shopping.sol\":889:937  ItemListed(itemCount, msg.sender, _name, _price) */\n      0xffffffffffffffffffffffffffffffffffffffff\n      and\n        /* \"Shopping.sol\":900:909  itemCount */\n      sload(0x00)\n        /* \"Shopping.sol\":889:937  ItemListed(itemCount, msg.sender, _name, _price) */\n      0x4e3807e76e8c2a7b6547b6189eba5d3dc4fe2bc48c057e8ec545ec13be8063c5\n        /* \"Shopping.sol\":923:928  _name */\n      dup5\n        /* \"Shopping.sol\":930:936  _price */\n      dup5\n        /* \"Shopping.sol\":889:937  ItemListed(itemCount, msg.sender, _name, _price) */\n      mload(0x40)\n      tag_37\n      swap3\n      swap2\n      swap1\n      tag_38\n      jump\t// in\n    tag_37:\n      mload(0x40)\n      dup1\n      swap2\n      sub\n      swap1\n      log3\n        /* \"Shopping.sol\":558:945  function listItem(string memory _name, uint256 _price)... */\n      pop\n      pop\n      jump\t// out\n        /* \"Shopping.sol\":298:336  mapping (uint256 => Item) public items */\n    tag_20:\n      mstore(0x20, 0x01)\n      dup1\n      0x00\n      mstore\n      keccak256(0x00, 0x40)\n      0x00\n      swap2\n      pop\n      swap1\n      pop\n      dup1\n      0x00\n      add\n      sload\n      swap1\n      dup1\n      0x01\n      add\n      0x00\n      swap1\n      sload\n      swap1\n      0x0100\n      exp\n      swap1\n      div\n      0xffffffffffffffffffffffffffffffffffffffff\n      and\n      swap1\n      dup1\n      0x02\n      add\n      dup1\n      sload\n      tag_39\n      swap1\n      tag_40\n      jump\t// in\n    tag_39:\n      dup1\n      0x1f\n      add\n      0x20\n      dup1\n      swap2\n      div\n      mul\n      0x20\n      add\n      mload(0x40)\n      swap1\n      dup2\n      add\n      0x40\n      mstore\n      dup1\n      swap3\n      swap2\n      swap1\n      dup2\n      dup2\n      mstore\n      0x20\n      add\n      dup3\n      dup1\n      sload\n      tag_41\n      swap1\n      tag_40\n      jump\t// in\n    tag_41:\n      dup1\n      iszero\n      tag_42\n      jumpi\n      dup1\n      0x1f\n      lt\n      tag_43\n      jumpi\n      0x0100\n      dup1\n      dup4\n      sload\n      div\n      mul\n      dup4\n      mstore\n      swap2\n      0x20\n      add\n      swap2\n      jump(tag_42)\n    tag_43:\n      dup3\n      add\n      swap2\n      swap1\n      0x00\n      mstore\n      keccak256(0x00, 0x20)\n      swap1\n    tag_44:\n      dup2\n      sload\n      dup2\n      mstore\n      swap1\n      0x01\n      add\n      swap1\n      0x20\n      add\n      dup1\n      dup4\n      gt\n      tag_44\n      jumpi\n      dup3\n      swap1\n      sub\n      0x1f\n      and\n      dup3\n      add\n      swap2\n    tag_42:\n      pop\n      pop\n      pop\n      pop\n      pop\n      swap1\n      dup1\n      0x03\n      add\n      sload\n      swap1\n      dup1\n      0x04\n      add\n      0x00\n      swap1\n      sload\n      swap1\n      0x0100\n      exp\n      swap1\n      div\n      0xff\n      and\n      swap1\n      pop\n      dup6\n      jump\t// out\n        /* \"Shopping.sol\":953:1482  function buyItem(uint256 _itemId)... */\n    tag_25:\n        /* \"Shopping.sol\":1032:1049  Item storage item */\n      0x00\n        /* \"Shopping.sol\":1052:1057  items */\n      0x01\n        /* \"Shopping.sol\":1052:1066  items[_itemId] */\n      0x00\n        /* \"Shopping.sol\":1058:1065  _itemId */\n      dup4\n        /* \"Shopping.sol\":1052:1066  items[_itemId] */\n      dup2\n      mstore\n      0x20\n      add\n      swap1\n      dup2\n      mstore\n      0x20\n      add\n      0x00\n      keccak256\n        /* \"Shopping.sol\":1032:1066  Item storage item = items[_itemId] */\n      swap1\n      pop\n        /* \"Shopping.sol\":1096:1103  _itemId */\n      dup2\n        /* \"Shopping.sol\":1085:1089  item */\n      dup2\n        /* \"Shopping.sol\":1085:1092  item.id */\n      0x00\n      add\n      sload\n        /* \"Shopping.sol\":1085:1103  item.id == _itemId */\n      eq\n        /* \"Shopping.sol\":1077:1126  require(item.id == _itemId,\"Item does not exist\") */\n      tag_46\n      jumpi\n      mload(0x40)\n      0x08c379a000000000000000000000000000000000000000000000000000000000\n      dup2\n      mstore\n      0x04\n      add\n      tag_47\n      swap1\n      tag_48\n      jump\t// in\n    tag_47:\n      mload(0x40)\n      dup1\n      swap2\n      sub\n      swap1\n      revert\n    tag_46:\n        /* \"Shopping.sol\":1158:1162  item */\n      dup1\n        /* \"Shopping.sol\":1158:1168  item.price */\n      0x03\n      add\n      sload\n        /* \"Shopping.sol\":1145:1154  msg.value */\n      callvalue\n        /* \"Shopping.sol\":1145:1168  msg.value == item.price */\n      eq\n        /* \"Shopping.sol\":1137:1192  require(msg.value == item.price,\"Incorrect ether sent\") */\n      tag_49\n      jumpi\n      mload(0x40)\n      0x08c379a000000000000000000000000000000000000000000000000000000000\n      dup2\n      mstore\n      0x04\n      add\n      tag_50\n      swap1\n      tag_51\n      jump\t// in\n    tag_50:\n      mload(0x40)\n      dup1\n      swap2\n      sub\n      swap1\n      revert\n    tag_49:\n        /* \"Shopping.sol\":1212:1216  item */\n      dup1\n        /* \"Shopping.sol\":1212:1223  item.isSold */\n      0x04\n      add\n      0x00\n      swap1\n      sload\n      swap1\n      0x0100\n      exp\n      swap1\n      div\n      0xff\n      and\n        /* \"Shopping.sol\":1211:1223  !item.isSold */\n      iszero\n        /* \"Shopping.sol\":1203:1244  require(!item.isSold,\"Item already sold\") */\n      tag_52\n      jumpi\n      mload(0x40)\n      0x08c379a000000000000000000000000000000000000000000000000000000000\n      dup2\n      mstore\n      0x04\n      add\n      tag_53\n      swap1\n      tag_54\n      jump\t// in\n    tag_53:\n      mload(0x40)\n      dup1\n      swap2\n      sub\n      swap1\n      revert\n    tag_52:\n        /* \"Shopping.sol\":1277:1281  item */\n      dup1\n        /* \"Shopping.sol\":1277:1288  item.seller */\n      0x01\n      add\n      0x00\n      swap1\n      sload\n      swap1\n      0x0100\n      exp\n      swap1\n      div\n      0xffffffffffffffffffffffffffffffffffffffff\n      and\n        /* \"Shopping.sol\":1263:1288  msg.sender != item.seller */\n      0xffffffffffffffffffffffffffffffffffffffff\n      and\n        /* \"Shopping.sol\":1263:1273  msg.sender */\n      caller\n        /* \"Shopping.sol\":1263:1288  msg.sender != item.seller */\n      0xffffffffffffffffffffffffffffffffffffffff\n      and\n      sub\n        /* \"Shopping.sol\":1255:1324  require(msg.sender != item.seller,\"Seller cannot buy thier own item\") */\n      tag_55\n      jumpi\n      mload(0x40)\n      0x08c379a000000000000000000000000000000000000000000000000000000000\n      dup2\n      mstore\n      0x04\n      add\n      tag_56\n      swap1\n      tag_57\n      jump\t// in\n    tag_56:\n      mload(0x40)\n      dup1\n      swap2\n      sub\n      swap1\n      revert\n    tag_55:\n        /* \"Shopping.sol\":1351:1355  true */\n      0x01\n        /* \"Shopping.sol\":1337:1341  item */\n      dup2\n        /* \"Shopping.sol\":1337:1348  item.isSold */\n      0x04\n      add\n      0x00\n        /* \"Shopping.sol\":1337:1355  item.isSold = true */\n      0x0100\n      exp\n      dup2\n      sload\n      dup2\n      0xff\n      mul\n      not\n      and\n      swap1\n      dup4\n      iszero\n      iszero\n      mul\n      or\n      swap1\n      sstore\n      pop\n        /* \"Shopping.sol\":1366:1370  item */\n      dup1\n        /* \"Shopping.sol\":1366:1377  item.seller */\n      0x01\n      add\n      0x00\n      swap1\n      sload\n      swap1\n      0x0100\n      exp\n      swap1\n      div\n      0xffffffffffffffffffffffffffffffffffffffff\n      and\n        /* \"Shopping.sol\":1366:1386  item.seller.transfer */\n      0xffffffffffffffffffffffffffffffffffffffff\n      and\n        /* \"Shopping.sol\":1366:1397  item.seller.transfer(msg.value) */\n      0x08fc\n        /* \"Shopping.sol\":1387:1396  msg.value */\n      callvalue\n        /* \"Shopping.sol\":1366:1397  item.seller.transfer(msg.value) */\n      swap1\n      dup2\n      iszero\n      mul\n      swap1\n      mload(0x40)\n      0x00\n      mload(0x40)\n      dup1\n      dup4\n      sub\n      dup2\n      dup6\n      dup9\n      dup9\n      call\n      swap4\n      pop\n      pop\n      pop\n      pop\n      iszero\n      dup1\n      iszero\n      tag_59\n      jumpi\n      returndatasize\n      0x00\n      dup1\n      returndatacopy\n      revert(0x00, returndatasize)\n    tag_59:\n      pop\n        /* \"Shopping.sol\":1450:1454  item */\n      dup1\n        /* \"Shopping.sol\":1450:1461  item.seller */\n      0x01\n      add\n      0x00\n      swap1\n      sload\n      swap1\n      0x0100\n      exp\n      swap1\n      div\n      0xffffffffffffffffffffffffffffffffffffffff\n      and\n        /* \"Shopping.sol\":1415:1474  ItemPurchased(_itemId, msg.sender, item.seller, item.price) */\n      0xffffffffffffffffffffffffffffffffffffffff\n      and\n        /* \"Shopping.sol\":1438:1448  msg.sender */\n      caller\n        /* \"Shopping.sol\":1415:1474  ItemPurchased(_itemId, msg.sender, item.seller, item.price) */\n      0xffffffffffffffffffffffffffffffffffffffff\n      and\n        /* \"Shopping.sol\":1429:1436  _itemId */\n      dup4\n        /* \"Shopping.sol\":1415:1474  ItemPurchased(_itemId, msg.sender, item.seller, item.price) */\n      0x3e2a5a5ee3a24b1b9d330b0bc0946a7d0eb9c99f453f93a45348a9a8e29a94fb\n        /* \"Shopping.sol\":1463:1467  item */\n      dup5\n        /* \"Shopping.sol\":1463:1473  item.price */\n      0x03\n      add\n      sload\n        /* \"Shopping.sol\":1415:1474  ItemPurchased(_itemId, msg.sender, item.seller, item.price) */\n      mload(0x40)\n      tag_60\n      swap2\n      swap1\n      tag_10\n      jump\t// in\n    tag_60:\n      mload(0x40)\n      dup1\n      swap2\n      sub\n      swap1\n      log4\n        /* \"Shopping.sol\":1021:1482  {... */\n      pop\n        /* \"Shopping.sol\":953:1482  function buyItem(uint256 _itemId)... */\n      pop\n      jump\t// out\n        /* \"#utility.yul\":7:84   */\n    tag_61:\n        /* \"#utility.yul\":44:51   */\n      0x00\n        /* \"#utility.yul\":73:78   */\n      dup2\n        /* \"#utility.yul\":62:78   */\n      swap1\n      pop\n        /* \"#utility.yul\":7:84   */\n      swap2\n      swap1\n      pop\n      jump\t// out\n        /* \"#utility.yul\":90:208   */\n    tag_62:\n        /* \"#utility.yul\":177:201   */\n      tag_119\n        /* \"#utility.yul\":195:200   */\n      dup2\n        /* \"#utility.yul\":177:201   */\n      tag_61\n      jump\t// in\n    tag_119:\n        /* \"#utility.yul\":172:175   */\n      dup3\n        /* \"#utility.yul\":165:202   */\n      mstore\n        /* \"#utility.yul\":90:208   */\n      pop\n      pop\n      jump\t// out\n        /* \"#utility.yul\":214:436   */\n    tag_10:\n        /* \"#utility.yul\":307:311   */\n      0x00\n        /* \"#utility.yul\":345:347   */\n      0x20\n        /* \"#utility.yul\":334:343   */\n      dup3\n        /* \"#utility.yul\":330:348   */\n      add\n        /* \"#utility.yul\":322:348   */\n      swap1\n      pop\n        /* \"#utility.yul\":358:429   */\n      tag_121\n        /* \"#utility.yul\":426:427   */\n      0x00\n        /* \"#utility.yul\":415:424   */\n      dup4\n        /* \"#utility.yul\":411:428   */\n      add\n        /* \"#utility.yul\":402:408   */\n      dup5\n        /* \"#utility.yul\":358:429   */\n      tag_62\n      jump\t// in\n    tag_121:\n        /* \"#utility.yul\":214:436   */\n      swap3\n      swap2\n      pop\n      pop\n      jump\t// out\n        /* \"#utility.yul\":442:517   */\n    tag_63:\n        /* \"#utility.yul\":475:481   */\n      0x00\n        /* \"#utility.yul\":508:510   */\n      0x40\n        /* \"#utility.yul\":502:511   */\n      mload\n        /* \"#utility.yul\":492:511   */\n      swap1\n      pop\n        /* \"#utility.yul\":442:517   */\n      swap1\n      jump\t// out\n        /* \"#utility.yul\":523:640   */\n    tag_64:\n        /* \"#utility.yul\":632:633   */\n      0x00\n        /* \"#utility.yul\":629:630   */\n      dup1\n        /* \"#utility.yul\":622:634   */\n      revert\n        /* \"#utility.yul\":646:763   */\n    tag_65:\n        /* \"#utility.yul\":755:756   */\n      0x00\n        /* \"#utility.yul\":752:753   */\n      dup1\n        /* \"#utility.yul\":745:757   */\n      revert\n        /* \"#utility.yul\":769:886   */\n    tag_66:\n        /* \"#utility.yul\":878:879   */\n      0x00\n        /* \"#utility.yul\":875:876   */\n      dup1\n        /* \"#utility.yul\":868:880   */\n      revert\n        /* \"#utility.yul\":892:1009   */\n    tag_67:\n        /* \"#utility.yul\":1001:1002   */\n      0x00\n        /* \"#utility.yul\":998:999   */\n      dup1\n        /* \"#utility.yul\":991:1003   */\n      revert\n        /* \"#utility.yul\":1015:1117   */\n    tag_68:\n        /* \"#utility.yul\":1056:1062   */\n      0x00\n        /* \"#utility.yul\":1107:1109   */\n      0x1f\n        /* \"#utility.yul\":1103:1110   */\n      not\n        /* \"#utility.yul\":1098:1100   */\n      0x1f\n        /* \"#utility.yul\":1091:1096   */\n      dup4\n        /* \"#utility.yul\":1087:1101   */\n      add\n        /* \"#utility.yul\":1083:1111   */\n      and\n        /* \"#utility.yul\":1073:1111   */\n      swap1\n      pop\n        /* \"#utility.yul\":1015:1117   */\n      swap2\n      swap1\n      pop\n      jump\t// out\n        /* \"#utility.yul\":1123:1303   */\n    tag_69:\n        /* \"#utility.yul\":1171:1248   */\n      0x4e487b7100000000000000000000000000000000000000000000000000000000\n        /* \"#utility.yul\":1168:1169   */\n      0x00\n        /* \"#utility.yul\":1161:1249   */\n      mstore\n        /* \"#utility.yul\":1268:1272   */\n      0x41\n        /* \"#utility.yul\":1265:1266   */\n      0x04\n        /* \"#utility.yul\":1258:1273   */\n      mstore\n        /* \"#utility.yul\":1292:1296   */\n      0x24\n        /* \"#utility.yul\":1289:1290   */\n      0x00\n        /* \"#utility.yul\":1282:1297   */\n      revert\n        /* \"#utility.yul\":1309:1590   */\n    tag_70:\n        /* \"#utility.yul\":1392:1419   */\n      tag_130\n        /* \"#utility.yul\":1414:1418   */\n      dup3\n        /* \"#utility.yul\":1392:1419   */\n      tag_68\n      jump\t// in\n    tag_130:\n        /* \"#utility.yul\":1384:1390   */\n      dup2\n        /* \"#utility.yul\":1380:1420   */\n      add\n        /* \"#utility.yul\":1522:1528   */\n      dup2\n        /* \"#utility.yul\":1510:1520   */\n      dup2\n        /* \"#utility.yul\":1507:1529   */\n      lt\n        /* \"#utility.yul\":1486:1504   */\n      0xffffffffffffffff\n        /* \"#utility.yul\":1474:1484   */\n      dup3\n        /* \"#utility.yul\":1471:1505   */\n      gt\n        /* \"#utility.yul\":1468:1530   */\n      or\n        /* \"#utility.yul\":1465:1553   */\n      iszero\n      tag_131\n      jumpi\n        /* \"#utility.yul\":1533:1551   */\n      tag_132\n      tag_69\n      jump\t// in\n    tag_132:\n        /* \"#utility.yul\":1465:1553   */\n    tag_131:\n        /* \"#utility.yul\":1573:1583   */\n      dup1\n        /* \"#utility.yul\":1569:1571   */\n      0x40\n        /* \"#utility.yul\":1562:1584   */\n      mstore\n        /* \"#utility.yul\":1352:1590   */\n      pop\n        /* \"#utility.yul\":1309:1590   */\n      pop\n      pop\n      jump\t// out\n        /* \"#utility.yul\":1596:1725   */\n    tag_71:\n        /* \"#utility.yul\":1630:1636   */\n      0x00\n        /* \"#utility.yul\":1657:1677   */\n      tag_134\n      tag_63\n      jump\t// in\n    tag_134:\n        /* \"#utility.yul\":1647:1677   */\n      swap1\n      pop\n        /* \"#utility.yul\":1686:1719   */\n      tag_135\n        /* \"#utility.yul\":1714:1718   */\n      dup3\n        /* \"#utility.yul\":1706:1712   */\n      dup3\n        /* \"#utility.yul\":1686:1719   */\n      tag_70\n      jump\t// in\n    tag_135:\n        /* \"#utility.yul\":1596:1725   */\n      swap2\n      swap1\n      pop\n      jump\t// out\n        /* \"#utility.yul\":1731:2039   */\n    tag_72:\n        /* \"#utility.yul\":1793:1797   */\n      0x00\n        /* \"#utility.yul\":1883:1901   */\n      0xffffffffffffffff\n        /* \"#utility.yul\":1875:1881   */\n      dup3\n        /* \"#utility.yul\":1872:1902   */\n      gt\n        /* \"#utility.yul\":1869:1925   */\n      iszero\n      tag_137\n      jumpi\n        /* \"#utility.yul\":1905:1923   */\n      tag_138\n      tag_69\n      jump\t// in\n    tag_138:\n        /* \"#utility.yul\":1869:1925   */\n    tag_137:\n        /* \"#utility.yul\":1943:1972   */\n      tag_139\n        /* \"#utility.yul\":1965:1971   */\n      dup3\n        /* \"#utility.yul\":1943:1972   */\n      tag_68\n      jump\t// in\n    tag_139:\n        /* \"#utility.yul\":1935:1972   */\n      swap1\n      pop\n        /* \"#utility.yul\":2027:2031   */\n      0x20\n        /* \"#utility.yul\":2021:2025   */\n      dup2\n        /* \"#utility.yul\":2017:2032   */\n      add\n        /* \"#utility.yul\":2009:2032   */\n      swap1\n      pop\n        /* \"#utility.yul\":1731:2039   */\n      swap2\n      swap1\n      pop\n      jump\t// out\n        /* \"#utility.yul\":2045:2193   */\n    tag_73:\n        /* \"#utility.yul\":2143:2149   */\n      dup3\n        /* \"#utility.yul\":2138:2141   */\n      dup2\n        /* \"#utility.yul\":2133:2136   */\n      dup4\n        /* \"#utility.yul\":2120:2150   */\n      calldatacopy\n        /* \"#utility.yul\":2184:2185   */\n      0x00\n        /* \"#utility.yul\":2175:2181   */\n      dup4\n        /* \"#utility.yul\":2170:2173   */\n      dup4\n        /* \"#utility.yul\":2166:2182   */\n      add\n        /* \"#utility.yul\":2159:2186   */\n      mstore\n        /* \"#utility.yul\":2045:2193   */\n      pop\n      pop\n      pop\n      jump\t// out\n        /* \"#utility.yul\":2199:2624   */\n    tag_74:\n        /* \"#utility.yul\":2277:2282   */\n      0x00\n        /* \"#utility.yul\":2302:2368   */\n      tag_142\n        /* \"#utility.yul\":2318:2367   */\n      tag_143\n        /* \"#utility.yul\":2360:2366   */\n      dup5\n        /* \"#utility.yul\":2318:2367   */\n      tag_72\n      jump\t// in\n    tag_143:\n        /* \"#utility.yul\":2302:2368   */\n      tag_71\n      jump\t// in\n    tag_142:\n        /* \"#utility.yul\":2293:2368   */\n      swap1\n      pop\n        /* \"#utility.yul\":2391:2397   */\n      dup3\n        /* \"#utility.yul\":2384:2389   */\n      dup2\n        /* \"#utility.yul\":2377:2398   */\n      mstore\n        /* \"#utility.yul\":2429:2433   */\n      0x20\n        /* \"#utility.yul\":2422:2427   */\n      dup2\n        /* \"#utility.yul\":2418:2434   */\n      add\n        /* \"#utility.yul\":2467:2470   */\n      dup5\n        /* \"#utility.yul\":2458:2464   */\n      dup5\n        /* \"#utility.yul\":2453:2456   */\n      dup5\n        /* \"#utility.yul\":2449:2465   */\n      add\n        /* \"#utility.yul\":2446:2471   */\n      gt\n        /* \"#utility.yul\":2443:2555   */\n      iszero\n      tag_144\n      jumpi\n        /* \"#utility.yul\":2474:2553   */\n      tag_145\n      tag_67\n      jump\t// in\n    tag_145:\n        /* \"#utility.yul\":2443:2555   */\n    tag_144:\n        /* \"#utility.yul\":2564:2618   */\n      tag_146\n        /* \"#utility.yul\":2611:2617   */\n      dup5\n        /* \"#utility.yul\":2606:2609   */\n      dup3\n        /* \"#utility.yul\":2601:2604   */\n      dup6\n        /* \"#utility.yul\":2564:2618   */\n      tag_73\n      jump\t// in\n    tag_146:\n        /* \"#utility.yul\":2283:2624   */\n      pop\n        /* \"#utility.yul\":2199:2624   */\n      swap4\n      swap3\n      pop\n      pop\n      pop\n      jump\t// out\n        /* \"#utility.yul\":2644:2984   */\n    tag_75:\n        /* \"#utility.yul\":2700:2705   */\n      0x00\n        /* \"#utility.yul\":2749:2752   */\n      dup3\n        /* \"#utility.yul\":2742:2746   */\n      0x1f\n        /* \"#utility.yul\":2734:2740   */\n      dup4\n        /* \"#utility.yul\":2730:2747   */\n      add\n        /* \"#utility.yul\":2726:2753   */\n      slt\n        /* \"#utility.yul\":2716:2838   */\n      tag_148\n      jumpi\n        /* \"#utility.yul\":2757:2836   */\n      tag_149\n      tag_66\n      jump\t// in\n    tag_149:\n        /* \"#utility.yul\":2716:2838   */\n    tag_148:\n        /* \"#utility.yul\":2874:2880   */\n      dup2\n        /* \"#utility.yul\":2861:2881   */\n      calldataload\n        /* \"#utility.yul\":2899:2978   */\n      tag_150\n        /* \"#utility.yul\":2974:2977   */\n      dup5\n        /* \"#utility.yul\":2966:2972   */\n      dup3\n        /* \"#utility.yul\":2959:2963   */\n      0x20\n        /* \"#utility.yul\":2951:2957   */\n      dup7\n        /* \"#utility.yul\":2947:2964   */\n      add\n        /* \"#utility.yul\":2899:2978   */\n      tag_74\n      jump\t// in\n    tag_150:\n        /* \"#utility.yul\":2890:2978   */\n      swap2\n      pop\n        /* \"#utility.yul\":2706:2984   */\n      pop\n        /* \"#utility.yul\":2644:2984   */\n      swap3\n      swap2\n      pop\n      pop\n      jump\t// out\n        /* \"#utility.yul\":2990:3112   */\n    tag_76:\n        /* \"#utility.yul\":3063:3087   */\n      tag_152\n        /* \"#utility.yul\":3081:3086   */\n      dup2\n        /* \"#utility.yul\":3063:3087   */\n      tag_61\n      jump\t// in\n    tag_152:\n        /* \"#utility.yul\":3056:3061   */\n      dup2\n        /* \"#utility.yul\":3053:3088   */\n      eq\n        /* \"#utility.yul\":3043:3106   */\n      tag_153\n      jumpi\n        /* \"#utility.yul\":3102:3103   */\n      0x00\n        /* \"#utility.yul\":3099:3100   */\n      dup1\n        /* \"#utility.yul\":3092:3104   */\n      revert\n        /* \"#utility.yul\":3043:3106   */\n    tag_153:\n        /* \"#utility.yul\":2990:3112   */\n      pop\n      jump\t// out\n        /* \"#utility.yul\":3118:3257   */\n    tag_77:\n        /* \"#utility.yul\":3164:3169   */\n      0x00\n        /* \"#utility.yul\":3202:3208   */\n      dup2\n        /* \"#utility.yul\":3189:3209   */\n      calldataload\n        /* \"#utility.yul\":3180:3209   */\n      swap1\n      pop\n        /* \"#utility.yul\":3218:3251   */\n      tag_155\n        /* \"#utility.yul\":3245:3250   */\n      dup2\n        /* \"#utility.yul\":3218:3251   */\n      tag_76\n      jump\t// in\n    tag_155:\n        /* \"#utility.yul\":3118:3257   */\n      swap3\n      swap2\n      pop\n      pop\n      jump\t// out\n        /* \"#utility.yul\":3263:3917   */\n    tag_14:\n        /* \"#utility.yul\":3341:3347   */\n      0x00\n        /* \"#utility.yul\":3349:3355   */\n      dup1\n        /* \"#utility.yul\":3398:3400   */\n      0x40\n        /* \"#utility.yul\":3386:3395   */\n      dup4\n        /* \"#utility.yul\":3377:3384   */\n      dup6\n        /* \"#utility.yul\":3373:3396   */\n      sub\n        /* \"#utility.yul\":3369:3401   */\n      slt\n        /* \"#utility.yul\":3366:3485   */\n      iszero\n      tag_157\n      jumpi\n        /* \"#utility.yul\":3404:3483   */\n      tag_158\n      tag_64\n      jump\t// in\n    tag_158:\n        /* \"#utility.yul\":3366:3485   */\n    tag_157:\n        /* \"#utility.yul\":3552:3553   */\n      0x00\n        /* \"#utility.yul\":3541:3550   */\n      dup4\n        /* \"#utility.yul\":3537:3554   */\n      add\n        /* \"#utility.yul\":3524:3555   */\n      calldataload\n        /* \"#utility.yul\":3582:3600   */\n      0xffffffffffffffff\n        /* \"#utility.yul\":3574:3580   */\n      dup2\n        /* \"#utility.yul\":3571:3601   */\n      gt\n        /* \"#utility.yul\":3568:3685   */\n      iszero\n      tag_159\n      jumpi\n        /* \"#utility.yul\":3604:3683   */\n      tag_160\n      tag_65\n      jump\t// in\n    tag_160:\n        /* \"#utility.yul\":3568:3685   */\n    tag_159:\n        /* \"#utility.yul\":3709:3772   */\n      tag_161\n        /* \"#utility.yul\":3764:3771   */\n      dup6\n        /* \"#utility.yul\":3755:3761   */\n      dup3\n        /* \"#utility.yul\":3744:3753   */\n      dup7\n        /* \"#utility.yul\":3740:3762   */\n      add\n        /* \"#utility.yul\":3709:3772   */\n      tag_75\n      jump\t// in\n    tag_161:\n        /* \"#utility.yul\":3699:3772   */\n      swap3\n      pop\n        /* \"#utility.yul\":3495:3782   */\n      pop\n        /* \"#utility.yul\":3821:3823   */\n      0x20\n        /* \"#utility.yul\":3847:3900   */\n      tag_162\n        /* \"#utility.yul\":3892:3899   */\n      dup6\n        /* \"#utility.yul\":3883:3889   */\n      dup3\n        /* \"#utility.yul\":3872:3881   */\n      dup7\n        /* \"#utility.yul\":3868:3890   */\n      add\n        /* \"#utility.yul\":3847:3900   */\n      tag_77\n      jump\t// in\n    tag_162:\n        /* \"#utility.yul\":3837:3900   */\n      swap2\n      pop\n        /* \"#utility.yul\":3792:3910   */\n      pop\n        /* \"#utility.yul\":3263:3917   */\n      swap3\n      pop\n      swap3\n      swap1\n      pop\n      jump\t// out\n        /* \"#utility.yul\":3923:4252   */\n    tag_19:\n        /* \"#utility.yul\":3982:3988   */\n      0x00\n        /* \"#utility.yul\":4031:4033   */\n      0x20\n        /* \"#utility.yul\":4019:4028   */\n      dup3\n        /* \"#utility.yul\":4010:4017   */\n      dup5\n        /* \"#utility.yul\":4006:4029   */\n      sub\n        /* \"#utility.yul\":4002:4034   */\n      slt\n        /* \"#utility.yul\":3999:4118   */\n      iszero\n      tag_164\n      jumpi\n        /* \"#utility.yul\":4037:4116   */\n      tag_165\n      tag_64\n      jump\t// in\n    tag_165:\n        /* \"#utility.yul\":3999:4118   */\n    tag_164:\n        /* \"#utility.yul\":4157:4158   */\n      0x00\n        /* \"#utility.yul\":4182:4235   */\n      tag_166\n        /* \"#utility.yul\":4227:4234   */\n      dup5\n        /* \"#utility.yul\":4218:4224   */\n      dup3\n        /* \"#utility.yul\":4207:4216   */\n      dup6\n        /* \"#utility.yul\":4203:4225   */\n      add\n        /* \"#utility.yul\":4182:4235   */\n      tag_77\n      jump\t// in\n    tag_166:\n        /* \"#utility.yul\":4172:4235   */\n      swap2\n      pop\n        /* \"#utility.yul\":4128:4245   */\n      pop\n        /* \"#utility.yul\":3923:4252   */\n      swap3\n      swap2\n      pop\n      pop\n      jump\t// out\n        /* \"#utility.yul\":4258:4384   */\n    tag_78:\n        /* \"#utility.yul\":4295:4302   */\n      0x00\n        /* \"#utility.yul\":4335:4377   */\n      0xffffffffffffffffffffffffffffffffffffffff\n        /* \"#utility.yul\":4328:4333   */\n      dup3\n        /* \"#utility.yul\":4324:4378   */\n      and\n        /* \"#utility.yul\":4313:4378   */\n      swap1\n      pop\n        /* \"#utility.yul\":4258:4384   */\n      swap2\n      swap1\n      pop\n      jump\t// out\n        /* \"#utility.yul\":4390:4494   */\n    tag_79:\n        /* \"#utility.yul\":4435:4442   */\n      0x00\n        /* \"#utility.yul\":4464:4488   */\n      tag_169\n        /* \"#utility.yul\":4482:4487   */\n      dup3\n        /* \"#utility.yul\":4464:4488   */\n      tag_78\n      jump\t// in\n    tag_169:\n        /* \"#utility.yul\":4453:4488   */\n      swap1\n      pop\n        /* \"#utility.yul\":4390:4494   */\n      swap2\n      swap1\n      pop\n      jump\t// out\n        /* \"#utility.yul\":4500:4642   */\n    tag_80:\n        /* \"#utility.yul\":4603:4635   */\n      tag_171\n        /* \"#utility.yul\":4629:4634   */\n      dup2\n        /* \"#utility.yul\":4603:4635   */\n      tag_79\n      jump\t// in\n    tag_171:\n        /* \"#utility.yul\":4598:4601   */\n      dup3\n        /* \"#utility.yul\":4591:4636   */\n      mstore\n        /* \"#utility.yul\":4500:4642   */\n      pop\n      pop\n      jump\t// out\n        /* \"#utility.yul\":4648:4747   */\n    tag_81:\n        /* \"#utility.yul\":4700:4706   */\n      0x00\n        /* \"#utility.yul\":4734:4739   */\n      dup2\n        /* \"#utility.yul\":4728:4740   */\n      mload\n        /* \"#utility.yul\":4718:4740   */\n      swap1\n      pop\n        /* \"#utility.yul\":4648:4747   */\n      swap2\n      swap1\n      pop\n      jump\t// out\n        /* \"#utility.yul\":4753:4922   */\n    tag_82:\n        /* \"#utility.yul\":4837:4848   */\n      0x00\n        /* \"#utility.yul\":4871:4877   */\n      dup3\n        /* \"#utility.yul\":4866:4869   */\n      dup3\n        /* \"#utility.yul\":4859:4878   */\n      mstore\n        /* \"#utility.yul\":4911:4915   */\n      0x20\n        /* \"#utility.yul\":4906:4909   */\n      dup3\n        /* \"#utility.yul\":4902:4916   */\n      add\n        /* \"#utility.yul\":4887:4916   */\n      swap1\n      pop\n        /* \"#utility.yul\":4753:4922   */\n      swap3\n      swap2\n      pop\n      pop\n      jump\t// out\n        /* \"#utility.yul\":4928:5067   */\n    tag_83:\n        /* \"#utility.yul\":5017:5023   */\n      dup3\n        /* \"#utility.yul\":5012:5015   */\n      dup2\n        /* \"#utility.yul\":5007:5010   */\n      dup4\n        /* \"#utility.yul\":5001:5024   */\n      mcopy\n        /* \"#utility.yul\":5058:5059   */\n      0x00\n        /* \"#utility.yul\":5049:5055   */\n      dup4\n        /* \"#utility.yul\":5044:5047   */\n      dup4\n        /* \"#utility.yul\":5040:5056   */\n      add\n        /* \"#utility.yul\":5033:5060   */\n      mstore\n        /* \"#utility.yul\":4928:5067   */\n      pop\n      pop\n      pop\n      jump\t// out\n        /* \"#utility.yul\":5073:5450   */\n    tag_84:\n        /* \"#utility.yul\":5161:5164   */\n      0x00\n        /* \"#utility.yul\":5189:5228   */\n      tag_176\n        /* \"#utility.yul\":5222:5227   */\n      dup3\n        /* \"#utility.yul\":5189:5228   */\n      tag_81\n      jump\t// in\n    tag_176:\n        /* \"#utility.yul\":5244:5315   */\n      tag_177\n        /* \"#utility.yul\":5308:5314   */\n      dup2\n        /* \"#utility.yul\":5303:5306   */\n      dup6\n        /* \"#utility.yul\":5244:5315   */\n      tag_82\n      jump\t// in\n    tag_177:\n        /* \"#utility.yul\":5237:5315   */\n      swap4\n      pop\n        /* \"#utility.yul\":5324:5389   */\n      tag_178\n        /* \"#utility.yul\":5382:5388   */\n      dup2\n        /* \"#utility.yul\":5377:5380   */\n      dup6\n        /* \"#utility.yul\":5370:5374   */\n      0x20\n        /* \"#utility.yul\":5363:5368   */\n      dup7\n        /* \"#utility.yul\":5359:5375   */\n      add\n        /* \"#utility.yul\":5324:5389   */\n      tag_83\n      jump\t// in\n    tag_178:\n        /* \"#utility.yul\":5414:5443   */\n      tag_179\n        /* \"#utility.yul\":5436:5442   */\n      dup2\n        /* \"#utility.yul\":5414:5443   */\n      tag_68\n      jump\t// in\n    tag_179:\n        /* \"#utility.yul\":5409:5412   */\n      dup5\n        /* \"#utility.yul\":5405:5444   */\n      add\n        /* \"#utility.yul\":5398:5444   */\n      swap2\n      pop\n        /* \"#utility.yul\":5165:5450   */\n      pop\n        /* \"#utility.yul\":5073:5450   */\n      swap3\n      swap2\n      pop\n      pop\n      jump\t// out\n        /* \"#utility.yul\":5456:5546   */\n    tag_85:\n        /* \"#utility.yul\":5490:5497   */\n      0x00\n        /* \"#utility.yul\":5533:5538   */\n      dup2\n        /* \"#utility.yul\":5526:5539   */\n      iszero\n        /* \"#utility.yul\":5519:5540   */\n      iszero\n        /* \"#utility.yul\":5508:5540   */\n      swap1\n      pop\n        /* \"#utility.yul\":5456:5546   */\n      swap2\n      swap1\n      pop\n      jump\t// out\n        /* \"#utility.yul\":5552:5661   */\n    tag_86:\n        /* \"#utility.yul\":5633:5654   */\n      tag_182\n        /* \"#utility.yul\":5648:5653   */\n      dup2\n        /* \"#utility.yul\":5633:5654   */\n      tag_85\n      jump\t// in\n    tag_182:\n        /* \"#utility.yul\":5628:5631   */\n      dup3\n        /* \"#utility.yul\":5621:5655   */\n      mstore\n        /* \"#utility.yul\":5552:5661   */\n      pop\n      pop\n      jump\t// out\n        /* \"#utility.yul\":5667:6442   */\n    tag_22:\n        /* \"#utility.yul\":5902:5906   */\n      0x00\n        /* \"#utility.yul\":5940:5943   */\n      0xa0\n        /* \"#utility.yul\":5929:5938   */\n      dup3\n        /* \"#utility.yul\":5925:5944   */\n      add\n        /* \"#utility.yul\":5917:5944   */\n      swap1\n      pop\n        /* \"#utility.yul\":5954:6025   */\n      tag_184\n        /* \"#utility.yul\":6022:6023   */\n      0x00\n        /* \"#utility.yul\":6011:6020   */\n      dup4\n        /* \"#utility.yul\":6007:6024   */\n      add\n        /* \"#utility.yul\":5998:6004   */\n      dup9\n        /* \"#utility.yul\":5954:6025   */\n      tag_62\n      jump\t// in\n    tag_184:\n        /* \"#utility.yul\":6035:6123   */\n      tag_185\n        /* \"#utility.yul\":6119:6121   */\n      0x20\n        /* \"#utility.yul\":6108:6117   */\n      dup4\n        /* \"#utility.yul\":6104:6122   */\n      add\n        /* \"#utility.yul\":6095:6101   */\n      dup8\n        /* \"#utility.yul\":6035:6123   */\n      tag_80\n      jump\t// in\n    tag_185:\n        /* \"#utility.yul\":6170:6179   */\n      dup2\n        /* \"#utility.yul\":6164:6168   */\n      dup2\n        /* \"#utility.yul\":6160:6180   */\n      sub\n        /* \"#utility.yul\":6155:6157   */\n      0x40\n        /* \"#utility.yul\":6144:6153   */\n      dup4\n        /* \"#utility.yul\":6140:6158   */\n      add\n        /* \"#utility.yul\":6133:6181   */\n      mstore\n        /* \"#utility.yul\":6198:6276   */\n      tag_186\n        /* \"#utility.yul\":6271:6275   */\n      dup2\n        /* \"#utility.yul\":6262:6268   */\n      dup7\n        /* \"#utility.yul\":6198:6276   */\n      tag_84\n      jump\t// in\n    tag_186:\n        /* \"#utility.yul\":6190:6276   */\n      swap1\n      pop\n        /* \"#utility.yul\":6286:6358   */\n      tag_187\n        /* \"#utility.yul\":6354:6356   */\n      0x60\n        /* \"#utility.yul\":6343:6352   */\n      dup4\n        /* \"#utility.yul\":6339:6357   */\n      add\n        /* \"#utility.yul\":6330:6336   */\n      dup6\n        /* \"#utility.yul\":6286:6358   */\n      tag_62\n      jump\t// in\n    tag_187:\n        /* \"#utility.yul\":6368:6435   */\n      tag_188\n        /* \"#utility.yul\":6430:6433   */\n      0x80\n        /* \"#utility.yul\":6419:6428   */\n      dup4\n        /* \"#utility.yul\":6415:6434   */\n      add\n        /* \"#utility.yul\":6406:6412   */\n      dup5\n        /* \"#utility.yul\":6368:6435   */\n      tag_86\n      jump\t// in\n    tag_188:\n        /* \"#utility.yul\":5667:6442   */\n      swap7\n      swap6\n      pop\n      pop\n      pop\n      pop\n      pop\n      pop\n      jump\t// out\n        /* \"#utility.yul\":6448:6619   */\n    tag_87:\n        /* \"#utility.yul\":6588:6611   */\n      0x4974656d206e616d652069732072657175697265640000000000000000000000\n        /* \"#utility.yul\":6584:6585   */\n      0x00\n        /* \"#utility.yul\":6576:6582   */\n      dup3\n        /* \"#utility.yul\":6572:6586   */\n      add\n        /* \"#utility.yul\":6565:6612   */\n      mstore\n        /* \"#utility.yul\":6448:6619   */\n      pop\n      jump\t// out\n        /* \"#utility.yul\":6625:6991   */\n    tag_88:\n        /* \"#utility.yul\":6767:6770   */\n      0x00\n        /* \"#utility.yul\":6788:6855   */\n      tag_191\n        /* \"#utility.yul\":6852:6854   */\n      0x15\n        /* \"#utility.yul\":6847:6850   */\n      dup4\n        /* \"#utility.yul\":6788:6855   */\n      tag_82\n      jump\t// in\n    tag_191:\n        /* \"#utility.yul\":6781:6855   */\n      swap2\n      pop\n        /* \"#utility.yul\":6864:6957   */\n      tag_192\n        /* \"#utility.yul\":6953:6956   */\n      dup3\n        /* \"#utility.yul\":6864:6957   */\n      tag_87\n      jump\t// in\n    tag_192:\n        /* \"#utility.yul\":6982:6984   */\n      0x20\n        /* \"#utility.yul\":6977:6980   */\n      dup3\n        /* \"#utility.yul\":6973:6985   */\n      add\n        /* \"#utility.yul\":6966:6985   */\n      swap1\n      pop\n        /* \"#utility.yul\":6625:6991   */\n      swap2\n      swap1\n      pop\n      jump\t// out\n        /* \"#utility.yul\":6997:7416   */\n    tag_29:\n        /* \"#utility.yul\":7163:7167   */\n      0x00\n        /* \"#utility.yul\":7201:7203   */\n      0x20\n        /* \"#utility.yul\":7190:7199   */\n      dup3\n        /* \"#utility.yul\":7186:7204   */\n      add\n        /* \"#utility.yul\":7178:7204   */\n      swap1\n      pop\n        /* \"#utility.yul\":7250:7259   */\n      dup2\n        /* \"#utility.yul\":7244:7248   */\n      dup2\n        /* \"#utility.yul\":7240:7260   */\n      sub\n        /* \"#utility.yul\":7236:7237   */\n      0x00\n        /* \"#utility.yul\":7225:7234   */\n      dup4\n        /* \"#utility.yul\":7221:7238   */\n      add\n        /* \"#utility.yul\":7214:7261   */\n      mstore\n        /* \"#utility.yul\":7278:7409   */\n      tag_194\n        /* \"#utility.yul\":7404:7408   */\n      dup2\n        /* \"#utility.yul\":7278:7409   */\n      tag_88\n      jump\t// in\n    tag_194:\n        /* \"#utility.yul\":7270:7409   */\n      swap1\n      pop\n        /* \"#utility.yul\":6997:7416   */\n      swap2\n      swap1\n      pop\n      jump\t// out\n        /* \"#utility.yul\":7422:7602   */\n    tag_89:\n        /* \"#utility.yul\":7562:7594   */\n      0x50726963652053686f756c642062652067726561746572207468616e20300000\n        /* \"#utility.yul\":7558:7559   */\n      0x00\n        /* \"#utility.yul\":7550:7556   */\n      dup3\n        /* \"#utility.yul\":7546:7560   */\n      add\n        /* \"#utility.yul\":7539:7595   */\n      mstore\n        /* \"#utility.yul\":7422:7602   */\n      pop\n      jump\t// out\n        /* \"#utility.yul\":7608:7974   */\n    tag_90:\n        /* \"#utility.yul\":7750:7753   */\n      0x00\n        /* \"#utility.yul\":7771:7838   */\n      tag_197\n        /* \"#utility.yul\":7835:7837   */\n      0x1e\n        /* \"#utility.yul\":7830:7833   */\n      dup4\n        /* \"#utility.yul\":7771:7838   */\n      tag_82\n      jump\t// in\n    tag_197:\n        /* \"#utility.yul\":7764:7838   */\n      swap2\n      pop\n        /* \"#utility.yul\":7847:7940   */\n      tag_198\n        /* \"#utility.yul\":7936:7939   */\n      dup3\n        /* \"#utility.yul\":7847:7940   */\n      tag_89\n      jump\t// in\n    tag_198:\n        /* \"#utility.yul\":7965:7967   */\n      0x20\n        /* \"#utility.yul\":7960:7963   */\n      dup3\n        /* \"#utility.yul\":7956:7968   */\n      add\n        /* \"#utility.yul\":7949:7968   */\n      swap1\n      pop\n        /* \"#utility.yul\":7608:7974   */\n      swap2\n      swap1\n      pop\n      jump\t// out\n        /* \"#utility.yul\":7980:8399   */\n    tag_32:\n        /* \"#utility.yul\":8146:8150   */\n      0x00\n        /* \"#utility.yul\":8184:8186   */\n      0x20\n        /* \"#utility.yul\":8173:8182   */\n      dup3\n        /* \"#utility.yul\":8169:8187   */\n      add\n        /* \"#utility.yul\":8161:8187   */\n      swap1\n      pop\n        /* \"#utility.yul\":8233:8242   */\n      dup2\n        /* \"#utility.yul\":8227:8231   */\n      dup2\n        /* \"#utility.yul\":8223:8243   */\n      sub\n        /* \"#utility.yul\":8219:8220   */\n      0x00\n        /* \"#utility.yul\":8208:8217   */\n      dup4\n        /* \"#utility.yul\":8204:8221   */\n      add\n        /* \"#utility.yul\":8197:8244   */\n      mstore\n        /* \"#utility.yul\":8261:8392   */\n      tag_200\n        /* \"#utility.yul\":8387:8391   */\n      dup2\n        /* \"#utility.yul\":8261:8392   */\n      tag_90\n      jump\t// in\n    tag_200:\n        /* \"#utility.yul\":8253:8392   */\n      swap1\n      pop\n        /* \"#utility.yul\":7980:8399   */\n      swap2\n      swap1\n      pop\n      jump\t// out\n        /* \"#utility.yul\":8405:8585   */\n    tag_91:\n        /* \"#utility.yul\":8453:8530   */\n      0x4e487b7100000000000000000000000000000000000000000000000000000000\n        /* \"#utility.yul\":8450:8451   */\n      0x00\n        /* \"#utility.yul\":8443:8531   */\n      mstore\n        /* \"#utility.yul\":8550:8554   */\n      0x11\n        /* \"#utility.yul\":8547:8548   */\n      0x04\n        /* \"#utility.yul\":8540:8555   */\n      mstore\n        /* \"#utility.yul\":8574:8578   */\n      0x24\n        /* \"#utility.yul\":8571:8572   */\n      0x00\n        /* \"#utility.yul\":8564:8579   */\n      revert\n        /* \"#utility.yul\":8591:8824   */\n    tag_34:\n        /* \"#utility.yul\":8630:8633   */\n      0x00\n        /* \"#utility.yul\":8653:8677   */\n      tag_203\n        /* \"#utility.yul\":8671:8676   */\n      dup3\n        /* \"#utility.yul\":8653:8677   */\n      tag_61\n      jump\t// in\n    tag_203:\n        /* \"#utility.yul\":8644:8677   */\n      swap2\n      pop\n        /* \"#utility.yul\":8699:8765   */\n      0xffffffffffffffffffffffffffffffffffffffffffffffffffffffffffffffff\n        /* \"#utility.yul\":8692:8697   */\n      dup3\n        /* \"#utility.yul\":8689:8766   */\n      sub\n        /* \"#utility.yul\":8686:8789   */\n      tag_204\n      jumpi\n        /* \"#utility.yul\":8769:8787   */\n      tag_205\n      tag_91\n      jump\t// in\n    tag_205:\n        /* \"#utility.yul\":8686:8789   */\n    tag_204:\n        /* \"#utility.yul\":8816:8817   */\n      0x01\n        /* \"#utility.yul\":8809:8814   */\n      dup3\n        /* \"#utility.yul\":8805:8818   */\n      add\n        /* \"#utility.yul\":8798:8818   */\n      swap1\n      pop\n        /* \"#utility.yul\":8591:8824   */\n      swap2\n      swap1\n      pop\n      jump\t// out\n        /* \"#utility.yul\":8830:9010   */\n    tag_92:\n        /* \"#utility.yul\":8878:8955   */\n      0x4e487b7100000000000000000000000000000000000000000000000000000000\n        /* \"#utility.yul\":8875:8876   */\n      0x00\n        /* \"#utility.yul\":8868:8956   */\n      mstore\n        /* \"#utility.yul\":8975:8979   */\n      0x22\n        /* \"#utility.yul\":8972:8973   */\n      0x04\n        /* \"#utility.yul\":8965:8980   */\n      mstore\n        /* \"#utility.yul\":8999:9003   */\n      0x24\n        /* \"#utility.yul\":8996:8997   */\n      0x00\n        /* \"#utility.yul\":8989:9004   */\n      revert\n        /* \"#utility.yul\":9016:9336   */\n    tag_40:\n        /* \"#utility.yul\":9060:9066   */\n      0x00\n        /* \"#utility.yul\":9097:9098   */\n      0x02\n        /* \"#utility.yul\":9091:9095   */\n      dup3\n        /* \"#utility.yul\":9087:9099   */\n      div\n        /* \"#utility.yul\":9077:9099   */\n      swap1\n      pop\n        /* \"#utility.yul\":9144:9145   */\n      0x01\n        /* \"#utility.yul\":9138:9142   */\n      dup3\n        /* \"#utility.yul\":9134:9146   */\n      and\n        /* \"#utility.yul\":9165:9183   */\n      dup1\n        /* \"#utility.yul\":9155:9236   */\n      tag_208\n      jumpi\n        /* \"#utility.yul\":9221:9225   */\n      0x7f\n        /* \"#utility.yul\":9213:9219   */\n      dup3\n        /* \"#utility.yul\":9209:9226   */\n      and\n        /* \"#utility.yul\":9199:9226   */\n      swap2\n      pop\n        /* \"#utility.yul\":9155:9236   */\n    tag_208:\n        /* \"#utility.yul\":9283:9285   */\n      0x20\n        /* \"#utility.yul\":9275:9281   */\n      dup3\n        /* \"#utility.yul\":9272:9286   */\n      lt\n        /* \"#utility.yul\":9252:9270   */\n      dup2\n        /* \"#utility.yul\":9249:9287   */\n      sub\n        /* \"#utility.yul\":9246:9330   */\n      tag_209\n      jumpi\n        /* \"#utility.yul\":9302:9320   */\n      tag_210\n      tag_92\n      jump\t// in\n    tag_210:\n        /* \"#utility.yul\":9246:9330   */\n    tag_209:\n        /* \"#utility.yul\":9067:9336   */\n      pop\n        /* \"#utility.yul\":9016:9336   */\n      swap2\n      swap1\n      pop\n      jump\t// out\n        /* \"#utility.yul\":9342:9483   */\n    tag_93:\n        /* \"#utility.yul\":9391:9395   */\n      0x00\n        /* \"#utility.yul\":9414:9417   */\n      dup2\n        /* \"#utility.yul\":9406:9417   */\n      swap1\n      pop\n        /* \"#utility.yul\":9437:9440   */\n      dup2\n        /* \"#utility.yul\":9434:9435   */\n      0x00\n        /* \"#utility.yul\":9427:9441   */\n      mstore\n        /* \"#utility.yul\":9471:9475   */\n      0x20\n        /* \"#utility.yul\":9468:9469   */\n      0x00\n        /* \"#utility.yul\":9458:9476   */\n      keccak256\n        /* \"#utility.yul\":9450:9476   */\n      swap1\n      pop\n        /* \"#utility.yul\":9342:9483   */\n      swap2\n      swap1\n      pop\n      jump\t// out\n        /* \"#utility.yul\":9489:9582   */\n    tag_94:\n        /* \"#utility.yul\":9526:9532   */\n      0x00\n        /* \"#utility.yul\":9573:9575   */\n      0x20\n        /* \"#utility.yul\":9568:9570   */\n      0x1f\n        /* \"#utility.yul\":9561:9566   */\n      dup4\n        /* \"#utility.yul\":9557:9571   */\n      add\n        /* \"#utility.yul\":9553:9576   */\n      div\n        /* \"#utility.yul\":9543:9576   */\n      swap1\n      pop\n        /* \"#utility.yul\":9489:9582   */\n      swap2\n      swap1\n      pop\n      jump\t// out\n        /* \"#utility.yul\":9588:9695   */\n    tag_95:\n        /* \"#utility.yul\":9632:9640   */\n      0x00\n        /* \"#utility.yul\":9682:9687   */\n      dup3\n        /* \"#utility.yul\":9676:9680   */\n      dup3\n        /* \"#utility.yul\":9672:9688   */\n      shl\n        /* \"#utility.yul\":9651:9688   */\n      swap1\n      pop\n        /* \"#utility.yul\":9588:9695   */\n      swap3\n      swap2\n      pop\n      pop\n      jump\t// out\n        /* \"#utility.yul\":9701:10094   */\n    tag_96:\n        /* \"#utility.yul\":9770:9776   */\n      0x00\n        /* \"#utility.yul\":9820:9821   */\n      0x08\n        /* \"#utility.yul\":9808:9818   */\n      dup4\n        /* \"#utility.yul\":9804:9822   */\n      mul\n        /* \"#utility.yul\":9843:9940   */\n      tag_215\n        /* \"#utility.yul\":9873:9939   */\n      0xffffffffffffffffffffffffffffffffffffffffffffffffffffffffffffffff\n        /* \"#utility.yul\":9862:9871   */\n      dup3\n        /* \"#utility.yul\":9843:9940   */\n      tag_95\n      jump\t// in\n    tag_215:\n        /* \"#utility.yul\":9961:10000   */\n      tag_216\n        /* \"#utility.yul\":9991:9999   */\n      dup7\n        /* \"#utility.yul\":9980:9989   */\n      dup4\n        /* \"#utility.yul\":9961:10000   */\n      tag_95\n      jump\t// in\n    tag_216:\n        /* \"#utility.yul\":9949:10000   */\n      swap6\n      pop\n        /* \"#utility.yul\":10033:10037   */\n      dup1\n        /* \"#utility.yul\":10029:10038   */\n      not\n        /* \"#utility.yul\":10022:10027   */\n      dup5\n        /* \"#utility.yul\":10018:10039   */\n      and\n        /* \"#utility.yul\":10009:10039   */\n      swap4\n      pop\n        /* \"#utility.yul\":10082:10086   */\n      dup1\n        /* \"#utility.yul\":10072:10080   */\n      dup7\n        /* \"#utility.yul\":10068:10087   */\n      and\n        /* \"#utility.yul\":10061:10066   */\n      dup5\n        /* \"#utility.yul\":10058:10088   */\n      or\n        /* \"#utility.yul\":10048:10088   */\n      swap3\n      pop\n        /* \"#utility.yul\":9777:10094   */\n      pop\n      pop\n        /* \"#utility.yul\":9701:10094   */\n      swap4\n      swap3\n      pop\n      pop\n      pop\n      jump\t// out\n        /* \"#utility.yul\":10100:10160   */\n    tag_97:\n        /* \"#utility.yul\":10128:10131   */\n      0x00\n        /* \"#utility.yul\":10149:10154   */\n      dup2\n        /* \"#utility.yul\":10142:10154   */\n      swap1\n      pop\n        /* \"#utility.yul\":10100:10160   */\n      swap2\n      swap1\n      pop\n      jump\t// out\n        /* \"#utility.yul\":10166:10308   */\n    tag_98:\n        /* \"#utility.yul\":10216:10225   */\n      0x00\n        /* \"#utility.yul\":10249:10302   */\n      tag_219\n        /* \"#utility.yul\":10267:10301   */\n      tag_220\n        /* \"#utility.yul\":10276:10300   */\n      tag_221\n        /* \"#utility.yul\":10294:10299   */\n      dup5\n        /* \"#utility.yul\":10276:10300   */\n      tag_61\n      jump\t// in\n    tag_221:\n        /* \"#utility.yul\":10267:10301   */\n      tag_97\n      jump\t// in\n    tag_220:\n        /* \"#utility.yul\":10249:10302   */\n      tag_61\n      jump\t// in\n    tag_219:\n        /* \"#utility.yul\":10236:10302   */\n      swap1\n      pop\n        /* \"#utility.yul\":10166:10308   */\n      swap2\n      swap1\n      pop\n      jump\t// out\n        /* \"#utility.yul\":10314:10389   */\n    tag_99:\n        /* \"#utility.yul\":10357:10360   */\n      0x00\n        /* \"#utility.yul\":10378:10383   */\n      dup2\n        /* \"#utility.yul\":10371:10383   */\n      swap1\n      pop\n        /* \"#utility.yul\":10314:10389   */\n      swap2\n      swap1\n      pop\n      jump\t// out\n        /* \"#utility.yul\":10395:10664   */\n    tag_100:\n        /* \"#utility.yul\":10505:10544   */\n      tag_224\n        /* \"#utility.yul\":10536:10543   */\n      dup4\n        /* \"#utility.yul\":10505:10544   */\n      tag_98\n      jump\t// in\n    tag_224:\n        /* \"#utility.yul\":10566:10657   */\n      tag_225\n        /* \"#utility.yul\":10615:10656   */\n      tag_226\n        /* \"#utility.yul\":10639:10655   */\n      dup3\n        /* \"#utility.yul\":10615:10656   */\n      tag_99\n      jump\t// in\n    tag_226:\n        /* \"#utility.yul\":10607:10613   */\n      dup5\n        /* \"#utility.yul\":10600:10604   */\n      dup5\n        /* \"#utility.yul\":10594:10605   */\n      sload\n        /* \"#utility.yul\":10566:10657   */\n      tag_96\n      jump\t// in\n    tag_225:\n        /* \"#utility.yul\":10560:10564   */\n      dup3\n        /* \"#utility.yul\":10553:10658   */\n      sstore\n        /* \"#utility.yul\":10471:10664   */\n      pop\n        /* \"#utility.yul\":10395:10664   */\n      pop\n      pop\n      pop\n      jump\t// out\n        /* \"#utility.yul\":10670:10743   */\n    tag_101:\n        /* \"#utility.yul\":10715:10718   */\n      0x00\n        /* \"#utility.yul\":10670:10743   */\n      swap1\n      jump\t// out\n        /* \"#utility.yul\":10749:10938   */\n    tag_102:\n        /* \"#utility.yul\":10826:10858   */\n      tag_229\n      tag_101\n      jump\t// in\n    tag_229:\n        /* \"#utility.yul\":10867:10932   */\n      tag_230\n        /* \"#utility.yul\":10925:10931   */\n      dup2\n        /* \"#utility.yul\":10917:10923   */\n      dup5\n        /* \"#utility.yul\":10911:10915   */\n      dup5\n        /* \"#utility.yul\":10867:10932   */\n      tag_100\n      jump\t// in\n    tag_230:\n        /* \"#utility.yul\":10802:10938   */\n      pop\n        /* \"#utility.yul\":10749:10938   */\n      pop\n      pop\n      jump\t// out\n        /* \"#utility.yul\":10944:11130   */\n    tag_103:\n        /* \"#utility.yul\":11004:11124   */\n    tag_232:\n        /* \"#utility.yul\":11021:11024   */\n      dup2\n        /* \"#utility.yul\":11014:11019   */\n      dup2\n        /* \"#utility.yul\":11011:11025   */\n      lt\n        /* \"#utility.yul\":11004:11124   */\n      iszero\n      tag_234\n      jumpi\n        /* \"#utility.yul\":11075:11114   */\n      tag_235\n        /* \"#utility.yul\":11112:11113   */\n      0x00\n        /* \"#utility.yul\":11105:11110   */\n      dup3\n        /* \"#utility.yul\":11075:11114   */\n      tag_102\n      jump\t// in\n    tag_235:\n        /* \"#utility.yul\":11048:11049   */\n      0x01\n        /* \"#utility.yul\":11041:11046   */\n      dup2\n        /* \"#utility.yul\":11037:11050   */\n      add\n        /* \"#utility.yul\":11028:11050   */\n      swap1\n      pop\n        /* \"#utility.yul\":11004:11124   */\n      jump(tag_232)\n    tag_234:\n        /* \"#utility.yul\":10944:11130   */\n      pop\n      pop\n      jump\t// out\n        /* \"#utility.yul\":11136:11679   */\n    tag_104:\n        /* \"#utility.yul\":11237:11239   */\n      0x1f\n        /* \"#utility.yul\":11232:11235   */\n      dup3\n        /* \"#utility.yul\":11229:11240   */\n      gt\n        /* \"#utility.yul\":11226:11672   */\n      iszero\n      tag_237\n      jumpi\n        /* \"#utility.yul\":11271:11309   */\n      tag_238\n        /* \"#utility.yul\":11303:11308   */\n      dup2\n        /* \"#utility.yul\":11271:11309   */\n      tag_93\n      jump\t// in\n    tag_238:\n        /* \"#utility.yul\":11355:11384   */\n      tag_239\n        /* \"#utility.yul\":11373:11383   */\n      dup5\n        /* \"#utility.yul\":11355:11384   */\n      tag_94\n      jump\t// in\n    tag_239:\n        /* \"#utility.yul\":11345:11353   */\n      dup2\n        /* \"#utility.yul\":11341:11385   */\n      add\n        /* \"#utility.yul\":11538:11540   */\n      0x20\n        /* \"#utility.yul\":11526:11536   */\n      dup6\n        /* \"#utility.yul\":11523:11541   */\n      lt\n        /* \"#utility.yul\":11520:11569   */\n      iszero\n      tag_240\n      jumpi\n        /* \"#utility.yul\":11559:11567   */\n      dup2\n        /* \"#utility.yul\":11544:11567   */\n      swap1\n      pop\n        /* \"#utility.yul\":11520:11569   */\n    tag_240:\n        /* \"#utility.yul\":11582:11662   */\n      tag_241\n        /* \"#utility.yul\":11638:11660   */\n      tag_242\n        /* \"#utility.yul\":11656:11659   */\n      dup6\n        /* \"#utility.yul\":11638:11660   */\n      tag_94\n      jump\t// in\n    tag_242:\n        /* \"#utility.yul\":11628:11636   */\n      dup4\n        /* \"#utility.yul\":11624:11661   */\n      add\n        /* \"#utility.yul\":11611:11622   */\n      dup3\n        /* \"#utility.yul\":11582:11662   */\n      tag_103\n      jump\t// in\n    tag_241:\n        /* \"#utility.yul\":11241:11672   */\n      pop\n      pop\n        /* \"#utility.yul\":11226:11672   */\n    tag_237:\n        /* \"#utility.yul\":11136:11679   */\n      pop\n      pop\n      pop\n      jump\t// out\n        /* \"#utility.yul\":11685:11802   */\n    tag_105:\n        /* \"#utility.yul\":11739:11747   */\n      0x00\n        /* \"#utility.yul\":11789:11794   */\n      dup3\n        /* \"#utility.yul\":11783:11787   */\n      dup3\n        /* \"#utility.yul\":11779:11795   */\n      shr\n        /* \"#utility.yul\":11758:11795   */\n      swap1\n      pop\n        /* \"#utility.yul\":11685:11802   */\n      swap3\n      swap2\n      pop\n      pop\n      jump\t// out\n        /* \"#utility.yul\":11808:11977   */\n    tag_106:\n        /* \"#utility.yul\":11852:11858   */\n      0x00\n        /* \"#utility.yul\":11885:11936   */\n      tag_245\n        /* \"#utility.yul\":11933:11934   */\n      0x00\n        /* \"#utility.yul\":11929:11935   */\n      not\n        /* \"#utility.yul\":11921:11926   */\n      dup5\n        /* \"#utility.yul\":11918:11919   */\n      0x08\n        /* \"#utility.yul\":11914:11927   */\n      mul\n        /* \"#utility.yul\":11885:11936   */\n      tag_105\n      jump\t// in\n    tag_245:\n        /* \"#utility.yul\":11881:11937   */\n      not\n        /* \"#utility.yul\":11966:11970   */\n      dup1\n        /* \"#utility.yul\":11960:11964   */\n      dup4\n        /* \"#utility.yul\":11956:11971   */\n      and\n        /* \"#utility.yul\":11946:11971   */\n      swap2\n      pop\n        /* \"#utility.yul\":11859:11977   */\n      pop\n        /* \"#utility.yul\":11808:11977   */\n      swap3\n      swap2\n      pop\n      pop\n      jump\t// out\n        /* \"#utility.yul\":11982:12277   */\n    tag_107:\n        /* \"#utility.yul\":12058:12062   */\n      0x00\n        /* \"#utility.yul\":12204:12233   */\n      tag_247\n        /* \"#utility.yul\":12229:12232   */\n      dup4\n        /* \"#utility.yul\":12223:12227   */\n      dup4\n        /* \"#utility.yul\":12204:12233   */\n      tag_106\n      jump\t// in\n    tag_247:\n        /* \"#utility.yul\":12196:12233   */\n      swap2\n      pop\n        /* \"#utility.yul\":12266:12269   */\n      dup3\n        /* \"#utility.yul\":12263:12264   */\n      0x02\n        /* \"#utility.yul\":12259:12270   */\n      mul\n        /* \"#utility.yul\":12253:12257   */\n      dup3\n        /* \"#utility.yul\":12250:12271   */\n      or\n        /* \"#utility.yul\":12242:12271   */\n      swap1\n      pop\n        /* \"#utility.yul\":11982:12277   */\n      swap3\n      swap2\n      pop\n      pop\n      jump\t// out\n        /* \"#utility.yul\":12282:13677   */\n    tag_36:\n        /* \"#utility.yul\":12399:12436   */\n      tag_249\n        /* \"#utility.yul\":12432:12435   */\n      dup3\n        /* \"#utility.yul\":12399:12436   */\n      tag_81\n      jump\t// in\n    tag_249:\n        /* \"#utility.yul\":12501:12519   */\n      0xffffffffffffffff\n        /* \"#utility.yul\":12493:12499   */\n      dup2\n        /* \"#utility.yul\":12490:12520   */\n      gt\n        /* \"#utility.yul\":12487:12543   */\n      iszero\n      tag_250\n      jumpi\n        /* \"#utility.yul\":12523:12541   */\n      tag_251\n      tag_69\n      jump\t// in\n    tag_251:\n        /* \"#utility.yul\":12487:12543   */\n    tag_250:\n        /* \"#utility.yul\":12567:12605   */\n      tag_252\n        /* \"#utility.yul\":12599:12603   */\n      dup3\n        /* \"#utility.yul\":12593:12604   */\n      sload\n        /* \"#utility.yul\":12567:12605   */\n      tag_40\n      jump\t// in\n    tag_252:\n        /* \"#utility.yul\":12652:12719   */\n      tag_253\n        /* \"#utility.yul\":12712:12718   */\n      dup3\n        /* \"#utility.yul\":12704:12710   */\n      dup3\n        /* \"#utility.yul\":12698:12702   */\n      dup6\n        /* \"#utility.yul\":12652:12719   */\n      tag_104\n      jump\t// in\n    tag_253:\n        /* \"#utility.yul\":12746:12747   */\n      0x00\n        /* \"#utility.yul\":12770:12774   */\n      0x20\n        /* \"#utility.yul\":12757:12774   */\n      swap1\n      pop\n        /* \"#utility.yul\":12802:12804   */\n      0x1f\n        /* \"#utility.yul\":12794:12800   */\n      dup4\n        /* \"#utility.yul\":12791:12805   */\n      gt\n        /* \"#utility.yul\":12819:12820   */\n      0x01\n        /* \"#utility.yul\":12814:13432   */\n      dup2\n      eq\n      tag_255\n      jumpi\n        /* \"#utility.yul\":13476:13477   */\n      0x00\n        /* \"#utility.yul\":13493:13499   */\n      dup5\n        /* \"#utility.yul\":13490:13567   */\n      iszero\n      tag_256\n      jumpi\n        /* \"#utility.yul\":13542:13551   */\n      dup3\n        /* \"#utility.yul\":13537:13540   */\n      dup8\n        /* \"#utility.yul\":13533:13552   */\n      add\n        /* \"#utility.yul\":13527:13553   */\n      mload\n        /* \"#utility.yul\":13518:13553   */\n      swap1\n      pop\n        /* \"#utility.yul\":13490:13567   */\n    tag_256:\n        /* \"#utility.yul\":13593:13660   */\n      tag_257\n        /* \"#utility.yul\":13653:13659   */\n      dup6\n        /* \"#utility.yul\":13646:13651   */\n      dup3\n        /* \"#utility.yul\":13593:13660   */\n      tag_107\n      jump\t// in\n    tag_257:\n        /* \"#utility.yul\":13587:13591   */\n      dup7\n        /* \"#utility.yul\":13580:13661   */\n      sstore\n        /* \"#utility.yul\":13449:13671   */\n      pop\n        /* \"#utility.yul\":12784:13671   */\n      jump(tag_254)\n        /* \"#utility.yul\":12814:13432   */\n    tag_255:\n        /* \"#utility.yul\":12866:12870   */\n      0x1f\n        /* \"#utility.yul\":12862:12871   */\n      not\n        /* \"#utility.yul\":12854:12860   */\n      dup5\n        /* \"#utility.yul\":12850:12872   */\n      and\n        /* \"#utility.yul\":12900:12937   */\n      tag_258\n        /* \"#utility.yul\":12932:12936   */\n      dup7\n        /* \"#utility.yul\":12900:12937   */\n      tag_93\n      jump\t// in\n    tag_258:\n        /* \"#utility.yul\":12959:12960   */\n      0x00\n        /* \"#utility.yul\":12973:13181   */\n    tag_259:\n        /* \"#utility.yul\":12987:12994   */\n      dup3\n        /* \"#utility.yul\":12984:12985   */\n      dup2\n        /* \"#utility.yul\":12981:12995   */\n      lt\n        /* \"#utility.yul\":12973:13181   */\n      iszero\n      tag_261\n      jumpi\n        /* \"#utility.yul\":13066:13075   */\n      dup5\n        /* \"#utility.yul\":13061:13064   */\n      dup10\n        /* \"#utility.yul\":13057:13076   */\n      add\n        /* \"#utility.yul\":13051:13077   */\n      mload\n        /* \"#utility.yul\":13043:13049   */\n      dup3\n        /* \"#utility.yul\":13036:13078   */\n      sstore\n        /* \"#utility.yul\":13117:13118   */\n      0x01\n        /* \"#utility.yul\":13109:13115   */\n      dup3\n        /* \"#utility.yul\":13105:13119   */\n      add\n        /* \"#utility.yul\":13095:13119   */\n      swap2\n      pop\n        /* \"#utility.yul\":13164:13166   */\n      0x20\n        /* \"#utility.yul\":13153:13162   */\n      dup6\n        /* \"#utility.yul\":13149:13167   */\n      add\n        /* \"#utility.yul\":13136:13167   */\n      swap5\n      pop\n        /* \"#utility.yul\":13010:13014   */\n      0x20\n        /* \"#utility.yul\":13007:13008   */\n      dup2\n        /* \"#utility.yul\":13003:13015   */\n      add\n        /* \"#utility.yul\":12998:13015   */\n      swap1\n      pop\n        /* \"#utility.yul\":12973:13181   */\n      jump(tag_259)\n    tag_261:\n        /* \"#utility.yul\":13209:13215   */\n      dup7\n        /* \"#utility.yul\":13200:13207   */\n      dup4\n        /* \"#utility.yul\":13197:13216   */\n      lt\n        /* \"#utility.yul\":13194:13373   */\n      iszero\n      tag_262\n      jumpi\n        /* \"#utility.yul\":13267:13276   */\n      dup5\n        /* \"#utility.yul\":13262:13265   */\n      dup10\n        /* \"#utility.yul\":13258:13277   */\n      add\n        /* \"#utility.yul\":13252:13278   */\n      mload\n        /* \"#utility.yul\":13310:13358   */\n      tag_263\n        /* \"#utility.yul\":13352:13356   */\n      0x1f\n        /* \"#utility.yul\":13344:13350   */\n      dup10\n        /* \"#utility.yul\":13340:13357   */\n      and\n        /* \"#utility.yul\":13329:13338   */\n      dup3\n        /* \"#utility.yul\":13310:13358   */\n      tag_106\n      jump\t// in\n    tag_263:\n        /* \"#utility.yul\":13302:13308   */\n      dup4\n        /* \"#utility.yul\":13295:13359   */\n      sstore\n        /* \"#utility.yul\":13217:13373   */\n      pop\n        /* \"#utility.yul\":13194:13373   */\n    tag_262:\n        /* \"#utility.yul\":13419:13420   */\n      0x01\n        /* \"#utility.yul\":13415:13416   */\n      0x02\n        /* \"#utility.yul\":13407:13413   */\n      dup9\n        /* \"#utility.yul\":13403:13417   */\n      mul\n        /* \"#utility.yul\":13399:13421   */\n      add\n        /* \"#utility.yul\":13393:13397   */\n      dup9\n        /* \"#utility.yul\":13386:13422   */\n      sstore\n        /* \"#utility.yul\":12821:13432   */\n      pop\n      pop\n      pop\n        /* \"#utility.yul\":12784:13671   */\n    tag_254:\n      pop\n        /* \"#utility.yul\":12374:13677   */\n      pop\n      pop\n      pop\n        /* \"#utility.yul\":12282:13677   */\n      pop\n      pop\n      jump\t// out\n        /* \"#utility.yul\":13683:14106   */\n    tag_38:\n        /* \"#utility.yul\":13824:13828   */\n      0x00\n        /* \"#utility.yul\":13862:13864   */\n      0x40\n        /* \"#utility.yul\":13851:13860   */\n      dup3\n        /* \"#utility.yul\":13847:13865   */\n      add\n        /* \"#utility.yul\":13839:13865   */\n      swap1\n      pop\n        /* \"#utility.yul\":13911:13920   */\n      dup2\n        /* \"#utility.yul\":13905:13909   */\n      dup2\n        /* \"#utility.yul\":13901:13921   */\n      sub\n        /* \"#utility.yul\":13897:13898   */\n      0x00\n        /* \"#utility.yul\":13886:13895   */\n      dup4\n        /* \"#utility.yul\":13882:13899   */\n      add\n        /* \"#utility.yul\":13875:13922   */\n      mstore\n        /* \"#utility.yul\":13939:14017   */\n      tag_265\n        /* \"#utility.yul\":14012:14016   */\n      dup2\n        /* \"#utility.yul\":14003:14009   */\n      dup6\n        /* \"#utility.yul\":13939:14017   */\n      tag_84\n      jump\t// in\n    tag_265:\n        /* \"#utility.yul\":13931:14017   */\n      swap1\n      pop\n        /* \"#utility.yul\":14027:14099   */\n      tag_266\n        /* \"#utility.yul\":14095:14097   */\n      0x20\n        /* \"#utility.yul\":14084:14093   */\n      dup4\n        /* \"#utility.yul\":14080:14098   */\n      add\n        /* \"#utility.yul\":14071:14077   */\n      dup5\n        /* \"#utility.yul\":14027:14099   */\n      tag_62\n      jump\t// in\n    tag_266:\n        /* \"#utility.yul\":13683:14106   */\n      swap4\n      swap3\n      pop\n      pop\n      pop\n      jump\t// out\n        /* \"#utility.yul\":14112:14281   */\n    tag_108:\n        /* \"#utility.yul\":14252:14273   */\n      0x4974656d20646f6573206e6f7420657869737400000000000000000000000000\n        /* \"#utility.yul\":14248:14249   */\n      0x00\n        /* \"#utility.yul\":14240:14246   */\n      dup3\n        /* \"#utility.yul\":14236:14250   */\n      add\n        /* \"#utility.yul\":14229:14274   */\n      mstore\n        /* \"#utility.yul\":14112:14281   */\n      pop\n      jump\t// out\n        /* \"#utility.yul\":14287:14653   */\n    tag_109:\n        /* \"#utility.yul\":14429:14432   */\n      0x00\n        /* \"#utility.yul\":14450:14517   */\n      tag_269\n        /* \"#utility.yul\":14514:14516   */\n      0x13\n        /* \"#utility.yul\":14509:14512   */\n      dup4\n        /* \"#utility.yul\":14450:14517   */\n      tag_82\n      jump\t// in\n    tag_269:\n        /* \"#utility.yul\":14443:14517   */\n      swap2\n      pop\n        /* \"#utility.yul\":14526:14619   */\n      tag_270\n        /* \"#utility.yul\":14615:14618   */\n      dup3\n        /* \"#utility.yul\":14526:14619   */\n      tag_108\n      jump\t// in\n    tag_270:\n        /* \"#utility.yul\":14644:14646   */\n      0x20\n        /* \"#utility.yul\":14639:14642   */\n      dup3\n        /* \"#utility.yul\":14635:14647   */\n      add\n        /* \"#utility.yul\":14628:14647   */\n      swap1\n      pop\n        /* \"#utility.yul\":14287:14653   */\n      swap2\n      swap1\n      pop\n      jump\t// out\n        /* \"#utility.yul\":14659:15078   */\n    tag_48:\n        /* \"#utility.yul\":14825:14829   */\n      0x00\n        /* \"#utility.yul\":14863:14865   */\n      0x20\n        /* \"#utility.yul\":14852:14861   */\n      dup3\n        /* \"#utility.yul\":14848:14866   */\n      add\n        /* \"#utility.yul\":14840:14866   */\n      swap1\n      pop\n        /* \"#utility.yul\":14912:14921   */\n      dup2\n        /* \"#utility.yul\":14906:14910   */\n      dup2\n        /* \"#utility.yul\":14902:14922   */\n      sub\n        /* \"#utility.yul\":14898:14899   */\n      0x00\n        /* \"#utility.yul\":14887:14896   */\n      dup4\n        /* \"#utility.yul\":14883:14900   */\n      add\n        /* \"#utility.yul\":14876:14923   */\n      mstore\n        /* \"#utility.yul\":14940:15071   */\n      tag_272\n        /* \"#utility.yul\":15066:15070   */\n      dup2\n        /* \"#utility.yul\":14940:15071   */\n      tag_109\n      jump\t// in\n    tag_272:\n        /* \"#utility.yul\":14932:15071   */\n      swap1\n      pop\n        /* \"#utility.yul\":14659:15078   */\n      swap2\n      swap1\n      pop\n      jump\t// out\n        /* \"#utility.yul\":15084:15254   */\n    tag_110:\n        /* \"#utility.yul\":15224:15246   */\n      0x496e636f72726563742065746865722073656e74000000000000000000000000\n        /* \"#utility.yul\":15220:15221   */\n      0x00\n        /* \"#utility.yul\":15212:15218   */\n      dup3\n        /* \"#utility.yul\":15208:15222   */\n      add\n        /* \"#utility.yul\":15201:15247   */\n      mstore\n        /* \"#utility.yul\":15084:15254   */\n      pop\n      jump\t// out\n        /* \"#utility.yul\":15260:15626   */\n    tag_111:\n        /* \"#utility.yul\":15402:15405   */\n      0x00\n        /* \"#utility.yul\":15423:15490   */\n      tag_275\n        /* \"#utility.yul\":15487:15489   */\n      0x14\n        /* \"#utility.yul\":15482:15485   */\n      dup4\n        /* \"#utility.yul\":15423:15490   */\n      tag_82\n      jump\t// in\n    tag_275:\n        /* \"#utility.yul\":15416:15490   */\n      swap2\n      pop\n        /* \"#utility.yul\":15499:15592   */\n      tag_276\n        /* \"#utility.yul\":15588:15591   */\n      dup3\n        /* \"#utility.yul\":15499:15592   */\n      tag_110\n      jump\t// in\n    tag_276:\n        /* \"#utility.yul\":15617:15619   */\n      0x20\n        /* \"#utility.yul\":15612:15615   */\n      dup3\n        /* \"#utility.yul\":15608:15620   */\n      add\n        /* \"#utility.yul\":15601:15620   */\n      swap1\n      pop\n        /* \"#utility.yul\":15260:15626   */\n      swap2\n      swap1\n      pop\n      jump\t// out\n        /* \"#utility.yul\":15632:16051   */\n    tag_51:\n        /* \"#utility.yul\":15798:15802   */\n      0x00\n        /* \"#utility.yul\":15836:15838   */\n      0x20\n        /* \"#utility.yul\":15825:15834   */\n      dup3\n        /* \"#utility.yul\":15821:15839   */\n      add\n        /* \"#utility.yul\":15813:15839   */\n      swap1\n      pop\n        /* \"#utility.yul\":15885:15894   */\n      dup2\n        /* \"#utility.yul\":15879:15883   */\n      dup2\n        /* \"#utility.yul\":15875:15895   */\n      sub\n        /* \"#utility.yul\":15871:15872   */\n      0x00\n        /* \"#utility.yul\":15860:15869   */\n      dup4\n        /* \"#utility.yul\":15856:15873   */\n      add\n        /* \"#utility.yul\":15849:15896   */\n      mstore\n        /* \"#utility.yul\":15913:16044   */\n      tag_278\n        /* \"#utility.yul\":16039:16043   */\n      dup2\n        /* \"#utility.yul\":15913:16044   */\n      tag_111\n      jump\t// in\n    tag_278:\n        /* \"#utility.yul\":15905:16044   */\n      swap1\n      pop\n        /* \"#utility.yul\":15632:16051   */\n      swap2\n      swap1\n      pop\n      jump\t// out\n        /* \"#utility.yul\":16057:16224   */\n    tag_112:\n        /* \"#utility.yul\":16197:16216   */\n      0x4974656d20616c726561647920736f6c64000000000000000000000000000000\n        /* \"#utility.yul\":16193:16194   */\n      0x00\n        /* \"#utility.yul\":16185:16191   */\n      dup3\n        /* \"#utility.yul\":16181:16195   */\n      add\n        /* \"#utility.yul\":16174:16217   */\n      mstore\n        /* \"#utility.yul\":16057:16224   */\n      pop\n      jump\t// out\n        /* \"#utility.yul\":16230:16596   */\n    tag_113:\n        /* \"#utility.yul\":16372:16375   */\n      0x00\n        /* \"#utility.yul\":16393:16460   */\n      tag_281\n        /* \"#utility.yul\":16457:16459   */\n      0x11\n        /* \"#utility.yul\":16452:16455   */\n      dup4\n        /* \"#utility.yul\":16393:16460   */\n      tag_82\n      jump\t// in\n    tag_281:\n        /* \"#utility.yul\":16386:16460   */\n      swap2\n      pop\n        /* \"#utility.yul\":16469:16562   */\n      tag_282\n        /* \"#utility.yul\":16558:16561   */\n      dup3\n        /* \"#utility.yul\":16469:16562   */\n      tag_112\n      jump\t// in\n    tag_282:\n        /* \"#utility.yul\":16587:16589   */\n      0x20\n        /* \"#utility.yul\":16582:16585   */\n      dup3\n        /* \"#utility.yul\":16578:16590   */\n      add\n        /* \"#utility.yul\":16571:16590   */\n      swap1\n      pop\n        /* \"#utility.yul\":16230:16596   */\n      swap2\n      swap1\n      pop\n      jump\t// out\n        /* \"#utility.yul\":16602:17021   */\n    tag_54:\n        /* \"#utility.yul\":16768:16772   */\n      0x00\n        /* \"#utility.yul\":16806:16808   */\n      0x20\n        /* \"#utility.yul\":16795:16804   */\n      dup3\n        /* \"#utility.yul\":16791:16809   */\n      add\n        /* \"#utility.yul\":16783:16809   */\n      swap1\n      pop\n        /* \"#utility.yul\":16855:16864   */\n      dup2\n        /* \"#utility.yul\":16849:16853   */\n      dup2\n        /* \"#utility.yul\":16845:16865   */\n      sub\n        /* \"#utility.yul\":16841:16842   */\n      0x00\n        /* \"#utility.yul\":16830:16839   */\n      dup4\n        /* \"#utility.yul\":16826:16843   */\n      add\n        /* \"#utility.yul\":16819:16866   */\n      mstore\n        /* \"#utility.yul\":16883:17014   */\n      tag_284\n        /* \"#utility.yul\":17009:17013   */\n      dup2\n        /* \"#utility.yul\":16883:17014   */\n      tag_113\n      jump\t// in\n    tag_284:\n        /* \"#utility.yul\":16875:17014   */\n      swap1\n      pop\n        /* \"#utility.yul\":16602:17021   */\n      swap2\n      swap1\n      pop\n      jump\t// out\n        /* \"#utility.yul\":17027:17209   */\n    tag_114:\n        /* \"#utility.yul\":17167:17201   */\n      0x53656c6c65722063616e6e6f7420627579207468696572206f776e206974656d\n        /* \"#utility.yul\":17163:17164   */\n      0x00\n        /* \"#utility.yul\":17155:17161   */\n      dup3\n        /* \"#utility.yul\":17151:17165   */\n      add\n        /* \"#utility.yul\":17144:17202   */\n      mstore\n        /* \"#utility.yul\":17027:17209   */\n      pop\n      jump\t// out\n        /* \"#utility.yul\":17215:17581   */\n    tag_115:\n        /* \"#utility.yul\":17357:17360   */\n      0x00\n        /* \"#utility.yul\":17378:17445   */\n      tag_287\n        /* \"#utility.yul\":17442:17444   */\n      0x20\n        /* \"#utility.yul\":17437:17440   */\n      dup4\n        /* \"#utility.yul\":17378:17445   */\n      tag_82\n      jump\t// in\n    tag_287:\n        /* \"#utility.yul\":17371:17445   */\n      swap2\n      pop\n        /* \"#utility.yul\":17454:17547   */\n      tag_288\n        /* \"#utility.yul\":17543:17546   */\n      dup3\n        /* \"#utility.yul\":17454:17547   */\n      tag_114\n      jump\t// in\n    tag_288:\n        /* \"#utility.yul\":17572:17574   */\n      0x20\n        /* \"#utility.yul\":17567:17570   */\n      dup3\n        /* \"#utility.yul\":17563:17575   */\n      add\n        /* \"#utility.yul\":17556:17575   */\n      swap1\n      pop\n        /* \"#utility.yul\":17215:17581   */\n      swap2\n      swap1\n      pop\n      jump\t// out\n        /* \"#utility.yul\":17587:18006   */\n    tag_57:\n        /* \"#utility.yul\":17753:17757   */\n      0x00\n        /* \"#utility.yul\":17791:17793   */\n      0x20\n        /* \"#utility.yul\":17780:17789   */\n      dup3\n        /* \"#utility.yul\":17776:17794   */\n      add\n        /* \"#utility.yul\":17768:17794   */\n      swap1\n      pop\n        /* \"#utility.yul\":17840:17849   */\n      dup2\n        /* \"#utility.yul\":17834:17838   */\n      dup2\n        /* \"#utility.yul\":17830:17850   */\n      sub\n        /* \"#utility.yul\":17826:17827   */\n      0x00\n        /* \"#utility.yul\":17815:17824   */\n      dup4\n        /* \"#utility.yul\":17811:17828   */\n      add\n        /* \"#utility.yul\":17804:17851   */\n      mstore\n        /* \"#utility.yul\":17868:17999   */\n      tag_290\n        /* \"#utility.yul\":17994:17998   */\n      dup2\n        /* \"#utility.yul\":17868:17999   */\n      tag_115\n      jump\t// in\n    tag_290:\n        /* \"#utility.yul\":17860:17999   */\n      swap1\n      pop\n        /* \"#utility.yul\":17587:18006   */\n      swap2\n      swap1\n      pop\n      jump\t// out\n\n    auxdata: 0xa264697066735822122042d3543080d4bea271b4a6adfb5a65d7563701008986773dc90d090876f600ed64736f6c63430008190033\n}\n",
				"bytecode": {
					"linkReferences": {},
					"object": "60806040525f80553480156011575f80fd5b50610f8f8061001f5f395ff3fe60806040526004361061003e575f3560e01c80636bfb0d01146100425780638511c9371461006c578063bfb231d214610094578063e7fb74c7146100d4575b5f80fd5b34801561004d575f80fd5b506100566100f0565b6040516100639190610658565b60405180910390f35b348015610077575f80fd5b50610092600480360381019061008d91906107e8565b6100f5565b005b34801561009f575f80fd5b506100ba60048036038101906100b59190610842565b6102c8565b6040516100cb959493929190610926565b60405180910390f35b6100ee60048036038101906100e99190610842565b6103ab565b005b5f5481565b5f825111610138576040517f08c379a000000000000000000000000000000000000000000000000000000000815260040161012f906109c8565b60405180910390fd5b5f811161017a576040517f08c379a000000000000000000000000000000000000000000000000000000000815260040161017190610a30565b60405180910390fd5b5f8081548092919061018b90610a7b565b91905055506040518060a001604052805f5481526020013373ffffffffffffffffffffffffffffffffffffffff1681526020018381526020018281526020015f151581525060015f805481526020019081526020015f205f820151815f01556020820151816001015f6101000a81548173ffffffffffffffffffffffffffffffffffffffff021916908373ffffffffffffffffffffffffffffffffffffffff16021790555060408201518160020190816102459190610cbc565b50606082015181600301556080820151816004015f6101000a81548160ff0219169083151502179055509050503373ffffffffffffffffffffffffffffffffffffffff165f547f4e3807e76e8c2a7b6547b6189eba5d3dc4fe2bc48c057e8ec545ec13be8063c584846040516102bc929190610d8b565b60405180910390a35050565b6001602052805f5260405f205f91509050805f015490806001015f9054906101000a900473ffffffffffffffffffffffffffffffffffffffff169080600201805461031290610aef565b80601f016020809104026020016040519081016040528092919081815260200182805461033e90610aef565b80156103895780601f1061036057610100808354040283529160200191610389565b820191905f5260205f20905b81548152906001019060200180831161036c57829003601f168201915b505050505090806003015490806004015f9054906101000a900460ff16905085565b5f60015f8381526020019081526020015f20905081815f015414610404576040517f08c379a00000000000000000000000000000000000000000000000000000000081526004016103fb90610e03565b60405180910390fd5b8060030154341461044a576040517f08c379a000000000000000000000000000000000000000000000000000000000815260040161044190610e6b565b60405180910390fd5b806004015f9054906101000a900460ff161561049b576040517f08c379a000000000000000000000000000000000000000000000000000000000815260040161049290610ed3565b60405180910390fd5b806001015f9054906101000a900473ffffffffffffffffffffffffffffffffffffffff1673ffffffffffffffffffffffffffffffffffffffff163373ffffffffffffffffffffffffffffffffffffffff160361052c576040517f08c379a000000000000000000000000000000000000000000000000000000000815260040161052390610f3b565b60405180910390fd5b6001816004015f6101000a81548160ff021916908315150217905550806001015f9054906101000a900473ffffffffffffffffffffffffffffffffffffffff1673ffffffffffffffffffffffffffffffffffffffff166108fc3490811502906040515f60405180830381858888f193505050501580156105ae573d5f803e3d5ffd5b50806001015f9054906101000a900473ffffffffffffffffffffffffffffffffffffffff1673ffffffffffffffffffffffffffffffffffffffff163373ffffffffffffffffffffffffffffffffffffffff16837f3e2a5a5ee3a24b1b9d330b0bc0946a7d0eb9c99f453f93a45348a9a8e29a94fb84600301546040516106349190610658565b60405180910390a45050565b5f819050919050565b61065281610640565b82525050565b5f60208201905061066b5f830184610649565b92915050565b5f604051905090565b5f80fd5b5f80fd5b5f80fd5b5f80fd5b5f601f19601f8301169050919050565b7f4e487b71000000000000000000000000000000000000000000000000000000005f52604160045260245ffd5b6106d08261068a565b810181811067ffffffffffffffff821117156106ef576106ee61069a565b5b80604052505050565b5f610701610671565b905061070d82826106c7565b919050565b5f67ffffffffffffffff82111561072c5761072b61069a565b5b6107358261068a565b9050602081019050919050565b828183375f83830152505050565b5f61076261075d84610712565b6106f8565b90508281526020810184848401111561077e5761077d610686565b5b610789848285610742565b509392505050565b5f82601f8301126107a5576107a4610682565b5b81356107b5848260208601610750565b91505092915050565b6107c781610640565b81146107d1575f80fd5b50565b5f813590506107e2816107be565b92915050565b5f80604083850312156107fe576107fd61067a565b5b5f83013567ffffffffffffffff81111561081b5761081a61067e565b5b61082785828601610791565b9250506020610838858286016107d4565b9150509250929050565b5f602082840312156108575761085661067a565b5b5f610864848285016107d4565b91505092915050565b5f73ffffffffffffffffffffffffffffffffffffffff82169050919050565b5f6108968261086d565b9050919050565b6108a68161088c565b82525050565b5f81519050919050565b5f82825260208201905092915050565b8281835e5f83830152505050565b5f6108de826108ac565b6108e881856108b6565b93506108f88185602086016108c6565b6109018161068a565b840191505092915050565b5f8115159050919050565b6109208161090c565b82525050565b5f60a0820190506109395f830188610649565b610946602083018761089d565b818103604083015261095881866108d4565b90506109676060830185610649565b6109746080830184610917565b9695505050505050565b7f4974656d206e616d6520697320726571756972656400000000000000000000005f82015250565b5f6109b26015836108b6565b91506109bd8261097e565b602082019050919050565b5f6020820190508181035f8301526109df816109a6565b9050919050565b7f50726963652053686f756c642062652067726561746572207468616e203000005f82015250565b5f610a1a601e836108b6565b9150610a25826109e6565b602082019050919050565b5f6020820190508181035f830152610a4781610a0e565b9050919050565b7f4e487b71000000000000000000000000000000000000000000000000000000005f52601160045260245ffd5b5f610a8582610640565b91507fffffffffffffffffffffffffffffffffffffffffffffffffffffffffffffffff8203610ab757610ab6610a4e565b5b600182019050919050565b7f4e487b71000000000000000000000000000000000000000000000000000000005f52602260045260245ffd5b5f6002820490506001821680610b0657607f821691505b602082108103610b1957610b18610ac2565b5b50919050565b5f819050815f5260205f209050919050565b5f6020601f8301049050919050565b5f82821b905092915050565b5f60088302610b7b7fffffffffffffffffffffffffffffffffffffffffffffffffffffffffffffffff82610b40565b610b858683610b40565b95508019841693508086168417925050509392505050565b5f819050919050565b5f610bc0610bbb610bb684610640565b610b9d565b610640565b9050919050565b5f819050919050565b610bd983610ba6565b610bed610be582610bc7565b848454610b4c565b825550505050565b5f90565b610c01610bf5565b610c0c818484610bd0565b505050565b5b81811015610c2f57610c245f82610bf9565b600181019050610c12565b5050565b601f821115610c7457610c4581610b1f565b610c4e84610b31565b81016020851015610c5d578190505b610c71610c6985610b31565b830182610c11565b50505b505050565b5f82821c905092915050565b5f610c945f1984600802610c79565b1980831691505092915050565b5f610cac8383610c85565b9150826002028217905092915050565b610cc5826108ac565b67ffffffffffffffff811115610cde57610cdd61069a565b5b610ce88254610aef565b610cf3828285610c33565b5f60209050601f831160018114610d24575f8415610d12578287015190505b610d1c8582610ca1565b865550610d83565b601f198416610d3286610b1f565b5f5b82811015610d5957848901518255600182019150602085019450602081019050610d34565b86831015610d765784890151610d72601f891682610c85565b8355505b6001600288020188555050505b505050505050565b5f6040820190508181035f830152610da381856108d4565b9050610db26020830184610649565b9392505050565b7f4974656d20646f6573206e6f74206578697374000000000000000000000000005f82015250565b5f610ded6013836108b6565b9150610df882610db9565b602082019050919050565b5f6020820190508181035f830152610e1a81610de1565b9050919050565b7f496e636f72726563742065746865722073656e740000000000000000000000005f82015250565b5f610e556014836108b6565b9150610e6082610e21565b602082019050919050565b5f6020820190508181035f830152610e8281610e49565b9050919050565b7f4974656d20616c726561647920736f6c640000000000000000000000000000005f82015250565b5f610ebd6011836108b6565b9150610ec882610e89565b602082019050919050565b5f6020820190508181035f830152610eea81610eb1565b9050919050565b7f53656c6c65722063616e6e6f7420627579207468696572206f776e206974656d5f82015250565b5f610f256020836108b6565b9150610f3082610ef1565b602082019050919050565b5f6020820190508181035f830152610f5281610f19565b905091905056fea264697066735822122042d3543080d4bea271b4a6adfb5a65d7563701008986773dc90d090876f600ed64736f6c63430008190033",
					"opcodes": "PUSH1 0x80 PUSH1 0x40 MSTORE PUSH0 DUP1 SSTORE CALLVALUE DUP1 ISZERO PUSH1 0x11 JUMPI PUSH0 DUP1 REVERT JUMPDEST POP PUSH2 0xF8F DUP1 PUSH2 0x1F PUSH0 CODECOPY PUSH0 RETURN INVALID PUSH1 0x80 PUSH1 0x40 MSTORE PUSH1 0x4 CALLDATASIZE LT PUSH2 0x3E JUMPI PUSH0 CALLDATALOAD PUSH1 0xE0 SHR DUP1 PUSH4 0x6BFB0D01 EQ PUSH2 0x42 JUMPI DUP1 PUSH4 0x8511C937 EQ PUSH2 0x6C JUMPI DUP1 PUSH4 0xBFB231D2 EQ PUSH2 0x94 JUMPI DUP1 PUSH4 0xE7FB74C7 EQ PUSH2 0xD4 JUMPI JUMPDEST PUSH0 DUP1 REVERT JUMPDEST CALLVALUE DUP1 ISZERO PUSH2 0x4D JUMPI PUSH0 DUP1 REVERT JUMPDEST POP PUSH2 0x56 PUSH2 0xF0 JUMP JUMPDEST PUSH1 0x40 MLOAD PUSH2 0x63 SWAP2 SWAP1 PUSH2 0x658 JUMP JUMPDEST PUSH1 0x40 MLOAD DUP1 SWAP2 SUB SWAP1 RETURN JUMPDEST CALLVALUE DUP1 ISZERO PUSH2 0x77 JUMPI PUSH0 DUP1 REVERT JUMPDEST POP PUSH2 0x92 PUSH1 0x4 DUP1 CALLDATASIZE SUB DUP2 ADD SWAP1 PUSH2 0x8D SWAP2 SWAP1 PUSH2 0x7E8 JUMP JUMPDEST PUSH2 0xF5 JUMP JUMPDEST STOP JUMPDEST CALLVALUE DUP1 ISZERO PUSH2 0x9F JUMPI PUSH0 DUP1 REVERT JUMPDEST POP PUSH2 0xBA PUSH1 0x4 DUP1 CALLDATASIZE SUB DUP2 ADD SWAP1 PUSH2 0xB5 SWAP2 SWAP1 PUSH2 0x842 JUMP JUMPDEST PUSH2 0x2C8 JUMP JUMPDEST PUSH1 0x40 MLOAD PUSH2 0xCB SWAP6 SWAP5 SWAP4 SWAP3 SWAP2 SWAP1 PUSH2 0x926 JUMP JUMPDEST PUSH1 0x40 MLOAD DUP1 SWAP2 SUB SWAP1 RETURN JUMPDEST PUSH2 0xEE PUSH1 0x4 DUP1 CALLDATASIZE SUB DUP2 ADD SWAP1 PUSH2 0xE9 SWAP2 SWAP1 PUSH2 0x842 JUMP JUMPDEST PUSH2 0x3AB JUMP JUMPDEST STOP JUMPDEST PUSH0 SLOAD DUP2 JUMP JUMPDEST PUSH0 DUP3 MLOAD GT PUSH2 0x138 JUMPI PUSH1 0x40 MLOAD PUSH32 0x8C379A000000000000000000000000000000000000000000000000000000000 DUP2 MSTORE PUSH1 0x4 ADD PUSH2 0x12F SWAP1 PUSH2 0x9C8 JUMP JUMPDEST PUSH1 0x40 MLOAD DUP1 SWAP2 SUB SWAP1 REVERT JUMPDEST PUSH0 DUP2 GT PUSH2 0x17A JUMPI PUSH1 0x40 MLOAD PUSH32 0x8C379A000000000000000000000000000000000000000000000000000000000 DUP2 MSTORE PUSH1 0x4 ADD PUSH2 0x171 SWAP1 PUSH2 0xA30 JUMP JUMPDEST PUSH1 0x40 MLOAD DUP1 SWAP2 SUB SWAP1 REVERT JUMPDEST PUSH0 DUP1 DUP2 SLOAD DUP1 SWAP3 SWAP2 SWAP1 PUSH2 0x18B SWAP1 PUSH2 0xA7B JUMP JUMPDEST SWAP2 SWAP1 POP SSTORE POP PUSH1 0x40 MLOAD DUP1 PUSH1 0xA0 ADD PUSH1 0x40 MSTORE DUP1 PUSH0 SLOAD DUP2 MSTORE PUSH1 0x20 ADD CALLER PUSH20 0xFFFFFFFFFFFFFFFFFFFFFFFFFFFFFFFFFFFFFFFF AND DUP2 MSTORE PUSH1 0x20 ADD DUP4 DUP2 MSTORE PUSH1 0x20 ADD DUP3 DUP2 MSTORE PUSH1 0x20 ADD PUSH0 ISZERO ISZERO DUP2 MSTORE POP PUSH1 0x1 PUSH0 DUP1 SLOAD DUP2 MSTORE PUSH1 0x20 ADD SWAP1 DUP2 MSTORE PUSH1 0x20 ADD PUSH0 KECCAK256 PUSH0 DUP3 ADD MLOAD DUP2 PUSH0 ADD SSTORE PUSH1 0x20 DUP3 ADD MLOAD DUP2 PUSH1 0x1 ADD PUSH0 PUSH2 0x100 EXP DUP2 SLOAD DUP2 PUSH20 0xFFFFFFFFFFFFFFFFFFFFFFFFFFFFFFFFFFFFFFFF MUL NOT AND SWAP1 DUP4 PUSH20 0xFFFFFFFFFFFFFFFFFFFFFFFFFFFFFFFFFFFFFFFF AND MUL OR SWAP1 SSTORE POP PUSH1 0x40 DUP3 ADD MLOAD DUP2 PUSH1 0x2 ADD SWAP1 DUP2 PUSH2 0x245 SWAP2 SWAP1 PUSH2 0xCBC JUMP JUMPDEST POP PUSH1 0x60 DUP3 ADD MLOAD DUP2 PUSH1 0x3 ADD SSTORE PUSH1 0x80 DUP3 ADD MLOAD DUP2 PUSH1 0x4 ADD PUSH0 PUSH2 0x100 EXP DUP2 SLOAD DUP2 PUSH1 0xFF MUL NOT AND SWAP1 DUP4 ISZERO ISZERO MUL OR SWAP1 SSTORE POP SWAP1 POP POP CALLER PUSH20 0xFFFFFFFFFFFFFFFFFFFFFFFFFFFFFFFFFFFFFFFF AND PUSH0 SLOAD PUSH32 0x4E3807E76E8C2A7B6547B6189EBA5D3DC4FE2BC48C057E8EC545EC13BE8063C5 DUP5 DUP5 PUSH1 0x40 MLOAD PUSH2 0x2BC SWAP3 SWAP2 SWAP1 PUSH2 0xD8B JUMP JUMPDEST PUSH1 0x40 MLOAD DUP1 SWAP2 SUB SWAP1 LOG3 POP POP JUMP JUMPDEST PUSH1 0x1 PUSH1 0x20 MSTORE DUP1 PUSH0 MSTORE PUSH1 0x40 PUSH0 KECCAK256 PUSH0 SWAP2 POP SWAP1 POP DUP1 PUSH0 ADD SLOAD SWAP1 DUP1 PUSH1 0x1 ADD PUSH0 SWAP1 SLOAD SWAP1 PUSH2 0x100 EXP SWAP1 DIV PUSH20 0xFFFFFFFFFFFFFFFFFFFFFFFFFFFFFFFFFFFFFFFF AND SWAP1 DUP1 PUSH1 0x2 ADD DUP1 SLOAD PUSH2 0x312 SWAP1 PUSH2 0xAEF JUMP JUMPDEST DUP1 PUSH1 0x1F ADD PUSH1 0x20 DUP1 SWAP2 DIV MUL PUSH1 0x20 ADD PUSH1 0x40 MLOAD SWAP1 DUP2 ADD PUSH1 0x40 MSTORE DUP1 SWAP3 SWAP2 SWAP1 DUP2 DUP2 MSTORE PUSH1 0x20 ADD DUP3 DUP1 SLOAD PUSH2 0x33E SWAP1 PUSH2 0xAEF JUMP JUMPDEST DUP1 ISZERO PUSH2 0x389 JUMPI DUP1 PUSH1 0x1F LT PUSH2 0x360 JUMPI PUSH2 0x100 DUP1 DUP4 SLOAD DIV MUL DUP4 MSTORE SWAP2 PUSH1 0x20 ADD SWAP2 PUSH2 0x389 JUMP JUMPDEST DUP3 ADD SWAP2 SWAP1 PUSH0 MSTORE PUSH1 0x20 PUSH0 KECCAK256 SWAP1 JUMPDEST DUP2 SLOAD DUP2 MSTORE SWAP1 PUSH1 0x1 ADD SWAP1 PUSH1 0x20 ADD DUP1 DUP4 GT PUSH2 0x36C JUMPI DUP3 SWAP1 SUB PUSH1 0x1F AND DUP3 ADD SWAP2 JUMPDEST POP POP POP POP POP SWAP1 DUP1 PUSH1 0x3 ADD SLOAD SWAP1 DUP1 PUSH1 0x4 ADD PUSH0 SWAP1 SLOAD SWAP1 PUSH2 0x100 EXP SWAP1 DIV PUSH1 0xFF AND SWAP1 POP DUP6 JUMP JUMPDEST PUSH0 PUSH1 0x1 PUSH0 DUP4 DUP2 MSTORE PUSH1 0x20 ADD SWAP1 DUP2 MSTORE PUSH1 0x20 ADD PUSH0 KECCAK256 SWAP1 POP DUP2 DUP2 PUSH0 ADD SLOAD EQ PUSH2 0x404 JUMPI PUSH1 0x40 MLOAD PUSH32 0x8C379A000000000000000000000000000000000000000000000000000000000 DUP2 MSTORE PUSH1 0x4 ADD PUSH2 0x3FB SWAP1 PUSH2 0xE03 JUMP JUMPDEST PUSH1 0x40 MLOAD DUP1 SWAP2 SUB SWAP1 REVERT JUMPDEST DUP1 PUSH1 0x3 ADD SLOAD CALLVALUE EQ PUSH2 0x44A JUMPI PUSH1 0x40 MLOAD PUSH32 0x8C379A000000000000000000000000000000000000000000000000000000000 DUP2 MSTORE PUSH1 0x4 ADD PUSH2 0x441 SWAP1 PUSH2 0xE6B JUMP JUMPDEST PUSH1 0x40 MLOAD DUP1 SWAP2 SUB SWAP1 REVERT JUMPDEST DUP1 PUSH1 0x4 ADD PUSH0 SWAP1 SLOAD SWAP1 PUSH2 0x100 EXP SWAP1 DIV PUSH1 0xFF AND ISZERO PUSH2 0x49B JUMPI PUSH1 0x40 MLOAD PUSH32 0x8C379A000000000000000000000000000000000000000000000000000000000 DUP2 MSTORE PUSH1 0x4 ADD PUSH2 0x492 SWAP1 PUSH2 0xED3 JUMP JUMPDEST PUSH1 0x40 MLOAD DUP1 SWAP2 SUB SWAP1 REVERT JUMPDEST DUP1 PUSH1 0x1 ADD PUSH0 SWAP1 SLOAD SWAP1 PUSH2 0x100 EXP SWAP1 DIV PUSH20 0xFFFFFFFFFFFFFFFFFFFFFFFFFFFFFFFFFFFFFFFF AND PUSH20 0xFFFFFFFFFFFFFFFFFFFFFFFFFFFFFFFFFFFFFFFF AND CALLER PUSH20 0xFFFFFFFFFFFFFFFFFFFFFFFFFFFFFFFFFFFFFFFF AND SUB PUSH2 0x52C JUMPI PUSH1 0x40 MLOAD PUSH32 0x8C379A000000000000000000000000000000000000000000000000000000000 DUP2 MSTORE PUSH1 0x4 ADD PUSH2 0x523 SWAP1 PUSH2 0xF3B JUMP JUMPDEST PUSH1 0x40 MLOAD DUP1 SWAP2 SUB SWAP1 REVERT JUMPDEST PUSH1 0x1 DUP2 PUSH1 0x4 ADD PUSH0 PUSH2 0x100 EXP DUP2 SLOAD DUP2 PUSH1 0xFF MUL NOT AND SWAP1 DUP4 ISZERO ISZERO MUL OR SWAP1 SSTORE POP DUP1 PUSH1 0x1 ADD PUSH0 SWAP1 SLOAD SWAP1 PUSH2 0x100 EXP SWAP1 DIV PUSH20 0xFFFFFFFFFFFFFFFFFFFFFFFFFFFFFFFFFFFFFFFF AND PUSH20 0xFFFFFFFFFFFFFFFFFFFFFFFFFFFFFFFFFFFFFFFF AND PUSH2 0x8FC CALLVALUE SWAP1 DUP2 ISZERO MUL SWAP1 PUSH1 0x40 MLOAD PUSH0 PUSH1 0x40 MLOAD DUP1 DUP4 SUB DUP2 DUP6 DUP9 DUP9 CALL SWAP4 POP POP POP POP ISZERO DUP1 ISZERO PUSH2 0x5AE JUMPI RETURNDATASIZE PUSH0 DUP1 RETURNDATACOPY RETURNDATASIZE PUSH0 REVERT JUMPDEST POP DUP1 PUSH1 0x1 ADD PUSH0 SWAP1 SLOAD SWAP1 PUSH2 0x100 EXP SWAP1 DIV PUSH20 0xFFFFFFFFFFFFFFFFFFFFFFFFFFFFFFFFFFFFFFFF AND PUSH20 0xFFFFFFFFFFFFFFFFFFFFFFFFFFFFFFFFFFFFFFFF AND CALLER PUSH20 0xFFFFFFFFFFFFFFFFFFFFFFFFFFFFFFFFFFFFFFFF AND DUP4 PUSH32 0x3E2A5A5EE3A24B1B9D330B0BC0946A7D0EB9C99F453F93A45348A9A8E29A94FB DUP5 PUSH1 0x3 ADD SLOAD PUSH1 0x40 MLOAD PUSH2 0x634 SWAP2 SWAP1 PUSH2 0x658 JUMP JUMPDEST PUSH1 0x40 MLOAD DUP1 SWAP2 SUB SWAP1 LOG4 POP POP JUMP JUMPDEST PUSH0 DUP2 SWAP1 POP SWAP2 SWAP1 POP JUMP JUMPDEST PUSH2 0x652 DUP2 PUSH2 0x640 JUMP JUMPDEST DUP3 MSTORE POP POP JUMP JUMPDEST PUSH0 PUSH1 0x20 DUP3 ADD SWAP1 POP PUSH2 0x66B PUSH0 DUP4 ADD DUP5 PUSH2 0x649 JUMP JUMPDEST SWAP3 SWAP2 POP POP JUMP JUMPDEST PUSH0 PUSH1 0x40 MLOAD SWAP1 POP SWAP1 JUMP JUMPDEST PUSH0 DUP1 REVERT JUMPDEST PUSH0 DUP1 REVERT JUMPDEST PUSH0 DUP1 REVERT JUMPDEST PUSH0 DUP1 REVERT JUMPDEST PUSH0 PUSH1 0x1F NOT PUSH1 0x1F DUP4 ADD AND SWAP1 POP SWAP2 SWAP1 POP JUMP JUMPDEST PUSH32 0x4E487B7100000000000000000000000000000000000000000000000000000000 PUSH0 MSTORE PUSH1 0x41 PUSH1 0x4 MSTORE PUSH1 0x24 PUSH0 REVERT JUMPDEST PUSH2 0x6D0 DUP3 PUSH2 0x68A JUMP JUMPDEST DUP2 ADD DUP2 DUP2 LT PUSH8 0xFFFFFFFFFFFFFFFF DUP3 GT OR ISZERO PUSH2 0x6EF JUMPI PUSH2 0x6EE PUSH2 0x69A JUMP JUMPDEST JUMPDEST DUP1 PUSH1 0x40 MSTORE POP POP POP JUMP JUMPDEST PUSH0 PUSH2 0x701 PUSH2 0x671 JUMP JUMPDEST SWAP1 POP PUSH2 0x70D DUP3 DUP3 PUSH2 0x6C7 JUMP JUMPDEST SWAP2 SWAP1 POP JUMP JUMPDEST PUSH0 PUSH8 0xFFFFFFFFFFFFFFFF DUP3 GT ISZERO PUSH2 0x72C JUMPI PUSH2 0x72B PUSH2 0x69A JUMP JUMPDEST JUMPDEST PUSH2 0x735 DUP3 PUSH2 0x68A JUMP JUMPDEST SWAP1 POP PUSH1 0x20 DUP2 ADD SWAP1 POP SWAP2 SWAP1 POP JUMP JUMPDEST DUP3 DUP2 DUP4 CALLDATACOPY PUSH0 DUP4 DUP4 ADD MSTORE POP POP POP JUMP JUMPDEST PUSH0 PUSH2 0x762 PUSH2 0x75D DUP5 PUSH2 0x712 JUMP JUMPDEST PUSH2 0x6F8 JUMP JUMPDEST SWAP1 POP DUP3 DUP2 MSTORE PUSH1 0x20 DUP2 ADD DUP5 DUP5 DUP5 ADD GT ISZERO PUSH2 0x77E JUMPI PUSH2 0x77D PUSH2 0x686 JUMP JUMPDEST JUMPDEST PUSH2 0x789 DUP5 DUP3 DUP6 PUSH2 0x742 JUMP JUMPDEST POP SWAP4 SWAP3 POP POP POP JUMP JUMPDEST PUSH0 DUP3 PUSH1 0x1F DUP4 ADD SLT PUSH2 0x7A5 JUMPI PUSH2 0x7A4 PUSH2 0x682 JUMP JUMPDEST JUMPDEST DUP2 CALLDATALOAD PUSH2 0x7B5 DUP5 DUP3 PUSH1 0x20 DUP7 ADD PUSH2 0x750 JUMP JUMPDEST SWAP2 POP POP SWAP3 SWAP2 POP POP JUMP JUMPDEST PUSH2 0x7C7 DUP2 PUSH2 0x640 JUMP JUMPDEST DUP2 EQ PUSH2 0x7D1 JUMPI PUSH0 DUP1 REVERT JUMPDEST POP JUMP JUMPDEST PUSH0 DUP2 CALLDATALOAD SWAP1 POP PUSH2 0x7E2 DUP2 PUSH2 0x7BE JUMP JUMPDEST SWAP3 SWAP2 POP POP JUMP JUMPDEST PUSH0 DUP1 PUSH1 0x40 DUP4 DUP6 SUB SLT ISZERO PUSH2 0x7FE JUMPI PUSH2 0x7FD PUSH2 0x67A JUMP JUMPDEST JUMPDEST PUSH0 DUP4 ADD CALLDATALOAD PUSH8 0xFFFFFFFFFFFFFFFF DUP2 GT ISZERO PUSH2 0x81B JUMPI PUSH2 0x81A PUSH2 0x67E JUMP JUMPDEST JUMPDEST PUSH2 0x827 DUP6 DUP3 DUP7 ADD PUSH2 0x791 JUMP JUMPDEST SWAP3 POP POP PUSH1 0x20 PUSH2 0x838 DUP6 DUP3 DUP7 ADD PUSH2 0x7D4 JUMP JUMPDEST SWAP2 POP POP SWAP3 POP SWAP3 SWAP1 POP JUMP JUMPDEST PUSH0 PUSH1 0x20 DUP3 DUP5 SUB SLT ISZERO PUSH2 0x857 JUMPI PUSH2 0x856 PUSH2 0x67A JUMP JUMPDEST JUMPDEST PUSH0 PUSH2 0x864 DUP5 DUP3 DUP6 ADD PUSH2 0x7D4 JUMP JUMPDEST SWAP2 POP POP SWAP3 SWAP2 POP POP JUMP JUMPDEST PUSH0 PUSH20 0xFFFFFFFFFFFFFFFFFFFFFFFFFFFFFFFFFFFFFFFF DUP3 AND SWAP1 POP SWAP2 SWAP1 POP JUMP JUMPDEST PUSH0 PUSH2 0x896 DUP3 PUSH2 0x86D JUMP JUMPDEST SWAP1 POP SWAP2 SWAP1 POP JUMP JUMPDEST PUSH2 0x8A6 DUP2 PUSH2 0x88C JUMP JUMPDEST DUP3 MSTORE POP POP JUMP JUMPDEST PUSH0 DUP2 MLOAD SWAP1 POP SWAP2 SWAP1 POP JUMP JUMPDEST PUSH0 DUP3 DUP3 MSTORE PUSH1 0x20 DUP3 ADD SWAP1 POP SWAP3 SWAP2 POP POP JUMP JUMPDEST DUP3 DUP2 DUP4 MCOPY PUSH0 DUP4 DUP4 ADD MSTORE POP POP POP JUMP JUMPDEST PUSH0 PUSH2 0x8DE DUP3 PUSH2 0x8AC JUMP JUMPDEST PUSH2 0x8E8 DUP2 DUP6 PUSH2 0x8B6 JUMP JUMPDEST SWAP4 POP PUSH2 0x8F8 DUP2 DUP6 PUSH1 0x20 DUP7 ADD PUSH2 0x8C6 JUMP JUMPDEST PUSH2 0x901 DUP2 PUSH2 0x68A JUMP JUMPDEST DUP5 ADD SWAP2 POP POP SWAP3 SWAP2 POP POP JUMP JUMPDEST PUSH0 DUP2 ISZERO ISZERO SWAP1 POP SWAP2 SWAP1 POP JUMP JUMPDEST PUSH2 0x920 DUP2 PUSH2 0x90C JUMP JUMPDEST DUP3 MSTORE POP POP JUMP JUMPDEST PUSH0 PUSH1 0xA0 DUP3 ADD SWAP1 POP PUSH2 0x939 PUSH0 DUP4 ADD DUP9 PUSH2 0x649 JUMP JUMPDEST PUSH2 0x946 PUSH1 0x20 DUP4 ADD DUP8 PUSH2 0x89D JUMP JUMPDEST DUP2 DUP2 SUB PUSH1 0x40 DUP4 ADD MSTORE PUSH2 0x958 DUP2 DUP7 PUSH2 0x8D4 JUMP JUMPDEST SWAP1 POP PUSH2 0x967 PUSH1 0x60 DUP4 ADD DUP6 PUSH2 0x649 JUMP JUMPDEST PUSH2 0x974 PUSH1 0x80 DUP4 ADD DUP5 PUSH2 0x917 JUMP JUMPDEST SWAP7 SWAP6 POP POP POP POP POP POP JUMP JUMPDEST PUSH32 0x4974656D206E616D652069732072657175697265640000000000000000000000 PUSH0 DUP3 ADD MSTORE POP JUMP JUMPDEST PUSH0 PUSH2 0x9B2 PUSH1 0x15 DUP4 PUSH2 0x8B6 JUMP JUMPDEST SWAP2 POP PUSH2 0x9BD DUP3 PUSH2 0x97E JUMP JUMPDEST PUSH1 0x20 DUP3 ADD SWAP1 POP SWAP2 SWAP1 POP JUMP JUMPDEST PUSH0 PUSH1 0x20 DUP3 ADD SWAP1 POP DUP2 DUP2 SUB PUSH0 DUP4 ADD MSTORE PUSH2 0x9DF DUP2 PUSH2 0x9A6 JUMP JUMPDEST SWAP1 POP SWAP2 SWAP1 POP JUMP JUMPDEST PUSH32 0x50726963652053686F756C642062652067726561746572207468616E20300000 PUSH0 DUP3 ADD MSTORE POP JUMP JUMPDEST PUSH0 PUSH2 0xA1A PUSH1 0x1E DUP4 PUSH2 0x8B6 JUMP JUMPDEST SWAP2 POP PUSH2 0xA25 DUP3 PUSH2 0x9E6 JUMP JUMPDEST PUSH1 0x20 DUP3 ADD SWAP1 POP SWAP2 SWAP1 POP JUMP JUMPDEST PUSH0 PUSH1 0x20 DUP3 ADD SWAP1 POP DUP2 DUP2 SUB PUSH0 DUP4 ADD MSTORE PUSH2 0xA47 DUP2 PUSH2 0xA0E JUMP JUMPDEST SWAP1 POP SWAP2 SWAP1 POP JUMP JUMPDEST PUSH32 0x4E487B7100000000000000000000000000000000000000000000000000000000 PUSH0 MSTORE PUSH1 0x11 PUSH1 0x4 MSTORE PUSH1 0x24 PUSH0 REVERT JUMPDEST PUSH0 PUSH2 0xA85 DUP3 PUSH2 0x640 JUMP JUMPDEST SWAP2 POP PUSH32 0xFFFFFFFFFFFFFFFFFFFFFFFFFFFFFFFFFFFFFFFFFFFFFFFFFFFFFFFFFFFFFFFF DUP3 SUB PUSH2 0xAB7 JUMPI PUSH2 0xAB6 PUSH2 0xA4E JUMP JUMPDEST JUMPDEST PUSH1 0x1 DUP3 ADD SWAP1 POP SWAP2 SWAP1 POP JUMP JUMPDEST PUSH32 0x4E487B7100000000000000000000000000000000000000000000000000000000 PUSH0 MSTORE PUSH1 0x22 PUSH1 0x4 MSTORE PUSH1 0x24 PUSH0 REVERT JUMPDEST PUSH0 PUSH1 0x2 DUP3 DIV SWAP1 POP PUSH1 0x1 DUP3 AND DUP1 PUSH2 0xB06 JUMPI PUSH1 0x7F DUP3 AND SWAP2 POP JUMPDEST PUSH1 0x20 DUP3 LT DUP2 SUB PUSH2 0xB19 JUMPI PUSH2 0xB18 PUSH2 0xAC2 JUMP JUMPDEST JUMPDEST POP SWAP2 SWAP1 POP JUMP JUMPDEST PUSH0 DUP2 SWAP1 POP DUP2 PUSH0 MSTORE PUSH1 0x20 PUSH0 KECCAK256 SWAP1 POP SWAP2 SWAP1 POP JUMP JUMPDEST PUSH0 PUSH1 0x20 PUSH1 0x1F DUP4 ADD DIV SWAP1 POP SWAP2 SWAP1 POP JUMP JUMPDEST PUSH0 DUP3 DUP3 SHL SWAP1 POP SWAP3 SWAP2 POP POP JUMP JUMPDEST PUSH0 PUSH1 0x8 DUP4 MUL PUSH2 0xB7B PUSH32 0xFFFFFFFFFFFFFFFFFFFFFFFFFFFFFFFFFFFFFFFFFFFFFFFFFFFFFFFFFFFFFFFF DUP3 PUSH2 0xB40 JUMP JUMPDEST PUSH2 0xB85 DUP7 DUP4 PUSH2 0xB40 JUMP JUMPDEST SWAP6 POP DUP1 NOT DUP5 AND SWAP4 POP DUP1 DUP7 AND DUP5 OR SWAP3 POP POP POP SWAP4 SWAP3 POP POP POP JUMP JUMPDEST PUSH0 DUP2 SWAP1 POP SWAP2 SWAP1 POP JUMP JUMPDEST PUSH0 PUSH2 0xBC0 PUSH2 0xBBB PUSH2 0xBB6 DUP5 PUSH2 0x640 JUMP JUMPDEST PUSH2 0xB9D JUMP JUMPDEST PUSH2 0x640 JUMP JUMPDEST SWAP1 POP SWAP2 SWAP1 POP JUMP JUMPDEST PUSH0 DUP2 SWAP1 POP SWAP2 SWAP1 POP JUMP JUMPDEST PUSH2 0xBD9 DUP4 PUSH2 0xBA6 JUMP JUMPDEST PUSH2 0xBED PUSH2 0xBE5 DUP3 PUSH2 0xBC7 JUMP JUMPDEST DUP5 DUP5 SLOAD PUSH2 0xB4C JUMP JUMPDEST DUP3 SSTORE POP POP POP POP JUMP JUMPDEST PUSH0 SWAP1 JUMP JUMPDEST PUSH2 0xC01 PUSH2 0xBF5 JUMP JUMPDEST PUSH2 0xC0C DUP2 DUP5 DUP5 PUSH2 0xBD0 JUMP JUMPDEST POP POP POP JUMP JUMPDEST JUMPDEST DUP2 DUP2 LT ISZERO PUSH2 0xC2F JUMPI PUSH2 0xC24 PUSH0 DUP3 PUSH2 0xBF9 JUMP JUMPDEST PUSH1 0x1 DUP2 ADD SWAP1 POP PUSH2 0xC12 JUMP JUMPDEST POP POP JUMP JUMPDEST PUSH1 0x1F DUP3 GT ISZERO PUSH2 0xC74 JUMPI PUSH2 0xC45 DUP2 PUSH2 0xB1F JUMP JUMPDEST PUSH2 0xC4E DUP5 PUSH2 0xB31 JUMP JUMPDEST DUP2 ADD PUSH1 0x20 DUP6 LT ISZERO PUSH2 0xC5D JUMPI DUP2 SWAP1 POP JUMPDEST PUSH2 0xC71 PUSH2 0xC69 DUP6 PUSH2 0xB31 JUMP JUMPDEST DUP4 ADD DUP3 PUSH2 0xC11 JUMP JUMPDEST POP POP JUMPDEST POP POP POP JUMP JUMPDEST PUSH0 DUP3 DUP3 SHR SWAP1 POP SWAP3 SWAP2 POP POP JUMP JUMPDEST PUSH0 PUSH2 0xC94 PUSH0 NOT DUP5 PUSH1 0x8 MUL PUSH2 0xC79 JUMP JUMPDEST NOT DUP1 DUP4 AND SWAP2 POP POP SWAP3 SWAP2 POP POP JUMP JUMPDEST PUSH0 PUSH2 0xCAC DUP4 DUP4 PUSH2 0xC85 JUMP JUMPDEST SWAP2 POP DUP3 PUSH1 0x2 MUL DUP3 OR SWAP1 POP SWAP3 SWAP2 POP POP JUMP JUMPDEST PUSH2 0xCC5 DUP3 PUSH2 0x8AC JUMP JUMPDEST PUSH8 0xFFFFFFFFFFFFFFFF DUP2 GT ISZERO PUSH2 0xCDE JUMPI PUSH2 0xCDD PUSH2 0x69A JUMP JUMPDEST JUMPDEST PUSH2 0xCE8 DUP3 SLOAD PUSH2 0xAEF JUMP JUMPDEST PUSH2 0xCF3 DUP3 DUP3 DUP6 PUSH2 0xC33 JUMP JUMPDEST PUSH0 PUSH1 0x20 SWAP1 POP PUSH1 0x1F DUP4 GT PUSH1 0x1 DUP2 EQ PUSH2 0xD24 JUMPI PUSH0 DUP5 ISZERO PUSH2 0xD12 JUMPI DUP3 DUP8 ADD MLOAD SWAP1 POP JUMPDEST PUSH2 0xD1C DUP6 DUP3 PUSH2 0xCA1 JUMP JUMPDEST DUP7 SSTORE POP PUSH2 0xD83 JUMP JUMPDEST PUSH1 0x1F NOT DUP5 AND PUSH2 0xD32 DUP7 PUSH2 0xB1F JUMP JUMPDEST PUSH0 JUMPDEST DUP3 DUP2 LT ISZERO PUSH2 0xD59 JUMPI DUP5 DUP10 ADD MLOAD DUP3 SSTORE PUSH1 0x1 DUP3 ADD SWAP2 POP PUSH1 0x20 DUP6 ADD SWAP5 POP PUSH1 0x20 DUP2 ADD SWAP1 POP PUSH2 0xD34 JUMP JUMPDEST DUP7 DUP4 LT ISZERO PUSH2 0xD76 JUMPI DUP5 DUP10 ADD MLOAD PUSH2 0xD72 PUSH1 0x1F DUP10 AND DUP3 PUSH2 0xC85 JUMP JUMPDEST DUP4 SSTORE POP JUMPDEST PUSH1 0x1 PUSH1 0x2 DUP9 MUL ADD DUP9 SSTORE POP POP POP JUMPDEST POP POP POP POP POP POP JUMP JUMPDEST PUSH0 PUSH1 0x40 DUP3 ADD SWAP1 POP DUP2 DUP2 SUB PUSH0 DUP4 ADD MSTORE PUSH2 0xDA3 DUP2 DUP6 PUSH2 0x8D4 JUMP JUMPDEST SWAP1 POP PUSH2 0xDB2 PUSH1 0x20 DUP4 ADD DUP5 PUSH2 0x649 JUMP JUMPDEST SWAP4 SWAP3 POP POP POP JUMP JUMPDEST PUSH32 0x4974656D20646F6573206E6F7420657869737400000000000000000000000000 PUSH0 DUP3 ADD MSTORE POP JUMP JUMPDEST PUSH0 PUSH2 0xDED PUSH1 0x13 DUP4 PUSH2 0x8B6 JUMP JUMPDEST SWAP2 POP PUSH2 0xDF8 DUP3 PUSH2 0xDB9 JUMP JUMPDEST PUSH1 0x20 DUP3 ADD SWAP1 POP SWAP2 SWAP1 POP JUMP JUMPDEST PUSH0 PUSH1 0x20 DUP3 ADD SWAP1 POP DUP2 DUP2 SUB PUSH0 DUP4 ADD MSTORE PUSH2 0xE1A DUP2 PUSH2 0xDE1 JUMP JUMPDEST SWAP1 POP SWAP2 SWAP1 POP JUMP JUMPDEST PUSH32 0x496E636F72726563742065746865722073656E74000000000000000000000000 PUSH0 DUP3 ADD MSTORE POP JUMP JUMPDEST PUSH0 PUSH2 0xE55 PUSH1 0x14 DUP4 PUSH2 0x8B6 JUMP JUMPDEST SWAP2 POP PUSH2 0xE60 DUP3 PUSH2 0xE21 JUMP JUMPDEST PUSH1 0x20 DUP3 ADD SWAP1 POP SWAP2 SWAP1 POP JUMP JUMPDEST PUSH0 PUSH1 0x20 DUP3 ADD SWAP1 POP DUP2 DUP2 SUB PUSH0 DUP4 ADD MSTORE PUSH2 0xE82 DUP2 PUSH2 0xE49 JUMP JUMPDEST SWAP1 POP SWAP2 SWAP1 POP JUMP JUMPDEST PUSH32 0x4974656D20616C726561647920736F6C64000000000000000000000000000000 PUSH0 DUP3 ADD MSTORE POP JUMP JUMPDEST PUSH0 PUSH2 0xEBD PUSH1 0x11 DUP4 PUSH2 0x8B6 JUMP JUMPDEST SWAP2 POP PUSH2 0xEC8 DUP3 PUSH2 0xE89 JUMP JUMPDEST PUSH1 0x20 DUP3 ADD SWAP1 POP SWAP2 SWAP1 POP JUMP JUMPDEST PUSH0 PUSH1 0x20 DUP3 ADD SWAP1 POP DUP2 DUP2 SUB PUSH0 DUP4 ADD MSTORE PUSH2 0xEEA DUP2 PUSH2 0xEB1 JUMP JUMPDEST SWAP1 POP SWAP2 SWAP1 POP JUMP JUMPDEST PUSH32 0x53656C6C65722063616E6E6F7420627579207468696572206F776E206974656D PUSH0 DUP3 ADD MSTORE POP JUMP JUMPDEST PUSH0 PUSH2 0xF25 PUSH1 0x20 DUP4 PUSH2 0x8B6 JUMP JUMPDEST SWAP2 POP PUSH2 0xF30 DUP3 PUSH2 0xEF1 JUMP JUMPDEST PUSH1 0x20 DUP3 ADD SWAP1 POP SWAP2 SWAP1 POP JUMP JUMPDEST PUSH0 PUSH1 0x20 DUP3 ADD SWAP1 POP DUP2 DUP2 SUB PUSH0 DUP4 ADD MSTORE PUSH2 0xF52 DUP2 PUSH2 0xF19 JUMP JUMPDEST SWAP1 POP SWAP2 SWAP1 POP JUMP INVALID LOG2 PUSH5 0x6970667358 0x22 SLT KECCAK256 TIMESTAMP 0xD3 SLOAD ADDRESS DUP1 0xD4 0xBE LOG2 PUSH18 0xB4A6ADFB5A65D7563701008986773DC90D09 ADDMOD PUSH23 0xF600ED64736F6C63430008190033000000000000000000 "
				},
				"gasEstimates": {
					"creation": {
						"codeDepositCost": "796600",
						"executionCost": "5834",
						"totalCost": "802434"
					},
					"external": {
						"buyItem(uint256)": "infinite",
						"itemCount()": "2402",
						"items(uint256)": "infinite",
						"listItem(string,uint256)": "infinite"
					}
				},
				"methodIdentifiers": {
					"buyItem(uint256)": "e7fb74c7",
					"itemCount()": "6bfb0d01",
					"items(uint256)": "bfb231d2",
					"listItem(string,uint256)": "8511c937"
				}
			},
			"storageLayout": {
				"storage": [
					{
						"astId": 15,
						"contract": "Shopping.sol:ShoppingApp",
						"label": "itemCount",
						"offset": 0,
						"slot": "0",
						"type": "t_uint256"
					},
					{
						"astId": 20,
						"contract": "Shopping.sol:ShoppingApp",
						"label": "items",
						"offset": 0,
						"slot": "1",
						"type": "t_mapping(t_uint256,t_struct(Item)12_storage)"
					}
				],
				"types": {
					"t_address_payable": {
						"encoding": "inplace",
						"label": "address payable",
						"numberOfBytes": "20"
					},
					"t_bool": {
						"encoding": "inplace",
						"label": "bool",
						"numberOfBytes": "1"
					},
					"t_mapping(t_uint256,t_struct(Item)12_storage)": {
						"encoding": "mapping",
						"key": "t_uint256",
						"label": "mapping(uint256 => struct ShoppingApp.Item)",
						"numberOfBytes": "32",
						"value": "t_struct(Item)12_storage"
					},
					"t_string_storage": {
						"encoding": "bytes",
						"label": "string",
						"numberOfBytes": "32"
					},
					"t_struct(Item)12_storage": {
						"encoding": "inplace",
						"label": "struct ShoppingApp.Item",
						"members": [
							{
								"astId": 3,
								"contract": "Shopping.sol:ShoppingApp",
								"label": "id",
								"offset": 0,
								"slot": "0",
								"type": "t_uint256"
							},
							{
								"astId": 5,
								"contract": "Shopping.sol:ShoppingApp",
								"label": "seller",
								"offset": 0,
								"slot": "1",
								"type": "t_address_payable"
							},
							{
								"astId": 7,
								"contract": "Shopping.sol:ShoppingApp",
								"label": "name",
								"offset": 0,
								"slot": "2",
								"type": "t_string_storage"
							},
							{
								"astId": 9,
								"contract": "Shopping.sol:ShoppingApp",
								"label": "price",
								"offset": 0,
								"slot": "3",
								"type": "t_uint256"
							},
							{
								"astId": 11,
								"contract": "Shopping.sol:ShoppingApp",
								"label": "isSold",
								"offset": 0,
								"slot": "4",
								"type": "t_bool"
							}
						],
						"numberOfBytes": "160"
					},
					"t_uint256": {
						"encoding": "inplace",
						"label": "uint256",
						"numberOfBytes": "32"
					}
				}
			},
			"userdoc": {
				"kind": "user",
				"methods": {},
				"version": 1
			}
		}
	}
}