{
	"ethtoken.sol": {
		"xyztoken": {
			"abi": [
				{
					"inputs": [],
					"stateMutability": "nonpayable",
					"type": "constructor"
				},
				{
					"anonymous": false,
					"inputs": [
						{
							"indexed": true,
							"internalType": "address",
							"name": "owner",
							"type": "address"
						},
						{
							"indexed": true,
							"internalType": "address",
							"name": "spender",
							"type": "address"
						},
						{
							"indexed": false,
							"internalType": "uint256",
							"name": "value",
							"type": "uint256"
						}
					],
					"name": "Approval",
					"type": "event"
				},
				{
					"anonymous": false,
					"inputs": [
						{
							"indexed": false,
							"internalType": "uint256",
							"name": "_maxTxAmount",
							"type": "uint256"
						}
					],
					"name": "MaxTxAmountUpdated",
					"type": "event"
				},
				{
					"anonymous": false,
					"inputs": [
						{
							"indexed": true,
							"internalType": "address",
							"name": "previousOwner",
							"type": "address"
						},
						{
							"indexed": true,
							"internalType": "address",
							"name": "newOwner",
							"type": "address"
						}
					],
					"name": "OwnershipTransferred",
					"type": "event"
				},
				{
					"anonymous": false,
					"inputs": [
						{
							"indexed": true,
							"internalType": "address",
							"name": "from",
							"type": "address"
						},
						{
							"indexed": true,
							"internalType": "address",
							"name": "to",
							"type": "address"
						},
						{
							"indexed": false,
							"internalType": "uint256",
							"name": "value",
							"type": "uint256"
						}
					],
					"name": "Transfer",
					"type": "event"
				},
				{
					"inputs": [],
					"name": "_maxTaxSwap",
					"outputs": [
						{
							"internalType": "uint256",
							"name": "",
							"type": "uint256"
						}
					],
					"stateMutability": "view",
					"type": "function"
				},
				{
					"inputs": [],
					"name": "_maxTxAmount",
					"outputs": [
						{
							"internalType": "uint256",
							"name": "",
							"type": "uint256"
						}
					],
					"stateMutability": "view",
					"type": "function"
				},
				{
					"inputs": [],
					"name": "_maxWalletSize",
					"outputs": [
						{
							"internalType": "uint256",
							"name": "",
							"type": "uint256"
						}
					],
					"stateMutability": "view",
					"type": "function"
				},
				{
					"inputs": [],
					"name": "_taxSwapThreshold",
					"outputs": [
						{
							"internalType": "uint256",
							"name": "",
							"type": "uint256"
						}
					],
					"stateMutability": "view",
					"type": "function"
				},
				{
					"inputs": [
						{
							"internalType": "address",
							"name": "owner",
							"type": "address"
						},
						{
							"internalType": "address",
							"name": "spender",
							"type": "address"
						}
					],
					"name": "allowance",
					"outputs": [
						{
							"internalType": "uint256",
							"name": "",
							"type": "uint256"
						}
					],
					"stateMutability": "view",
					"type": "function"
				},
				{
					"inputs": [
						{
							"internalType": "address",
							"name": "spender",
							"type": "address"
						},
						{
							"internalType": "uint256",
							"name": "amount",
							"type": "uint256"
						}
					],
					"name": "approve",
					"outputs": [
						{
							"internalType": "bool",
							"name": "",
							"type": "bool"
						}
					],
					"stateMutability": "nonpayable",
					"type": "function"
				},
				{
					"inputs": [
						{
							"internalType": "address",
							"name": "account",
							"type": "address"
						}
					],
					"name": "balanceOf",
					"outputs": [
						{
							"internalType": "uint256",
							"name": "",
							"type": "uint256"
						}
					],
					"stateMutability": "view",
					"type": "function"
				},
				{
					"inputs": [],
					"name": "decimals",
					"outputs": [
						{
							"internalType": "uint8",
							"name": "",
							"type": "uint8"
						}
					],
					"stateMutability": "pure",
					"type": "function"
				},
				{
					"inputs": [],
					"name": "manualSwap",
					"outputs": [],
					"stateMutability": "nonpayable",
					"type": "function"
				},
				{
					"inputs": [],
					"name": "name",
					"outputs": [
						{
							"internalType": "string",
							"name": "",
							"type": "string"
						}
					],
					"stateMutability": "pure",
					"type": "function"
				},
				{
					"inputs": [],
					"name": "openTrading",
					"outputs": [],
					"stateMutability": "nonpayable",
					"type": "function"
				},
				{
					"inputs": [],
					"name": "owner",
					"outputs": [
						{
							"internalType": "address",
							"name": "",
							"type": "address"
						}
					],
					"stateMutability": "view",
					"type": "function"
				},
				{
					"inputs": [],
					"name": "removeLimits",
					"outputs": [],
					"stateMutability": "nonpayable",
					"type": "function"
				},
				{
					"inputs": [],
					"name": "renounceOwnership",
					"outputs": [],
					"stateMutability": "nonpayable",
					"type": "function"
				},
				{
					"inputs": [],
					"name": "symbol",
					"outputs": [
						{
							"internalType": "string",
							"name": "",
							"type": "string"
						}
					],
					"stateMutability": "pure",
					"type": "function"
				},
				{
					"inputs": [],
					"name": "totalSupply",
					"outputs": [
						{
							"internalType": "uint256",
							"name": "",
							"type": "uint256"
						}
					],
					"stateMutability": "pure",
					"type": "function"
				},
				{
					"inputs": [
						{
							"internalType": "address",
							"name": "recipient",
							"type": "address"
						},
						{
							"internalType": "uint256",
							"name": "amount",
							"type": "uint256"
						}
					],
					"name": "transfer",
					"outputs": [
						{
							"internalType": "bool",
							"name": "",
							"type": "bool"
						}
					],
					"stateMutability": "nonpayable",
					"type": "function"
				},
				{
					"inputs": [],
					"name": "transferDelayEnabled",
					"outputs": [
						{
							"internalType": "bool",
							"name": "",
							"type": "bool"
						}
					],
					"stateMutability": "view",
					"type": "function"
				},
				{
					"inputs": [
						{
							"internalType": "address",
							"name": "sender",
							"type": "address"
						},
						{
							"internalType": "address",
							"name": "recipient",
							"type": "address"
						},
						{
							"internalType": "uint256",
							"name": "amount",
							"type": "uint256"
						}
					],
					"name": "transferFrom",
					"outputs": [
						{
							"internalType": "bool",
							"name": "",
							"type": "bool"
						}
					],
					"stateMutability": "nonpayable",
					"type": "function"
				},
				{
					"stateMutability": "payable",
					"type": "receive"
				}
			],
			"devdoc": {
				"kind": "dev",
				"methods": {},
				"version": 1
			},
			"evm": {
				"assembly": "    /* \"ethtoken.sol\":3552:11531  contract xyztoken is Context, IERC20, Ownable {... */\n  mstore(0x40, 0x80)\n    /* \"ethtoken.sol\":3942:3981  bool public transferDelayEnabled = true */\n  0x06\n  dup1\n  sload\n  not(0xff)\n  and\n    /* \"ethtoken.sol\":3977:3981  true */\n  0x01\n    /* \"ethtoken.sol\":3942:3981  bool public transferDelayEnabled = true */\n  or\n  swap1\n  sstore\n    /* \"ethtoken.sol\":4062:4064  20 */\n  0x14\n    /* \"ethtoken.sol\":4031:4064  uint256 private _initialBuyTax=20 */\n  0x07\n  dup2\n  swap1\n  sstore\n    /* \"ethtoken.sol\":4071:4105  uint256 private _initialSellTax=20 */\n  0x08\n  sstore\n    /* \"ethtoken.sol\":3942:3981  bool public transferDelayEnabled = true */\n  0x00\n    /* \"ethtoken.sol\":4112:4142  uint256 private _finalBuyTax=0 */\n  0x09\n  dup2\n  dup2\n  sstore\n    /* \"ethtoken.sol\":4149:4180  uint256 private _finalSellTax=0 */\n  0x0a\n  dup3\n  dup2\n  sstore\n    /* \"ethtoken.sol\":4219:4220  5 */\n  0x05\n    /* \"ethtoken.sol\":4187:4220  uint256 private _reduceBuyTaxAt=5 */\n  0x0b\n  dup2\n  swap1\n  sstore\n    /* \"ethtoken.sol\":4227:4261  uint256 private _reduceSellTaxAt=5 */\n  0x0c\n  dup2\n  swap1\n  sstore\n    /* \"ethtoken.sol\":4268:4304  uint256 private _preventSwapBefore=5 */\n  0x0d\n  sstore\n    /* \"ethtoken.sol\":4311:4338  uint256 private _buyCount=0 */\n  0x0e\n  swap3\n  swap1\n  swap3\n  sstore\n    /* \"ethtoken.sol\":4605:4618  10**_decimals */\n  tag_1\n  swap2\n  tag_2\n  jump\t// in\ntag_1:\n    /* \"ethtoken.sol\":4596:4618  150000 * 10**_decimals */\n  tag_3\n  swap1\n    /* \"ethtoken.sol\":4596:4602  150000 */\n  0x0249f0\n    /* \"ethtoken.sol\":4596:4618  150000 * 10**_decimals */\n  tag_4\n  jump\t// in\ntag_3:\n    /* \"ethtoken.sol\":4566:4618  uint256 public _maxTxAmount = 150000 * 10**_decimals */\n  0x0f\n  sstore\n    /* \"ethtoken.sol\":4666:4679  10**_decimals */\n  tag_5\n    /* \"ethtoken.sol\":4382:4383  9 */\n  0x09\n    /* \"ethtoken.sol\":4666:4668  10 */\n  0x0a\n    /* \"ethtoken.sol\":4666:4679  10**_decimals */\n  tag_2\n  jump\t// in\ntag_5:\n    /* \"ethtoken.sol\":4657:4679  150000 * 10**_decimals */\n  tag_6\n  swap1\n    /* \"ethtoken.sol\":4657:4663  150000 */\n  0x0249f0\n    /* \"ethtoken.sol\":4657:4679  150000 * 10**_decimals */\n  tag_4\n  jump\t// in\ntag_6:\n    /* \"ethtoken.sol\":4625:4679  uint256 public _maxWalletSize = 150000 * 10**_decimals */\n  0x10\n  sstore\n    /* \"ethtoken.sol\":4728:4741  10**_decimals */\n  tag_7\n    /* \"ethtoken.sol\":4382:4383  9 */\n  0x09\n    /* \"ethtoken.sol\":4728:4730  10 */\n  0x0a\n    /* \"ethtoken.sol\":4728:4741  10**_decimals */\n  tag_2\n  jump\t// in\ntag_7:\n    /* \"ethtoken.sol\":4720:4741  75000 * 10**_decimals */\n  tag_8\n  swap1\n    /* \"ethtoken.sol\":4720:4725  75000 */\n  0x0124f8\n    /* \"ethtoken.sol\":4720:4741  75000 * 10**_decimals */\n  tag_4\n  jump\t// in\ntag_8:\n    /* \"ethtoken.sol\":4686:4741  uint256 public _taxSwapThreshold= 75000 * 10**_decimals */\n  0x11\n  sstore\n    /* \"ethtoken.sol\":4785:4798  10**_decimals */\n  tag_9\n    /* \"ethtoken.sol\":4382:4383  9 */\n  0x09\n    /* \"ethtoken.sol\":4785:4787  10 */\n  0x0a\n    /* \"ethtoken.sol\":4785:4798  10**_decimals */\n  tag_2\n  jump\t// in\ntag_9:\n    /* \"ethtoken.sol\":4776:4798  150000 * 10**_decimals */\n  tag_10\n  swap1\n    /* \"ethtoken.sol\":4776:4782  150000 */\n  0x0249f0\n    /* \"ethtoken.sol\":4776:4798  150000 * 10**_decimals */\n  tag_4\n  jump\t// in\ntag_10:\n    /* \"ethtoken.sol\":4748:4798  uint256 public _maxTaxSwap= 150000 * 10**_decimals */\n  0x12\n  sstore\n    /* \"ethtoken.sol\":4923:4950  bool private inSwap = false */\n  0x14\n  dup1\n  sload\n  not(shl(0xa8, 0xffff))\n    /* \"ethtoken.sol\":4957:4989  bool private swapEnabled = false */\n  and\n  swap1\n  sstore\n    /* \"ethtoken.sol\":5146:5463  constructor () {... */\n  callvalue\n  dup1\n  iszero\n  tag_11\n  jumpi\n  0x00\n  dup1\n  revert\ntag_11:\n  pop\n    /* \"ethtoken.sol\":2283:2300  address msgSender */\n  0x00\n    /* \"ethtoken.sol\":2326:2344  _owner = msgSender */\n  dup1\n  sload\n  not(sub(shl(0xa0, 0x01), 0x01))\n  and\n    /* \"ethtoken.sol\":254:264  msg.sender */\n  caller\n    /* \"ethtoken.sol\":2326:2344  _owner = msgSender */\n  swap1\n  dup2\n  or\n  dup3\n  sstore\n    /* \"ethtoken.sol\":2360:2403  OwnershipTransferred(address(0), msgSender) */\n  mload(0x40)\n    /* \"ethtoken.sol\":254:264  msg.sender */\n  swap1\n  swap2\n  dup3\n  swap2\n    /* \"ethtoken.sol\":2360:2403  OwnershipTransferred(address(0), msgSender) */\n  0x8be0079c531659141344cd1fd0a4f28419497f9722a3daafe3b4186f6b6457e0\n  swap1\n    /* \"ethtoken.sol\":2283:2300  address msgSender */\n  dup3\n  swap1\n    /* \"ethtoken.sol\":2360:2403  OwnershipTransferred(address(0), msgSender) */\n  log3\n  pop\n    /* \"ethtoken.sol\":5172:5182  _taxWallet */\n  0x06\n    /* \"ethtoken.sol\":5172:5206  _taxWallet = payable(_msgSender()) */\n  dup1\n  sload\n  not(sub(shl(0xa8, 0x01), 0x0100))\n  and\n  0x0100\n    /* \"ethtoken.sol\":254:264  msg.sender */\n  caller\n    /* \"ethtoken.sol\":5172:5206  _taxWallet = payable(_msgSender()) */\n  mul\n  or\n  swap1\n  sstore\n    /* \"ethtoken.sol\":4436:4449  10**_decimals */\n  tag_19\n    /* \"ethtoken.sol\":4382:4383  9 */\n  0x09\n    /* \"ethtoken.sol\":4436:4438  10 */\n  0x0a\n    /* \"ethtoken.sol\":4436:4449  10**_decimals */\n  tag_2\n  jump\t// in\ntag_19:\n    /* \"ethtoken.sol\":4425:4449  10000000 * 10**_decimals */\n  tag_20\n  swap1\n    /* \"ethtoken.sol\":4425:4433  10000000 */\n  0x989680\n    /* \"ethtoken.sol\":4425:4449  10000000 * 10**_decimals */\n  tag_4\n  jump\t// in\ntag_20:\n    /* \"ethtoken.sol\":254:264  msg.sender */\n  caller\n    /* \"ethtoken.sol\":5217:5240  _balances[_msgSender()] */\n  0x00\n  swap1\n  dup2\n  mstore\n    /* \"ethtoken.sol\":5217:5226  _balances */\n  0x01\n    /* \"ethtoken.sol\":5217:5240  _balances[_msgSender()] */\n  0x20\n  dup2\n  swap1\n  mstore\n  0x40\n  dup3\n  keccak256\n    /* \"ethtoken.sol\":5217:5250  _balances[_msgSender()] = _tTotal */\n  swap3\n  swap1\n  swap3\n  sstore\n    /* \"ethtoken.sol\":5261:5279  _isExcludedFromFee */\n  0x03\n  swap1\n    /* \"ethtoken.sol\":5280:5287  owner() */\n  tag_22\n    /* \"ethtoken.sol\":2457:2464  address */\n  0x00\n    /* \"ethtoken.sol\":2484:2490  _owner */\n  sload\n  sub(shl(0xa0, 0x01), 0x01)\n  and\n  swap1\n    /* \"ethtoken.sol\":2419:2498  function owner() public view returns (address) {... */\n  jump\n    /* \"ethtoken.sol\":5280:5287  owner() */\ntag_22:\n  sub(shl(0xa0, 0x01), 0x01)\n    /* \"ethtoken.sol\":5261:5288  _isExcludedFromFee[owner()] */\n  swap1\n  dup2\n  and\n  dup3\n  mstore\n  0x20\n  dup1\n  dup4\n  add\n  swap4\n  swap1\n  swap4\n  mstore\n  0x40\n  swap2\n  dup3\n  add\n  0x00\n  swap1\n  dup2\n  keccak256\n    /* \"ethtoken.sol\":5261:5295  _isExcludedFromFee[owner()] = true */\n  dup1\n  sload\n  swap6\n  iszero\n  iszero\n  not(0xff)\n  swap7\n  dup8\n  and\n  or\n  swap1\n  sstore\n    /* \"ethtoken.sol\":5333:5337  this */\n  address\n    /* \"ethtoken.sol\":5306:5339  _isExcludedFromFee[address(this)] */\n  dup2\n  mstore\n    /* \"ethtoken.sol\":5306:5324  _isExcludedFromFee */\n  0x03\n    /* \"ethtoken.sol\":5306:5339  _isExcludedFromFee[address(this)] */\n  swap1\n  swap4\n  mstore\n  dup2\n  dup4\n  keccak256\n    /* \"ethtoken.sol\":5306:5346  _isExcludedFromFee[address(this)] = true */\n  dup1\n  sload\n  dup6\n  and\n    /* \"ethtoken.sol\":5261:5295  _isExcludedFromFee[owner()] = true */\n  0x01\n    /* \"ethtoken.sol\":5306:5346  _isExcludedFromFee[address(this)] = true */\n  swap1\n  dup2\n  or\n  swap1\n  swap2\n  sstore\n    /* \"ethtoken.sol\":5376:5386  _taxWallet */\n  sload(0x06)\n    /* \"ethtoken.sol\":5261:5295  _isExcludedFromFee[owner()] = true */\n  0x0100\n    /* \"ethtoken.sol\":5376:5386  _taxWallet */\n  swap1\n  div\n  swap1\n  swap2\n  and\n    /* \"ethtoken.sol\":5357:5387  _isExcludedFromFee[_taxWallet] */\n  dup4\n  mstore\n  swap2\n  keccak256\n    /* \"ethtoken.sol\":5357:5394  _isExcludedFromFee[_taxWallet] = true */\n  dup1\n  sload\n  swap1\n  swap3\n  and\n  or\n  swap1\n  sstore\n    /* \"ethtoken.sol\":5433:5445  _msgSender() */\n  tag_24\n    /* \"ethtoken.sol\":254:264  msg.sender */\n  caller\n  swap1\n    /* \"ethtoken.sol\":174:272  function _msgSender() internal view virtual returns (address) {... */\n  jump\n    /* \"ethtoken.sol\":5433:5445  _msgSender() */\ntag_24:\n  sub(shl(0xa0, 0x01), 0x01)\n    /* \"ethtoken.sol\":5412:5455  Transfer(address(0), _msgSender(), _tTotal) */\n  and\n    /* \"ethtoken.sol\":5429:5430  0 */\n  0x00\n    /* \"ethtoken.sol\":5412:5455  Transfer(address(0), _msgSender(), _tTotal) */\n  0xddf252ad1be2c89b69c2b068fc378daa952ba7f163c4a11628f55a4df523b3ef\n    /* \"ethtoken.sol\":4436:4449  10**_decimals */\n  tag_25\n    /* \"ethtoken.sol\":4382:4383  9 */\n  0x09\n    /* \"ethtoken.sol\":4436:4438  10 */\n  0x0a\n    /* \"ethtoken.sol\":4436:4449  10**_decimals */\n  tag_2\n  jump\t// in\ntag_25:\n    /* \"ethtoken.sol\":4425:4449  10000000 * 10**_decimals */\n  tag_26\n  swap1\n    /* \"ethtoken.sol\":4425:4433  10000000 */\n  0x989680\n    /* \"ethtoken.sol\":4425:4449  10000000 * 10**_decimals */\n  tag_4\n  jump\t// in\ntag_26:\n    /* \"ethtoken.sol\":5412:5455  Transfer(address(0), _msgSender(), _tTotal) */\n  mload(0x40)\n    /* \"#utility.yul\":1842:1867   */\n  swap1\n  dup2\n  mstore\n    /* \"#utility.yul\":1830:1832   */\n  0x20\n    /* \"#utility.yul\":1815:1833   */\n  add\n    /* \"ethtoken.sol\":5412:5455  Transfer(address(0), _msgSender(), _tTotal) */\n  mload(0x40)\n  dup1\n  swap2\n  sub\n  swap1\n  log3\n    /* \"ethtoken.sol\":3552:11531  contract xyztoken is Context, IERC20, Ownable {... */\n  jump(tag_35)\n    /* \"#utility.yul\":14:141   */\ntag_32:\n    /* \"#utility.yul\":75:85   */\n  0x4e487b71\n    /* \"#utility.yul\":70:73   */\n  0xe0\n    /* \"#utility.yul\":66:86   */\n  shl\n    /* \"#utility.yul\":63:64   */\n  0x00\n    /* \"#utility.yul\":56:87   */\n  mstore\n    /* \"#utility.yul\":106:110   */\n  0x11\n    /* \"#utility.yul\":103:104   */\n  0x04\n    /* \"#utility.yul\":96:111   */\n  mstore\n    /* \"#utility.yul\":130:134   */\n  0x24\n    /* \"#utility.yul\":127:128   */\n  0x00\n    /* \"#utility.yul\":120:135   */\n  revert\n    /* \"#utility.yul\":146:562   */\ntag_33:\n    /* \"#utility.yul\":235:236   */\n  0x01\n    /* \"#utility.yul\":272:277   */\n  dup2\n    /* \"#utility.yul\":235:236   */\n  dup2\n    /* \"#utility.yul\":286:556   */\ntag_38:\n    /* \"#utility.yul\":307:314   */\n  dup1\n    /* \"#utility.yul\":297:305   */\n  dup6\n    /* \"#utility.yul\":294:315   */\n  gt\n    /* \"#utility.yul\":286:556   */\n  iszero\n  tag_40\n  jumpi\n    /* \"#utility.yul\":366:370   */\n  dup2\n    /* \"#utility.yul\":362:363   */\n  0x00\n    /* \"#utility.yul\":358:364   */\n  not\n    /* \"#utility.yul\":354:371   */\n  div\n    /* \"#utility.yul\":348:352   */\n  dup3\n    /* \"#utility.yul\":345:372   */\n  gt\n    /* \"#utility.yul\":342:395   */\n  iszero\n  tag_42\n  jumpi\n    /* \"#utility.yul\":375:393   */\n  tag_42\n  tag_32\n  jump\t// in\ntag_42:\n    /* \"#utility.yul\":425:432   */\n  dup1\n    /* \"#utility.yul\":415:423   */\n  dup6\n    /* \"#utility.yul\":411:433   */\n  and\n    /* \"#utility.yul\":408:463   */\n  iszero\n  tag_43\n  jumpi\n    /* \"#utility.yul\":445:461   */\n  swap2\n  dup2\n  mul\n  swap2\n    /* \"#utility.yul\":408:463   */\ntag_43:\n    /* \"#utility.yul\":524:546   */\n  swap4\n  dup5\n  shr\n  swap4\n    /* \"#utility.yul\":484:499   */\n  swap1\n  dup1\n  mul\n  swap1\n    /* \"#utility.yul\":286:556   */\n  jump(tag_38)\ntag_40:\n    /* \"#utility.yul\":290:293   */\n  pop\n    /* \"#utility.yul\":146:562   */\n  swap3\n  pop\n  swap3\n  swap1\n  pop\n  jump\t// out\n    /* \"#utility.yul\":567:1373   */\ntag_34:\n    /* \"#utility.yul\":616:621   */\n  0x00\n    /* \"#utility.yul\":646:654   */\n  dup3\n    /* \"#utility.yul\":636:716   */\n  tag_45\n  jumpi\n  pop\n    /* \"#utility.yul\":687:688   */\n  0x01\n    /* \"#utility.yul\":701:706   */\n  jump(tag_44)\n    /* \"#utility.yul\":636:716   */\ntag_45:\n    /* \"#utility.yul\":735:739   */\n  dup2\n    /* \"#utility.yul\":725:801   */\n  tag_46\n  jumpi\n  pop\n    /* \"#utility.yul\":772:773   */\n  0x00\n    /* \"#utility.yul\":786:791   */\n  jump(tag_44)\n    /* \"#utility.yul\":725:801   */\ntag_46:\n    /* \"#utility.yul\":817:821   */\n  dup2\n    /* \"#utility.yul\":835:836   */\n  0x01\n    /* \"#utility.yul\":830:889   */\n  dup2\n  eq\n  tag_48\n  jumpi\n    /* \"#utility.yul\":903:904   */\n  0x02\n    /* \"#utility.yul\":898:1028   */\n  dup2\n  eq\n  tag_49\n  jumpi\n    /* \"#utility.yul\":810:1028   */\n  jump(tag_47)\n    /* \"#utility.yul\":830:889   */\ntag_48:\n    /* \"#utility.yul\":860:861   */\n  0x01\n    /* \"#utility.yul\":851:861   */\n  swap2\n  pop\n    /* \"#utility.yul\":874:879   */\n  pop\n  jump(tag_44)\n    /* \"#utility.yul\":898:1028   */\ntag_49:\n    /* \"#utility.yul\":935:938   */\n  0xff\n    /* \"#utility.yul\":925:933   */\n  dup5\n    /* \"#utility.yul\":922:939   */\n  gt\n    /* \"#utility.yul\":919:962   */\n  iszero\n  tag_51\n  jumpi\n    /* \"#utility.yul\":942:960   */\n  tag_51\n  tag_32\n  jump\t// in\ntag_51:\n  pop\n  pop\n    /* \"#utility.yul\":998:999   */\n  0x01\n    /* \"#utility.yul\":984:1000   */\n  dup3\n  shl\n    /* \"#utility.yul\":1013:1018   */\n  jump(tag_44)\n    /* \"#utility.yul\":810:1028   */\ntag_47:\n  pop\n    /* \"#utility.yul\":1112:1114   */\n  0x20\n    /* \"#utility.yul\":1102:1110   */\n  dup4\n    /* \"#utility.yul\":1099:1115   */\n  lt\n    /* \"#utility.yul\":1093:1096   */\n  0x0133\n    /* \"#utility.yul\":1087:1091   */\n  dup4\n    /* \"#utility.yul\":1084:1097   */\n  lt\n    /* \"#utility.yul\":1080:1116   */\n  and\n    /* \"#utility.yul\":1074:1076   */\n  0x4e\n    /* \"#utility.yul\":1064:1072   */\n  dup5\n    /* \"#utility.yul\":1061:1077   */\n  lt\n    /* \"#utility.yul\":1056:1058   */\n  0x0b\n    /* \"#utility.yul\":1050:1054   */\n  dup5\n    /* \"#utility.yul\":1047:1059   */\n  lt\n    /* \"#utility.yul\":1043:1078   */\n  and\n    /* \"#utility.yul\":1040:1117   */\n  or\n    /* \"#utility.yul\":1037:1196   */\n  iszero\n  tag_52\n  jumpi\n  pop\n    /* \"#utility.yul\":1149:1168   */\n  dup2\n  dup2\n  exp\n    /* \"#utility.yul\":1181:1186   */\n  jump(tag_44)\n    /* \"#utility.yul\":1037:1196   */\ntag_52:\n    /* \"#utility.yul\":1228:1262   */\n  tag_53\n    /* \"#utility.yul\":1253:1261   */\n  dup4\n    /* \"#utility.yul\":1247:1251   */\n  dup4\n    /* \"#utility.yul\":1228:1262   */\n  tag_33\n  jump\t// in\ntag_53:\n    /* \"#utility.yul\":1298:1304   */\n  dup1\n    /* \"#utility.yul\":1294:1295   */\n  0x00\n    /* \"#utility.yul\":1290:1296   */\n  not\n    /* \"#utility.yul\":1286:1305   */\n  div\n    /* \"#utility.yul\":1277:1284   */\n  dup3\n    /* \"#utility.yul\":1274:1306   */\n  gt\n    /* \"#utility.yul\":1271:1329   */\n  iszero\n  tag_55\n  jumpi\n    /* \"#utility.yul\":1309:1327   */\n  tag_55\n  tag_32\n  jump\t// in\ntag_55:\n    /* \"#utility.yul\":1347:1367   */\n  mul\n  swap1\n  pop\n    /* \"#utility.yul\":567:1373   */\ntag_44:\n  swap3\n  swap2\n  pop\n  pop\n  jump\t// out\n    /* \"#utility.yul\":1378:1518   */\ntag_2:\n    /* \"#utility.yul\":1436:1441   */\n  0x00\n    /* \"#utility.yul\":1465:1512   */\n  tag_57\n    /* \"#utility.yul\":1506:1510   */\n  0xff\n    /* \"#utility.yul\":1496:1504   */\n  dup5\n    /* \"#utility.yul\":1492:1511   */\n  and\n    /* \"#utility.yul\":1486:1490   */\n  dup4\n    /* \"#utility.yul\":1465:1512   */\n  tag_34\n  jump\t// in\ntag_57:\n    /* \"#utility.yul\":1456:1512   */\n  swap4\n    /* \"#utility.yul\":1378:1518   */\n  swap3\n  pop\n  pop\n  pop\n  jump\t// out\n    /* \"#utility.yul\":1523:1691   */\ntag_4:\n    /* \"#utility.yul\":1596:1605   */\n  dup1\n  dup3\n  mul\n    /* \"#utility.yul\":1627:1636   */\n  dup2\n  iszero\n    /* \"#utility.yul\":1644:1659   */\n  dup3\n  dup3\n  div\n    /* \"#utility.yul\":1638:1660   */\n  dup5\n  eq\n    /* \"#utility.yul\":1624:1661   */\n  or\n    /* \"#utility.yul\":1614:1685   */\n  tag_44\n  jumpi\n    /* \"#utility.yul\":1665:1683   */\n  tag_44\n  tag_32\n  jump\t// in\n    /* \"#utility.yul\":1696:1873   */\ntag_35:\n    /* \"ethtoken.sol\":3552:11531  contract xyztoken is Context, IERC20, Ownable {... */\n  dataSize(sub_0)\n  dup1\n  dataOffset(sub_0)\n  0x00\n  codecopy\n  0x00\n  return\nstop\n\nsub_0: assembly {\n        /* \"ethtoken.sol\":3552:11531  contract xyztoken is Context, IERC20, Ownable {... */\n      mstore(0x40, 0x80)\n      jumpi(tag_1, lt(calldatasize, 0x04))\n      shr(0xe0, calldataload(0x00))\n      dup1\n      0x751039fc\n      gt\n      tag_22\n      jumpi\n      dup1\n      0xa9059cbb\n      gt\n      tag_23\n      jumpi\n      dup1\n      0xa9059cbb\n      eq\n      tag_17\n      jumpi\n      dup1\n      0xbf474bed\n      eq\n      tag_18\n      jumpi\n      dup1\n      0xc876d0b9\n      eq\n      tag_19\n      jumpi\n      dup1\n      0xc9567bf9\n      eq\n      tag_20\n      jumpi\n      dup1\n      0xdd62ed3e\n      eq\n      tag_21\n      jumpi\n      0x00\n      dup1\n      revert\n    tag_23:\n      dup1\n      0x751039fc\n      eq\n      tag_12\n      jumpi\n      dup1\n      0x7d1db4a5\n      eq\n      tag_13\n      jumpi\n      dup1\n      0x8da5cb5b\n      eq\n      tag_14\n      jumpi\n      dup1\n      0x8f9a55c0\n      eq\n      tag_15\n      jumpi\n      dup1\n      0x95d89b41\n      eq\n      tag_16\n      jumpi\n      0x00\n      dup1\n      revert\n    tag_22:\n      dup1\n      0x23b872dd\n      gt\n      tag_24\n      jumpi\n      dup1\n      0x23b872dd\n      eq\n      tag_7\n      jumpi\n      dup1\n      0x313ce567\n      eq\n      tag_8\n      jumpi\n      dup1\n      0x51bc3c85\n      eq\n      tag_9\n      jumpi\n      dup1\n      0x70a08231\n      eq\n      tag_10\n      jumpi\n      dup1\n      0x715018a6\n      eq\n      tag_11\n      jumpi\n      0x00\n      dup1\n      revert\n    tag_24:\n      dup1\n      0x06fdde03\n      eq\n      tag_3\n      jumpi\n      dup1\n      0x095ea7b3\n      eq\n      tag_4\n      jumpi\n      dup1\n      0x0faee56f\n      eq\n      tag_5\n      jumpi\n      dup1\n      0x18160ddd\n      eq\n      tag_6\n      jumpi\n      0x00\n      dup1\n      revert\n    tag_1:\n      jumpi(tag_2, calldatasize)\n      stop\n    tag_2:\n      0x00\n      dup1\n      revert\n        /* \"ethtoken.sol\":5471:5554  function name() public pure returns (string memory) {... */\n    tag_3:\n      callvalue\n      dup1\n      iszero\n      tag_27\n      jumpi\n      0x00\n      dup1\n      revert\n    tag_27:\n      pop\n        /* \"ethtoken.sol\":5541:5546  _name */\n      0x40\n      dup1\n      mload\n      dup1\n      dup3\n      add\n      swap1\n      swap2\n      mstore\n      0x09\n      dup2\n      mstore\n      shl(0xb9, 0x2c2cad102a37b5b2b7)\n      0x20\n      dup3\n      add\n      mstore\n        /* \"ethtoken.sol\":5471:5554  function name() public pure returns (string memory) {... */\n    tag_28:\n      mload(0x40)\n      tag_30\n      swap2\n      swap1\n      tag_31\n      jump\t// in\n    tag_30:\n      mload(0x40)\n      dup1\n      swap2\n      sub\n      swap1\n      return\n        /* \"ethtoken.sol\":6304:6465  function approve(address spender, uint256 amount) public override returns (bool) {... */\n    tag_4:\n      callvalue\n      dup1\n      iszero\n      tag_32\n      jumpi\n      0x00\n      dup1\n      revert\n    tag_32:\n      pop\n      tag_33\n      tag_34\n      calldatasize\n      0x04\n      tag_35\n      jump\t// in\n    tag_34:\n      tag_36\n      jump\t// in\n    tag_33:\n      mload(0x40)\n        /* \"#utility.yul\":1188:1202   */\n      swap1\n      iszero\n        /* \"#utility.yul\":1181:1203   */\n      iszero\n        /* \"#utility.yul\":1163:1204   */\n      dup2\n      mstore\n        /* \"#utility.yul\":1151:1153   */\n      0x20\n        /* \"#utility.yul\":1136:1154   */\n      add\n        /* \"ethtoken.sol\":6304:6465  function approve(address spender, uint256 amount) public override returns (bool) {... */\n      tag_30\n        /* \"#utility.yul\":1023:1210   */\n      jump\n        /* \"ethtoken.sol\":4748:4798  uint256 public _maxTaxSwap= 150000 * 10**_decimals */\n    tag_5:\n      callvalue\n      dup1\n      iszero\n      tag_39\n      jumpi\n      0x00\n      dup1\n      revert\n    tag_39:\n      pop\n      tag_40\n      sload(0x12)\n      dup2\n      jump\n    tag_40:\n      mload(0x40)\n        /* \"#utility.yul\":1361:1386   */\n      swap1\n      dup2\n      mstore\n        /* \"#utility.yul\":1349:1351   */\n      0x20\n        /* \"#utility.yul\":1334:1352   */\n      add\n        /* \"ethtoken.sol\":4748:4798  uint256 public _maxTaxSwap= 150000 * 10**_decimals */\n      tag_30\n        /* \"#utility.yul\":1215:1392   */\n      jump\n        /* \"ethtoken.sol\":5748:5843  function totalSupply() public pure override returns (uint256) {... */\n    tag_6:\n      callvalue\n      dup1\n      iszero\n      tag_44\n      jumpi\n      0x00\n      dup1\n      revert\n    tag_44:\n      pop\n      tag_40\n      tag_46\n      jump\t// in\n        /* \"ethtoken.sol\":6473:6786  function transferFrom(address sender, address recipient, uint256 amount) public override returns (bool) {... */\n    tag_7:\n      callvalue\n      dup1\n      iszero\n      tag_48\n      jumpi\n      0x00\n      dup1\n      revert\n    tag_48:\n      pop\n      tag_33\n      tag_50\n      calldatasize\n      0x04\n      tag_51\n      jump\t// in\n    tag_50:\n      tag_52\n      jump\t// in\n        /* \"ethtoken.sol\":5657:5740  function decimals() public pure returns (uint8) {... */\n    tag_8:\n      callvalue\n      dup1\n      iszero\n      tag_54\n      jumpi\n      0x00\n      dup1\n      revert\n    tag_54:\n      pop\n      mload(0x40)\n        /* \"ethtoken.sol\":4382:4383  9 */\n      0x09\n        /* \"#utility.yul\":2000:2036   */\n      dup2\n      mstore\n        /* \"#utility.yul\":1988:1990   */\n      0x20\n        /* \"#utility.yul\":1973:1991   */\n      add\n        /* \"ethtoken.sol\":5657:5740  function decimals() public pure returns (uint8) {... */\n      tag_30\n        /* \"#utility.yul\":1858:2042   */\n      jump\n        /* \"ethtoken.sol\":11180:11528  function manualSwap() external {... */\n    tag_9:\n      callvalue\n      dup1\n      iszero\n      tag_59\n      jumpi\n      0x00\n      dup1\n      revert\n    tag_59:\n      pop\n      tag_60\n      tag_61\n      jump\t// in\n    tag_60:\n      stop\n        /* \"ethtoken.sol\":5851:5970  function balanceOf(address account) public view override returns (uint256) {... */\n    tag_10:\n      callvalue\n      dup1\n      iszero\n      tag_62\n      jumpi\n      0x00\n      dup1\n      revert\n    tag_62:\n      pop\n      tag_40\n      tag_64\n      calldatasize\n      0x04\n      tag_65\n      jump\t// in\n    tag_64:\n      sub(shl(0xa0, 0x01), 0x01)\n        /* \"ethtoken.sol\":5944:5962  _balances[account] */\n      and\n        /* \"ethtoken.sol\":5917:5924  uint256 */\n      0x00\n        /* \"ethtoken.sol\":5944:5962  _balances[account] */\n      swap1\n      dup2\n      mstore\n        /* \"ethtoken.sol\":5944:5953  _balances */\n      0x01\n        /* \"ethtoken.sol\":5944:5962  _balances[account] */\n      0x20\n      mstore\n      0x40\n      swap1\n      keccak256\n      sload\n      swap1\n        /* \"ethtoken.sol\":5851:5970  function balanceOf(address account) public view override returns (uint256) {... */\n      jump\n        /* \"ethtoken.sol\":2633:2781  function renounceOwnership() public virtual onlyOwner {... */\n    tag_11:\n      callvalue\n      dup1\n      iszero\n      tag_68\n      jumpi\n      0x00\n      dup1\n      revert\n    tag_68:\n      pop\n      tag_60\n      tag_70\n      jump\t// in\n        /* \"ethtoken.sol\":10158:10354  function removeLimits() external onlyOwner{... */\n    tag_12:\n      callvalue\n      dup1\n      iszero\n      tag_71\n      jumpi\n      0x00\n      dup1\n      revert\n    tag_71:\n      pop\n      tag_60\n      tag_73\n      jump\t// in\n        /* \"ethtoken.sol\":4566:4618  uint256 public _maxTxAmount = 150000 * 10**_decimals */\n    tag_13:\n      callvalue\n      dup1\n      iszero\n      tag_74\n      jumpi\n      0x00\n      dup1\n      revert\n    tag_74:\n      pop\n      tag_40\n      sload(0x0f)\n      dup2\n      jump\n        /* \"ethtoken.sol\":2419:2498  function owner() public view returns (address) {... */\n    tag_14:\n      callvalue\n      dup1\n      iszero\n      tag_78\n      jumpi\n      0x00\n      dup1\n      revert\n    tag_78:\n      pop\n        /* \"ethtoken.sol\":2457:2464  address */\n      0x00\n        /* \"ethtoken.sol\":2484:2490  _owner */\n      sload\n        /* \"ethtoken.sol\":2419:2498  function owner() public view returns (address) {... */\n      mload(0x40)\n      sub(shl(0xa0, 0x01), 0x01)\n        /* \"ethtoken.sol\":2484:2490  _owner */\n      swap1\n      swap2\n      and\n        /* \"#utility.yul\":2445:2496   */\n      dup2\n      mstore\n        /* \"#utility.yul\":2433:2435   */\n      0x20\n        /* \"#utility.yul\":2418:2436   */\n      add\n        /* \"ethtoken.sol\":2419:2498  function owner() public view returns (address) {... */\n      tag_30\n        /* \"#utility.yul\":2299:2502   */\n      jump\n        /* \"ethtoken.sol\":4625:4679  uint256 public _maxWalletSize = 150000 * 10**_decimals */\n    tag_15:\n      callvalue\n      dup1\n      iszero\n      tag_83\n      jumpi\n      0x00\n      dup1\n      revert\n    tag_83:\n      pop\n      tag_40\n      sload(0x10)\n      dup2\n      jump\n        /* \"ethtoken.sol\":5562:5649  function symbol() public pure returns (string memory) {... */\n    tag_16:\n      callvalue\n      dup1\n      iszero\n      tag_87\n      jumpi\n      0x00\n      dup1\n      revert\n    tag_87:\n      pop\n        /* \"ethtoken.sol\":5634:5641  _symbol */\n      0x40\n      dup1\n      mload\n      dup1\n      dup3\n      add\n      swap1\n      swap2\n      mstore\n      0x03\n      dup2\n      mstore\n      shl(0xe9, 0x2c2cad)\n      0x20\n      dup3\n      add\n      mstore\n        /* \"ethtoken.sol\":5562:5649  function symbol() public pure returns (string memory) {... */\n      jump(tag_28)\n        /* \"ethtoken.sol\":5978:6145  function transfer(address recipient, uint256 amount) public override returns (bool) {... */\n    tag_17:\n      callvalue\n      dup1\n      iszero\n      tag_91\n      jumpi\n      0x00\n      dup1\n      revert\n    tag_91:\n      pop\n      tag_33\n      tag_93\n      calldatasize\n      0x04\n      tag_35\n      jump\t// in\n    tag_93:\n      tag_94\n      jump\t// in\n        /* \"ethtoken.sol\":4686:4741  uint256 public _taxSwapThreshold= 75000 * 10**_decimals */\n    tag_18:\n      callvalue\n      dup1\n      iszero\n      tag_96\n      jumpi\n      0x00\n      dup1\n      revert\n    tag_96:\n      pop\n      tag_40\n      sload(0x11)\n      dup2\n      jump\n        /* \"ethtoken.sol\":3942:3981  bool public transferDelayEnabled = true */\n    tag_19:\n      callvalue\n      dup1\n      iszero\n      tag_100\n      jumpi\n      0x00\n      dup1\n      revert\n    tag_100:\n      pop\n      sload(0x06)\n      tag_33\n      swap1\n      0xff\n      and\n      dup2\n      jump\n        /* \"ethtoken.sol\":10464:11135  function openTrading() external onlyOwner() {... */\n    tag_20:\n      callvalue\n      dup1\n      iszero\n      tag_104\n      jumpi\n      0x00\n      dup1\n      revert\n    tag_104:\n      pop\n      tag_60\n      tag_106\n      jump\t// in\n        /* \"ethtoken.sol\":6153:6296  function allowance(address owner, address spender) public view override returns (uint256) {... */\n    tag_21:\n      callvalue\n      dup1\n      iszero\n      tag_107\n      jumpi\n      0x00\n      dup1\n      revert\n    tag_107:\n      pop\n      tag_40\n      tag_109\n      calldatasize\n      0x04\n      tag_110\n      jump\t// in\n    tag_109:\n      sub(shl(0xa0, 0x01), 0x01)\n        /* \"ethtoken.sol\":6261:6279  _allowances[owner] */\n      swap2\n      dup3\n      and\n        /* \"ethtoken.sol\":6234:6241  uint256 */\n      0x00\n        /* \"ethtoken.sol\":6261:6279  _allowances[owner] */\n      swap1\n      dup2\n      mstore\n        /* \"ethtoken.sol\":6261:6272  _allowances */\n      0x02\n        /* \"ethtoken.sol\":6261:6279  _allowances[owner] */\n      0x20\n      swap1\n      dup2\n      mstore\n      0x40\n      dup1\n      dup4\n      keccak256\n        /* \"ethtoken.sol\":6261:6288  _allowances[owner][spender] */\n      swap4\n      swap1\n      swap5\n      and\n      dup3\n      mstore\n      swap2\n      swap1\n      swap2\n      mstore\n      keccak256\n      sload\n      swap1\n        /* \"ethtoken.sol\":6153:6296  function allowance(address owner, address spender) public view override returns (uint256) {... */\n      jump\n        /* \"ethtoken.sol\":6304:6465  function approve(address spender, uint256 amount) public override returns (bool) {... */\n    tag_36:\n        /* \"ethtoken.sol\":6379:6383  bool */\n      0x00\n        /* \"ethtoken.sol\":6396:6435  _approve(_msgSender(), spender, amount) */\n      tag_115\n        /* \"ethtoken.sol\":254:264  msg.sender */\n      caller\n        /* \"ethtoken.sol\":6419:6426  spender */\n      dup5\n        /* \"ethtoken.sol\":6428:6434  amount */\n      dup5\n        /* \"ethtoken.sol\":6396:6404  _approve */\n      tag_118\n        /* \"ethtoken.sol\":6396:6435  _approve(_msgSender(), spender, amount) */\n      jump\t// in\n    tag_115:\n      pop\n        /* \"ethtoken.sol\":6453:6457  true */\n      0x01\n        /* \"ethtoken.sol\":6304:6465  function approve(address spender, uint256 amount) public override returns (bool) {... */\n    tag_114:\n      swap3\n      swap2\n      pop\n      pop\n      jump\t// out\n        /* \"ethtoken.sol\":5748:5843  function totalSupply() public pure override returns (uint256) {... */\n    tag_46:\n        /* \"ethtoken.sol\":5801:5808  uint256 */\n      0x00\n        /* \"ethtoken.sol\":4436:4449  10**_decimals */\n      tag_120\n        /* \"ethtoken.sol\":4382:4383  9 */\n      0x09\n        /* \"ethtoken.sol\":4436:4438  10 */\n      0x0a\n        /* \"ethtoken.sol\":4436:4449  10**_decimals */\n      tag_121\n      jump\t// in\n    tag_120:\n        /* \"ethtoken.sol\":4425:4449  10000000 * 10**_decimals */\n      tag_122\n      swap1\n        /* \"ethtoken.sol\":4425:4433  10000000 */\n      0x989680\n        /* \"ethtoken.sol\":4425:4449  10000000 * 10**_decimals */\n      tag_123\n      jump\t// in\n    tag_122:\n        /* \"ethtoken.sol\":5821:5835  return _tTotal */\n      swap1\n      pop\n        /* \"ethtoken.sol\":5748:5843  function totalSupply() public pure override returns (uint256) {... */\n      swap1\n      jump\t// out\n        /* \"ethtoken.sol\":6473:6786  function transferFrom(address sender, address recipient, uint256 amount) public override returns (bool) {... */\n    tag_52:\n        /* \"ethtoken.sol\":6571:6575  bool */\n      0x00\n        /* \"ethtoken.sol\":6588:6624  _transfer(sender, recipient, amount) */\n      tag_125\n        /* \"ethtoken.sol\":6598:6604  sender */\n      dup5\n        /* \"ethtoken.sol\":6606:6615  recipient */\n      dup5\n        /* \"ethtoken.sol\":6617:6623  amount */\n      dup5\n        /* \"ethtoken.sol\":6588:6597  _transfer */\n      tag_126\n        /* \"ethtoken.sol\":6588:6624  _transfer(sender, recipient, amount) */\n      jump\t// in\n    tag_125:\n        /* \"ethtoken.sol\":6635:6756  _approve(sender, _msgSender(), _allowances[sender][_msgSender()].sub(amount, \"ERC20: transfer amount exceeds allowance\")) */\n      tag_127\n        /* \"ethtoken.sol\":6644:6650  sender */\n      dup5\n        /* \"ethtoken.sol\":254:264  msg.sender */\n      caller\n        /* \"ethtoken.sol\":6666:6755  _allowances[sender][_msgSender()].sub(amount, \"ERC20: transfer amount exceeds allowance\") */\n      tag_129\n        /* \"ethtoken.sol\":6704:6710  amount */\n      dup6\n        /* \"ethtoken.sol\":6666:6755  _allowances[sender][_msgSender()].sub(amount, \"ERC20: transfer amount exceeds allowance\") */\n      mload(0x40)\n      dup1\n      0x60\n      add\n      0x40\n      mstore\n      dup1\n      0x28\n      dup2\n      mstore\n      0x20\n      add\n      data_974d1b4421da69cc60b481194f0dad36a5bb4e23da810da7a7fb30cdba178330\n      0x28\n      swap2\n      codecopy\n      sub(shl(0xa0, 0x01), 0x01)\n        /* \"ethtoken.sol\":6666:6685  _allowances[sender] */\n      dup11\n      and\n      0x00\n      swap1\n      dup2\n      mstore\n        /* \"ethtoken.sol\":6666:6677  _allowances */\n      0x02\n        /* \"ethtoken.sol\":6666:6685  _allowances[sender] */\n      0x20\n      swap1\n      dup2\n      mstore\n      0x40\n      dup1\n      dup4\n      keccak256\n        /* \"ethtoken.sol\":254:264  msg.sender */\n      caller\n        /* \"ethtoken.sol\":6666:6699  _allowances[sender][_msgSender()] */\n      dup5\n      mstore\n      swap1\n      swap2\n      mstore\n      swap1\n      keccak256\n      sload\n      swap2\n      swap1\n        /* \"ethtoken.sol\":6666:6703  _allowances[sender][_msgSender()].sub */\n      tag_131\n        /* \"ethtoken.sol\":6666:6755  _allowances[sender][_msgSender()].sub(amount, \"ERC20: transfer amount exceeds allowance\") */\n      jump\t// in\n    tag_129:\n        /* \"ethtoken.sol\":6635:6643  _approve */\n      tag_118\n        /* \"ethtoken.sol\":6635:6756  _approve(sender, _msgSender(), _allowances[sender][_msgSender()].sub(amount, \"ERC20: transfer amount exceeds allowance\")) */\n      jump\t// in\n    tag_127:\n      pop\n        /* \"ethtoken.sol\":6774:6778  true */\n      0x01\n        /* \"ethtoken.sol\":6473:6786  function transferFrom(address sender, address recipient, uint256 amount) public override returns (bool) {... */\n      swap4\n      swap3\n      pop\n      pop\n      pop\n      jump\t// out\n        /* \"ethtoken.sol\":11180:11528  function manualSwap() external {... */\n    tag_61:\n        /* \"ethtoken.sol\":11244:11254  _taxWallet */\n      sload(0x06)\n      0x0100\n      swap1\n      div\n      sub(shl(0xa0, 0x01), 0x01)\n      and\n        /* \"ethtoken.sol\":254:264  msg.sender */\n      caller\n      sub(shl(0xa0, 0x01), 0x01)\n        /* \"ethtoken.sol\":11230:11254  _msgSender()==_taxWallet */\n      and\n      eq\n        /* \"ethtoken.sol\":11222:11255  require(_msgSender()==_taxWallet) */\n      tag_135\n      jumpi\n      0x00\n      dup1\n      revert\n    tag_135:\n        /* \"ethtoken.sol\":11305:11309  this */\n      address\n        /* \"ethtoken.sol\":11266:11286  uint256 tokenBalance */\n      0x00\n        /* \"ethtoken.sol\":5944:5962  _balances[account] */\n      swap1\n      dup2\n      mstore\n        /* \"ethtoken.sol\":5944:5953  _balances */\n      0x01\n        /* \"ethtoken.sol\":5944:5962  _balances[account] */\n      0x20\n      mstore\n      0x40\n      swap1\n      keccak256\n      sload\n        /* \"ethtoken.sol\":11325:11339  tokenBalance>0 */\n      dup1\n      iszero\n        /* \"ethtoken.sol\":11322:11395  if(tokenBalance>0){... */\n      tag_138\n      jumpi\n        /* \"ethtoken.sol\":11353:11383  swapTokensForEth(tokenBalance) */\n      tag_138\n        /* \"ethtoken.sol\":11370:11382  tokenBalance */\n      dup2\n        /* \"ethtoken.sol\":11353:11369  swapTokensForEth */\n      tag_139\n        /* \"ethtoken.sol\":11353:11383  swapTokensForEth(tokenBalance) */\n      jump\t// in\n    tag_138:\n        /* \"ethtoken.sol\":11424:11445  address(this).balance */\n      selfbalance\n        /* \"ethtoken.sol\":11459:11471  ethBalance>0 */\n      dup1\n      iszero\n        /* \"ethtoken.sol\":11456:11521  if(ethBalance>0){... */\n      tag_141\n      jumpi\n        /* \"ethtoken.sol\":11485:11509  sendETHToFee(ethBalance) */\n      tag_141\n        /* \"ethtoken.sol\":11498:11508  ethBalance */\n      dup2\n        /* \"ethtoken.sol\":11485:11497  sendETHToFee */\n      tag_142\n        /* \"ethtoken.sol\":11485:11509  sendETHToFee(ethBalance) */\n      jump\t// in\n    tag_141:\n        /* \"ethtoken.sol\":11211:11528  {... */\n      pop\n      pop\n        /* \"ethtoken.sol\":11180:11528  function manualSwap() external {... */\n      jump\t// out\n        /* \"ethtoken.sol\":2633:2781  function renounceOwnership() public virtual onlyOwner {... */\n    tag_70:\n        /* \"ethtoken.sol\":2546:2552  _owner */\n      and(sub(shl(0xa0, 0x01), 0x01), sload(0x00))\n        /* \"ethtoken.sol\":254:264  msg.sender */\n      caller\n        /* \"ethtoken.sol\":2546:2568  _owner == _msgSender() */\n      eq\n        /* \"ethtoken.sol\":2538:2605  require(_owner == _msgSender(), \"Ownable: caller is not the owner\") */\n      tag_146\n      jumpi\n      mload(0x40)\n      shl(0xe5, 0x461bcd)\n      dup2\n      mstore\n      0x04\n      add\n      tag_147\n      swap1\n      tag_148\n      jump\t// in\n    tag_147:\n      mload(0x40)\n      dup1\n      swap2\n      sub\n      swap1\n      revert\n    tag_146:\n        /* \"ethtoken.sol\":2740:2741  0 */\n      0x00\n        /* \"ethtoken.sol\":2724:2730  _owner */\n      dup1\n      sload\n        /* \"ethtoken.sol\":2703:2743  OwnershipTransferred(_owner, address(0)) */\n      mload(0x40)\n      sub(shl(0xa0, 0x01), 0x01)\n        /* \"ethtoken.sol\":2724:2730  _owner */\n      swap1\n      swap2\n      and\n      swap1\n        /* \"ethtoken.sol\":2703:2743  OwnershipTransferred(_owner, address(0)) */\n      0x8be0079c531659141344cd1fd0a4f28419497f9722a3daafe3b4186f6b6457e0\n      swap1\n        /* \"ethtoken.sol\":2740:2741  0 */\n      dup4\n      swap1\n        /* \"ethtoken.sol\":2703:2743  OwnershipTransferred(_owner, address(0)) */\n      log3\n        /* \"ethtoken.sol\":2771:2772  0 */\n      0x00\n        /* \"ethtoken.sol\":2754:2773  _owner = address(0) */\n      dup1\n      sload\n      not(sub(shl(0xa0, 0x01), 0x01))\n      and\n      swap1\n      sstore\n        /* \"ethtoken.sol\":2633:2781  function renounceOwnership() public virtual onlyOwner {... */\n      jump\t// out\n        /* \"ethtoken.sol\":10158:10354  function removeLimits() external onlyOwner{... */\n    tag_73:\n        /* \"ethtoken.sol\":2546:2552  _owner */\n      and(sub(shl(0xa0, 0x01), 0x01), sload(0x00))\n        /* \"ethtoken.sol\":254:264  msg.sender */\n      caller\n        /* \"ethtoken.sol\":2546:2568  _owner == _msgSender() */\n      eq\n        /* \"ethtoken.sol\":2538:2605  require(_owner == _msgSender(), \"Ownable: caller is not the owner\") */\n      tag_152\n      jumpi\n      mload(0x40)\n      shl(0xe5, 0x461bcd)\n      dup2\n      mstore\n      0x04\n      add\n      tag_147\n      swap1\n      tag_148\n      jump\t// in\n    tag_152:\n        /* \"ethtoken.sol\":4436:4449  10**_decimals */\n      tag_155\n        /* \"ethtoken.sol\":4382:4383  9 */\n      0x09\n        /* \"ethtoken.sol\":4436:4438  10 */\n      0x0a\n        /* \"ethtoken.sol\":4436:4449  10**_decimals */\n      tag_121\n      jump\t// in\n    tag_155:\n        /* \"ethtoken.sol\":4425:4449  10000000 * 10**_decimals */\n      tag_156\n      swap1\n        /* \"ethtoken.sol\":4425:4433  10000000 */\n      0x989680\n        /* \"ethtoken.sol\":4425:4449  10000000 * 10**_decimals */\n      tag_123\n      jump\t// in\n    tag_156:\n        /* \"ethtoken.sol\":10211:10223  _maxTxAmount */\n      0x0f\n        /* \"ethtoken.sol\":10211:10233  _maxTxAmount = _tTotal */\n      sstore\n        /* \"ethtoken.sol\":4436:4449  10**_decimals */\n      tag_157\n        /* \"ethtoken.sol\":4382:4383  9 */\n      0x09\n        /* \"ethtoken.sol\":4436:4438  10 */\n      0x0a\n        /* \"ethtoken.sol\":4436:4449  10**_decimals */\n      tag_121\n      jump\t// in\n    tag_157:\n        /* \"ethtoken.sol\":4425:4449  10000000 * 10**_decimals */\n      tag_158\n      swap1\n        /* \"ethtoken.sol\":4425:4433  10000000 */\n      0x989680\n        /* \"ethtoken.sol\":4425:4449  10000000 * 10**_decimals */\n      tag_123\n      jump\t// in\n    tag_158:\n        /* \"ethtoken.sol\":10244:10258  _maxWalletSize */\n      0x10\n        /* \"ethtoken.sol\":10244:10266  _maxWalletSize=_tTotal */\n      sstore\n        /* \"ethtoken.sol\":10277:10297  transferDelayEnabled */\n      0x06\n        /* \"ethtoken.sol\":10277:10303  transferDelayEnabled=false */\n      dup1\n      sload\n      not(0xff)\n      and\n      swap1\n      sstore\n        /* \"ethtoken.sol\":10319:10346  MaxTxAmountUpdated(_tTotal) */\n      0x947f344d56e1e8c70dc492fb94c4ddddd490c016aab685f5e7e47b2e85cb44cf\n        /* \"ethtoken.sol\":4436:4449  10**_decimals */\n      tag_159\n        /* \"ethtoken.sol\":4382:4383  9 */\n      0x09\n      0x0a\n        /* \"ethtoken.sol\":4436:4449  10**_decimals */\n      tag_121\n      jump\t// in\n    tag_159:\n        /* \"ethtoken.sol\":4425:4449  10000000 * 10**_decimals */\n      tag_160\n      swap1\n        /* \"ethtoken.sol\":4425:4433  10000000 */\n      0x989680\n        /* \"ethtoken.sol\":4425:4449  10000000 * 10**_decimals */\n      tag_123\n      jump\t// in\n    tag_160:\n        /* \"ethtoken.sol\":10319:10346  MaxTxAmountUpdated(_tTotal) */\n      mload(0x40)\n        /* \"#utility.yul\":1361:1386   */\n      swap1\n      dup2\n      mstore\n        /* \"#utility.yul\":1349:1351   */\n      0x20\n        /* \"#utility.yul\":1334:1352   */\n      add\n        /* \"ethtoken.sol\":10319:10346  MaxTxAmountUpdated(_tTotal) */\n      mload(0x40)\n      dup1\n      swap2\n      sub\n      swap1\n      log1\n        /* \"ethtoken.sol\":10158:10354  function removeLimits() external onlyOwner{... */\n      jump\t// out\n        /* \"ethtoken.sol\":5978:6145  function transfer(address recipient, uint256 amount) public override returns (bool) {... */\n    tag_94:\n        /* \"ethtoken.sol\":6056:6060  bool */\n      0x00\n        /* \"ethtoken.sol\":6073:6115  _transfer(_msgSender(), recipient, amount) */\n      tag_115\n        /* \"ethtoken.sol\":254:264  msg.sender */\n      caller\n        /* \"ethtoken.sol\":6097:6106  recipient */\n      dup5\n        /* \"ethtoken.sol\":6108:6114  amount */\n      dup5\n        /* \"ethtoken.sol\":6073:6082  _transfer */\n      tag_126\n        /* \"ethtoken.sol\":6073:6115  _transfer(_msgSender(), recipient, amount) */\n      jump\t// in\n        /* \"ethtoken.sol\":10464:11135  function openTrading() external onlyOwner() {... */\n    tag_106:\n        /* \"ethtoken.sol\":2546:2552  _owner */\n      and(sub(shl(0xa0, 0x01), 0x01), sload(0x00))\n        /* \"ethtoken.sol\":254:264  msg.sender */\n      caller\n        /* \"ethtoken.sol\":2546:2568  _owner == _msgSender() */\n      eq\n        /* \"ethtoken.sol\":2538:2605  require(_owner == _msgSender(), \"Ownable: caller is not the owner\") */\n      tag_169\n      jumpi\n      mload(0x40)\n      shl(0xe5, 0x461bcd)\n      dup2\n      mstore\n      0x04\n      add\n      tag_147\n      swap1\n      tag_148\n      jump\t// in\n    tag_169:\n        /* \"ethtoken.sol\":10528:10539  tradingOpen */\n      sload(0x14)\n      shl(0xa0, 0x01)\n      swap1\n      div\n      0xff\n      and\n        /* \"ethtoken.sol\":10527:10539  !tradingOpen */\n      iszero\n        /* \"ethtoken.sol\":10519:10566  require(!tradingOpen,\"trading is already open\") */\n      tag_172\n      jumpi\n      mload(0x40)\n      shl(0xe5, 0x461bcd)\n      dup2\n      mstore\n        /* \"#utility.yul\":5145:5147   */\n      0x20\n        /* \"ethtoken.sol\":10519:10566  require(!tradingOpen,\"trading is already open\") */\n      0x04\n      dup3\n      add\n        /* \"#utility.yul\":5127:5148   */\n      mstore\n        /* \"#utility.yul\":5184:5186   */\n      0x17\n        /* \"#utility.yul\":5164:5182   */\n      0x24\n      dup3\n      add\n        /* \"#utility.yul\":5157:5187   */\n      mstore\n        /* \"#utility.yul\":5223:5248   */\n      0x74726164696e6720697320616c7265616479206f70656e000000000000000000\n        /* \"#utility.yul\":5203:5221   */\n      0x44\n      dup3\n      add\n        /* \"#utility.yul\":5196:5249   */\n      mstore\n        /* \"#utility.yul\":5266:5284   */\n      0x64\n      add\n        /* \"ethtoken.sol\":10519:10566  require(!tradingOpen,\"trading is already open\") */\n      tag_147\n        /* \"#utility.yul\":4943:5290   */\n      jump\n        /* \"ethtoken.sol\":10519:10566  require(!tradingOpen,\"trading is already open\") */\n    tag_172:\n        /* \"ethtoken.sol\":10577:10592  uniswapV2Router */\n      0x13\n        /* \"ethtoken.sol\":10577:10657  uniswapV2Router = IUniswapV2Router02(0x7a250d5630B4cF539739dF2C5dAcb4c659F2488D) */\n      dup1\n      sload\n      not(sub(shl(0xa0, 0x01), 0x01))\n      and\n        /* \"ethtoken.sol\":10614:10656  0x7a250d5630B4cF539739dF2C5dAcb4c659F2488D */\n      0x7a250d5630b4cf539739df2c5dacb4c659f2488d\n        /* \"ethtoken.sol\":10577:10657  uniswapV2Router = IUniswapV2Router02(0x7a250d5630B4cF539739dF2C5dAcb4c659F2488D) */\n      swap1\n      dup2\n      or\n      swap1\n      swap2\n      sstore\n        /* \"ethtoken.sol\":10668:10726  _approve(address(this), address(uniswapV2Router), _tTotal) */\n      tag_175\n      swap1\n        /* \"ethtoken.sol\":10685:10689  this */\n      address\n      swap1\n        /* \"ethtoken.sol\":4436:4449  10**_decimals */\n      tag_176\n        /* \"ethtoken.sol\":4382:4383  9 */\n      0x09\n        /* \"ethtoken.sol\":4436:4438  10 */\n      0x0a\n        /* \"ethtoken.sol\":4436:4449  10**_decimals */\n      tag_121\n      jump\t// in\n    tag_176:\n        /* \"ethtoken.sol\":4425:4449  10000000 * 10**_decimals */\n      tag_129\n      swap1\n        /* \"ethtoken.sol\":4425:4433  10000000 */\n      0x989680\n        /* \"ethtoken.sol\":4425:4449  10000000 * 10**_decimals */\n      tag_123\n      jump\t// in\n        /* \"ethtoken.sol\":10668:10726  _approve(address(this), address(uniswapV2Router), _tTotal) */\n    tag_175:\n        /* \"ethtoken.sol\":10771:10786  uniswapV2Router */\n      0x13\n      0x00\n      swap1\n      sload\n      swap1\n      0x0100\n      exp\n      swap1\n      div\n      sub(shl(0xa0, 0x01), 0x01)\n      and\n      sub(shl(0xa0, 0x01), 0x01)\n        /* \"ethtoken.sol\":10771:10794  uniswapV2Router.factory */\n      and\n      0xc45a0155\n        /* \"ethtoken.sol\":10771:10796  uniswapV2Router.factory() */\n      mload(0x40)\n      dup2\n      0xffffffff\n      and\n      0xe0\n      shl\n      dup2\n      mstore\n      0x04\n      add\n      0x20\n      mload(0x40)\n      dup1\n      dup4\n      sub\n      dup2\n      dup7\n      gas\n      staticcall\n      iszero\n      dup1\n      iszero\n      tag_179\n      jumpi\n      returndatasize\n      0x00\n      dup1\n      returndatacopy\n      revert(0x00, returndatasize)\n    tag_179:\n      pop\n      pop\n      pop\n      pop\n      mload(0x40)\n      returndatasize\n      not(0x1f)\n      0x1f\n      dup3\n      add\n      and\n      dup3\n      add\n      dup1\n      0x40\n      mstore\n      pop\n      dup2\n      add\n      swap1\n      tag_180\n      swap2\n      swap1\n      tag_181\n      jump\t// in\n    tag_180:\n      sub(shl(0xa0, 0x01), 0x01)\n        /* \"ethtoken.sol\":10753:10808  IUniswapV2Factory(uniswapV2Router.factory()).createPair */\n      and\n      0xc9c65396\n        /* \"ethtoken.sol\":10817:10821  this */\n      address\n        /* \"ethtoken.sol\":10824:10839  uniswapV2Router */\n      0x13\n      0x00\n      swap1\n      sload\n      swap1\n      0x0100\n      exp\n      swap1\n      div\n      sub(shl(0xa0, 0x01), 0x01)\n      and\n      sub(shl(0xa0, 0x01), 0x01)\n        /* \"ethtoken.sol\":10824:10844  uniswapV2Router.WETH */\n      and\n      0xad5c4648\n        /* \"ethtoken.sol\":10824:10846  uniswapV2Router.WETH() */\n      mload(0x40)\n      dup2\n      0xffffffff\n      and\n      0xe0\n      shl\n      dup2\n      mstore\n      0x04\n      add\n      0x20\n      mload(0x40)\n      dup1\n      dup4\n      sub\n      dup2\n      dup7\n      gas\n      staticcall\n      iszero\n      dup1\n      iszero\n      tag_183\n      jumpi\n      returndatasize\n      0x00\n      dup1\n      returndatacopy\n      revert(0x00, returndatasize)\n    tag_183:\n      pop\n      pop\n      pop\n      pop\n      mload(0x40)\n      returndatasize\n      not(0x1f)\n      0x1f\n      dup3\n      add\n      and\n      dup3\n      add\n      dup1\n      0x40\n      mstore\n      pop\n      dup2\n      add\n      swap1\n      tag_184\n      swap2\n      swap1\n      tag_181\n      jump\t// in\n    tag_184:\n        /* \"ethtoken.sol\":10753:10847  IUniswapV2Factory(uniswapV2Router.factory()).createPair(address(this), uniswapV2Router.WETH()) */\n      mload(0x40)\n      not(sub(shl(0xe0, 0x01), 0x01))\n      0xe0\n      dup6\n      swap1\n      shl\n      and\n      dup2\n      mstore\n      sub(shl(0xa0, 0x01), 0x01)\n        /* \"#utility.yul\":5781:5796   */\n      swap3\n      dup4\n      and\n        /* \"ethtoken.sol\":10753:10847  IUniswapV2Factory(uniswapV2Router.factory()).createPair(address(this), uniswapV2Router.WETH()) */\n      0x04\n      dup3\n      add\n        /* \"#utility.yul\":5763:5797   */\n      mstore\n        /* \"#utility.yul\":5833:5848   */\n      swap2\n      and\n        /* \"#utility.yul\":5813:5831   */\n      0x24\n      dup3\n      add\n        /* \"#utility.yul\":5806:5849   */\n      mstore\n        /* \"#utility.yul\":5698:5716   */\n      0x44\n      add\n        /* \"ethtoken.sol\":10753:10847  IUniswapV2Factory(uniswapV2Router.factory()).createPair(address(this), uniswapV2Router.WETH()) */\n      0x20\n      mload(0x40)\n      dup1\n      dup4\n      sub\n      dup2\n      0x00\n      dup8\n      gas\n      call\n      iszero\n      dup1\n      iszero\n      tag_188\n      jumpi\n      returndatasize\n      0x00\n      dup1\n      returndatacopy\n      revert(0x00, returndatasize)\n    tag_188:\n      pop\n      pop\n      pop\n      pop\n      mload(0x40)\n      returndatasize\n      not(0x1f)\n      0x1f\n      dup3\n      add\n      and\n      dup3\n      add\n      dup1\n      0x40\n      mstore\n      pop\n      dup2\n      add\n      swap1\n      tag_189\n      swap2\n      swap1\n      tag_181\n      jump\t// in\n    tag_189:\n        /* \"ethtoken.sol\":10737:10750  uniswapV2Pair */\n      0x14\n        /* \"ethtoken.sol\":10737:10847  uniswapV2Pair = IUniswapV2Factory(uniswapV2Router.factory()).createPair(address(this), uniswapV2Router.WETH()) */\n      dup1\n      sload\n      sub(shl(0xa0, 0x01), 0x01)\n      swap3\n      dup4\n      and\n      not(sub(shl(0xa0, 0x01), 0x01))\n      swap1\n      swap2\n      and\n      or\n      swap1\n      sstore\n        /* \"ethtoken.sol\":10858:10873  uniswapV2Router */\n      sload(0x13)\n      and\n        /* \"ethtoken.sol\":10858:10889  uniswapV2Router.addLiquidityETH */\n      0xf305d719\n        /* \"ethtoken.sol\":10897:10918  address(this).balance */\n      selfbalance\n        /* \"ethtoken.sol\":10928:10932  this */\n      address\n        /* \"ethtoken.sol\":10934:10958  balanceOf(address(this)) */\n      tag_190\n        /* \"ethtoken.sol\":10928:10932  this */\n      dup2\n      sub(shl(0xa0, 0x01), 0x01)\n        /* \"ethtoken.sol\":5944:5962  _balances[account] */\n      and\n        /* \"ethtoken.sol\":5917:5924  uint256 */\n      0x00\n        /* \"ethtoken.sol\":5944:5962  _balances[account] */\n      swap1\n      dup2\n      mstore\n        /* \"ethtoken.sol\":5944:5953  _balances */\n      0x01\n        /* \"ethtoken.sol\":5944:5962  _balances[account] */\n      0x20\n      mstore\n      0x40\n      swap1\n      keccak256\n      sload\n      swap1\n        /* \"ethtoken.sol\":5851:5970  function balanceOf(address account) public view override returns (uint256) {... */\n      jump\n        /* \"ethtoken.sol\":10934:10958  balanceOf(address(this)) */\n    tag_190:\n        /* \"ethtoken.sol\":10959:10960  0 */\n      0x00\n        /* \"ethtoken.sol\":10961:10962  0 */\n      dup1\n        /* \"ethtoken.sol\":10963:10970  owner() */\n      tag_191\n        /* \"ethtoken.sol\":2457:2464  address */\n      0x00\n        /* \"ethtoken.sol\":2484:2490  _owner */\n      sload\n      sub(shl(0xa0, 0x01), 0x01)\n      and\n      swap1\n        /* \"ethtoken.sol\":2419:2498  function owner() public view returns (address) {... */\n      jump\n        /* \"ethtoken.sol\":10963:10970  owner() */\n    tag_191:\n        /* \"ethtoken.sol\":10858:10987  uniswapV2Router.addLiquidityETH{value: address(this).balance}(address(this),balanceOf(address(this)),0,0,owner(),block.timestamp) */\n      mload(0x40)\n      0xe0\n      dup9\n      swap1\n      shl\n      not(sub(shl(0xe0, 0x01), 0x01))\n      and\n      dup2\n      mstore\n      sub(shl(0xa0, 0x01), 0x01)\n        /* \"#utility.yul\":6219:6234   */\n      swap6\n      dup7\n      and\n        /* \"ethtoken.sol\":10858:10987  uniswapV2Router.addLiquidityETH{value: address(this).balance}(address(this),balanceOf(address(this)),0,0,owner(),block.timestamp) */\n      0x04\n      dup3\n      add\n        /* \"#utility.yul\":6201:6235   */\n      mstore\n        /* \"#utility.yul\":6251:6269   */\n      0x24\n      dup2\n      add\n        /* \"#utility.yul\":6244:6278   */\n      swap5\n      swap1\n      swap5\n      mstore\n        /* \"#utility.yul\":6294:6312   */\n      0x44\n      dup5\n      add\n        /* \"#utility.yul\":6287:6321   */\n      swap3\n      swap1\n      swap3\n      mstore\n        /* \"#utility.yul\":6337:6355   */\n      0x64\n      dup4\n      add\n        /* \"#utility.yul\":6330:6364   */\n      mstore\n        /* \"#utility.yul\":6401:6416   */\n      swap1\n      swap2\n      and\n        /* \"#utility.yul\":6380:6399   */\n      0x84\n      dup3\n      add\n        /* \"#utility.yul\":6373:6417   */\n      mstore\n        /* \"ethtoken.sol\":10971:10986  block.timestamp */\n      timestamp\n        /* \"#utility.yul\":6433:6452   */\n      0xa4\n      dup3\n      add\n        /* \"#utility.yul\":6426:6461   */\n      mstore\n        /* \"#utility.yul\":6135:6154   */\n      0xc4\n      add\n        /* \"ethtoken.sol\":10858:10987  uniswapV2Router.addLiquidityETH{value: address(this).balance}(address(this),balanceOf(address(this)),0,0,owner(),block.timestamp) */\n      0x60\n      mload(0x40)\n      dup1\n      dup4\n      sub\n      dup2\n      dup6\n      dup9\n      gas\n      call\n      iszero\n      dup1\n      iszero\n      tag_195\n      jumpi\n      returndatasize\n      0x00\n      dup1\n      returndatacopy\n      revert(0x00, returndatasize)\n    tag_195:\n      pop\n      pop\n      pop\n      pop\n      pop\n      mload(0x40)\n      returndatasize\n      not(0x1f)\n      0x1f\n      dup3\n      add\n      and\n      dup3\n      add\n      dup1\n      0x40\n      mstore\n      pop\n      dup2\n      add\n      swap1\n      tag_196\n      swap2\n      swap1\n      tag_197\n      jump\t// in\n    tag_196:\n      pop\n      pop\n        /* \"ethtoken.sol\":11005:11018  uniswapV2Pair */\n      sload(0x14)\n        /* \"ethtoken.sol\":11036:11051  uniswapV2Router */\n      sload(0x13)\n        /* \"ethtoken.sol\":10998:11069  IERC20(uniswapV2Pair).approve(address(uniswapV2Router), type(uint).max) */\n      mload(0x40)\n      shl(0xe0, 0x095ea7b3)\n      dup2\n      mstore\n      sub(shl(0xa0, 0x01), 0x01)\n        /* \"ethtoken.sol\":11036:11051  uniswapV2Router */\n      swap2\n      dup3\n      and\n        /* \"ethtoken.sol\":10998:11069  IERC20(uniswapV2Pair).approve(address(uniswapV2Router), type(uint).max) */\n      0x04\n      dup3\n      add\n        /* \"#utility.yul\":6957:7008   */\n      mstore\n      not(0x00)\n        /* \"#utility.yul\":7024:7042   */\n      0x24\n      dup3\n      add\n        /* \"#utility.yul\":7017:7051   */\n      mstore\n        /* \"ethtoken.sol\":11005:11018  uniswapV2Pair */\n      swap2\n      and\n      swap2\n      pop\n        /* \"ethtoken.sol\":10998:11027  IERC20(uniswapV2Pair).approve */\n      0x095ea7b3\n      swap1\n        /* \"#utility.yul\":6930:6948   */\n      0x44\n      add\n        /* \"ethtoken.sol\":10998:11069  IERC20(uniswapV2Pair).approve(address(uniswapV2Router), type(uint).max) */\n      0x20\n      mload(0x40)\n      dup1\n      dup4\n      sub\n      dup2\n      0x00\n      dup8\n      gas\n      call\n      iszero\n      dup1\n      iszero\n      tag_201\n      jumpi\n      returndatasize\n      0x00\n      dup1\n      returndatacopy\n      revert(0x00, returndatasize)\n    tag_201:\n      pop\n      pop\n      pop\n      pop\n      mload(0x40)\n      returndatasize\n      not(0x1f)\n      0x1f\n      dup3\n      add\n      and\n      dup3\n      add\n      dup1\n      0x40\n      mstore\n      pop\n      dup2\n      add\n      swap1\n      tag_202\n      swap2\n      swap1\n      tag_203\n      jump\t// in\n    tag_202:\n      pop\n        /* \"ethtoken.sol\":11080:11091  swapEnabled */\n      0x14\n        /* \"ethtoken.sol\":11080:11098  swapEnabled = true */\n      dup1\n      sload\n      not(shl(0xa0, 0xff00ff))\n        /* \"ethtoken.sol\":11109:11127  tradingOpen = true */\n      and\n      shl(0xa0, 0x010001)\n      or\n      swap1\n      sstore\n        /* \"ethtoken.sol\":10464:11135  function openTrading() external onlyOwner() {... */\n      jump\t// out\n        /* \"ethtoken.sol\":6794:7129  function _approve(address owner, address spender, uint256 amount) private {... */\n    tag_118:\n      sub(shl(0xa0, 0x01), 0x01)\n        /* \"ethtoken.sol\":6887:6906  owner != address(0) */\n      dup4\n      and\n        /* \"ethtoken.sol\":6879:6947  require(owner != address(0), \"ERC20: approve from the zero address\") */\n      tag_207\n      jumpi\n      mload(0x40)\n      shl(0xe5, 0x461bcd)\n      dup2\n      mstore\n        /* \"#utility.yul\":7546:7548   */\n      0x20\n        /* \"ethtoken.sol\":6879:6947  require(owner != address(0), \"ERC20: approve from the zero address\") */\n      0x04\n      dup3\n      add\n        /* \"#utility.yul\":7528:7549   */\n      mstore\n        /* \"#utility.yul\":7585:7587   */\n      0x24\n        /* \"#utility.yul\":7565:7583   */\n      dup1\n      dup3\n      add\n        /* \"#utility.yul\":7558:7588   */\n      mstore\n        /* \"#utility.yul\":7624:7658   */\n      0x45524332303a20617070726f76652066726f6d20746865207a65726f20616464\n        /* \"#utility.yul\":7604:7622   */\n      0x44\n      dup3\n      add\n        /* \"#utility.yul\":7597:7659   */\n      mstore\n      shl(0xe0, 0x72657373)\n        /* \"#utility.yul\":7675:7693   */\n      0x64\n      dup3\n      add\n        /* \"#utility.yul\":7668:7702   */\n      mstore\n        /* \"#utility.yul\":7719:7738   */\n      0x84\n      add\n        /* \"ethtoken.sol\":6879:6947  require(owner != address(0), \"ERC20: approve from the zero address\") */\n      tag_147\n        /* \"#utility.yul\":7344:7744   */\n      jump\n        /* \"ethtoken.sol\":6879:6947  require(owner != address(0), \"ERC20: approve from the zero address\") */\n    tag_207:\n      sub(shl(0xa0, 0x01), 0x01)\n        /* \"ethtoken.sol\":6966:6987  spender != address(0) */\n      dup3\n      and\n        /* \"ethtoken.sol\":6958:7026  require(spender != address(0), \"ERC20: approve to the zero address\") */\n      tag_210\n      jumpi\n      mload(0x40)\n      shl(0xe5, 0x461bcd)\n      dup2\n      mstore\n        /* \"#utility.yul\":7951:7953   */\n      0x20\n        /* \"ethtoken.sol\":6958:7026  require(spender != address(0), \"ERC20: approve to the zero address\") */\n      0x04\n      dup3\n      add\n        /* \"#utility.yul\":7933:7954   */\n      mstore\n        /* \"#utility.yul\":7990:7992   */\n      0x22\n        /* \"#utility.yul\":7970:7988   */\n      0x24\n      dup3\n      add\n        /* \"#utility.yul\":7963:7993   */\n      mstore\n        /* \"#utility.yul\":8029:8063   */\n      0x45524332303a20617070726f766520746f20746865207a65726f206164647265\n        /* \"#utility.yul\":8009:8027   */\n      0x44\n      dup3\n      add\n        /* \"#utility.yul\":8002:8064   */\n      mstore\n      shl(0xf0, 0x7373)\n        /* \"#utility.yul\":8080:8098   */\n      0x64\n      dup3\n      add\n        /* \"#utility.yul\":8073:8105   */\n      mstore\n        /* \"#utility.yul\":8122:8141   */\n      0x84\n      add\n        /* \"ethtoken.sol\":6958:7026  require(spender != address(0), \"ERC20: approve to the zero address\") */\n      tag_147\n        /* \"#utility.yul\":7749:8147   */\n      jump\n        /* \"ethtoken.sol\":6958:7026  require(spender != address(0), \"ERC20: approve to the zero address\") */\n    tag_210:\n      sub(shl(0xa0, 0x01), 0x01)\n        /* \"ethtoken.sol\":7037:7055  _allowances[owner] */\n      dup4\n      dup2\n      and\n      0x00\n      dup2\n      dup2\n      mstore\n        /* \"ethtoken.sol\":7037:7048  _allowances */\n      0x02\n        /* \"ethtoken.sol\":7037:7055  _allowances[owner] */\n      0x20\n      swap1\n      dup2\n      mstore\n      0x40\n      dup1\n      dup4\n      keccak256\n        /* \"ethtoken.sol\":7037:7064  _allowances[owner][spender] */\n      swap5\n      dup8\n      and\n      dup1\n      dup5\n      mstore\n      swap5\n      dup3\n      mstore\n      swap2\n      dup3\n      swap1\n      keccak256\n        /* \"ethtoken.sol\":7037:7073  _allowances[owner][spender] = amount */\n      dup6\n      swap1\n      sstore\n        /* \"ethtoken.sol\":7089:7121  Approval(owner, spender, amount) */\n      swap1\n      mload\n        /* \"#utility.yul\":1361:1386   */\n      dup5\n      dup2\n      mstore\n        /* \"ethtoken.sol\":7089:7121  Approval(owner, spender, amount) */\n      0x8c5be1e5ebec7d5bd14f71427d1e84f3dd0314c0f7b2291e5b200ac8c7c3b925\n      swap2\n        /* \"#utility.yul\":1334:1352   */\n      add\n        /* \"ethtoken.sol\":7089:7121  Approval(owner, spender, amount) */\n      mload(0x40)\n      dup1\n      swap2\n      sub\n      swap1\n      log3\n        /* \"ethtoken.sol\":6794:7129  function _approve(address owner, address spender, uint256 amount) private {... */\n      pop\n      pop\n      pop\n      jump\t// out\n        /* \"ethtoken.sol\":7137:9551  function _transfer(address from, address to, uint256 amount) private {... */\n    tag_126:\n      sub(shl(0xa0, 0x01), 0x01)\n        /* \"ethtoken.sol\":7225:7243  from != address(0) */\n      dup4\n      and\n        /* \"ethtoken.sol\":7217:7285  require(from != address(0), \"ERC20: transfer from the zero address\") */\n      tag_215\n      jumpi\n      mload(0x40)\n      shl(0xe5, 0x461bcd)\n      dup2\n      mstore\n        /* \"#utility.yul\":8354:8356   */\n      0x20\n        /* \"ethtoken.sol\":7217:7285  require(from != address(0), \"ERC20: transfer from the zero address\") */\n      0x04\n      dup3\n      add\n        /* \"#utility.yul\":8336:8357   */\n      mstore\n        /* \"#utility.yul\":8393:8395   */\n      0x25\n        /* \"#utility.yul\":8373:8391   */\n      0x24\n      dup3\n      add\n        /* \"#utility.yul\":8366:8396   */\n      mstore\n        /* \"#utility.yul\":8432:8466   */\n      0x45524332303a207472616e736665722066726f6d20746865207a65726f206164\n        /* \"#utility.yul\":8412:8430   */\n      0x44\n      dup3\n      add\n        /* \"#utility.yul\":8405:8467   */\n      mstore\n      shl(0xd8, 0x6472657373)\n        /* \"#utility.yul\":8483:8501   */\n      0x64\n      dup3\n      add\n        /* \"#utility.yul\":8476:8511   */\n      mstore\n        /* \"#utility.yul\":8528:8547   */\n      0x84\n      add\n        /* \"ethtoken.sol\":7217:7285  require(from != address(0), \"ERC20: transfer from the zero address\") */\n      tag_147\n        /* \"#utility.yul\":8152:8553   */\n      jump\n        /* \"ethtoken.sol\":7217:7285  require(from != address(0), \"ERC20: transfer from the zero address\") */\n    tag_215:\n      sub(shl(0xa0, 0x01), 0x01)\n        /* \"ethtoken.sol\":7304:7320  to != address(0) */\n      dup3\n      and\n        /* \"ethtoken.sol\":7296:7360  require(to != address(0), \"ERC20: transfer to the zero address\") */\n      tag_218\n      jumpi\n      mload(0x40)\n      shl(0xe5, 0x461bcd)\n      dup2\n      mstore\n        /* \"#utility.yul\":8760:8762   */\n      0x20\n        /* \"ethtoken.sol\":7296:7360  require(to != address(0), \"ERC20: transfer to the zero address\") */\n      0x04\n      dup3\n      add\n        /* \"#utility.yul\":8742:8763   */\n      mstore\n        /* \"#utility.yul\":8799:8801   */\n      0x23\n        /* \"#utility.yul\":8779:8797   */\n      0x24\n      dup3\n      add\n        /* \"#utility.yul\":8772:8802   */\n      mstore\n        /* \"#utility.yul\":8838:8872   */\n      0x45524332303a207472616e7366657220746f20746865207a65726f2061646472\n        /* \"#utility.yul\":8818:8836   */\n      0x44\n      dup3\n      add\n        /* \"#utility.yul\":8811:8873   */\n      mstore\n      shl(0xe8, 0x657373)\n        /* \"#utility.yul\":8889:8907   */\n      0x64\n      dup3\n      add\n        /* \"#utility.yul\":8882:8915   */\n      mstore\n        /* \"#utility.yul\":8932:8951   */\n      0x84\n      add\n        /* \"ethtoken.sol\":7296:7360  require(to != address(0), \"ERC20: transfer to the zero address\") */\n      tag_147\n        /* \"#utility.yul\":8558:8957   */\n      jump\n        /* \"ethtoken.sol\":7296:7360  require(to != address(0), \"ERC20: transfer to the zero address\") */\n    tag_218:\n        /* \"ethtoken.sol\":7388:7389  0 */\n      0x00\n        /* \"ethtoken.sol\":7379:7385  amount */\n      dup2\n        /* \"ethtoken.sol\":7379:7389  amount > 0 */\n      gt\n        /* \"ethtoken.sol\":7371:7435  require(amount > 0, \"Transfer amount must be greater than zero\") */\n      tag_221\n      jumpi\n      mload(0x40)\n      shl(0xe5, 0x461bcd)\n      dup2\n      mstore\n        /* \"#utility.yul\":9164:9166   */\n      0x20\n        /* \"ethtoken.sol\":7371:7435  require(amount > 0, \"Transfer amount must be greater than zero\") */\n      0x04\n      dup3\n      add\n        /* \"#utility.yul\":9146:9167   */\n      mstore\n        /* \"#utility.yul\":9203:9205   */\n      0x29\n        /* \"#utility.yul\":9183:9201   */\n      0x24\n      dup3\n      add\n        /* \"#utility.yul\":9176:9206   */\n      mstore\n        /* \"#utility.yul\":9242:9276   */\n      0x5472616e7366657220616d6f756e74206d757374206265206772656174657220\n        /* \"#utility.yul\":9222:9240   */\n      0x44\n      dup3\n      add\n        /* \"#utility.yul\":9215:9277   */\n      mstore\n      shl(0xb8, 0x7468616e207a65726f)\n        /* \"#utility.yul\":9293:9311   */\n      0x64\n      dup3\n      add\n        /* \"#utility.yul\":9286:9325   */\n      mstore\n        /* \"#utility.yul\":9342:9361   */\n      0x84\n      add\n        /* \"ethtoken.sol\":7371:7435  require(amount > 0, \"Transfer amount must be greater than zero\") */\n      tag_147\n        /* \"#utility.yul\":8962:9367   */\n      jump\n        /* \"ethtoken.sol\":7371:7435  require(amount > 0, \"Transfer amount must be greater than zero\") */\n    tag_221:\n        /* \"ethtoken.sol\":7446:7463  uint256 taxAmount */\n      0x00\n        /* \"ethtoken.sol\":2484:2490  _owner */\n      dup1\n      sload\n      sub(shl(0xa0, 0x01), 0x01)\n        /* \"ethtoken.sol\":7480:7495  from != owner() */\n      dup6\n      dup2\n      and\n        /* \"ethtoken.sol\":2484:2490  _owner */\n      swap2\n      and\n        /* \"ethtoken.sol\":7480:7495  from != owner() */\n      eq\n      dup1\n      iszero\n      swap1\n        /* \"ethtoken.sol\":7480:7512  from != owner() && to != owner() */\n      tag_225\n      jumpi\n      pop\n        /* \"ethtoken.sol\":2457:2464  address */\n      0x00\n        /* \"ethtoken.sol\":2484:2490  _owner */\n      sload\n      sub(shl(0xa0, 0x01), 0x01)\n        /* \"ethtoken.sol\":7499:7512  to != owner() */\n      dup5\n      dup2\n      and\n        /* \"ethtoken.sol\":2484:2490  _owner */\n      swap2\n      and\n        /* \"ethtoken.sol\":7499:7512  to != owner() */\n      eq\n      iszero\n        /* \"ethtoken.sol\":7480:7512  from != owner() && to != owner() */\n    tag_225:\n        /* \"ethtoken.sol\":7476:9195  if (from != owner() && to != owner()) {... */\n      iszero\n      tag_227\n      jumpi\n        /* \"ethtoken.sol\":7541:7617  amount.mul((_buyCount>_reduceBuyTaxAt)?_finalBuyTax:_initialBuyTax).div(100) */\n      tag_228\n        /* \"ethtoken.sol\":7613:7616  100 */\n      0x64\n        /* \"ethtoken.sol\":7541:7608  amount.mul((_buyCount>_reduceBuyTaxAt)?_finalBuyTax:_initialBuyTax) */\n      tag_229\n        /* \"ethtoken.sol\":7563:7578  _reduceBuyTaxAt */\n      sload(0x0b)\n        /* \"ethtoken.sol\":7553:7562  _buyCount */\n      sload(0x0e)\n        /* \"ethtoken.sol\":7553:7578  _buyCount>_reduceBuyTaxAt */\n      gt\n        /* \"ethtoken.sol\":7552:7607  (_buyCount>_reduceBuyTaxAt)?_finalBuyTax:_initialBuyTax */\n      tag_230\n      jumpi\n        /* \"ethtoken.sol\":7593:7607  _initialBuyTax */\n      sload(0x07)\n        /* \"ethtoken.sol\":7552:7607  (_buyCount>_reduceBuyTaxAt)?_finalBuyTax:_initialBuyTax */\n      jump(tag_231)\n    tag_230:\n        /* \"ethtoken.sol\":7580:7592  _finalBuyTax */\n      sload(0x09)\n        /* \"ethtoken.sol\":7552:7607  (_buyCount>_reduceBuyTaxAt)?_finalBuyTax:_initialBuyTax */\n    tag_231:\n        /* \"ethtoken.sol\":7541:7547  amount */\n      dup6\n      swap1\n        /* \"ethtoken.sol\":7541:7551  amount.mul */\n      tag_232\n        /* \"ethtoken.sol\":7541:7608  amount.mul((_buyCount>_reduceBuyTaxAt)?_finalBuyTax:_initialBuyTax) */\n      jump\t// in\n    tag_229:\n        /* \"ethtoken.sol\":7541:7612  amount.mul((_buyCount>_reduceBuyTaxAt)?_finalBuyTax:_initialBuyTax).div */\n      swap1\n      tag_233\n        /* \"ethtoken.sol\":7541:7617  amount.mul((_buyCount>_reduceBuyTaxAt)?_finalBuyTax:_initialBuyTax).div(100) */\n      jump\t// in\n    tag_228:\n        /* \"ethtoken.sol\":7638:7658  transferDelayEnabled */\n      sload(0x06)\n        /* \"ethtoken.sol\":7529:7617  taxAmount = amount.mul((_buyCount>_reduceBuyTaxAt)?_finalBuyTax:_initialBuyTax).div(100) */\n      swap1\n      swap2\n      pop\n        /* \"ethtoken.sol\":7638:7658  transferDelayEnabled */\n      0xff\n      and\n        /* \"ethtoken.sol\":7634:8142  if (transferDelayEnabled) {... */\n      iszero\n      tag_236\n      jumpi\n        /* \"ethtoken.sol\":7699:7714  uniswapV2Router */\n      sload(0x13)\n      sub(shl(0xa0, 0x01), 0x01)\n        /* \"ethtoken.sol\":7685:7715  to != address(uniswapV2Router) */\n      dup5\n      dup2\n      and\n        /* \"ethtoken.sol\":7699:7714  uniswapV2Router */\n      swap2\n      and\n        /* \"ethtoken.sol\":7685:7715  to != address(uniswapV2Router) */\n      eq\n      dup1\n      iszero\n      swap1\n        /* \"ethtoken.sol\":7685:7747  to != address(uniswapV2Router) && to != address(uniswapV2Pair) */\n      tag_235\n      jumpi\n      pop\n        /* \"ethtoken.sol\":7733:7746  uniswapV2Pair */\n      sload(0x14)\n      sub(shl(0xa0, 0x01), 0x01)\n        /* \"ethtoken.sol\":7719:7747  to != address(uniswapV2Pair) */\n      dup5\n      dup2\n      and\n        /* \"ethtoken.sol\":7733:7746  uniswapV2Pair */\n      swap2\n      and\n        /* \"ethtoken.sol\":7719:7747  to != address(uniswapV2Pair) */\n      eq\n      iszero\n        /* \"ethtoken.sol\":7685:7747  to != address(uniswapV2Router) && to != address(uniswapV2Pair) */\n    tag_235:\n        /* \"ethtoken.sol\":7681:8125  if (to != address(uniswapV2Router) && to != address(uniswapV2Pair)) {... */\n      iszero\n      tag_236\n      jumpi\n        /* \"ethtoken.sol\":7839:7848  tx.origin */\n      origin\n        /* \"ethtoken.sol\":7810:7849  _holderLastTransferTimestamp[tx.origin] */\n      0x00\n      swap1\n      dup2\n      mstore\n        /* \"ethtoken.sol\":7810:7838  _holderLastTransferTimestamp */\n      0x05\n        /* \"ethtoken.sol\":7810:7849  _holderLastTransferTimestamp[tx.origin] */\n      0x20\n      mstore\n      0x40\n      swap1\n      keccak256\n      sload\n        /* \"ethtoken.sol\":7883:7895  block.number */\n      number\n      gt\n        /* \"ethtoken.sol\":7774:8024  require(... */\n      tag_237\n      jumpi\n      mload(0x40)\n      shl(0xe5, 0x461bcd)\n      dup2\n      mstore\n        /* \"#utility.yul\":9574:9576   */\n      0x20\n        /* \"ethtoken.sol\":7774:8024  require(... */\n      0x04\n      dup3\n      add\n        /* \"#utility.yul\":9556:9577   */\n      mstore\n        /* \"#utility.yul\":9613:9615   */\n      0x49\n        /* \"#utility.yul\":9593:9611   */\n      0x24\n      dup3\n      add\n        /* \"#utility.yul\":9586:9616   */\n      mstore\n        /* \"#utility.yul\":9652:9686   */\n      0x5f7472616e736665723a3a205472616e736665722044656c617920656e61626c\n        /* \"#utility.yul\":9632:9650   */\n      0x44\n      dup3\n      add\n        /* \"#utility.yul\":9625:9687   */\n      mstore\n        /* \"#utility.yul\":9723:9757   */\n      0x65642e20204f6e6c79206f6e652070757263686173652070657220626c6f636b\n        /* \"#utility.yul\":9703:9721   */\n      0x64\n      dup3\n      add\n        /* \"#utility.yul\":9696:9758   */\n      mstore\n      shl(0xb9, 0x1030b63637bbb2b217)\n        /* \"#utility.yul\":9774:9793   */\n      0x84\n      dup3\n      add\n        /* \"#utility.yul\":9767:9807   */\n      mstore\n        /* \"#utility.yul\":9824:9843   */\n      0xa4\n      add\n        /* \"ethtoken.sol\":7774:8024  require(... */\n      tag_147\n        /* \"#utility.yul\":9372:9849   */\n      jump\n        /* \"ethtoken.sol\":7774:8024  require(... */\n    tag_237:\n        /* \"ethtoken.sol\":8078:8087  tx.origin */\n      origin\n        /* \"ethtoken.sol\":8049:8088  _holderLastTransferTimestamp[tx.origin] */\n      0x00\n      swap1\n      dup2\n      mstore\n        /* \"ethtoken.sol\":8049:8077  _holderLastTransferTimestamp */\n      0x05\n        /* \"ethtoken.sol\":8049:8088  _holderLastTransferTimestamp[tx.origin] */\n      0x20\n      mstore\n      0x40\n      swap1\n      keccak256\n        /* \"ethtoken.sol\":8091:8103  block.number */\n      number\n        /* \"ethtoken.sol\":8049:8103  _holderLastTransferTimestamp[tx.origin] = block.number */\n      swap1\n      sstore\n        /* \"ethtoken.sol\":7681:8125  if (to != address(uniswapV2Router) && to != address(uniswapV2Pair)) {... */\n    tag_236:\n        /* \"ethtoken.sol\":8170:8183  uniswapV2Pair */\n      sload(0x14)\n      sub(shl(0xa0, 0x01), 0x01)\n        /* \"ethtoken.sol\":8162:8183  from == uniswapV2Pair */\n      dup6\n      dup2\n      and\n        /* \"ethtoken.sol\":8170:8183  uniswapV2Pair */\n      swap2\n      and\n        /* \"ethtoken.sol\":8162:8183  from == uniswapV2Pair */\n      eq\n        /* \"ethtoken.sol\":8162:8217  from == uniswapV2Pair && to != address(uniswapV2Router) */\n      dup1\n      iszero\n      tag_240\n      jumpi\n      pop\n        /* \"ethtoken.sol\":8201:8216  uniswapV2Router */\n      sload(0x13)\n      sub(shl(0xa0, 0x01), 0x01)\n        /* \"ethtoken.sol\":8187:8217  to != address(uniswapV2Router) */\n      dup5\n      dup2\n      and\n        /* \"ethtoken.sol\":8201:8216  uniswapV2Router */\n      swap2\n      and\n        /* \"ethtoken.sol\":8187:8217  to != address(uniswapV2Router) */\n      eq\n      iszero\n        /* \"ethtoken.sol\":8162:8217  from == uniswapV2Pair && to != address(uniswapV2Router) */\n    tag_240:\n        /* \"ethtoken.sol\":8162:8245  from == uniswapV2Pair && to != address(uniswapV2Router) && ! _isExcludedFromFee[to] */\n      dup1\n      iszero\n      tag_241\n      jumpi\n      pop\n      sub(shl(0xa0, 0x01), 0x01)\n        /* \"ethtoken.sol\":8223:8245  _isExcludedFromFee[to] */\n      dup4\n      and\n      0x00\n      swap1\n      dup2\n      mstore\n        /* \"ethtoken.sol\":8223:8241  _isExcludedFromFee */\n      0x03\n        /* \"ethtoken.sol\":8223:8245  _isExcludedFromFee[to] */\n      0x20\n      mstore\n      0x40\n      swap1\n      keccak256\n      sload\n      0xff\n      and\n        /* \"ethtoken.sol\":8221:8245  ! _isExcludedFromFee[to] */\n      iszero\n        /* \"ethtoken.sol\":8162:8245  from == uniswapV2Pair && to != address(uniswapV2Router) && ! _isExcludedFromFee[to] */\n    tag_241:\n        /* \"ethtoken.sol\":8158:8471  if (from == uniswapV2Pair && to != address(uniswapV2Router) && ! _isExcludedFromFee[to] ) {... */\n      iszero\n      tag_242\n      jumpi\n        /* \"ethtoken.sol\":8285:8297  _maxTxAmount */\n      sload(0x0f)\n        /* \"ethtoken.sol\":8275:8281  amount */\n      dup3\n        /* \"ethtoken.sol\":8275:8297  amount <= _maxTxAmount */\n      gt\n      iszero\n        /* \"ethtoken.sol\":8267:8327  require(amount <= _maxTxAmount, \"Exceeds the _maxTxAmount.\") */\n      tag_243\n      jumpi\n      mload(0x40)\n      shl(0xe5, 0x461bcd)\n      dup2\n      mstore\n        /* \"#utility.yul\":10056:10058   */\n      0x20\n        /* \"ethtoken.sol\":8267:8327  require(amount <= _maxTxAmount, \"Exceeds the _maxTxAmount.\") */\n      0x04\n      dup3\n      add\n        /* \"#utility.yul\":10038:10059   */\n      mstore\n        /* \"#utility.yul\":10095:10097   */\n      0x19\n        /* \"#utility.yul\":10075:10093   */\n      0x24\n      dup3\n      add\n        /* \"#utility.yul\":10068:10098   */\n      mstore\n        /* \"#utility.yul\":10134:10161   */\n      0x4578636565647320746865205f6d61785478416d6f756e742e00000000000000\n        /* \"#utility.yul\":10114:10132   */\n      0x44\n      dup3\n      add\n        /* \"#utility.yul\":10107:10162   */\n      mstore\n        /* \"#utility.yul\":10179:10197   */\n      0x64\n      add\n        /* \"ethtoken.sol\":8267:8327  require(amount <= _maxTxAmount, \"Exceeds the _maxTxAmount.\") */\n      tag_147\n        /* \"#utility.yul\":9854:10203   */\n      jump\n        /* \"ethtoken.sol\":8267:8327  require(amount <= _maxTxAmount, \"Exceeds the _maxTxAmount.\") */\n    tag_243:\n        /* \"ethtoken.sol\":8380:8394  _maxWalletSize */\n      sload(0x10)\n        /* \"ethtoken.sol\":8370:8376  amount */\n      dup3\n        /* \"ethtoken.sol\":8354:8367  balanceOf(to) */\n      tag_246\n        /* \"ethtoken.sol\":8364:8366  to */\n      dup6\n      sub(shl(0xa0, 0x01), 0x01)\n        /* \"ethtoken.sol\":5944:5962  _balances[account] */\n      and\n        /* \"ethtoken.sol\":5917:5924  uint256 */\n      0x00\n        /* \"ethtoken.sol\":5944:5962  _balances[account] */\n      swap1\n      dup2\n      mstore\n        /* \"ethtoken.sol\":5944:5953  _balances */\n      0x01\n        /* \"ethtoken.sol\":5944:5962  _balances[account] */\n      0x20\n      mstore\n      0x40\n      swap1\n      keccak256\n      sload\n      swap1\n        /* \"ethtoken.sol\":5851:5970  function balanceOf(address account) public view override returns (uint256) {... */\n      jump\n        /* \"ethtoken.sol\":8354:8367  balanceOf(to) */\n    tag_246:\n        /* \"ethtoken.sol\":8354:8376  balanceOf(to) + amount */\n      tag_247\n      swap2\n      swap1\n      tag_248\n      jump\t// in\n    tag_247:\n        /* \"ethtoken.sol\":8354:8394  balanceOf(to) + amount <= _maxWalletSize */\n      gt\n      iszero\n        /* \"ethtoken.sol\":8346:8425  require(balanceOf(to) + amount <= _maxWalletSize, \"Exceeds the maxWalletSize.\") */\n      tag_249\n      jumpi\n      mload(0x40)\n      shl(0xe5, 0x461bcd)\n      dup2\n      mstore\n        /* \"#utility.yul\":10540:10542   */\n      0x20\n        /* \"ethtoken.sol\":8346:8425  require(balanceOf(to) + amount <= _maxWalletSize, \"Exceeds the maxWalletSize.\") */\n      0x04\n      dup3\n      add\n        /* \"#utility.yul\":10522:10543   */\n      mstore\n        /* \"#utility.yul\":10579:10581   */\n      0x1a\n        /* \"#utility.yul\":10559:10577   */\n      0x24\n      dup3\n      add\n        /* \"#utility.yul\":10552:10582   */\n      mstore\n        /* \"#utility.yul\":10618:10646   */\n      0x4578636565647320746865206d617857616c6c657453697a652e000000000000\n        /* \"#utility.yul\":10598:10616   */\n      0x44\n      dup3\n      add\n        /* \"#utility.yul\":10591:10647   */\n      mstore\n        /* \"#utility.yul\":10664:10682   */\n      0x64\n      add\n        /* \"ethtoken.sol\":8346:8425  require(balanceOf(to) + amount <= _maxWalletSize, \"Exceeds the maxWalletSize.\") */\n      tag_147\n        /* \"#utility.yul\":10338:10688   */\n      jump\n        /* \"ethtoken.sol\":8346:8425  require(balanceOf(to) + amount <= _maxWalletSize, \"Exceeds the maxWalletSize.\") */\n    tag_249:\n        /* \"ethtoken.sol\":8444:8453  _buyCount */\n      0x0e\n        /* \"ethtoken.sol\":8444:8455  _buyCount++ */\n      dup1\n      sload\n      swap1\n        /* \"ethtoken.sol\":8444:8453  _buyCount */\n      0x00\n        /* \"ethtoken.sol\":8444:8455  _buyCount++ */\n      tag_252\n      dup4\n      tag_253\n      jump\t// in\n    tag_252:\n      swap2\n      swap1\n      pop\n      sstore\n      pop\n        /* \"ethtoken.sol\":8158:8471  if (from == uniswapV2Pair && to != address(uniswapV2Router) && ! _isExcludedFromFee[to] ) {... */\n    tag_242:\n        /* \"ethtoken.sol\":8496:8509  uniswapV2Pair */\n      sload(0x14)\n      sub(shl(0xa0, 0x01), 0x01)\n        /* \"ethtoken.sol\":8490:8509  to == uniswapV2Pair */\n      dup5\n      dup2\n      and\n        /* \"ethtoken.sol\":8496:8509  uniswapV2Pair */\n      swap2\n      and\n        /* \"ethtoken.sol\":8490:8509  to == uniswapV2Pair */\n      eq\n        /* \"ethtoken.sol\":8490:8533  to == uniswapV2Pair && from!= address(this) */\n      dup1\n      iszero\n      tag_254\n      jumpi\n      pop\n      sub(shl(0xa0, 0x01), 0x01)\n        /* \"ethtoken.sol\":8513:8533  from!= address(this) */\n      dup5\n      and\n        /* \"ethtoken.sol\":8528:8532  this */\n      address\n        /* \"ethtoken.sol\":8513:8533  from!= address(this) */\n      eq\n      iszero\n        /* \"ethtoken.sol\":8490:8533  to == uniswapV2Pair && from!= address(this) */\n    tag_254:\n        /* \"ethtoken.sol\":8487:8661  if(to == uniswapV2Pair && from!= address(this) ){... */\n      iszero\n      tag_255\n      jumpi\n        /* \"ethtoken.sol\":8566:8645  amount.mul((_buyCount>_reduceSellTaxAt)?_finalSellTax:_initialSellTax).div(100) */\n      tag_256\n        /* \"ethtoken.sol\":8641:8644  100 */\n      0x64\n        /* \"ethtoken.sol\":8566:8636  amount.mul((_buyCount>_reduceSellTaxAt)?_finalSellTax:_initialSellTax) */\n      tag_229\n        /* \"ethtoken.sol\":8588:8604  _reduceSellTaxAt */\n      sload(0x0c)\n        /* \"ethtoken.sol\":8578:8587  _buyCount */\n      sload(0x0e)\n        /* \"ethtoken.sol\":8578:8604  _buyCount>_reduceSellTaxAt */\n      gt\n        /* \"ethtoken.sol\":8577:8635  (_buyCount>_reduceSellTaxAt)?_finalSellTax:_initialSellTax */\n      tag_258\n      jumpi\n        /* \"ethtoken.sol\":8620:8635  _initialSellTax */\n      sload(0x08)\n        /* \"ethtoken.sol\":8577:8635  (_buyCount>_reduceSellTaxAt)?_finalSellTax:_initialSellTax */\n      jump(tag_231)\n    tag_258:\n        /* \"ethtoken.sol\":8606:8619  _finalSellTax */\n      sload(0x0a)\n        /* \"ethtoken.sol\":8566:8572  amount */\n      dup6\n      swap1\n        /* \"ethtoken.sol\":8566:8576  amount.mul */\n      tag_232\n        /* \"ethtoken.sol\":8566:8636  amount.mul((_buyCount>_reduceSellTaxAt)?_finalSellTax:_initialSellTax) */\n      jump\t// in\n        /* \"ethtoken.sol\":8566:8645  amount.mul((_buyCount>_reduceSellTaxAt)?_finalSellTax:_initialSellTax).div(100) */\n    tag_256:\n        /* \"ethtoken.sol\":8554:8645  taxAmount = amount.mul((_buyCount>_reduceSellTaxAt)?_finalSellTax:_initialSellTax).div(100) */\n      swap1\n      pop\n        /* \"ethtoken.sol\":8487:8661  if(to == uniswapV2Pair && from!= address(this) ){... */\n    tag_255:\n        /* \"ethtoken.sol\":8726:8730  this */\n      address\n        /* \"ethtoken.sol\":8677:8705  uint256 contractTokenBalance */\n      0x00\n        /* \"ethtoken.sol\":5944:5962  _balances[account] */\n      swap1\n      dup2\n      mstore\n        /* \"ethtoken.sol\":5944:5953  _balances */\n      0x01\n        /* \"ethtoken.sol\":5944:5962  _balances[account] */\n      0x20\n      mstore\n      0x40\n      swap1\n      keccak256\n      sload\n        /* \"ethtoken.sol\":8752:8758  inSwap */\n      sload(0x14)\n      shl(0xa8, 0x01)\n      swap1\n      div\n      0xff\n      and\n        /* \"ethtoken.sol\":8751:8758  !inSwap */\n      iszero\n        /* \"ethtoken.sol\":8751:8783  !inSwap && to   == uniswapV2Pair */\n      dup1\n      iszero\n      tag_261\n      jumpi\n      pop\n        /* \"ethtoken.sol\":8770:8783  uniswapV2Pair */\n      sload(0x14)\n      sub(shl(0xa0, 0x01), 0x01)\n        /* \"ethtoken.sol\":8762:8783  to   == uniswapV2Pair */\n      dup6\n      dup2\n      and\n        /* \"ethtoken.sol\":8770:8783  uniswapV2Pair */\n      swap2\n      and\n        /* \"ethtoken.sol\":8762:8783  to   == uniswapV2Pair */\n      eq\n        /* \"ethtoken.sol\":8751:8783  !inSwap && to   == uniswapV2Pair */\n    tag_261:\n        /* \"ethtoken.sol\":8751:8798  !inSwap && to   == uniswapV2Pair && swapEnabled */\n      dup1\n      iszero\n      tag_262\n      jumpi\n      pop\n        /* \"ethtoken.sol\":8787:8798  swapEnabled */\n      sload(0x14)\n      shl(0xb0, 0x01)\n      swap1\n      div\n      0xff\n      and\n        /* \"ethtoken.sol\":8751:8798  !inSwap && to   == uniswapV2Pair && swapEnabled */\n    tag_262:\n        /* \"ethtoken.sol\":8751:8840  !inSwap && to   == uniswapV2Pair && swapEnabled && contractTokenBalance>_taxSwapThreshold */\n      dup1\n      iszero\n      tag_263\n      jumpi\n      pop\n        /* \"ethtoken.sol\":8823:8840  _taxSwapThreshold */\n      sload(0x11)\n        /* \"ethtoken.sol\":8802:8822  contractTokenBalance */\n      dup2\n        /* \"ethtoken.sol\":8802:8840  contractTokenBalance>_taxSwapThreshold */\n      gt\n        /* \"ethtoken.sol\":8751:8840  !inSwap && to   == uniswapV2Pair && swapEnabled && contractTokenBalance>_taxSwapThreshold */\n    tag_263:\n        /* \"ethtoken.sol\":8751:8872  !inSwap && to   == uniswapV2Pair && swapEnabled && contractTokenBalance>_taxSwapThreshold && _buyCount>_preventSwapBefore */\n      dup1\n      iszero\n      tag_264\n      jumpi\n      pop\n        /* \"ethtoken.sol\":8854:8872  _preventSwapBefore */\n      sload(0x0d)\n        /* \"ethtoken.sol\":8844:8853  _buyCount */\n      sload(0x0e)\n        /* \"ethtoken.sol\":8844:8872  _buyCount>_preventSwapBefore */\n      gt\n        /* \"ethtoken.sol\":8751:8872  !inSwap && to   == uniswapV2Pair && swapEnabled && contractTokenBalance>_taxSwapThreshold && _buyCount>_preventSwapBefore */\n    tag_264:\n        /* \"ethtoken.sol\":8747:9184  if (!inSwap && to   == uniswapV2Pair && swapEnabled && contractTokenBalance>_taxSwapThreshold && _buyCount>_preventSwapBefore) {... */\n      iszero\n      tag_265\n      jumpi\n        /* \"ethtoken.sol\":8893:8960  swapTokensForEth(min(amount,min(contractTokenBalance,_maxTaxSwap))) */\n      tag_266\n        /* \"ethtoken.sol\":8910:8959  min(amount,min(contractTokenBalance,_maxTaxSwap)) */\n      tag_267\n        /* \"ethtoken.sol\":8914:8920  amount */\n      dup5\n        /* \"ethtoken.sol\":8921:8958  min(contractTokenBalance,_maxTaxSwap) */\n      tag_268\n        /* \"ethtoken.sol\":8925:8945  contractTokenBalance */\n      dup5\n        /* \"ethtoken.sol\":8946:8957  _maxTaxSwap */\n      sload(0x12)\n        /* \"ethtoken.sol\":8921:8924  min */\n      tag_269\n        /* \"ethtoken.sol\":8921:8958  min(contractTokenBalance,_maxTaxSwap) */\n      jump\t// in\n    tag_268:\n        /* \"ethtoken.sol\":8910:8913  min */\n      tag_269\n        /* \"ethtoken.sol\":8910:8959  min(amount,min(contractTokenBalance,_maxTaxSwap)) */\n      jump\t// in\n    tag_267:\n        /* \"ethtoken.sol\":8893:8909  swapTokensForEth */\n      tag_139\n        /* \"ethtoken.sol\":8893:8960  swapTokensForEth(min(amount,min(contractTokenBalance,_maxTaxSwap))) */\n      jump\t// in\n    tag_266:\n        /* \"ethtoken.sol\":9008:9029  address(this).balance */\n      selfbalance\n        /* \"ethtoken.sol\":9072:9089  50000000000000000 */\n      0xb1a2bc2ec50000\n        /* \"ethtoken.sol\":9051:9089  contractETHBalance > 50000000000000000 */\n      dup2\n      gt\n        /* \"ethtoken.sol\":9048:9169  if(contractETHBalance > 50000000000000000) {... */\n      iszero\n      tag_271\n      jumpi\n        /* \"ethtoken.sol\":9114:9149  sendETHToFee(address(this).balance) */\n      tag_271\n        /* \"ethtoken.sol\":9127:9148  address(this).balance */\n      selfbalance\n        /* \"ethtoken.sol\":9114:9126  sendETHToFee */\n      tag_142\n        /* \"ethtoken.sol\":9114:9149  sendETHToFee(address(this).balance) */\n      jump\t// in\n    tag_271:\n        /* \"ethtoken.sol\":8874:9184  {... */\n      pop\n        /* \"ethtoken.sol\":8747:9184  if (!inSwap && to   == uniswapV2Pair && swapEnabled && contractTokenBalance>_taxSwapThreshold && _buyCount>_preventSwapBefore) {... */\n    tag_265:\n        /* \"ethtoken.sol\":7514:9195  {... */\n      pop\n        /* \"ethtoken.sol\":7476:9195  if (from != owner() && to != owner()) {... */\n    tag_227:\n        /* \"ethtoken.sol\":9210:9221  taxAmount>0 */\n      dup1\n      iszero\n        /* \"ethtoken.sol\":9207:9368  if(taxAmount>0){... */\n      tag_272\n      jumpi\n        /* \"ethtoken.sol\":9278:9282  this */\n      address\n        /* \"ethtoken.sol\":9260:9284  _balances[address(this)] */\n      0x00\n      swap1\n      dup2\n      mstore\n        /* \"ethtoken.sol\":9260:9269  _balances */\n      0x01\n        /* \"ethtoken.sol\":9260:9284  _balances[address(this)] */\n      0x20\n      mstore\n      0x40\n      swap1\n      keccak256\n      sload\n        /* \"ethtoken.sol\":9260:9299  _balances[address(this)].add(taxAmount) */\n      tag_273\n      swap1\n        /* \"ethtoken.sol\":9289:9298  taxAmount */\n      dup3\n        /* \"ethtoken.sol\":9260:9288  _balances[address(this)].add */\n      tag_274\n        /* \"ethtoken.sol\":9260:9299  _balances[address(this)].add(taxAmount) */\n      jump\t// in\n    tag_273:\n        /* \"ethtoken.sol\":9253:9257  this */\n      address\n        /* \"ethtoken.sol\":9235:9259  _balances[address(this)] */\n      0x00\n      dup2\n      dup2\n      mstore\n        /* \"ethtoken.sol\":9235:9244  _balances */\n      0x01\n        /* \"ethtoken.sol\":9235:9259  _balances[address(this)] */\n      0x20\n      mstore\n      0x40\n      swap1\n      dup2\n      swap1\n      keccak256\n        /* \"ethtoken.sol\":9235:9299  _balances[address(this)]=_balances[address(this)].add(taxAmount) */\n      swap3\n      swap1\n      swap3\n      sstore\n        /* \"ethtoken.sol\":9317:9356  Transfer(from, address(this),taxAmount) */\n      swap1\n      mload\n      sub(shl(0xa0, 0x01), 0x01)\n      dup7\n      and\n      swap1\n      0xddf252ad1be2c89b69c2b068fc378daa952ba7f163c4a11628f55a4df523b3ef\n      swap1\n      tag_275\n      swap1\n        /* \"ethtoken.sol\":9346:9355  taxAmount */\n      dup6\n        /* \"#utility.yul\":1361:1386   */\n      dup2\n      mstore\n        /* \"#utility.yul\":1349:1351   */\n      0x20\n        /* \"#utility.yul\":1334:1352   */\n      add\n      swap1\n        /* \"#utility.yul\":1215:1392   */\n      jump\n        /* \"ethtoken.sol\":9317:9356  Transfer(from, address(this),taxAmount) */\n    tag_275:\n      mload(0x40)\n      dup1\n      swap2\n      sub\n      swap1\n      log3\n        /* \"ethtoken.sol\":9207:9368  if(taxAmount>0){... */\n    tag_272:\n      sub(shl(0xa0, 0x01), 0x01)\n        /* \"ethtoken.sol\":9394:9409  _balances[from] */\n      dup5\n      and\n      0x00\n      swap1\n      dup2\n      mstore\n        /* \"ethtoken.sol\":9394:9403  _balances */\n      0x01\n        /* \"ethtoken.sol\":9394:9409  _balances[from] */\n      0x20\n      mstore\n      0x40\n      swap1\n      keccak256\n      sload\n        /* \"ethtoken.sol\":9394:9421  _balances[from].sub(amount) */\n      tag_276\n      swap1\n        /* \"ethtoken.sol\":9414:9420  amount */\n      dup4\n        /* \"ethtoken.sol\":9394:9413  _balances[from].sub */\n      tag_277\n        /* \"ethtoken.sol\":9394:9421  _balances[from].sub(amount) */\n      jump\t// in\n    tag_276:\n      sub(shl(0xa0, 0x01), 0x01)\n        /* \"ethtoken.sol\":9378:9393  _balances[from] */\n      dup6\n      and\n      0x00\n      swap1\n      dup2\n      mstore\n        /* \"ethtoken.sol\":9378:9387  _balances */\n      0x01\n        /* \"ethtoken.sol\":9378:9393  _balances[from] */\n      0x20\n      mstore\n      0x40\n      swap1\n      keccak256\n        /* \"ethtoken.sol\":9378:9421  _balances[from]=_balances[from].sub(amount) */\n      sstore\n        /* \"ethtoken.sol\":9446:9486  _balances[to].add(amount.sub(taxAmount)) */\n      tag_278\n        /* \"ethtoken.sol\":9464:9485  amount.sub(taxAmount) */\n      tag_279\n        /* \"ethtoken.sol\":9464:9470  amount */\n      dup4\n        /* \"ethtoken.sol\":9475:9484  taxAmount */\n      dup4\n        /* \"ethtoken.sol\":9464:9474  amount.sub */\n      tag_277\n        /* \"ethtoken.sol\":9464:9485  amount.sub(taxAmount) */\n      jump\t// in\n    tag_279:\n      sub(shl(0xa0, 0x01), 0x01)\n        /* \"ethtoken.sol\":9446:9459  _balances[to] */\n      dup6\n      and\n      0x00\n      swap1\n      dup2\n      mstore\n        /* \"ethtoken.sol\":9446:9455  _balances */\n      0x01\n        /* \"ethtoken.sol\":9446:9459  _balances[to] */\n      0x20\n      mstore\n      0x40\n      swap1\n      keccak256\n      sload\n      swap1\n        /* \"ethtoken.sol\":9446:9463  _balances[to].add */\n      tag_274\n        /* \"ethtoken.sol\":9446:9486  _balances[to].add(amount.sub(taxAmount)) */\n      jump\t// in\n    tag_278:\n      sub(shl(0xa0, 0x01), 0x01)\n        /* \"ethtoken.sol\":9432:9445  _balances[to] */\n      dup1\n      dup6\n      and\n      0x00\n      dup2\n      dup2\n      mstore\n        /* \"ethtoken.sol\":9432:9441  _balances */\n      0x01\n        /* \"ethtoken.sol\":9432:9445  _balances[to] */\n      0x20\n      mstore\n      0x40\n      swap1\n      keccak256\n        /* \"ethtoken.sol\":9432:9486  _balances[to]=_balances[to].add(amount.sub(taxAmount)) */\n      swap3\n      swap1\n      swap3\n      sstore\n        /* \"ethtoken.sol\":9502:9543  Transfer(from, to, amount.sub(taxAmount)) */\n      dup6\n      and\n      0xddf252ad1be2c89b69c2b068fc378daa952ba7f163c4a11628f55a4df523b3ef\n        /* \"ethtoken.sol\":9521:9542  amount.sub(taxAmount) */\n      tag_280\n        /* \"ethtoken.sol\":9521:9527  amount */\n      dup6\n        /* \"ethtoken.sol\":9532:9541  taxAmount */\n      dup6\n        /* \"ethtoken.sol\":9521:9531  amount.sub */\n      tag_277\n        /* \"ethtoken.sol\":9521:9542  amount.sub(taxAmount) */\n      jump\t// in\n    tag_280:\n        /* \"ethtoken.sol\":9502:9543  Transfer(from, to, amount.sub(taxAmount)) */\n      mload(0x40)\n        /* \"#utility.yul\":1361:1386   */\n      swap1\n      dup2\n      mstore\n        /* \"#utility.yul\":1349:1351   */\n      0x20\n        /* \"#utility.yul\":1334:1352   */\n      add\n        /* \"ethtoken.sol\":9502:9543  Transfer(from, to, amount.sub(taxAmount)) */\n      mload(0x40)\n      dup1\n      swap2\n      sub\n      swap1\n      log3\n        /* \"ethtoken.sol\":7206:9551  {... */\n      pop\n        /* \"ethtoken.sol\":7137:9551  function _transfer(address from, address to, uint256 amount) private {... */\n      pop\n      pop\n      pop\n      jump\t// out\n        /* \"ethtoken.sol\":1311:1501  function sub(uint256 a, uint256 b, string memory errorMessage) internal pure returns (uint256) {... */\n    tag_131:\n        /* \"ethtoken.sol\":1397:1404  uint256 */\n      0x00\n        /* \"ethtoken.sol\":1433:1445  errorMessage */\n      dup2\n        /* \"ethtoken.sol\":1425:1431  b <= a */\n      dup5\n      dup5\n      gt\n      iszero\n        /* \"ethtoken.sol\":1417:1446  require(b <= a, errorMessage) */\n      tag_283\n      jumpi\n      mload(0x40)\n      shl(0xe5, 0x461bcd)\n      dup2\n      mstore\n      0x04\n      add\n      tag_147\n      swap2\n      swap1\n      tag_31\n      jump\t// in\n    tag_283:\n      pop\n        /* \"ethtoken.sol\":1457:1466  uint256 c */\n      0x00\n        /* \"ethtoken.sol\":1469:1474  a - b */\n      tag_285\n        /* \"ethtoken.sol\":1473:1474  b */\n      dup5\n        /* \"ethtoken.sol\":1469:1470  a */\n      dup7\n        /* \"ethtoken.sol\":1469:1474  a - b */\n      tag_286\n      jump\t// in\n    tag_285:\n        /* \"ethtoken.sol\":1457:1474  uint256 c = a - b */\n      swap6\n        /* \"ethtoken.sol\":1311:1501  function sub(uint256 a, uint256 b, string memory errorMessage) internal pure returns (uint256) {... */\n      swap5\n      pop\n      pop\n      pop\n      pop\n      pop\n      jump\t// out\n        /* \"ethtoken.sol\":9667:10150  function swapTokensForEth(uint256 tokenAmount) private lockTheSwap {... */\n    tag_139:\n        /* \"ethtoken.sol\":5080:5086  inSwap */\n      0x14\n        /* \"ethtoken.sol\":5080:5093  inSwap = true */\n      dup1\n      sload\n      not(shl(0xa8, 0xff))\n      and\n      shl(0xa8, 0x01)\n      or\n      swap1\n      sstore\n        /* \"ethtoken.sol\":9769:9785  new address[](2) */\n      0x40\n      dup1\n      mload\n        /* \"ethtoken.sol\":9783:9784  2 */\n      0x02\n        /* \"ethtoken.sol\":9769:9785  new address[](2) */\n      dup1\n      dup3\n      mstore\n      0x60\n      dup3\n      add\n      dup4\n      mstore\n      0x00\n      swap3\n      0x20\n      dup4\n      add\n      swap1\n      dup1\n      calldatasize\n      dup4\n      calldatacopy\n      add\n      swap1\n      pop\n      pop\n        /* \"ethtoken.sol\":9745:9785  address[] memory path = new address[](2) */\n      swap1\n      pop\n        /* \"ethtoken.sol\":9814:9818  this */\n      address\n        /* \"ethtoken.sol\":9796:9800  path */\n      dup2\n        /* \"ethtoken.sol\":9801:9802  0 */\n      0x00\n        /* \"ethtoken.sol\":9796:9803  path[0] */\n      dup2\n      mload\n      dup2\n      lt\n      tag_294\n      jumpi\n      tag_294\n      tag_295\n      jump\t// in\n    tag_294:\n      sub(shl(0xa0, 0x01), 0x01)\n        /* \"ethtoken.sol\":9796:9819  path[0] = address(this) */\n      swap3\n      dup4\n      and\n        /* \"ethtoken.sol\":9796:9803  path[0] */\n      0x20\n      swap2\n      dup3\n      mul\n      swap3\n      swap1\n      swap3\n      add\n      dup2\n      add\n        /* \"ethtoken.sol\":9796:9819  path[0] = address(this) */\n      swap2\n      swap1\n      swap2\n      mstore\n        /* \"ethtoken.sol\":9840:9855  uniswapV2Router */\n      sload(0x13)\n        /* \"ethtoken.sol\":9840:9862  uniswapV2Router.WETH() */\n      0x40\n      dup1\n      mload\n      shl(0xe3, 0x15ab88c9)\n      dup2\n      mstore\n      swap1\n      mload\n        /* \"ethtoken.sol\":9840:9855  uniswapV2Router */\n      swap2\n      swap1\n      swap4\n      and\n      swap3\n        /* \"ethtoken.sol\":9840:9860  uniswapV2Router.WETH */\n      0xad5c4648\n      swap3\n        /* \"ethtoken.sol\":9840:9862  uniswapV2Router.WETH() */\n      0x04\n      dup1\n      dup4\n      add\n      swap4\n        /* \"ethtoken.sol\":9796:9803  path[0] */\n      swap2\n      swap3\n        /* \"ethtoken.sol\":9840:9862  uniswapV2Router.WETH() */\n      dup3\n      swap1\n      sub\n      add\n      dup2\n        /* \"ethtoken.sol\":9840:9855  uniswapV2Router */\n      dup7\n        /* \"ethtoken.sol\":9840:9862  uniswapV2Router.WETH() */\n      gas\n      staticcall\n      iszero\n      dup1\n      iszero\n      tag_297\n      jumpi\n      returndatasize\n      0x00\n      dup1\n      returndatacopy\n      revert(0x00, returndatasize)\n    tag_297:\n      pop\n      pop\n      pop\n      pop\n      mload(0x40)\n      returndatasize\n      not(0x1f)\n      0x1f\n      dup3\n      add\n      and\n      dup3\n      add\n      dup1\n      0x40\n      mstore\n      pop\n      dup2\n      add\n      swap1\n      tag_298\n      swap2\n      swap1\n      tag_181\n      jump\t// in\n    tag_298:\n        /* \"ethtoken.sol\":9830:9834  path */\n      dup2\n        /* \"ethtoken.sol\":9835:9836  1 */\n      0x01\n        /* \"ethtoken.sol\":9830:9837  path[1] */\n      dup2\n      mload\n      dup2\n      lt\n      tag_300\n      jumpi\n      tag_300\n      tag_295\n      jump\t// in\n    tag_300:\n      sub(shl(0xa0, 0x01), 0x01)\n        /* \"ethtoken.sol\":9830:9862  path[1] = uniswapV2Router.WETH() */\n      swap3\n      dup4\n      and\n        /* \"ethtoken.sol\":9830:9837  path[1] */\n      0x20\n      swap2\n      dup3\n      mul\n      swap3\n      swap1\n      swap3\n      add\n      add\n        /* \"ethtoken.sol\":9830:9862  path[1] = uniswapV2Router.WETH() */\n      mstore\n        /* \"ethtoken.sol\":9905:9920  uniswapV2Router */\n      sload(0x13)\n        /* \"ethtoken.sol\":9873:9935  _approve(address(this), address(uniswapV2Router), tokenAmount) */\n      tag_301\n      swap2\n        /* \"ethtoken.sol\":9890:9894  this */\n      address\n      swap2\n        /* \"ethtoken.sol\":9905:9920  uniswapV2Router */\n      and\n        /* \"ethtoken.sol\":9923:9934  tokenAmount */\n      dup5\n        /* \"ethtoken.sol\":9873:9881  _approve */\n      tag_118\n        /* \"ethtoken.sol\":9873:9935  _approve(address(this), address(uniswapV2Router), tokenAmount) */\n      jump\t// in\n    tag_301:\n        /* \"ethtoken.sol\":9946:9961  uniswapV2Router */\n      sload(0x13)\n        /* \"ethtoken.sol\":9946:10142  uniswapV2Router.swapExactTokensForETHSupportingFeeOnTransferTokens(... */\n      mload(0x40)\n      shl(0xe0, 0x791ac947)\n      dup2\n      mstore\n      sub(shl(0xa0, 0x01), 0x01)\n        /* \"ethtoken.sol\":9946:9961  uniswapV2Router */\n      swap1\n      swap2\n      and\n      swap1\n        /* \"ethtoken.sol\":9946:10012  uniswapV2Router.swapExactTokensForETHSupportingFeeOnTransferTokens */\n      0x791ac947\n      swap1\n        /* \"ethtoken.sol\":9946:10142  uniswapV2Router.swapExactTokensForETHSupportingFeeOnTransferTokens(... */\n      tag_302\n      swap1\n        /* \"ethtoken.sol\":10027:10038  tokenAmount */\n      dup6\n      swap1\n        /* \"ethtoken.sol\":9946:9961  uniswapV2Router */\n      0x00\n      swap1\n        /* \"ethtoken.sol\":10069:10073  path */\n      dup7\n      swap1\n        /* \"ethtoken.sol\":10096:10100  this */\n      address\n      swap1\n        /* \"ethtoken.sol\":10116:10131  block.timestamp */\n      timestamp\n      swap1\n        /* \"ethtoken.sol\":9946:10142  uniswapV2Router.swapExactTokensForETHSupportingFeeOnTransferTokens(... */\n      0x04\n      add\n      tag_303\n      jump\t// in\n    tag_302:\n      0x00\n      mload(0x40)\n      dup1\n      dup4\n      sub\n      dup2\n      0x00\n      dup8\n      dup1\n      extcodesize\n      iszero\n      dup1\n      iszero\n      tag_304\n      jumpi\n      0x00\n      dup1\n      revert\n    tag_304:\n      pop\n      gas\n      call\n      iszero\n      dup1\n      iszero\n      tag_306\n      jumpi\n      returndatasize\n      0x00\n      dup1\n      returndatacopy\n      revert(0x00, returndatasize)\n    tag_306:\n      pop\n      pop\n        /* \"ethtoken.sol\":5116:5122  inSwap */\n      0x14\n        /* \"ethtoken.sol\":5116:5130  inSwap = false */\n      dup1\n      sload\n      not(shl(0xa8, 0xff))\n      and\n      swap1\n      sstore\n      pop\n      pop\n      pop\n      pop\n        /* \"ethtoken.sol\":9667:10150  function swapTokensForEth(uint256 tokenAmount) private lockTheSwap {... */\n      jump\t// out\n        /* \"ethtoken.sol\":10362:10454  function sendETHToFee(uint256 amount) private {... */\n    tag_142:\n        /* \"ethtoken.sol\":10419:10429  _taxWallet */\n      sload(0x06)\n        /* \"ethtoken.sol\":10419:10446  _taxWallet.transfer(amount) */\n      mload(0x40)\n        /* \"ethtoken.sol\":10419:10429  _taxWallet */\n      0x0100\n      swap1\n      swap2\n      div\n      sub(shl(0xa0, 0x01), 0x01)\n      and\n      swap1\n        /* \"ethtoken.sol\":10419:10446  _taxWallet.transfer(amount) */\n      0x08fc\n      dup4\n      iszero\n      mul\n      swap1\n      dup4\n      swap1\n      0x00\n      dup2\n      dup2\n      dup2\n      dup6\n        /* \"ethtoken.sol\":10419:10429  _taxWallet */\n      dup9\n        /* \"ethtoken.sol\":10419:10446  _taxWallet.transfer(amount) */\n      dup9\n      call\n      swap4\n      pop\n      pop\n      pop\n      pop\n      iszero\n      dup1\n      iszero\n      tag_141\n      jumpi\n      returndatasize\n      0x00\n      dup1\n      returndatacopy\n      revert(0x00, returndatasize)\n        /* \"ethtoken.sol\":1509:1755  function mul(uint256 a, uint256 b) internal pure returns (uint256) {... */\n    tag_232:\n        /* \"ethtoken.sol\":1567:1574  uint256 */\n      0x00\n        /* \"ethtoken.sol\":1591:1592  a */\n      dup3\n        /* \"ethtoken.sol\":1596:1597  0 */\n      0x00\n        /* \"ethtoken.sol\":1591:1597  a == 0 */\n      sub\n        /* \"ethtoken.sol\":1587:1634  if (a == 0) {... */\n      tag_311\n      jumpi\n      pop\n        /* \"ethtoken.sol\":1621:1622  0 */\n      0x00\n        /* \"ethtoken.sol\":1614:1622  return 0 */\n      jump(tag_114)\n        /* \"ethtoken.sol\":1587:1634  if (a == 0) {... */\n    tag_311:\n        /* \"ethtoken.sol\":1644:1653  uint256 c */\n      0x00\n        /* \"ethtoken.sol\":1656:1661  a * b */\n      tag_312\n        /* \"ethtoken.sol\":1660:1661  b */\n      dup4\n        /* \"ethtoken.sol\":1656:1657  a */\n      dup6\n        /* \"ethtoken.sol\":1656:1661  a * b */\n      tag_123\n      jump\t// in\n    tag_312:\n        /* \"ethtoken.sol\":1644:1661  uint256 c = a * b */\n      swap1\n      pop\n        /* \"ethtoken.sol\":1689:1690  b */\n      dup3\n        /* \"ethtoken.sol\":1680:1685  c / a */\n      tag_313\n        /* \"ethtoken.sol\":1684:1685  a */\n      dup6\n        /* \"ethtoken.sol\":1644:1661  uint256 c = a * b */\n      dup4\n        /* \"ethtoken.sol\":1680:1685  c / a */\n      tag_314\n      jump\t// in\n    tag_313:\n        /* \"ethtoken.sol\":1680:1690  c / a == b */\n      eq\n        /* \"ethtoken.sol\":1672:1728  require(c / a == b, \"SafeMath: multiplication overflow\") */\n      tag_315\n      jumpi\n      mload(0x40)\n      shl(0xe5, 0x461bcd)\n      dup2\n      mstore\n        /* \"#utility.yul\":12639:12641   */\n      0x20\n        /* \"ethtoken.sol\":1672:1728  require(c / a == b, \"SafeMath: multiplication overflow\") */\n      0x04\n      dup3\n      add\n        /* \"#utility.yul\":12621:12642   */\n      mstore\n        /* \"#utility.yul\":12678:12680   */\n      0x21\n        /* \"#utility.yul\":12658:12676   */\n      0x24\n      dup3\n      add\n        /* \"#utility.yul\":12651:12681   */\n      mstore\n        /* \"#utility.yul\":12717:12751   */\n      0x536166654d6174683a206d756c7469706c69636174696f6e206f766572666c6f\n        /* \"#utility.yul\":12697:12715   */\n      0x44\n      dup3\n      add\n        /* \"#utility.yul\":12690:12752   */\n      mstore\n      shl(0xf8, 0x77)\n        /* \"#utility.yul\":12768:12786   */\n      0x64\n      dup3\n      add\n        /* \"#utility.yul\":12761:12792   */\n      mstore\n        /* \"#utility.yul\":12809:12828   */\n      0x84\n      add\n        /* \"ethtoken.sol\":1672:1728  require(c / a == b, \"SafeMath: multiplication overflow\") */\n      tag_147\n        /* \"#utility.yul\":12437:12834   */\n      jump\n        /* \"ethtoken.sol\":1672:1728  require(c / a == b, \"SafeMath: multiplication overflow\") */\n    tag_315:\n        /* \"ethtoken.sol\":1746:1747  c */\n      swap4\n        /* \"ethtoken.sol\":1509:1755  function mul(uint256 a, uint256 b) internal pure returns (uint256) {... */\n      swap3\n      pop\n      pop\n      pop\n      jump\t// out\n        /* \"ethtoken.sol\":1763:1895  function div(uint256 a, uint256 b) internal pure returns (uint256) {... */\n    tag_233:\n        /* \"ethtoken.sol\":1821:1828  uint256 */\n      0x00\n        /* \"ethtoken.sol\":1848:1887  div(a, b, \"SafeMath: division by zero\") */\n      tag_315\n        /* \"ethtoken.sol\":1852:1853  a */\n      dup4\n        /* \"ethtoken.sol\":1855:1856  b */\n      dup4\n        /* \"ethtoken.sol\":1848:1887  div(a, b, \"SafeMath: division by zero\") */\n      mload(0x40)\n      dup1\n      0x40\n      add\n      0x40\n      mstore\n      dup1\n      0x1a\n      dup2\n      mstore\n      0x20\n      add\n      0x536166654d6174683a206469766973696f6e206279207a65726f000000000000\n      dup2\n      mstore\n      pop\n        /* \"ethtoken.sol\":1848:1851  div */\n      tag_320\n        /* \"ethtoken.sol\":1848:1887  div(a, b, \"SafeMath: division by zero\") */\n      jump\t// in\n        /* \"ethtoken.sol\":9561:9659  function min(uint256 a, uint256 b) private pure returns (uint256){... */\n    tag_269:\n        /* \"ethtoken.sol\":9618:9625  uint256 */\n      0x00\n        /* \"ethtoken.sol\":9645:9646  b */\n      dup2\n        /* \"ethtoken.sol\":9643:9644  a */\n      dup4\n        /* \"ethtoken.sol\":9643:9646  a>b */\n      gt\n        /* \"ethtoken.sol\":9642:9651  (a>b)?b:a */\n      tag_322\n      jumpi\n        /* \"ethtoken.sol\":9650:9651  a */\n      dup3\n        /* \"ethtoken.sol\":9642:9651  (a>b)?b:a */\n      jump(tag_315)\n    tag_322:\n      pop\n        /* \"ethtoken.sol\":9648:9649  b */\n      swap2\n        /* \"ethtoken.sol\":9561:9659  function min(uint256 a, uint256 b) private pure returns (uint256){... */\n      swap1\n      pop\n      jump\t// out\n        /* \"ethtoken.sol\":980:1159  function add(uint256 a, uint256 b) internal pure returns (uint256) {... */\n    tag_274:\n        /* \"ethtoken.sol\":1038:1045  uint256 */\n      0x00\n      dup1\n        /* \"ethtoken.sol\":1070:1075  a + b */\n      tag_325\n        /* \"ethtoken.sol\":1074:1075  b */\n      dup4\n        /* \"ethtoken.sol\":1070:1071  a */\n      dup6\n        /* \"ethtoken.sol\":1070:1075  a + b */\n      tag_248\n      jump\t// in\n    tag_325:\n        /* \"ethtoken.sol\":1058:1075  uint256 c = a + b */\n      swap1\n      pop\n        /* \"ethtoken.sol\":1099:1100  a */\n      dup4\n        /* \"ethtoken.sol\":1094:1095  c */\n      dup2\n        /* \"ethtoken.sol\":1094:1100  c >= a */\n      lt\n      iszero\n        /* \"ethtoken.sol\":1086:1132  require(c >= a, \"SafeMath: addition overflow\") */\n      tag_315\n      jumpi\n      mload(0x40)\n      shl(0xe5, 0x461bcd)\n      dup2\n      mstore\n        /* \"#utility.yul\":13041:13043   */\n      0x20\n        /* \"ethtoken.sol\":1086:1132  require(c >= a, \"SafeMath: addition overflow\") */\n      0x04\n      dup3\n      add\n        /* \"#utility.yul\":13023:13044   */\n      mstore\n        /* \"#utility.yul\":13080:13082   */\n      0x1b\n        /* \"#utility.yul\":13060:13078   */\n      0x24\n      dup3\n      add\n        /* \"#utility.yul\":13053:13083   */\n      mstore\n        /* \"#utility.yul\":13119:13148   */\n      0x536166654d6174683a206164646974696f6e206f766572666c6f770000000000\n        /* \"#utility.yul\":13099:13117   */\n      0x44\n      dup3\n      add\n        /* \"#utility.yul\":13092:13149   */\n      mstore\n        /* \"#utility.yul\":13166:13184   */\n      0x64\n      add\n        /* \"ethtoken.sol\":1086:1132  require(c >= a, \"SafeMath: addition overflow\") */\n      tag_147\n        /* \"#utility.yul\":12839:13190   */\n      jump\n        /* \"ethtoken.sol\":1167:1303  function sub(uint256 a, uint256 b) internal pure returns (uint256) {... */\n    tag_277:\n        /* \"ethtoken.sol\":1225:1232  uint256 */\n      0x00\n        /* \"ethtoken.sol\":1252:1295  sub(a, b, \"SafeMath: subtraction overflow\") */\n      tag_315\n        /* \"ethtoken.sol\":1256:1257  a */\n      dup4\n        /* \"ethtoken.sol\":1259:1260  b */\n      dup4\n        /* \"ethtoken.sol\":1252:1295  sub(a, b, \"SafeMath: subtraction overflow\") */\n      mload(0x40)\n      dup1\n      0x40\n      add\n      0x40\n      mstore\n      dup1\n      0x1e\n      dup2\n      mstore\n      0x20\n      add\n      0x536166654d6174683a207375627472616374696f6e206f766572666c6f770000\n      dup2\n      mstore\n      pop\n        /* \"ethtoken.sol\":1252:1255  sub */\n      tag_131\n        /* \"ethtoken.sol\":1252:1295  sub(a, b, \"SafeMath: subtraction overflow\") */\n      jump\t// in\n        /* \"ethtoken.sol\":1903:2092  function div(uint256 a, uint256 b, string memory errorMessage) internal pure returns (uint256) {... */\n    tag_320:\n        /* \"ethtoken.sol\":1989:1996  uint256 */\n      0x00\n        /* \"ethtoken.sol\":2024:2036  errorMessage */\n      dup2\n        /* \"ethtoken.sol\":2017:2022  b > 0 */\n      dup4\n        /* \"ethtoken.sol\":2009:2037  require(b > 0, errorMessage) */\n      tag_332\n      jumpi\n      mload(0x40)\n      shl(0xe5, 0x461bcd)\n      dup2\n      mstore\n      0x04\n      add\n      tag_147\n      swap2\n      swap1\n      tag_31\n      jump\t// in\n    tag_332:\n      pop\n        /* \"ethtoken.sol\":2048:2057  uint256 c */\n      0x00\n        /* \"ethtoken.sol\":2060:2065  a / b */\n      tag_285\n        /* \"ethtoken.sol\":2064:2065  b */\n      dup5\n        /* \"ethtoken.sol\":2060:2061  a */\n      dup7\n        /* \"ethtoken.sol\":2060:2065  a / b */\n      tag_314\n      jump\t// in\n        /* \"#utility.yul\":14:562   */\n    tag_31:\n        /* \"#utility.yul\":126:130   */\n      0x00\n        /* \"#utility.yul\":155:157   */\n      0x20\n        /* \"#utility.yul\":184:186   */\n      dup1\n        /* \"#utility.yul\":173:182   */\n      dup4\n        /* \"#utility.yul\":166:187   */\n      mstore\n        /* \"#utility.yul\":216:222   */\n      dup4\n        /* \"#utility.yul\":210:223   */\n      mload\n        /* \"#utility.yul\":259:265   */\n      dup1\n        /* \"#utility.yul\":254:256   */\n      0x20\n        /* \"#utility.yul\":243:252   */\n      dup6\n        /* \"#utility.yul\":239:257   */\n      add\n        /* \"#utility.yul\":232:266   */\n      mstore\n        /* \"#utility.yul\":284:285   */\n      0x00\n        /* \"#utility.yul\":294:434   */\n    tag_341:\n        /* \"#utility.yul\":308:314   */\n      dup2\n        /* \"#utility.yul\":305:306   */\n      dup2\n        /* \"#utility.yul\":302:315   */\n      lt\n        /* \"#utility.yul\":294:434   */\n      iszero\n      tag_343\n      jumpi\n        /* \"#utility.yul\":403:417   */\n      dup6\n      dup2\n      add\n        /* \"#utility.yul\":399:422   */\n      dup4\n      add\n        /* \"#utility.yul\":393:423   */\n      mload\n        /* \"#utility.yul\":369:386   */\n      dup6\n      dup3\n      add\n        /* \"#utility.yul\":388:390   */\n      0x40\n        /* \"#utility.yul\":365:391   */\n      add\n        /* \"#utility.yul\":358:424   */\n      mstore\n        /* \"#utility.yul\":323:333   */\n      dup3\n      add\n        /* \"#utility.yul\":294:434   */\n      jump(tag_341)\n    tag_343:\n        /* \"#utility.yul\":298:301   */\n      pop\n        /* \"#utility.yul\":483:484   */\n      0x00\n        /* \"#utility.yul\":478:480   */\n      0x40\n        /* \"#utility.yul\":469:475   */\n      dup3\n        /* \"#utility.yul\":458:467   */\n      dup7\n        /* \"#utility.yul\":454:476   */\n      add\n        /* \"#utility.yul\":450:481   */\n      add\n        /* \"#utility.yul\":443:485   */\n      mstore\n        /* \"#utility.yul\":553:555   */\n      0x40\n        /* \"#utility.yul\":546:548   */\n      0x1f\n        /* \"#utility.yul\":542:549   */\n      not\n        /* \"#utility.yul\":537:539   */\n      0x1f\n        /* \"#utility.yul\":529:535   */\n      dup4\n        /* \"#utility.yul\":525:540   */\n      add\n        /* \"#utility.yul\":521:550   */\n      and\n        /* \"#utility.yul\":510:519   */\n      dup6\n        /* \"#utility.yul\":506:551   */\n      add\n        /* \"#utility.yul\":502:556   */\n      add\n        /* \"#utility.yul\":494:556   */\n      swap3\n      pop\n      pop\n      pop\n        /* \"#utility.yul\":14:562   */\n      swap3\n      swap2\n      pop\n      pop\n      jump\t// out\n        /* \"#utility.yul\":567:698   */\n    tag_335:\n      sub(shl(0xa0, 0x01), 0x01)\n        /* \"#utility.yul\":642:673   */\n      dup2\n      and\n        /* \"#utility.yul\":632:674   */\n      dup2\n      eq\n        /* \"#utility.yul\":622:692   */\n      tag_345\n      jumpi\n        /* \"#utility.yul\":688:689   */\n      0x00\n        /* \"#utility.yul\":685:686   */\n      dup1\n        /* \"#utility.yul\":678:690   */\n      revert\n        /* \"#utility.yul\":622:692   */\n    tag_345:\n        /* \"#utility.yul\":567:698   */\n      pop\n      jump\t// out\n        /* \"#utility.yul\":703:1018   */\n    tag_35:\n        /* \"#utility.yul\":771:777   */\n      0x00\n        /* \"#utility.yul\":779:785   */\n      dup1\n        /* \"#utility.yul\":832:834   */\n      0x40\n        /* \"#utility.yul\":820:829   */\n      dup4\n        /* \"#utility.yul\":811:818   */\n      dup6\n        /* \"#utility.yul\":807:830   */\n      sub\n        /* \"#utility.yul\":803:835   */\n      slt\n        /* \"#utility.yul\":800:852   */\n      iszero\n      tag_347\n      jumpi\n        /* \"#utility.yul\":848:849   */\n      0x00\n        /* \"#utility.yul\":845:846   */\n      dup1\n        /* \"#utility.yul\":838:850   */\n      revert\n        /* \"#utility.yul\":800:852   */\n    tag_347:\n        /* \"#utility.yul\":887:896   */\n      dup3\n        /* \"#utility.yul\":874:897   */\n      calldataload\n        /* \"#utility.yul\":906:937   */\n      tag_348\n        /* \"#utility.yul\":931:936   */\n      dup2\n        /* \"#utility.yul\":906:937   */\n      tag_335\n      jump\t// in\n    tag_348:\n        /* \"#utility.yul\":956:961   */\n      swap5\n        /* \"#utility.yul\":1008:1010   */\n      0x20\n        /* \"#utility.yul\":993:1011   */\n      swap4\n      swap1\n      swap4\n      add\n        /* \"#utility.yul\":980:1012   */\n      calldataload\n      swap4\n      pop\n      pop\n      pop\n        /* \"#utility.yul\":703:1018   */\n      jump\t// out\n        /* \"#utility.yul\":1397:1853   */\n    tag_51:\n        /* \"#utility.yul\":1474:1480   */\n      0x00\n        /* \"#utility.yul\":1482:1488   */\n      dup1\n        /* \"#utility.yul\":1490:1496   */\n      0x00\n        /* \"#utility.yul\":1543:1545   */\n      0x60\n        /* \"#utility.yul\":1531:1540   */\n      dup5\n        /* \"#utility.yul\":1522:1529   */\n      dup7\n        /* \"#utility.yul\":1518:1541   */\n      sub\n        /* \"#utility.yul\":1514:1546   */\n      slt\n        /* \"#utility.yul\":1511:1563   */\n      iszero\n      tag_352\n      jumpi\n        /* \"#utility.yul\":1559:1560   */\n      0x00\n        /* \"#utility.yul\":1556:1557   */\n      dup1\n        /* \"#utility.yul\":1549:1561   */\n      revert\n        /* \"#utility.yul\":1511:1563   */\n    tag_352:\n        /* \"#utility.yul\":1598:1607   */\n      dup4\n        /* \"#utility.yul\":1585:1608   */\n      calldataload\n        /* \"#utility.yul\":1617:1648   */\n      tag_353\n        /* \"#utility.yul\":1642:1647   */\n      dup2\n        /* \"#utility.yul\":1617:1648   */\n      tag_335\n      jump\t// in\n    tag_353:\n        /* \"#utility.yul\":1667:1672   */\n      swap3\n      pop\n        /* \"#utility.yul\":1724:1726   */\n      0x20\n        /* \"#utility.yul\":1709:1727   */\n      dup5\n      add\n        /* \"#utility.yul\":1696:1728   */\n      calldataload\n        /* \"#utility.yul\":1737:1770   */\n      tag_354\n        /* \"#utility.yul\":1696:1728   */\n      dup2\n        /* \"#utility.yul\":1737:1770   */\n      tag_335\n      jump\t// in\n    tag_354:\n        /* \"#utility.yul\":1397:1853   */\n      swap3\n      swap6\n        /* \"#utility.yul\":1789:1796   */\n      swap3\n      swap5\n      pop\n      pop\n      pop\n        /* \"#utility.yul\":1843:1845   */\n      0x40\n        /* \"#utility.yul\":1828:1846   */\n      swap2\n      swap1\n      swap2\n      add\n        /* \"#utility.yul\":1815:1847   */\n      calldataload\n      swap1\n        /* \"#utility.yul\":1397:1853   */\n      jump\t// out\n        /* \"#utility.yul\":2047:2294   */\n    tag_65:\n        /* \"#utility.yul\":2106:2112   */\n      0x00\n        /* \"#utility.yul\":2159:2161   */\n      0x20\n        /* \"#utility.yul\":2147:2156   */\n      dup3\n        /* \"#utility.yul\":2138:2145   */\n      dup5\n        /* \"#utility.yul\":2134:2157   */\n      sub\n        /* \"#utility.yul\":2130:2162   */\n      slt\n        /* \"#utility.yul\":2127:2179   */\n      iszero\n      tag_357\n      jumpi\n        /* \"#utility.yul\":2175:2176   */\n      0x00\n        /* \"#utility.yul\":2172:2173   */\n      dup1\n        /* \"#utility.yul\":2165:2177   */\n      revert\n        /* \"#utility.yul\":2127:2179   */\n    tag_357:\n        /* \"#utility.yul\":2214:2223   */\n      dup2\n        /* \"#utility.yul\":2201:2224   */\n      calldataload\n        /* \"#utility.yul\":2233:2264   */\n      tag_315\n        /* \"#utility.yul\":2258:2263   */\n      dup2\n        /* \"#utility.yul\":2233:2264   */\n      tag_335\n      jump\t// in\n        /* \"#utility.yul\":2507:2895   */\n    tag_110:\n        /* \"#utility.yul\":2575:2581   */\n      0x00\n        /* \"#utility.yul\":2583:2589   */\n      dup1\n        /* \"#utility.yul\":2636:2638   */\n      0x40\n        /* \"#utility.yul\":2624:2633   */\n      dup4\n        /* \"#utility.yul\":2615:2622   */\n      dup6\n        /* \"#utility.yul\":2611:2634   */\n      sub\n        /* \"#utility.yul\":2607:2639   */\n      slt\n        /* \"#utility.yul\":2604:2656   */\n      iszero\n      tag_361\n      jumpi\n        /* \"#utility.yul\":2652:2653   */\n      0x00\n        /* \"#utility.yul\":2649:2650   */\n      dup1\n        /* \"#utility.yul\":2642:2654   */\n      revert\n        /* \"#utility.yul\":2604:2656   */\n    tag_361:\n        /* \"#utility.yul\":2691:2700   */\n      dup3\n        /* \"#utility.yul\":2678:2701   */\n      calldataload\n        /* \"#utility.yul\":2710:2741   */\n      tag_362\n        /* \"#utility.yul\":2735:2740   */\n      dup2\n        /* \"#utility.yul\":2710:2741   */\n      tag_335\n      jump\t// in\n    tag_362:\n        /* \"#utility.yul\":2760:2765   */\n      swap2\n      pop\n        /* \"#utility.yul\":2817:2819   */\n      0x20\n        /* \"#utility.yul\":2802:2820   */\n      dup4\n      add\n        /* \"#utility.yul\":2789:2821   */\n      calldataload\n        /* \"#utility.yul\":2830:2863   */\n      tag_363\n        /* \"#utility.yul\":2789:2821   */\n      dup2\n        /* \"#utility.yul\":2830:2863   */\n      tag_335\n      jump\t// in\n    tag_363:\n        /* \"#utility.yul\":2882:2889   */\n      dup1\n        /* \"#utility.yul\":2872:2889   */\n      swap2\n      pop\n      pop\n        /* \"#utility.yul\":2507:2895   */\n      swap3\n      pop\n      swap3\n      swap1\n      pop\n      jump\t// out\n        /* \"#utility.yul\":2900:3027   */\n    tag_336:\n        /* \"#utility.yul\":2961:2971   */\n      0x4e487b71\n        /* \"#utility.yul\":2956:2959   */\n      0xe0\n        /* \"#utility.yul\":2952:2972   */\n      shl\n        /* \"#utility.yul\":2949:2950   */\n      0x00\n        /* \"#utility.yul\":2942:2973   */\n      mstore\n        /* \"#utility.yul\":2992:2996   */\n      0x11\n        /* \"#utility.yul\":2989:2990   */\n      0x04\n        /* \"#utility.yul\":2982:2997   */\n      mstore\n        /* \"#utility.yul\":3016:3020   */\n      0x24\n        /* \"#utility.yul\":3013:3014   */\n      0x00\n        /* \"#utility.yul\":3006:3021   */\n      revert\n        /* \"#utility.yul\":3032:3448   */\n    tag_337:\n        /* \"#utility.yul\":3121:3122   */\n      0x01\n        /* \"#utility.yul\":3158:3163   */\n      dup2\n        /* \"#utility.yul\":3121:3122   */\n      dup2\n        /* \"#utility.yul\":3172:3442   */\n    tag_366:\n        /* \"#utility.yul\":3193:3200   */\n      dup1\n        /* \"#utility.yul\":3183:3191   */\n      dup6\n        /* \"#utility.yul\":3180:3201   */\n      gt\n        /* \"#utility.yul\":3172:3442   */\n      iszero\n      tag_368\n      jumpi\n        /* \"#utility.yul\":3252:3256   */\n      dup2\n        /* \"#utility.yul\":3248:3249   */\n      0x00\n        /* \"#utility.yul\":3244:3250   */\n      not\n        /* \"#utility.yul\":3240:3257   */\n      div\n        /* \"#utility.yul\":3234:3238   */\n      dup3\n        /* \"#utility.yul\":3231:3258   */\n      gt\n        /* \"#utility.yul\":3228:3281   */\n      iszero\n      tag_370\n      jumpi\n        /* \"#utility.yul\":3261:3279   */\n      tag_370\n      tag_336\n      jump\t// in\n    tag_370:\n        /* \"#utility.yul\":3311:3318   */\n      dup1\n        /* \"#utility.yul\":3301:3309   */\n      dup6\n        /* \"#utility.yul\":3297:3319   */\n      and\n        /* \"#utility.yul\":3294:3349   */\n      iszero\n      tag_371\n      jumpi\n        /* \"#utility.yul\":3331:3347   */\n      swap2\n      dup2\n      mul\n      swap2\n        /* \"#utility.yul\":3294:3349   */\n    tag_371:\n        /* \"#utility.yul\":3410:3432   */\n      swap4\n      dup5\n      shr\n      swap4\n        /* \"#utility.yul\":3370:3385   */\n      swap1\n      dup1\n      mul\n      swap1\n        /* \"#utility.yul\":3172:3442   */\n      jump(tag_366)\n    tag_368:\n        /* \"#utility.yul\":3176:3179   */\n      pop\n        /* \"#utility.yul\":3032:3448   */\n      swap3\n      pop\n      swap3\n      swap1\n      pop\n      jump\t// out\n        /* \"#utility.yul\":3453:4259   */\n    tag_338:\n        /* \"#utility.yul\":3502:3507   */\n      0x00\n        /* \"#utility.yul\":3532:3540   */\n      dup3\n        /* \"#utility.yul\":3522:3602   */\n      tag_373\n      jumpi\n      pop\n        /* \"#utility.yul\":3573:3574   */\n      0x01\n        /* \"#utility.yul\":3587:3592   */\n      jump(tag_114)\n        /* \"#utility.yul\":3522:3602   */\n    tag_373:\n        /* \"#utility.yul\":3621:3625   */\n      dup2\n        /* \"#utility.yul\":3611:3687   */\n      tag_374\n      jumpi\n      pop\n        /* \"#utility.yul\":3658:3659   */\n      0x00\n        /* \"#utility.yul\":3672:3677   */\n      jump(tag_114)\n        /* \"#utility.yul\":3611:3687   */\n    tag_374:\n        /* \"#utility.yul\":3703:3707   */\n      dup2\n        /* \"#utility.yul\":3721:3722   */\n      0x01\n        /* \"#utility.yul\":3716:3775   */\n      dup2\n      eq\n      tag_376\n      jumpi\n        /* \"#utility.yul\":3789:3790   */\n      0x02\n        /* \"#utility.yul\":3784:3914   */\n      dup2\n      eq\n      tag_377\n      jumpi\n        /* \"#utility.yul\":3696:3914   */\n      jump(tag_375)\n        /* \"#utility.yul\":3716:3775   */\n    tag_376:\n        /* \"#utility.yul\":3746:3747   */\n      0x01\n        /* \"#utility.yul\":3737:3747   */\n      swap2\n      pop\n        /* \"#utility.yul\":3760:3765   */\n      pop\n      jump(tag_114)\n        /* \"#utility.yul\":3784:3914   */\n    tag_377:\n        /* \"#utility.yul\":3821:3824   */\n      0xff\n        /* \"#utility.yul\":3811:3819   */\n      dup5\n        /* \"#utility.yul\":3808:3825   */\n      gt\n        /* \"#utility.yul\":3805:3848   */\n      iszero\n      tag_379\n      jumpi\n        /* \"#utility.yul\":3828:3846   */\n      tag_379\n      tag_336\n      jump\t// in\n    tag_379:\n      pop\n      pop\n        /* \"#utility.yul\":3884:3885   */\n      0x01\n        /* \"#utility.yul\":3870:3886   */\n      dup3\n      shl\n        /* \"#utility.yul\":3899:3904   */\n      jump(tag_114)\n        /* \"#utility.yul\":3696:3914   */\n    tag_375:\n      pop\n        /* \"#utility.yul\":3998:4000   */\n      0x20\n        /* \"#utility.yul\":3988:3996   */\n      dup4\n        /* \"#utility.yul\":3985:4001   */\n      lt\n        /* \"#utility.yul\":3979:3982   */\n      0x0133\n        /* \"#utility.yul\":3973:3977   */\n      dup4\n        /* \"#utility.yul\":3970:3983   */\n      lt\n        /* \"#utility.yul\":3966:4002   */\n      and\n        /* \"#utility.yul\":3960:3962   */\n      0x4e\n        /* \"#utility.yul\":3950:3958   */\n      dup5\n        /* \"#utility.yul\":3947:3963   */\n      lt\n        /* \"#utility.yul\":3942:3944   */\n      0x0b\n        /* \"#utility.yul\":3936:3940   */\n      dup5\n        /* \"#utility.yul\":3933:3945   */\n      lt\n        /* \"#utility.yul\":3929:3964   */\n      and\n        /* \"#utility.yul\":3926:4003   */\n      or\n        /* \"#utility.yul\":3923:4082   */\n      iszero\n      tag_380\n      jumpi\n      pop\n        /* \"#utility.yul\":4035:4054   */\n      dup2\n      dup2\n      exp\n        /* \"#utility.yul\":4067:4072   */\n      jump(tag_114)\n        /* \"#utility.yul\":3923:4082   */\n    tag_380:\n        /* \"#utility.yul\":4114:4148   */\n      tag_381\n        /* \"#utility.yul\":4139:4147   */\n      dup4\n        /* \"#utility.yul\":4133:4137   */\n      dup4\n        /* \"#utility.yul\":4114:4148   */\n      tag_337\n      jump\t// in\n    tag_381:\n        /* \"#utility.yul\":4184:4190   */\n      dup1\n        /* \"#utility.yul\":4180:4181   */\n      0x00\n        /* \"#utility.yul\":4176:4182   */\n      not\n        /* \"#utility.yul\":4172:4191   */\n      div\n        /* \"#utility.yul\":4163:4170   */\n      dup3\n        /* \"#utility.yul\":4160:4192   */\n      gt\n        /* \"#utility.yul\":4157:4215   */\n      iszero\n      tag_383\n      jumpi\n        /* \"#utility.yul\":4195:4213   */\n      tag_383\n      tag_336\n      jump\t// in\n    tag_383:\n        /* \"#utility.yul\":4233:4253   */\n      mul\n      swap4\n        /* \"#utility.yul\":3453:4259   */\n      swap3\n      pop\n      pop\n      pop\n      jump\t// out\n        /* \"#utility.yul\":4264:4404   */\n    tag_121:\n        /* \"#utility.yul\":4322:4327   */\n      0x00\n        /* \"#utility.yul\":4351:4398   */\n      tag_315\n        /* \"#utility.yul\":4392:4396   */\n      0xff\n        /* \"#utility.yul\":4382:4390   */\n      dup5\n        /* \"#utility.yul\":4378:4397   */\n      and\n        /* \"#utility.yul\":4372:4376   */\n      dup4\n        /* \"#utility.yul\":4351:4398   */\n      tag_338\n      jump\t// in\n        /* \"#utility.yul\":4409:4577   */\n    tag_123:\n        /* \"#utility.yul\":4482:4491   */\n      dup1\n      dup3\n      mul\n        /* \"#utility.yul\":4513:4522   */\n      dup2\n      iszero\n        /* \"#utility.yul\":4530:4545   */\n      dup3\n      dup3\n      div\n        /* \"#utility.yul\":4524:4546   */\n      dup5\n      eq\n        /* \"#utility.yul\":4510:4547   */\n      or\n        /* \"#utility.yul\":4500:4571   */\n      tag_114\n      jumpi\n        /* \"#utility.yul\":4551:4569   */\n      tag_114\n      tag_336\n      jump\t// in\n        /* \"#utility.yul\":4582:4938   */\n    tag_148:\n        /* \"#utility.yul\":4784:4786   */\n      0x20\n        /* \"#utility.yul\":4766:4787   */\n      dup1\n      dup3\n      mstore\n        /* \"#utility.yul\":4803:4821   */\n      dup2\n      dup2\n      add\n        /* \"#utility.yul\":4796:4826   */\n      mstore\n        /* \"#utility.yul\":4862:4896   */\n      0x4f776e61626c653a2063616c6c6572206973206e6f7420746865206f776e6572\n        /* \"#utility.yul\":4857:4859   */\n      0x40\n        /* \"#utility.yul\":4842:4860   */\n      dup3\n      add\n        /* \"#utility.yul\":4835:4897   */\n      mstore\n        /* \"#utility.yul\":4929:4931   */\n      0x60\n        /* \"#utility.yul\":4914:4932   */\n      add\n      swap1\n        /* \"#utility.yul\":4582:4938   */\n      jump\t// out\n        /* \"#utility.yul\":5295:5546   */\n    tag_181:\n        /* \"#utility.yul\":5365:5371   */\n      0x00\n        /* \"#utility.yul\":5418:5420   */\n      0x20\n        /* \"#utility.yul\":5406:5415   */\n      dup3\n        /* \"#utility.yul\":5397:5404   */\n      dup5\n        /* \"#utility.yul\":5393:5416   */\n      sub\n        /* \"#utility.yul\":5389:5421   */\n      slt\n        /* \"#utility.yul\":5386:5438   */\n      iszero\n      tag_392\n      jumpi\n        /* \"#utility.yul\":5434:5435   */\n      0x00\n        /* \"#utility.yul\":5431:5432   */\n      dup1\n        /* \"#utility.yul\":5424:5436   */\n      revert\n        /* \"#utility.yul\":5386:5438   */\n    tag_392:\n        /* \"#utility.yul\":5466:5475   */\n      dup2\n        /* \"#utility.yul\":5460:5476   */\n      mload\n        /* \"#utility.yul\":5485:5516   */\n      tag_315\n        /* \"#utility.yul\":5510:5515   */\n      dup2\n        /* \"#utility.yul\":5485:5516   */\n      tag_335\n      jump\t// in\n        /* \"#utility.yul\":6472:6778   */\n    tag_197:\n        /* \"#utility.yul\":6560:6566   */\n      0x00\n        /* \"#utility.yul\":6568:6574   */\n      dup1\n        /* \"#utility.yul\":6576:6582   */\n      0x00\n        /* \"#utility.yul\":6629:6631   */\n      0x60\n        /* \"#utility.yul\":6617:6626   */\n      dup5\n        /* \"#utility.yul\":6608:6615   */\n      dup7\n        /* \"#utility.yul\":6604:6627   */\n      sub\n        /* \"#utility.yul\":6600:6632   */\n      slt\n        /* \"#utility.yul\":6597:6649   */\n      iszero\n      tag_397\n      jumpi\n        /* \"#utility.yul\":6645:6646   */\n      0x00\n        /* \"#utility.yul\":6642:6643   */\n      dup1\n        /* \"#utility.yul\":6635:6647   */\n      revert\n        /* \"#utility.yul\":6597:6649   */\n    tag_397:\n        /* \"#utility.yul\":6674:6683   */\n      dup4\n        /* \"#utility.yul\":6668:6684   */\n      mload\n        /* \"#utility.yul\":6658:6684   */\n      swap3\n      pop\n        /* \"#utility.yul\":6724:6726   */\n      0x20\n        /* \"#utility.yul\":6713:6722   */\n      dup5\n        /* \"#utility.yul\":6709:6727   */\n      add\n        /* \"#utility.yul\":6703:6728   */\n      mload\n        /* \"#utility.yul\":6693:6728   */\n      swap2\n      pop\n        /* \"#utility.yul\":6768:6770   */\n      0x40\n        /* \"#utility.yul\":6757:6766   */\n      dup5\n        /* \"#utility.yul\":6753:6771   */\n      add\n        /* \"#utility.yul\":6747:6772   */\n      mload\n        /* \"#utility.yul\":6737:6772   */\n      swap1\n      pop\n        /* \"#utility.yul\":6472:6778   */\n      swap3\n      pop\n      swap3\n      pop\n      swap3\n      jump\t// out\n        /* \"#utility.yul\":7062:7339   */\n    tag_203:\n        /* \"#utility.yul\":7129:7135   */\n      0x00\n        /* \"#utility.yul\":7182:7184   */\n      0x20\n        /* \"#utility.yul\":7170:7179   */\n      dup3\n        /* \"#utility.yul\":7161:7168   */\n      dup5\n        /* \"#utility.yul\":7157:7180   */\n      sub\n        /* \"#utility.yul\":7153:7185   */\n      slt\n        /* \"#utility.yul\":7150:7202   */\n      iszero\n      tag_400\n      jumpi\n        /* \"#utility.yul\":7198:7199   */\n      0x00\n        /* \"#utility.yul\":7195:7196   */\n      dup1\n        /* \"#utility.yul\":7188:7200   */\n      revert\n        /* \"#utility.yul\":7150:7202   */\n    tag_400:\n        /* \"#utility.yul\":7230:7239   */\n      dup2\n        /* \"#utility.yul\":7224:7240   */\n      mload\n        /* \"#utility.yul\":7283:7288   */\n      dup1\n        /* \"#utility.yul\":7276:7289   */\n      iszero\n        /* \"#utility.yul\":7269:7290   */\n      iszero\n        /* \"#utility.yul\":7262:7267   */\n      dup2\n        /* \"#utility.yul\":7259:7291   */\n      eq\n        /* \"#utility.yul\":7249:7309   */\n      tag_315\n      jumpi\n        /* \"#utility.yul\":7305:7306   */\n      0x00\n        /* \"#utility.yul\":7302:7303   */\n      dup1\n        /* \"#utility.yul\":7295:7307   */\n      revert\n        /* \"#utility.yul\":10208:10333   */\n    tag_248:\n        /* \"#utility.yul\":10273:10282   */\n      dup1\n      dup3\n      add\n        /* \"#utility.yul\":10294:10304   */\n      dup1\n      dup3\n      gt\n        /* \"#utility.yul\":10291:10327   */\n      iszero\n      tag_114\n      jumpi\n        /* \"#utility.yul\":10307:10325   */\n      tag_114\n      tag_336\n      jump\t// in\n        /* \"#utility.yul\":10693:10828   */\n    tag_253:\n        /* \"#utility.yul\":10732:10735   */\n      0x00\n        /* \"#utility.yul\":10753:10770   */\n      0x01\n      dup3\n      add\n        /* \"#utility.yul\":10750:10793   */\n      tag_415\n      jumpi\n        /* \"#utility.yul\":10773:10791   */\n      tag_415\n      tag_336\n      jump\t// in\n    tag_415:\n      pop\n        /* \"#utility.yul\":10820:10821   */\n      0x01\n        /* \"#utility.yul\":10809:10822   */\n      add\n      swap1\n        /* \"#utility.yul\":10693:10828   */\n      jump\t// out\n        /* \"#utility.yul\":10833:10961   */\n    tag_286:\n        /* \"#utility.yul\":10900:10909   */\n      dup2\n      dup2\n      sub\n        /* \"#utility.yul\":10921:10932   */\n      dup2\n      dup2\n      gt\n        /* \"#utility.yul\":10918:10955   */\n      iszero\n      tag_114\n      jumpi\n        /* \"#utility.yul\":10935:10953   */\n      tag_114\n      tag_336\n      jump\t// in\n        /* \"#utility.yul\":11098:11225   */\n    tag_295:\n        /* \"#utility.yul\":11159:11169   */\n      0x4e487b71\n        /* \"#utility.yul\":11154:11157   */\n      0xe0\n        /* \"#utility.yul\":11150:11170   */\n      shl\n        /* \"#utility.yul\":11147:11148   */\n      0x00\n        /* \"#utility.yul\":11140:11171   */\n      mstore\n        /* \"#utility.yul\":11190:11194   */\n      0x32\n        /* \"#utility.yul\":11187:11188   */\n      0x04\n        /* \"#utility.yul\":11180:11195   */\n      mstore\n        /* \"#utility.yul\":11214:11218   */\n      0x24\n        /* \"#utility.yul\":11211:11212   */\n      0x00\n        /* \"#utility.yul\":11204:11219   */\n      revert\n        /* \"#utility.yul\":11230:12210   */\n    tag_303:\n        /* \"#utility.yul\":11492:11496   */\n      0x00\n        /* \"#utility.yul\":11540:11543   */\n      0xa0\n        /* \"#utility.yul\":11529:11538   */\n      dup3\n        /* \"#utility.yul\":11525:11544   */\n      add\n        /* \"#utility.yul\":11571:11577   */\n      dup8\n        /* \"#utility.yul\":11560:11569   */\n      dup4\n        /* \"#utility.yul\":11553:11578   */\n      mstore\n        /* \"#utility.yul\":11597:11599   */\n      0x20\n        /* \"#utility.yul\":11635:11641   */\n      dup8\n        /* \"#utility.yul\":11630:11632   */\n      0x20\n        /* \"#utility.yul\":11619:11628   */\n      dup6\n        /* \"#utility.yul\":11615:11633   */\n      add\n        /* \"#utility.yul\":11608:11642   */\n      mstore\n        /* \"#utility.yul\":11678:11681   */\n      0xa0\n        /* \"#utility.yul\":11673:11675   */\n      0x40\n        /* \"#utility.yul\":11662:11671   */\n      dup6\n        /* \"#utility.yul\":11658:11676   */\n      add\n        /* \"#utility.yul\":11651:11682   */\n      mstore\n        /* \"#utility.yul\":11702:11708   */\n      dup2\n        /* \"#utility.yul\":11737:11743   */\n      dup8\n        /* \"#utility.yul\":11731:11744   */\n      mload\n        /* \"#utility.yul\":11768:11774   */\n      dup1\n        /* \"#utility.yul\":11760:11766   */\n      dup5\n        /* \"#utility.yul\":11753:11775   */\n      mstore\n        /* \"#utility.yul\":11806:11809   */\n      0xc0\n        /* \"#utility.yul\":11795:11804   */\n      dup7\n        /* \"#utility.yul\":11791:11810   */\n      add\n        /* \"#utility.yul\":11784:11810   */\n      swap2\n      pop\n        /* \"#utility.yul\":11845:11847   */\n      0x20\n        /* \"#utility.yul\":11837:11843   */\n      dup10\n        /* \"#utility.yul\":11833:11848   */\n      add\n        /* \"#utility.yul\":11819:11848   */\n      swap4\n      pop\n        /* \"#utility.yul\":11866:11867   */\n      0x00\n        /* \"#utility.yul\":11876:12071   */\n    tag_422:\n        /* \"#utility.yul\":11890:11896   */\n      dup2\n        /* \"#utility.yul\":11887:11888   */\n      dup2\n        /* \"#utility.yul\":11884:11897   */\n      lt\n        /* \"#utility.yul\":11876:12071   */\n      iszero\n      tag_424\n      jumpi\n        /* \"#utility.yul\":11955:11968   */\n      dup5\n      mload\n      sub(shl(0xa0, 0x01), 0x01)\n        /* \"#utility.yul\":11951:11990   */\n      and\n        /* \"#utility.yul\":11939:11991   */\n      dup4\n      mstore\n        /* \"#utility.yul\":12046:12061   */\n      swap4\n      dup4\n      add\n      swap4\n        /* \"#utility.yul\":12011:12023   */\n      swap2\n      dup4\n      add\n      swap2\n        /* \"#utility.yul\":11987:11988   */\n      0x01\n        /* \"#utility.yul\":11905:11914   */\n      add\n        /* \"#utility.yul\":11876:12071   */\n      jump(tag_422)\n    tag_424:\n      pop\n      pop\n      sub(shl(0xa0, 0x01), 0x01)\n        /* \"#utility.yul\":12127:12159   */\n      swap7\n      swap1\n      swap7\n      and\n        /* \"#utility.yul\":12122:12124   */\n      0x60\n        /* \"#utility.yul\":12107:12125   */\n      dup6\n      add\n        /* \"#utility.yul\":12100:12160   */\n      mstore\n      pop\n      pop\n      pop\n        /* \"#utility.yul\":12191:12194   */\n      0x80\n        /* \"#utility.yul\":12176:12195   */\n      add\n        /* \"#utility.yul\":12169:12204   */\n      mstore\n        /* \"#utility.yul\":12088:12091   */\n      swap4\n        /* \"#utility.yul\":11230:12210   */\n      swap3\n      pop\n      pop\n      pop\n      jump\t// out\n        /* \"#utility.yul\":12215:12432   */\n    tag_314:\n        /* \"#utility.yul\":12255:12256   */\n      0x00\n        /* \"#utility.yul\":12281:12282   */\n      dup3\n        /* \"#utility.yul\":12271:12403   */\n      tag_426\n      jumpi\n        /* \"#utility.yul\":12325:12335   */\n      0x4e487b71\n        /* \"#utility.yul\":12320:12323   */\n      0xe0\n        /* \"#utility.yul\":12316:12336   */\n      shl\n        /* \"#utility.yul\":12313:12314   */\n      0x00\n        /* \"#utility.yul\":12306:12337   */\n      mstore\n        /* \"#utility.yul\":12360:12364   */\n      0x12\n        /* \"#utility.yul\":12357:12358   */\n      0x04\n        /* \"#utility.yul\":12350:12365   */\n      mstore\n        /* \"#utility.yul\":12388:12392   */\n      0x24\n        /* \"#utility.yul\":12385:12386   */\n      0x00\n        /* \"#utility.yul\":12378:12393   */\n      revert\n        /* \"#utility.yul\":12271:12403   */\n    tag_426:\n      pop\n        /* \"#utility.yul\":12417:12426   */\n      div\n      swap1\n        /* \"#utility.yul\":12215:12432   */\n      jump\t// out\n    stop\n    data_974d1b4421da69cc60b481194f0dad36a5bb4e23da810da7a7fb30cdba178330 45524332303a207472616e7366657220616d6f756e74206578636565647320616c6c6f77616e6365\n\n    auxdata: 0xa264697066735822122042d92f35c1d23174612ae348e092ce1810fd677c97c0768f24d065aee5d0a5b964736f6c63430008170033\n}\n",
				"bytecode": {
					"linkReferences": {},
					"object": "60806040526006805460ff19166001179055601460078190556008555f6009818155600a8281556005600b819055600c819055600d55600e92909255620000469162000341565b6200005590620249f062000358565b600f55620000666009600a62000341565b6200007590620249f062000358565b601055620000866009600a62000341565b6200009590620124f862000358565b601155620000a66009600a62000341565b620000b590620249f062000358565b6012556014805461ffff60a81b19169055348015620000d2575f80fd5b505f80546001600160a01b031916339081178255604051909182917f8be0079c531659141344cd1fd0a4f28419497f9722a3daafe3b4186f6b6457e0908290a35060068054610100600160a81b0319166101003302179055620001386009600a62000341565b62000147906298968062000358565b335f908152600160208190526040822092909255600390620001705f546001600160a01b031690565b6001600160a01b03908116825260208083019390935260409182015f908120805495151560ff1996871617905530815260039093528183208054851660019081179091556006546101009004909116835291208054909216179055620001d33390565b6001600160a01b03165f7fddf252ad1be2c89b69c2b068fc378daa952ba7f163c4a11628f55a4df523b3ef6200020c6009600a62000341565b6200021b906298968062000358565b60405190815260200160405180910390a362000372565b634e487b7160e01b5f52601160045260245ffd5b600181815b808511156200028657815f19048211156200026a576200026a62000232565b808516156200027857918102915b93841c93908002906200024b565b509250929050565b5f826200029e575060016200033b565b81620002ac57505f6200033b565b8160018114620002c55760028114620002d057620002f0565b60019150506200033b565b60ff841115620002e457620002e462000232565b50506001821b6200033b565b5060208310610133831016604e8410600b841016171562000315575081810a6200033b565b62000321838362000246565b805f190482111562000337576200033762000232565b0290505b92915050565b5f6200035160ff8416836200028e565b9392505050565b80820281158282048414176200033b576200033b62000232565b6117fa80620003805f395ff3fe608060405260043610610113575f3560e01c8063751039fc1161009d578063a9059cbb11610062578063a9059cbb146102ee578063bf474bed1461030d578063c876d0b914610322578063c9567bf91461033b578063dd62ed3e1461034f575f80fd5b8063751039fc1461025f5780637d1db4a5146102735780638da5cb5b146102885780638f9a55c0146102ae57806395d89b41146102c3575f80fd5b806323b872dd116100e357806323b872dd146101c7578063313ce567146101e657806351bc3c851461020157806370a0823114610217578063715018a61461024b575f80fd5b806306fdde031461011e578063095ea7b3146101615780630faee56f1461019057806318160ddd146101b3575f80fd5b3661011a57005b5f80fd5b348015610129575f80fd5b506040805180820190915260098152682c2cad102a37b5b2b760b91b60208201525b60405161015891906113ea565b60405180910390f35b34801561016c575f80fd5b5061018061017b36600461144d565b610393565b6040519015158152602001610158565b34801561019b575f80fd5b506101a560125481565b604051908152602001610158565b3480156101be575f80fd5b506101a56103a9565b3480156101d2575f80fd5b506101806101e1366004611477565b6103c8565b3480156101f1575f80fd5b5060405160098152602001610158565b34801561020c575f80fd5b5061021561042f565b005b348015610222575f80fd5b506101a56102313660046114b5565b6001600160a01b03165f9081526001602052604090205490565b348015610256575f80fd5b50610215610485565b34801561026a575f80fd5b506102156104ff565b34801561027e575f80fd5b506101a5600f5481565b348015610293575f80fd5b505f546040516001600160a01b039091168152602001610158565b3480156102b9575f80fd5b506101a560105481565b3480156102ce575f80fd5b506040805180820190915260038152622c2cad60e91b602082015261014b565b3480156102f9575f80fd5b5061018061030836600461144d565b6105b7565b348015610318575f80fd5b506101a560115481565b34801561032d575f80fd5b506006546101809060ff1681565b348015610346575f80fd5b506102156105c3565b34801561035a575f80fd5b506101a56103693660046114d0565b6001600160a01b039182165f90815260026020908152604080832093909416825291909152205490565b5f61039f33848461096b565b5060015b92915050565b5f6103b66009600a6115fb565b6103c39062989680611609565b905090565b5f6103d4848484610a8e565b61042584336104208560405180606001604052806028815260200161179d602891396001600160a01b038a165f9081526002602090815260408083203384529091529020549190611062565b61096b565b5060019392505050565b60065461010090046001600160a01b0316336001600160a01b031614610453575f80fd5b305f908152600160205260409020548015610471576104718161109a565b478015610481576104818161120a565b5050565b5f546001600160a01b031633146104b75760405162461bcd60e51b81526004016104ae90611620565b60405180910390fd5b5f80546040516001600160a01b03909116907f8be0079c531659141344cd1fd0a4f28419497f9722a3daafe3b4186f6b6457e0908390a35f80546001600160a01b0319169055565b5f546001600160a01b031633146105285760405162461bcd60e51b81526004016104ae90611620565b6105346009600a6115fb565b6105419062989680611609565b600f556105506009600a6115fb565b61055d9062989680611609565b6010556006805460ff191690557f947f344d56e1e8c70dc492fb94c4ddddd490c016aab685f5e7e47b2e85cb44cf6105976009600a6115fb565b6105a49062989680611609565b60405190815260200160405180910390a1565b5f61039f338484610a8e565b5f546001600160a01b031633146105ec5760405162461bcd60e51b81526004016104ae90611620565b601454600160a01b900460ff16156106465760405162461bcd60e51b815260206004820152601760248201527f74726164696e6720697320616c7265616479206f70656e00000000000000000060448201526064016104ae565b601380546001600160a01b031916737a250d5630b4cf539739df2c5dacb4c659f2488d90811790915561068e9030906106816009600a6115fb565b6104209062989680611609565b60135f9054906101000a90046001600160a01b03166001600160a01b031663c45a01556040518163ffffffff1660e01b8152600401602060405180830381865afa1580156106de573d5f803e3d5ffd5b505050506040513d601f19601f820116820180604052508101906107029190611655565b6001600160a01b031663c9c653963060135f9054906101000a90046001600160a01b03166001600160a01b031663ad5c46486040518163ffffffff1660e01b8152600401602060405180830381865afa158015610761573d5f803e3d5ffd5b505050506040513d601f19601f820116820180604052508101906107859190611655565b6040516001600160e01b031960e085901b1681526001600160a01b039283166004820152911660248201526044016020604051808303815f875af11580156107cf573d5f803e3d5ffd5b505050506040513d601f19601f820116820180604052508101906107f39190611655565b601480546001600160a01b039283166001600160a01b03199091161790556013541663f305d719473061083a816001600160a01b03165f9081526001602052604090205490565b5f8061084d5f546001600160a01b031690565b60405160e088901b6001600160e01b03191681526001600160a01b03958616600482015260248101949094526044840192909252606483015290911660848201524260a482015260c40160606040518083038185885af11580156108b3573d5f803e3d5ffd5b50505050506040513d601f19601f820116820180604052508101906108d89190611670565b505060145460135460405163095ea7b360e01b81526001600160a01b0391821660048201525f1960248201529116915063095ea7b3906044016020604051808303815f875af115801561092d573d5f803e3d5ffd5b505050506040513d601f19601f82011682018060405250810190610951919061169b565b506014805462ff00ff60a01b19166201000160a01b179055565b6001600160a01b0383166109cd5760405162461bcd60e51b8152602060048201526024808201527f45524332303a20617070726f76652066726f6d20746865207a65726f206164646044820152637265737360e01b60648201526084016104ae565b6001600160a01b038216610a2e5760405162461bcd60e51b815260206004820152602260248201527f45524332303a20617070726f766520746f20746865207a65726f206164647265604482015261737360f01b60648201526084016104ae565b6001600160a01b038381165f8181526002602090815260408083209487168084529482529182902085905590518481527f8c5be1e5ebec7d5bd14f71427d1e84f3dd0314c0f7b2291e5b200ac8c7c3b925910160405180910390a3505050565b6001600160a01b038316610af25760405162461bcd60e51b815260206004820152602560248201527f45524332303a207472616e736665722066726f6d20746865207a65726f206164604482015264647265737360d81b60648201526084016104ae565b6001600160a01b038216610b545760405162461bcd60e51b815260206004820152602360248201527f45524332303a207472616e7366657220746f20746865207a65726f206164647260448201526265737360e81b60648201526084016104ae565b5f8111610bb55760405162461bcd60e51b815260206004820152602960248201527f5472616e7366657220616d6f756e74206d7573742062652067726561746572206044820152687468616e207a65726f60b81b60648201526084016104ae565b5f80546001600160a01b03858116911614801590610be057505f546001600160a01b03848116911614155b15610f2557610c116064610c0b600b54600e5411610c0057600754610c04565b6009545b8590611245565b906112ca565b60065490915060ff1615610cf7576013546001600160a01b03848116911614801590610c4b57506014546001600160a01b03848116911614155b15610cf757325f908152600560205260409020544311610ce55760405162461bcd60e51b815260206004820152604960248201527f5f7472616e736665723a3a205472616e736665722044656c617920656e61626c60448201527f65642e20204f6e6c79206f6e652070757263686173652070657220626c6f636b6064820152681030b63637bbb2b21760b91b608482015260a4016104ae565b325f9081526005602052604090204390555b6014546001600160a01b038581169116148015610d2257506013546001600160a01b03848116911614155b8015610d4657506001600160a01b0383165f9081526003602052604090205460ff16155b15610e2c57600f54821115610d9d5760405162461bcd60e51b815260206004820152601960248201527f4578636565647320746865205f6d61785478416d6f756e742e0000000000000060448201526064016104ae565b60105482610dbf856001600160a01b03165f9081526001602052604090205490565b610dc991906116ba565b1115610e175760405162461bcd60e51b815260206004820152601a60248201527f4578636565647320746865206d617857616c6c657453697a652e00000000000060448201526064016104ae565b600e8054905f610e26836116cd565b91905055505b6014546001600160a01b038481169116148015610e5257506001600160a01b0384163014155b15610e7f57610e7c6064610c0b600c54600e5411610e7257600854610c04565b600a548590611245565b90505b305f90815260016020526040902054601454600160a81b900460ff16158015610eb557506014546001600160a01b038581169116145b8015610eca5750601454600160b01b900460ff165b8015610ed7575060115481115b8015610ee65750600d54600e54115b15610f2357610f08610f0384610efe8460125461130b565b61130b565b61109a565b4766b1a2bc2ec50000811115610f2157610f214761120a565b505b505b8015610f9d57305f90815260016020526040902054610f44908261131f565b305f81815260016020526040908190209290925590516001600160a01b038616907fddf252ad1be2c89b69c2b068fc378daa952ba7f163c4a11628f55a4df523b3ef90610f949085815260200190565b60405180910390a35b6001600160a01b0384165f90815260016020526040902054610fbf908361137d565b6001600160a01b0385165f90815260016020526040902055611002610fe4838361137d565b6001600160a01b0385165f908152600160205260409020549061131f565b6001600160a01b038085165f8181526001602052604090209290925585167fddf252ad1be2c89b69c2b068fc378daa952ba7f163c4a11628f55a4df523b3ef61104b858561137d565b60405190815260200160405180910390a350505050565b5f81848411156110855760405162461bcd60e51b81526004016104ae91906113ea565b505f61109184866116e5565b95945050505050565b6014805460ff60a81b1916600160a81b1790556040805160028082526060820183525f9260208301908036833701905050905030815f815181106110e0576110e06116f8565b6001600160a01b03928316602091820292909201810191909152601354604080516315ab88c960e31b81529051919093169263ad5c46489260048083019391928290030181865afa158015611137573d5f803e3d5ffd5b505050506040513d601f19601f8201168201806040525081019061115b9190611655565b8160018151811061116e5761116e6116f8565b6001600160a01b039283166020918202929092010152601354611194913091168461096b565b60135460405163791ac94760e01b81526001600160a01b039091169063791ac947906111cc9085905f9086903090429060040161170c565b5f604051808303815f87803b1580156111e3575f80fd5b505af11580156111f5573d5f803e3d5ffd5b50506014805460ff60a81b1916905550505050565b6006546040516101009091046001600160a01b0316906108fc8315029083905f818181858888f19350505050158015610481573d5f803e3d5ffd5b5f825f0361125457505f6103a3565b5f61125f8385611609565b90508261126c858361177d565b146112c35760405162461bcd60e51b815260206004820152602160248201527f536166654d6174683a206d756c7469706c69636174696f6e206f766572666c6f6044820152607760f81b60648201526084016104ae565b9392505050565b5f6112c383836040518060400160405280601a81526020017f536166654d6174683a206469766973696f6e206279207a65726f0000000000008152506113be565b5f81831161131957826112c3565b50919050565b5f8061132b83856116ba565b9050838110156112c35760405162461bcd60e51b815260206004820152601b60248201527f536166654d6174683a206164646974696f6e206f766572666c6f77000000000060448201526064016104ae565b5f6112c383836040518060400160405280601e81526020017f536166654d6174683a207375627472616374696f6e206f766572666c6f770000815250611062565b5f81836113de5760405162461bcd60e51b81526004016104ae91906113ea565b505f611091848661177d565b5f602080835283518060208501525f5b81811015611416578581018301518582016040015282016113fa565b505f604082860101526040601f19601f8301168501019250505092915050565b6001600160a01b038116811461144a575f80fd5b50565b5f806040838503121561145e575f80fd5b823561146981611436565b946020939093013593505050565b5f805f60608486031215611489575f80fd5b833561149481611436565b925060208401356114a481611436565b929592945050506040919091013590565b5f602082840312156114c5575f80fd5b81356112c381611436565b5f80604083850312156114e1575f80fd5b82356114ec81611436565b915060208301356114fc81611436565b809150509250929050565b634e487b7160e01b5f52601160045260245ffd5b600181815b8085111561155557815f190482111561153b5761153b611507565b8085161561154857918102915b93841c9390800290611520565b509250929050565b5f8261156b575060016103a3565b8161157757505f6103a3565b816001811461158d5760028114611597576115b3565b60019150506103a3565b60ff8411156115a8576115a8611507565b50506001821b6103a3565b5060208310610133831016604e8410600b84101617156115d6575081810a6103a3565b6115e0838361151b565b805f19048211156115f3576115f3611507565b029392505050565b5f6112c360ff84168361155d565b80820281158282048414176103a3576103a3611507565b6020808252818101527f4f776e61626c653a2063616c6c6572206973206e6f7420746865206f776e6572604082015260600190565b5f60208284031215611665575f80fd5b81516112c381611436565b5f805f60608486031215611682575f80fd5b8351925060208401519150604084015190509250925092565b5f602082840312156116ab575f80fd5b815180151581146112c3575f80fd5b808201808211156103a3576103a3611507565b5f600182016116de576116de611507565b5060010190565b818103818111156103a3576103a3611507565b634e487b7160e01b5f52603260045260245ffd5b5f60a08201878352602087602085015260a0604085015281875180845260c0860191506020890193505f5b8181101561175c5784516001600160a01b031683529383019391830191600101611737565b50506001600160a01b03969096166060850152505050608001529392505050565b5f8261179757634e487b7160e01b5f52601260045260245ffd5b50049056fe45524332303a207472616e7366657220616d6f756e74206578636565647320616c6c6f77616e6365a264697066735822122042d92f35c1d23174612ae348e092ce1810fd677c97c0768f24d065aee5d0a5b964736f6c63430008170033",
					"opcodes": "PUSH1 0x80 PUSH1 0x40 MSTORE PUSH1 0x6 DUP1 SLOAD PUSH1 0xFF NOT AND PUSH1 0x1 OR SWAP1 SSTORE PUSH1 0x14 PUSH1 0x7 DUP2 SWAP1 SSTORE PUSH1 0x8 SSTORE PUSH0 PUSH1 0x9 DUP2 DUP2 SSTORE PUSH1 0xA DUP3 DUP2 SSTORE PUSH1 0x5 PUSH1 0xB DUP2 SWAP1 SSTORE PUSH1 0xC DUP2 SWAP1 SSTORE PUSH1 0xD SSTORE PUSH1 0xE SWAP3 SWAP1 SWAP3 SSTORE PUSH3 0x46 SWAP2 PUSH3 0x341 JUMP JUMPDEST PUSH3 0x55 SWAP1 PUSH3 0x249F0 PUSH3 0x358 JUMP JUMPDEST PUSH1 0xF SSTORE PUSH3 0x66 PUSH1 0x9 PUSH1 0xA PUSH3 0x341 JUMP JUMPDEST PUSH3 0x75 SWAP1 PUSH3 0x249F0 PUSH3 0x358 JUMP JUMPDEST PUSH1 0x10 SSTORE PUSH3 0x86 PUSH1 0x9 PUSH1 0xA PUSH3 0x341 JUMP JUMPDEST PUSH3 0x95 SWAP1 PUSH3 0x124F8 PUSH3 0x358 JUMP JUMPDEST PUSH1 0x11 SSTORE PUSH3 0xA6 PUSH1 0x9 PUSH1 0xA PUSH3 0x341 JUMP JUMPDEST PUSH3 0xB5 SWAP1 PUSH3 0x249F0 PUSH3 0x358 JUMP JUMPDEST PUSH1 0x12 SSTORE PUSH1 0x14 DUP1 SLOAD PUSH2 0xFFFF PUSH1 0xA8 SHL NOT AND SWAP1 SSTORE CALLVALUE DUP1 ISZERO PUSH3 0xD2 JUMPI PUSH0 DUP1 REVERT JUMPDEST POP PUSH0 DUP1 SLOAD PUSH1 0x1 PUSH1 0x1 PUSH1 0xA0 SHL SUB NOT AND CALLER SWAP1 DUP2 OR DUP3 SSTORE PUSH1 0x40 MLOAD SWAP1 SWAP2 DUP3 SWAP2 PUSH32 0x8BE0079C531659141344CD1FD0A4F28419497F9722A3DAAFE3B4186F6B6457E0 SWAP1 DUP3 SWAP1 LOG3 POP PUSH1 0x6 DUP1 SLOAD PUSH2 0x100 PUSH1 0x1 PUSH1 0xA8 SHL SUB NOT AND PUSH2 0x100 CALLER MUL OR SWAP1 SSTORE PUSH3 0x138 PUSH1 0x9 PUSH1 0xA PUSH3 0x341 JUMP JUMPDEST PUSH3 0x147 SWAP1 PUSH3 0x989680 PUSH3 0x358 JUMP JUMPDEST CALLER PUSH0 SWAP1 DUP2 MSTORE PUSH1 0x1 PUSH1 0x20 DUP2 SWAP1 MSTORE PUSH1 0x40 DUP3 KECCAK256 SWAP3 SWAP1 SWAP3 SSTORE PUSH1 0x3 SWAP1 PUSH3 0x170 PUSH0 SLOAD PUSH1 0x1 PUSH1 0x1 PUSH1 0xA0 SHL SUB AND SWAP1 JUMP JUMPDEST PUSH1 0x1 PUSH1 0x1 PUSH1 0xA0 SHL SUB SWAP1 DUP2 AND DUP3 MSTORE PUSH1 0x20 DUP1 DUP4 ADD SWAP4 SWAP1 SWAP4 MSTORE PUSH1 0x40 SWAP2 DUP3 ADD PUSH0 SWAP1 DUP2 KECCAK256 DUP1 SLOAD SWAP6 ISZERO ISZERO PUSH1 0xFF NOT SWAP7 DUP8 AND OR SWAP1 SSTORE ADDRESS DUP2 MSTORE PUSH1 0x3 SWAP1 SWAP4 MSTORE DUP2 DUP4 KECCAK256 DUP1 SLOAD DUP6 AND PUSH1 0x1 SWAP1 DUP2 OR SWAP1 SWAP2 SSTORE PUSH1 0x6 SLOAD PUSH2 0x100 SWAP1 DIV SWAP1 SWAP2 AND DUP4 MSTORE SWAP2 KECCAK256 DUP1 SLOAD SWAP1 SWAP3 AND OR SWAP1 SSTORE PUSH3 0x1D3 CALLER SWAP1 JUMP JUMPDEST PUSH1 0x1 PUSH1 0x1 PUSH1 0xA0 SHL SUB AND PUSH0 PUSH32 0xDDF252AD1BE2C89B69C2B068FC378DAA952BA7F163C4A11628F55A4DF523B3EF PUSH3 0x20C PUSH1 0x9 PUSH1 0xA PUSH3 0x341 JUMP JUMPDEST PUSH3 0x21B SWAP1 PUSH3 0x989680 PUSH3 0x358 JUMP JUMPDEST PUSH1 0x40 MLOAD SWAP1 DUP2 MSTORE PUSH1 0x20 ADD PUSH1 0x40 MLOAD DUP1 SWAP2 SUB SWAP1 LOG3 PUSH3 0x372 JUMP JUMPDEST PUSH4 0x4E487B71 PUSH1 0xE0 SHL PUSH0 MSTORE PUSH1 0x11 PUSH1 0x4 MSTORE PUSH1 0x24 PUSH0 REVERT JUMPDEST PUSH1 0x1 DUP2 DUP2 JUMPDEST DUP1 DUP6 GT ISZERO PUSH3 0x286 JUMPI DUP2 PUSH0 NOT DIV DUP3 GT ISZERO PUSH3 0x26A JUMPI PUSH3 0x26A PUSH3 0x232 JUMP JUMPDEST DUP1 DUP6 AND ISZERO PUSH3 0x278 JUMPI SWAP2 DUP2 MUL SWAP2 JUMPDEST SWAP4 DUP5 SHR SWAP4 SWAP1 DUP1 MUL SWAP1 PUSH3 0x24B JUMP JUMPDEST POP SWAP3 POP SWAP3 SWAP1 POP JUMP JUMPDEST PUSH0 DUP3 PUSH3 0x29E JUMPI POP PUSH1 0x1 PUSH3 0x33B JUMP JUMPDEST DUP2 PUSH3 0x2AC JUMPI POP PUSH0 PUSH3 0x33B JUMP JUMPDEST DUP2 PUSH1 0x1 DUP2 EQ PUSH3 0x2C5 JUMPI PUSH1 0x2 DUP2 EQ PUSH3 0x2D0 JUMPI PUSH3 0x2F0 JUMP JUMPDEST PUSH1 0x1 SWAP2 POP POP PUSH3 0x33B JUMP JUMPDEST PUSH1 0xFF DUP5 GT ISZERO PUSH3 0x2E4 JUMPI PUSH3 0x2E4 PUSH3 0x232 JUMP JUMPDEST POP POP PUSH1 0x1 DUP3 SHL PUSH3 0x33B JUMP JUMPDEST POP PUSH1 0x20 DUP4 LT PUSH2 0x133 DUP4 LT AND PUSH1 0x4E DUP5 LT PUSH1 0xB DUP5 LT AND OR ISZERO PUSH3 0x315 JUMPI POP DUP2 DUP2 EXP PUSH3 0x33B JUMP JUMPDEST PUSH3 0x321 DUP4 DUP4 PUSH3 0x246 JUMP JUMPDEST DUP1 PUSH0 NOT DIV DUP3 GT ISZERO PUSH3 0x337 JUMPI PUSH3 0x337 PUSH3 0x232 JUMP JUMPDEST MUL SWAP1 POP JUMPDEST SWAP3 SWAP2 POP POP JUMP JUMPDEST PUSH0 PUSH3 0x351 PUSH1 0xFF DUP5 AND DUP4 PUSH3 0x28E JUMP JUMPDEST SWAP4 SWAP3 POP POP POP JUMP JUMPDEST DUP1 DUP3 MUL DUP2 ISZERO DUP3 DUP3 DIV DUP5 EQ OR PUSH3 0x33B JUMPI PUSH3 0x33B PUSH3 0x232 JUMP JUMPDEST PUSH2 0x17FA DUP1 PUSH3 0x380 PUSH0 CODECOPY PUSH0 RETURN INVALID PUSH1 0x80 PUSH1 0x40 MSTORE PUSH1 0x4 CALLDATASIZE LT PUSH2 0x113 JUMPI PUSH0 CALLDATALOAD PUSH1 0xE0 SHR DUP1 PUSH4 0x751039FC GT PUSH2 0x9D JUMPI DUP1 PUSH4 0xA9059CBB GT PUSH2 0x62 JUMPI DUP1 PUSH4 0xA9059CBB EQ PUSH2 0x2EE JUMPI DUP1 PUSH4 0xBF474BED EQ PUSH2 0x30D JUMPI DUP1 PUSH4 0xC876D0B9 EQ PUSH2 0x322 JUMPI DUP1 PUSH4 0xC9567BF9 EQ PUSH2 0x33B JUMPI DUP1 PUSH4 0xDD62ED3E EQ PUSH2 0x34F JUMPI PUSH0 DUP1 REVERT JUMPDEST DUP1 PUSH4 0x751039FC EQ PUSH2 0x25F JUMPI DUP1 PUSH4 0x7D1DB4A5 EQ PUSH2 0x273 JUMPI DUP1 PUSH4 0x8DA5CB5B EQ PUSH2 0x288 JUMPI DUP1 PUSH4 0x8F9A55C0 EQ PUSH2 0x2AE JUMPI DUP1 PUSH4 0x95D89B41 EQ PUSH2 0x2C3 JUMPI PUSH0 DUP1 REVERT JUMPDEST DUP1 PUSH4 0x23B872DD GT PUSH2 0xE3 JUMPI DUP1 PUSH4 0x23B872DD EQ PUSH2 0x1C7 JUMPI DUP1 PUSH4 0x313CE567 EQ PUSH2 0x1E6 JUMPI DUP1 PUSH4 0x51BC3C85 EQ PUSH2 0x201 JUMPI DUP1 PUSH4 0x70A08231 EQ PUSH2 0x217 JUMPI DUP1 PUSH4 0x715018A6 EQ PUSH2 0x24B JUMPI PUSH0 DUP1 REVERT JUMPDEST DUP1 PUSH4 0x6FDDE03 EQ PUSH2 0x11E JUMPI DUP1 PUSH4 0x95EA7B3 EQ PUSH2 0x161 JUMPI DUP1 PUSH4 0xFAEE56F EQ PUSH2 0x190 JUMPI DUP1 PUSH4 0x18160DDD EQ PUSH2 0x1B3 JUMPI PUSH0 DUP1 REVERT JUMPDEST CALLDATASIZE PUSH2 0x11A JUMPI STOP JUMPDEST PUSH0 DUP1 REVERT JUMPDEST CALLVALUE DUP1 ISZERO PUSH2 0x129 JUMPI PUSH0 DUP1 REVERT JUMPDEST POP PUSH1 0x40 DUP1 MLOAD DUP1 DUP3 ADD SWAP1 SWAP2 MSTORE PUSH1 0x9 DUP2 MSTORE PUSH9 0x2C2CAD102A37B5B2B7 PUSH1 0xB9 SHL PUSH1 0x20 DUP3 ADD MSTORE JUMPDEST PUSH1 0x40 MLOAD PUSH2 0x158 SWAP2 SWAP1 PUSH2 0x13EA JUMP JUMPDEST PUSH1 0x40 MLOAD DUP1 SWAP2 SUB SWAP1 RETURN JUMPDEST CALLVALUE DUP1 ISZERO PUSH2 0x16C JUMPI PUSH0 DUP1 REVERT JUMPDEST POP PUSH2 0x180 PUSH2 0x17B CALLDATASIZE PUSH1 0x4 PUSH2 0x144D JUMP JUMPDEST PUSH2 0x393 JUMP JUMPDEST PUSH1 0x40 MLOAD SWAP1 ISZERO ISZERO DUP2 MSTORE PUSH1 0x20 ADD PUSH2 0x158 JUMP JUMPDEST CALLVALUE DUP1 ISZERO PUSH2 0x19B JUMPI PUSH0 DUP1 REVERT JUMPDEST POP PUSH2 0x1A5 PUSH1 0x12 SLOAD DUP2 JUMP JUMPDEST PUSH1 0x40 MLOAD SWAP1 DUP2 MSTORE PUSH1 0x20 ADD PUSH2 0x158 JUMP JUMPDEST CALLVALUE DUP1 ISZERO PUSH2 0x1BE JUMPI PUSH0 DUP1 REVERT JUMPDEST POP PUSH2 0x1A5 PUSH2 0x3A9 JUMP JUMPDEST CALLVALUE DUP1 ISZERO PUSH2 0x1D2 JUMPI PUSH0 DUP1 REVERT JUMPDEST POP PUSH2 0x180 PUSH2 0x1E1 CALLDATASIZE PUSH1 0x4 PUSH2 0x1477 JUMP JUMPDEST PUSH2 0x3C8 JUMP JUMPDEST CALLVALUE DUP1 ISZERO PUSH2 0x1F1 JUMPI PUSH0 DUP1 REVERT JUMPDEST POP PUSH1 0x40 MLOAD PUSH1 0x9 DUP2 MSTORE PUSH1 0x20 ADD PUSH2 0x158 JUMP JUMPDEST CALLVALUE DUP1 ISZERO PUSH2 0x20C JUMPI PUSH0 DUP1 REVERT JUMPDEST POP PUSH2 0x215 PUSH2 0x42F JUMP JUMPDEST STOP JUMPDEST CALLVALUE DUP1 ISZERO PUSH2 0x222 JUMPI PUSH0 DUP1 REVERT JUMPDEST POP PUSH2 0x1A5 PUSH2 0x231 CALLDATASIZE PUSH1 0x4 PUSH2 0x14B5 JUMP JUMPDEST PUSH1 0x1 PUSH1 0x1 PUSH1 0xA0 SHL SUB AND PUSH0 SWAP1 DUP2 MSTORE PUSH1 0x1 PUSH1 0x20 MSTORE PUSH1 0x40 SWAP1 KECCAK256 SLOAD SWAP1 JUMP JUMPDEST CALLVALUE DUP1 ISZERO PUSH2 0x256 JUMPI PUSH0 DUP1 REVERT JUMPDEST POP PUSH2 0x215 PUSH2 0x485 JUMP JUMPDEST CALLVALUE DUP1 ISZERO PUSH2 0x26A JUMPI PUSH0 DUP1 REVERT JUMPDEST POP PUSH2 0x215 PUSH2 0x4FF JUMP JUMPDEST CALLVALUE DUP1 ISZERO PUSH2 0x27E JUMPI PUSH0 DUP1 REVERT JUMPDEST POP PUSH2 0x1A5 PUSH1 0xF SLOAD DUP2 JUMP JUMPDEST CALLVALUE DUP1 ISZERO PUSH2 0x293 JUMPI PUSH0 DUP1 REVERT JUMPDEST POP PUSH0 SLOAD PUSH1 0x40 MLOAD PUSH1 0x1 PUSH1 0x1 PUSH1 0xA0 SHL SUB SWAP1 SWAP2 AND DUP2 MSTORE PUSH1 0x20 ADD PUSH2 0x158 JUMP JUMPDEST CALLVALUE DUP1 ISZERO PUSH2 0x2B9 JUMPI PUSH0 DUP1 REVERT JUMPDEST POP PUSH2 0x1A5 PUSH1 0x10 SLOAD DUP2 JUMP JUMPDEST CALLVALUE DUP1 ISZERO PUSH2 0x2CE JUMPI PUSH0 DUP1 REVERT JUMPDEST POP PUSH1 0x40 DUP1 MLOAD DUP1 DUP3 ADD SWAP1 SWAP2 MSTORE PUSH1 0x3 DUP2 MSTORE PUSH3 0x2C2CAD PUSH1 0xE9 SHL PUSH1 0x20 DUP3 ADD MSTORE PUSH2 0x14B JUMP JUMPDEST CALLVALUE DUP1 ISZERO PUSH2 0x2F9 JUMPI PUSH0 DUP1 REVERT JUMPDEST POP PUSH2 0x180 PUSH2 0x308 CALLDATASIZE PUSH1 0x4 PUSH2 0x144D JUMP JUMPDEST PUSH2 0x5B7 JUMP JUMPDEST CALLVALUE DUP1 ISZERO PUSH2 0x318 JUMPI PUSH0 DUP1 REVERT JUMPDEST POP PUSH2 0x1A5 PUSH1 0x11 SLOAD DUP2 JUMP JUMPDEST CALLVALUE DUP1 ISZERO PUSH2 0x32D JUMPI PUSH0 DUP1 REVERT JUMPDEST POP PUSH1 0x6 SLOAD PUSH2 0x180 SWAP1 PUSH1 0xFF AND DUP2 JUMP JUMPDEST CALLVALUE DUP1 ISZERO PUSH2 0x346 JUMPI PUSH0 DUP1 REVERT JUMPDEST POP PUSH2 0x215 PUSH2 0x5C3 JUMP JUMPDEST CALLVALUE DUP1 ISZERO PUSH2 0x35A JUMPI PUSH0 DUP1 REVERT JUMPDEST POP PUSH2 0x1A5 PUSH2 0x369 CALLDATASIZE PUSH1 0x4 PUSH2 0x14D0 JUMP JUMPDEST PUSH1 0x1 PUSH1 0x1 PUSH1 0xA0 SHL SUB SWAP2 DUP3 AND PUSH0 SWAP1 DUP2 MSTORE PUSH1 0x2 PUSH1 0x20 SWAP1 DUP2 MSTORE PUSH1 0x40 DUP1 DUP4 KECCAK256 SWAP4 SWAP1 SWAP5 AND DUP3 MSTORE SWAP2 SWAP1 SWAP2 MSTORE KECCAK256 SLOAD SWAP1 JUMP JUMPDEST PUSH0 PUSH2 0x39F CALLER DUP5 DUP5 PUSH2 0x96B JUMP JUMPDEST POP PUSH1 0x1 JUMPDEST SWAP3 SWAP2 POP POP JUMP JUMPDEST PUSH0 PUSH2 0x3B6 PUSH1 0x9 PUSH1 0xA PUSH2 0x15FB JUMP JUMPDEST PUSH2 0x3C3 SWAP1 PUSH3 0x989680 PUSH2 0x1609 JUMP JUMPDEST SWAP1 POP SWAP1 JUMP JUMPDEST PUSH0 PUSH2 0x3D4 DUP5 DUP5 DUP5 PUSH2 0xA8E JUMP JUMPDEST PUSH2 0x425 DUP5 CALLER PUSH2 0x420 DUP6 PUSH1 0x40 MLOAD DUP1 PUSH1 0x60 ADD PUSH1 0x40 MSTORE DUP1 PUSH1 0x28 DUP2 MSTORE PUSH1 0x20 ADD PUSH2 0x179D PUSH1 0x28 SWAP2 CODECOPY PUSH1 0x1 PUSH1 0x1 PUSH1 0xA0 SHL SUB DUP11 AND PUSH0 SWAP1 DUP2 MSTORE PUSH1 0x2 PUSH1 0x20 SWAP1 DUP2 MSTORE PUSH1 0x40 DUP1 DUP4 KECCAK256 CALLER DUP5 MSTORE SWAP1 SWAP2 MSTORE SWAP1 KECCAK256 SLOAD SWAP2 SWAP1 PUSH2 0x1062 JUMP JUMPDEST PUSH2 0x96B JUMP JUMPDEST POP PUSH1 0x1 SWAP4 SWAP3 POP POP POP JUMP JUMPDEST PUSH1 0x6 SLOAD PUSH2 0x100 SWAP1 DIV PUSH1 0x1 PUSH1 0x1 PUSH1 0xA0 SHL SUB AND CALLER PUSH1 0x1 PUSH1 0x1 PUSH1 0xA0 SHL SUB AND EQ PUSH2 0x453 JUMPI PUSH0 DUP1 REVERT JUMPDEST ADDRESS PUSH0 SWAP1 DUP2 MSTORE PUSH1 0x1 PUSH1 0x20 MSTORE PUSH1 0x40 SWAP1 KECCAK256 SLOAD DUP1 ISZERO PUSH2 0x471 JUMPI PUSH2 0x471 DUP2 PUSH2 0x109A JUMP JUMPDEST SELFBALANCE DUP1 ISZERO PUSH2 0x481 JUMPI PUSH2 0x481 DUP2 PUSH2 0x120A JUMP JUMPDEST POP POP JUMP JUMPDEST PUSH0 SLOAD PUSH1 0x1 PUSH1 0x1 PUSH1 0xA0 SHL SUB AND CALLER EQ PUSH2 0x4B7 JUMPI PUSH1 0x40 MLOAD PUSH3 0x461BCD PUSH1 0xE5 SHL DUP2 MSTORE PUSH1 0x4 ADD PUSH2 0x4AE SWAP1 PUSH2 0x1620 JUMP JUMPDEST PUSH1 0x40 MLOAD DUP1 SWAP2 SUB SWAP1 REVERT JUMPDEST PUSH0 DUP1 SLOAD PUSH1 0x40 MLOAD PUSH1 0x1 PUSH1 0x1 PUSH1 0xA0 SHL SUB SWAP1 SWAP2 AND SWAP1 PUSH32 0x8BE0079C531659141344CD1FD0A4F28419497F9722A3DAAFE3B4186F6B6457E0 SWAP1 DUP4 SWAP1 LOG3 PUSH0 DUP1 SLOAD PUSH1 0x1 PUSH1 0x1 PUSH1 0xA0 SHL SUB NOT AND SWAP1 SSTORE JUMP JUMPDEST PUSH0 SLOAD PUSH1 0x1 PUSH1 0x1 PUSH1 0xA0 SHL SUB AND CALLER EQ PUSH2 0x528 JUMPI PUSH1 0x40 MLOAD PUSH3 0x461BCD PUSH1 0xE5 SHL DUP2 MSTORE PUSH1 0x4 ADD PUSH2 0x4AE SWAP1 PUSH2 0x1620 JUMP JUMPDEST PUSH2 0x534 PUSH1 0x9 PUSH1 0xA PUSH2 0x15FB JUMP JUMPDEST PUSH2 0x541 SWAP1 PUSH3 0x989680 PUSH2 0x1609 JUMP JUMPDEST PUSH1 0xF SSTORE PUSH2 0x550 PUSH1 0x9 PUSH1 0xA PUSH2 0x15FB JUMP JUMPDEST PUSH2 0x55D SWAP1 PUSH3 0x989680 PUSH2 0x1609 JUMP JUMPDEST PUSH1 0x10 SSTORE PUSH1 0x6 DUP1 SLOAD PUSH1 0xFF NOT AND SWAP1 SSTORE PUSH32 0x947F344D56E1E8C70DC492FB94C4DDDDD490C016AAB685F5E7E47B2E85CB44CF PUSH2 0x597 PUSH1 0x9 PUSH1 0xA PUSH2 0x15FB JUMP JUMPDEST PUSH2 0x5A4 SWAP1 PUSH3 0x989680 PUSH2 0x1609 JUMP JUMPDEST PUSH1 0x40 MLOAD SWAP1 DUP2 MSTORE PUSH1 0x20 ADD PUSH1 0x40 MLOAD DUP1 SWAP2 SUB SWAP1 LOG1 JUMP JUMPDEST PUSH0 PUSH2 0x39F CALLER DUP5 DUP5 PUSH2 0xA8E JUMP JUMPDEST PUSH0 SLOAD PUSH1 0x1 PUSH1 0x1 PUSH1 0xA0 SHL SUB AND CALLER EQ PUSH2 0x5EC JUMPI PUSH1 0x40 MLOAD PUSH3 0x461BCD PUSH1 0xE5 SHL DUP2 MSTORE PUSH1 0x4 ADD PUSH2 0x4AE SWAP1 PUSH2 0x1620 JUMP JUMPDEST PUSH1 0x14 SLOAD PUSH1 0x1 PUSH1 0xA0 SHL SWAP1 DIV PUSH1 0xFF AND ISZERO PUSH2 0x646 JUMPI PUSH1 0x40 MLOAD PUSH3 0x461BCD PUSH1 0xE5 SHL DUP2 MSTORE PUSH1 0x20 PUSH1 0x4 DUP3 ADD MSTORE PUSH1 0x17 PUSH1 0x24 DUP3 ADD MSTORE PUSH32 0x74726164696E6720697320616C7265616479206F70656E000000000000000000 PUSH1 0x44 DUP3 ADD MSTORE PUSH1 0x64 ADD PUSH2 0x4AE JUMP JUMPDEST PUSH1 0x13 DUP1 SLOAD PUSH1 0x1 PUSH1 0x1 PUSH1 0xA0 SHL SUB NOT AND PUSH20 0x7A250D5630B4CF539739DF2C5DACB4C659F2488D SWAP1 DUP2 OR SWAP1 SWAP2 SSTORE PUSH2 0x68E SWAP1 ADDRESS SWAP1 PUSH2 0x681 PUSH1 0x9 PUSH1 0xA PUSH2 0x15FB JUMP JUMPDEST PUSH2 0x420 SWAP1 PUSH3 0x989680 PUSH2 0x1609 JUMP JUMPDEST PUSH1 0x13 PUSH0 SWAP1 SLOAD SWAP1 PUSH2 0x100 EXP SWAP1 DIV PUSH1 0x1 PUSH1 0x1 PUSH1 0xA0 SHL SUB AND PUSH1 0x1 PUSH1 0x1 PUSH1 0xA0 SHL SUB AND PUSH4 0xC45A0155 PUSH1 0x40 MLOAD DUP2 PUSH4 0xFFFFFFFF AND PUSH1 0xE0 SHL DUP2 MSTORE PUSH1 0x4 ADD PUSH1 0x20 PUSH1 0x40 MLOAD DUP1 DUP4 SUB DUP2 DUP7 GAS STATICCALL ISZERO DUP1 ISZERO PUSH2 0x6DE JUMPI RETURNDATASIZE PUSH0 DUP1 RETURNDATACOPY RETURNDATASIZE PUSH0 REVERT JUMPDEST POP POP POP POP PUSH1 0x40 MLOAD RETURNDATASIZE PUSH1 0x1F NOT PUSH1 0x1F DUP3 ADD AND DUP3 ADD DUP1 PUSH1 0x40 MSTORE POP DUP2 ADD SWAP1 PUSH2 0x702 SWAP2 SWAP1 PUSH2 0x1655 JUMP JUMPDEST PUSH1 0x1 PUSH1 0x1 PUSH1 0xA0 SHL SUB AND PUSH4 0xC9C65396 ADDRESS PUSH1 0x13 PUSH0 SWAP1 SLOAD SWAP1 PUSH2 0x100 EXP SWAP1 DIV PUSH1 0x1 PUSH1 0x1 PUSH1 0xA0 SHL SUB AND PUSH1 0x1 PUSH1 0x1 PUSH1 0xA0 SHL SUB AND PUSH4 0xAD5C4648 PUSH1 0x40 MLOAD DUP2 PUSH4 0xFFFFFFFF AND PUSH1 0xE0 SHL DUP2 MSTORE PUSH1 0x4 ADD PUSH1 0x20 PUSH1 0x40 MLOAD DUP1 DUP4 SUB DUP2 DUP7 GAS STATICCALL ISZERO DUP1 ISZERO PUSH2 0x761 JUMPI RETURNDATASIZE PUSH0 DUP1 RETURNDATACOPY RETURNDATASIZE PUSH0 REVERT JUMPDEST POP POP POP POP PUSH1 0x40 MLOAD RETURNDATASIZE PUSH1 0x1F NOT PUSH1 0x1F DUP3 ADD AND DUP3 ADD DUP1 PUSH1 0x40 MSTORE POP DUP2 ADD SWAP1 PUSH2 0x785 SWAP2 SWAP1 PUSH2 0x1655 JUMP JUMPDEST PUSH1 0x40 MLOAD PUSH1 0x1 PUSH1 0x1 PUSH1 0xE0 SHL SUB NOT PUSH1 0xE0 DUP6 SWAP1 SHL AND DUP2 MSTORE PUSH1 0x1 PUSH1 0x1 PUSH1 0xA0 SHL SUB SWAP3 DUP4 AND PUSH1 0x4 DUP3 ADD MSTORE SWAP2 AND PUSH1 0x24 DUP3 ADD MSTORE PUSH1 0x44 ADD PUSH1 0x20 PUSH1 0x40 MLOAD DUP1 DUP4 SUB DUP2 PUSH0 DUP8 GAS CALL ISZERO DUP1 ISZERO PUSH2 0x7CF JUMPI RETURNDATASIZE PUSH0 DUP1 RETURNDATACOPY RETURNDATASIZE PUSH0 REVERT JUMPDEST POP POP POP POP PUSH1 0x40 MLOAD RETURNDATASIZE PUSH1 0x1F NOT PUSH1 0x1F DUP3 ADD AND DUP3 ADD DUP1 PUSH1 0x40 MSTORE POP DUP2 ADD SWAP1 PUSH2 0x7F3 SWAP2 SWAP1 PUSH2 0x1655 JUMP JUMPDEST PUSH1 0x14 DUP1 SLOAD PUSH1 0x1 PUSH1 0x1 PUSH1 0xA0 SHL SUB SWAP3 DUP4 AND PUSH1 0x1 PUSH1 0x1 PUSH1 0xA0 SHL SUB NOT SWAP1 SWAP2 AND OR SWAP1 SSTORE PUSH1 0x13 SLOAD AND PUSH4 0xF305D719 SELFBALANCE ADDRESS PUSH2 0x83A DUP2 PUSH1 0x1 PUSH1 0x1 PUSH1 0xA0 SHL SUB AND PUSH0 SWAP1 DUP2 MSTORE PUSH1 0x1 PUSH1 0x20 MSTORE PUSH1 0x40 SWAP1 KECCAK256 SLOAD SWAP1 JUMP JUMPDEST PUSH0 DUP1 PUSH2 0x84D PUSH0 SLOAD PUSH1 0x1 PUSH1 0x1 PUSH1 0xA0 SHL SUB AND SWAP1 JUMP JUMPDEST PUSH1 0x40 MLOAD PUSH1 0xE0 DUP9 SWAP1 SHL PUSH1 0x1 PUSH1 0x1 PUSH1 0xE0 SHL SUB NOT AND DUP2 MSTORE PUSH1 0x1 PUSH1 0x1 PUSH1 0xA0 SHL SUB SWAP6 DUP7 AND PUSH1 0x4 DUP3 ADD MSTORE PUSH1 0x24 DUP2 ADD SWAP5 SWAP1 SWAP5 MSTORE PUSH1 0x44 DUP5 ADD SWAP3 SWAP1 SWAP3 MSTORE PUSH1 0x64 DUP4 ADD MSTORE SWAP1 SWAP2 AND PUSH1 0x84 DUP3 ADD MSTORE TIMESTAMP PUSH1 0xA4 DUP3 ADD MSTORE PUSH1 0xC4 ADD PUSH1 0x60 PUSH1 0x40 MLOAD DUP1 DUP4 SUB DUP2 DUP6 DUP9 GAS CALL ISZERO DUP1 ISZERO PUSH2 0x8B3 JUMPI RETURNDATASIZE PUSH0 DUP1 RETURNDATACOPY RETURNDATASIZE PUSH0 REVERT JUMPDEST POP POP POP POP POP PUSH1 0x40 MLOAD RETURNDATASIZE PUSH1 0x1F NOT PUSH1 0x1F DUP3 ADD AND DUP3 ADD DUP1 PUSH1 0x40 MSTORE POP DUP2 ADD SWAP1 PUSH2 0x8D8 SWAP2 SWAP1 PUSH2 0x1670 JUMP JUMPDEST POP POP PUSH1 0x14 SLOAD PUSH1 0x13 SLOAD PUSH1 0x40 MLOAD PUSH4 0x95EA7B3 PUSH1 0xE0 SHL DUP2 MSTORE PUSH1 0x1 PUSH1 0x1 PUSH1 0xA0 SHL SUB SWAP2 DUP3 AND PUSH1 0x4 DUP3 ADD MSTORE PUSH0 NOT PUSH1 0x24 DUP3 ADD MSTORE SWAP2 AND SWAP2 POP PUSH4 0x95EA7B3 SWAP1 PUSH1 0x44 ADD PUSH1 0x20 PUSH1 0x40 MLOAD DUP1 DUP4 SUB DUP2 PUSH0 DUP8 GAS CALL ISZERO DUP1 ISZERO PUSH2 0x92D JUMPI RETURNDATASIZE PUSH0 DUP1 RETURNDATACOPY RETURNDATASIZE PUSH0 REVERT JUMPDEST POP POP POP POP PUSH1 0x40 MLOAD RETURNDATASIZE PUSH1 0x1F NOT PUSH1 0x1F DUP3 ADD AND DUP3 ADD DUP1 PUSH1 0x40 MSTORE POP DUP2 ADD SWAP1 PUSH2 0x951 SWAP2 SWAP1 PUSH2 0x169B JUMP JUMPDEST POP PUSH1 0x14 DUP1 SLOAD PUSH3 0xFF00FF PUSH1 0xA0 SHL NOT AND PUSH3 0x10001 PUSH1 0xA0 SHL OR SWAP1 SSTORE JUMP JUMPDEST PUSH1 0x1 PUSH1 0x1 PUSH1 0xA0 SHL SUB DUP4 AND PUSH2 0x9CD JUMPI PUSH1 0x40 MLOAD PUSH3 0x461BCD PUSH1 0xE5 SHL DUP2 MSTORE PUSH1 0x20 PUSH1 0x4 DUP3 ADD MSTORE PUSH1 0x24 DUP1 DUP3 ADD MSTORE PUSH32 0x45524332303A20617070726F76652066726F6D20746865207A65726F20616464 PUSH1 0x44 DUP3 ADD MSTORE PUSH4 0x72657373 PUSH1 0xE0 SHL PUSH1 0x64 DUP3 ADD MSTORE PUSH1 0x84 ADD PUSH2 0x4AE JUMP JUMPDEST PUSH1 0x1 PUSH1 0x1 PUSH1 0xA0 SHL SUB DUP3 AND PUSH2 0xA2E JUMPI PUSH1 0x40 MLOAD PUSH3 0x461BCD PUSH1 0xE5 SHL DUP2 MSTORE PUSH1 0x20 PUSH1 0x4 DUP3 ADD MSTORE PUSH1 0x22 PUSH1 0x24 DUP3 ADD MSTORE PUSH32 0x45524332303A20617070726F766520746F20746865207A65726F206164647265 PUSH1 0x44 DUP3 ADD MSTORE PUSH2 0x7373 PUSH1 0xF0 SHL PUSH1 0x64 DUP3 ADD MSTORE PUSH1 0x84 ADD PUSH2 0x4AE JUMP JUMPDEST PUSH1 0x1 PUSH1 0x1 PUSH1 0xA0 SHL SUB DUP4 DUP2 AND PUSH0 DUP2 DUP2 MSTORE PUSH1 0x2 PUSH1 0x20 SWAP1 DUP2 MSTORE PUSH1 0x40 DUP1 DUP4 KECCAK256 SWAP5 DUP8 AND DUP1 DUP5 MSTORE SWAP5 DUP3 MSTORE SWAP2 DUP3 SWAP1 KECCAK256 DUP6 SWAP1 SSTORE SWAP1 MLOAD DUP5 DUP2 MSTORE PUSH32 0x8C5BE1E5EBEC7D5BD14F71427D1E84F3DD0314C0F7B2291E5B200AC8C7C3B925 SWAP2 ADD PUSH1 0x40 MLOAD DUP1 SWAP2 SUB SWAP1 LOG3 POP POP POP JUMP JUMPDEST PUSH1 0x1 PUSH1 0x1 PUSH1 0xA0 SHL SUB DUP4 AND PUSH2 0xAF2 JUMPI PUSH1 0x40 MLOAD PUSH3 0x461BCD PUSH1 0xE5 SHL DUP2 MSTORE PUSH1 0x20 PUSH1 0x4 DUP3 ADD MSTORE PUSH1 0x25 PUSH1 0x24 DUP3 ADD MSTORE PUSH32 0x45524332303A207472616E736665722066726F6D20746865207A65726F206164 PUSH1 0x44 DUP3 ADD MSTORE PUSH5 0x6472657373 PUSH1 0xD8 SHL PUSH1 0x64 DUP3 ADD MSTORE PUSH1 0x84 ADD PUSH2 0x4AE JUMP JUMPDEST PUSH1 0x1 PUSH1 0x1 PUSH1 0xA0 SHL SUB DUP3 AND PUSH2 0xB54 JUMPI PUSH1 0x40 MLOAD PUSH3 0x461BCD PUSH1 0xE5 SHL DUP2 MSTORE PUSH1 0x20 PUSH1 0x4 DUP3 ADD MSTORE PUSH1 0x23 PUSH1 0x24 DUP3 ADD MSTORE PUSH32 0x45524332303A207472616E7366657220746F20746865207A65726F2061646472 PUSH1 0x44 DUP3 ADD MSTORE PUSH3 0x657373 PUSH1 0xE8 SHL PUSH1 0x64 DUP3 ADD MSTORE PUSH1 0x84 ADD PUSH2 0x4AE JUMP JUMPDEST PUSH0 DUP2 GT PUSH2 0xBB5 JUMPI PUSH1 0x40 MLOAD PUSH3 0x461BCD PUSH1 0xE5 SHL DUP2 MSTORE PUSH1 0x20 PUSH1 0x4 DUP3 ADD MSTORE PUSH1 0x29 PUSH1 0x24 DUP3 ADD MSTORE PUSH32 0x5472616E7366657220616D6F756E74206D757374206265206772656174657220 PUSH1 0x44 DUP3 ADD MSTORE PUSH9 0x7468616E207A65726F PUSH1 0xB8 SHL PUSH1 0x64 DUP3 ADD MSTORE PUSH1 0x84 ADD PUSH2 0x4AE JUMP JUMPDEST PUSH0 DUP1 SLOAD PUSH1 0x1 PUSH1 0x1 PUSH1 0xA0 SHL SUB DUP6 DUP2 AND SWAP2 AND EQ DUP1 ISZERO SWAP1 PUSH2 0xBE0 JUMPI POP PUSH0 SLOAD PUSH1 0x1 PUSH1 0x1 PUSH1 0xA0 SHL SUB DUP5 DUP2 AND SWAP2 AND EQ ISZERO JUMPDEST ISZERO PUSH2 0xF25 JUMPI PUSH2 0xC11 PUSH1 0x64 PUSH2 0xC0B PUSH1 0xB SLOAD PUSH1 0xE SLOAD GT PUSH2 0xC00 JUMPI PUSH1 0x7 SLOAD PUSH2 0xC04 JUMP JUMPDEST PUSH1 0x9 SLOAD JUMPDEST DUP6 SWAP1 PUSH2 0x1245 JUMP JUMPDEST SWAP1 PUSH2 0x12CA JUMP JUMPDEST PUSH1 0x6 SLOAD SWAP1 SWAP2 POP PUSH1 0xFF AND ISZERO PUSH2 0xCF7 JUMPI PUSH1 0x13 SLOAD PUSH1 0x1 PUSH1 0x1 PUSH1 0xA0 SHL SUB DUP5 DUP2 AND SWAP2 AND EQ DUP1 ISZERO SWAP1 PUSH2 0xC4B JUMPI POP PUSH1 0x14 SLOAD PUSH1 0x1 PUSH1 0x1 PUSH1 0xA0 SHL SUB DUP5 DUP2 AND SWAP2 AND EQ ISZERO JUMPDEST ISZERO PUSH2 0xCF7 JUMPI ORIGIN PUSH0 SWAP1 DUP2 MSTORE PUSH1 0x5 PUSH1 0x20 MSTORE PUSH1 0x40 SWAP1 KECCAK256 SLOAD NUMBER GT PUSH2 0xCE5 JUMPI PUSH1 0x40 MLOAD PUSH3 0x461BCD PUSH1 0xE5 SHL DUP2 MSTORE PUSH1 0x20 PUSH1 0x4 DUP3 ADD MSTORE PUSH1 0x49 PUSH1 0x24 DUP3 ADD MSTORE PUSH32 0x5F7472616E736665723A3A205472616E736665722044656C617920656E61626C PUSH1 0x44 DUP3 ADD MSTORE PUSH32 0x65642E20204F6E6C79206F6E652070757263686173652070657220626C6F636B PUSH1 0x64 DUP3 ADD MSTORE PUSH9 0x1030B63637BBB2B217 PUSH1 0xB9 SHL PUSH1 0x84 DUP3 ADD MSTORE PUSH1 0xA4 ADD PUSH2 0x4AE JUMP JUMPDEST ORIGIN PUSH0 SWAP1 DUP2 MSTORE PUSH1 0x5 PUSH1 0x20 MSTORE PUSH1 0x40 SWAP1 KECCAK256 NUMBER SWAP1 SSTORE JUMPDEST PUSH1 0x14 SLOAD PUSH1 0x1 PUSH1 0x1 PUSH1 0xA0 SHL SUB DUP6 DUP2 AND SWAP2 AND EQ DUP1 ISZERO PUSH2 0xD22 JUMPI POP PUSH1 0x13 SLOAD PUSH1 0x1 PUSH1 0x1 PUSH1 0xA0 SHL SUB DUP5 DUP2 AND SWAP2 AND EQ ISZERO JUMPDEST DUP1 ISZERO PUSH2 0xD46 JUMPI POP PUSH1 0x1 PUSH1 0x1 PUSH1 0xA0 SHL SUB DUP4 AND PUSH0 SWAP1 DUP2 MSTORE PUSH1 0x3 PUSH1 0x20 MSTORE PUSH1 0x40 SWAP1 KECCAK256 SLOAD PUSH1 0xFF AND ISZERO JUMPDEST ISZERO PUSH2 0xE2C JUMPI PUSH1 0xF SLOAD DUP3 GT ISZERO PUSH2 0xD9D JUMPI PUSH1 0x40 MLOAD PUSH3 0x461BCD PUSH1 0xE5 SHL DUP2 MSTORE PUSH1 0x20 PUSH1 0x4 DUP3 ADD MSTORE PUSH1 0x19 PUSH1 0x24 DUP3 ADD MSTORE PUSH32 0x4578636565647320746865205F6D61785478416D6F756E742E00000000000000 PUSH1 0x44 DUP3 ADD MSTORE PUSH1 0x64 ADD PUSH2 0x4AE JUMP JUMPDEST PUSH1 0x10 SLOAD DUP3 PUSH2 0xDBF DUP6 PUSH1 0x1 PUSH1 0x1 PUSH1 0xA0 SHL SUB AND PUSH0 SWAP1 DUP2 MSTORE PUSH1 0x1 PUSH1 0x20 MSTORE PUSH1 0x40 SWAP1 KECCAK256 SLOAD SWAP1 JUMP JUMPDEST PUSH2 0xDC9 SWAP2 SWAP1 PUSH2 0x16BA JUMP JUMPDEST GT ISZERO PUSH2 0xE17 JUMPI PUSH1 0x40 MLOAD PUSH3 0x461BCD PUSH1 0xE5 SHL DUP2 MSTORE PUSH1 0x20 PUSH1 0x4 DUP3 ADD MSTORE PUSH1 0x1A PUSH1 0x24 DUP3 ADD MSTORE PUSH32 0x4578636565647320746865206D617857616C6C657453697A652E000000000000 PUSH1 0x44 DUP3 ADD MSTORE PUSH1 0x64 ADD PUSH2 0x4AE JUMP JUMPDEST PUSH1 0xE DUP1 SLOAD SWAP1 PUSH0 PUSH2 0xE26 DUP4 PUSH2 0x16CD JUMP JUMPDEST SWAP2 SWAP1 POP SSTORE POP JUMPDEST PUSH1 0x14 SLOAD PUSH1 0x1 PUSH1 0x1 PUSH1 0xA0 SHL SUB DUP5 DUP2 AND SWAP2 AND EQ DUP1 ISZERO PUSH2 0xE52 JUMPI POP PUSH1 0x1 PUSH1 0x1 PUSH1 0xA0 SHL SUB DUP5 AND ADDRESS EQ ISZERO JUMPDEST ISZERO PUSH2 0xE7F JUMPI PUSH2 0xE7C PUSH1 0x64 PUSH2 0xC0B PUSH1 0xC SLOAD PUSH1 0xE SLOAD GT PUSH2 0xE72 JUMPI PUSH1 0x8 SLOAD PUSH2 0xC04 JUMP JUMPDEST PUSH1 0xA SLOAD DUP6 SWAP1 PUSH2 0x1245 JUMP JUMPDEST SWAP1 POP JUMPDEST ADDRESS PUSH0 SWAP1 DUP2 MSTORE PUSH1 0x1 PUSH1 0x20 MSTORE PUSH1 0x40 SWAP1 KECCAK256 SLOAD PUSH1 0x14 SLOAD PUSH1 0x1 PUSH1 0xA8 SHL SWAP1 DIV PUSH1 0xFF AND ISZERO DUP1 ISZERO PUSH2 0xEB5 JUMPI POP PUSH1 0x14 SLOAD PUSH1 0x1 PUSH1 0x1 PUSH1 0xA0 SHL SUB DUP6 DUP2 AND SWAP2 AND EQ JUMPDEST DUP1 ISZERO PUSH2 0xECA JUMPI POP PUSH1 0x14 SLOAD PUSH1 0x1 PUSH1 0xB0 SHL SWAP1 DIV PUSH1 0xFF AND JUMPDEST DUP1 ISZERO PUSH2 0xED7 JUMPI POP PUSH1 0x11 SLOAD DUP2 GT JUMPDEST DUP1 ISZERO PUSH2 0xEE6 JUMPI POP PUSH1 0xD SLOAD PUSH1 0xE SLOAD GT JUMPDEST ISZERO PUSH2 0xF23 JUMPI PUSH2 0xF08 PUSH2 0xF03 DUP5 PUSH2 0xEFE DUP5 PUSH1 0x12 SLOAD PUSH2 0x130B JUMP JUMPDEST PUSH2 0x130B JUMP JUMPDEST PUSH2 0x109A JUMP JUMPDEST SELFBALANCE PUSH7 0xB1A2BC2EC50000 DUP2 GT ISZERO PUSH2 0xF21 JUMPI PUSH2 0xF21 SELFBALANCE PUSH2 0x120A JUMP JUMPDEST POP JUMPDEST POP JUMPDEST DUP1 ISZERO PUSH2 0xF9D JUMPI ADDRESS PUSH0 SWAP1 DUP2 MSTORE PUSH1 0x1 PUSH1 0x20 MSTORE PUSH1 0x40 SWAP1 KECCAK256 SLOAD PUSH2 0xF44 SWAP1 DUP3 PUSH2 0x131F JUMP JUMPDEST ADDRESS PUSH0 DUP2 DUP2 MSTORE PUSH1 0x1 PUSH1 0x20 MSTORE PUSH1 0x40 SWAP1 DUP2 SWAP1 KECCAK256 SWAP3 SWAP1 SWAP3 SSTORE SWAP1 MLOAD PUSH1 0x1 PUSH1 0x1 PUSH1 0xA0 SHL SUB DUP7 AND SWAP1 PUSH32 0xDDF252AD1BE2C89B69C2B068FC378DAA952BA7F163C4A11628F55A4DF523B3EF SWAP1 PUSH2 0xF94 SWAP1 DUP6 DUP2 MSTORE PUSH1 0x20 ADD SWAP1 JUMP JUMPDEST PUSH1 0x40 MLOAD DUP1 SWAP2 SUB SWAP1 LOG3 JUMPDEST PUSH1 0x1 PUSH1 0x1 PUSH1 0xA0 SHL SUB DUP5 AND PUSH0 SWAP1 DUP2 MSTORE PUSH1 0x1 PUSH1 0x20 MSTORE PUSH1 0x40 SWAP1 KECCAK256 SLOAD PUSH2 0xFBF SWAP1 DUP4 PUSH2 0x137D JUMP JUMPDEST PUSH1 0x1 PUSH1 0x1 PUSH1 0xA0 SHL SUB DUP6 AND PUSH0 SWAP1 DUP2 MSTORE PUSH1 0x1 PUSH1 0x20 MSTORE PUSH1 0x40 SWAP1 KECCAK256 SSTORE PUSH2 0x1002 PUSH2 0xFE4 DUP4 DUP4 PUSH2 0x137D JUMP JUMPDEST PUSH1 0x1 PUSH1 0x1 PUSH1 0xA0 SHL SUB DUP6 AND PUSH0 SWAP1 DUP2 MSTORE PUSH1 0x1 PUSH1 0x20 MSTORE PUSH1 0x40 SWAP1 KECCAK256 SLOAD SWAP1 PUSH2 0x131F JUMP JUMPDEST PUSH1 0x1 PUSH1 0x1 PUSH1 0xA0 SHL SUB DUP1 DUP6 AND PUSH0 DUP2 DUP2 MSTORE PUSH1 0x1 PUSH1 0x20 MSTORE PUSH1 0x40 SWAP1 KECCAK256 SWAP3 SWAP1 SWAP3 SSTORE DUP6 AND PUSH32 0xDDF252AD1BE2C89B69C2B068FC378DAA952BA7F163C4A11628F55A4DF523B3EF PUSH2 0x104B DUP6 DUP6 PUSH2 0x137D JUMP JUMPDEST PUSH1 0x40 MLOAD SWAP1 DUP2 MSTORE PUSH1 0x20 ADD PUSH1 0x40 MLOAD DUP1 SWAP2 SUB SWAP1 LOG3 POP POP POP POP JUMP JUMPDEST PUSH0 DUP2 DUP5 DUP5 GT ISZERO PUSH2 0x1085 JUMPI PUSH1 0x40 MLOAD PUSH3 0x461BCD PUSH1 0xE5 SHL DUP2 MSTORE PUSH1 0x4 ADD PUSH2 0x4AE SWAP2 SWAP1 PUSH2 0x13EA JUMP JUMPDEST POP PUSH0 PUSH2 0x1091 DUP5 DUP7 PUSH2 0x16E5 JUMP JUMPDEST SWAP6 SWAP5 POP POP POP POP POP JUMP JUMPDEST PUSH1 0x14 DUP1 SLOAD PUSH1 0xFF PUSH1 0xA8 SHL NOT AND PUSH1 0x1 PUSH1 0xA8 SHL OR SWAP1 SSTORE PUSH1 0x40 DUP1 MLOAD PUSH1 0x2 DUP1 DUP3 MSTORE PUSH1 0x60 DUP3 ADD DUP4 MSTORE PUSH0 SWAP3 PUSH1 0x20 DUP4 ADD SWAP1 DUP1 CALLDATASIZE DUP4 CALLDATACOPY ADD SWAP1 POP POP SWAP1 POP ADDRESS DUP2 PUSH0 DUP2 MLOAD DUP2 LT PUSH2 0x10E0 JUMPI PUSH2 0x10E0 PUSH2 0x16F8 JUMP JUMPDEST PUSH1 0x1 PUSH1 0x1 PUSH1 0xA0 SHL SUB SWAP3 DUP4 AND PUSH1 0x20 SWAP2 DUP3 MUL SWAP3 SWAP1 SWAP3 ADD DUP2 ADD SWAP2 SWAP1 SWAP2 MSTORE PUSH1 0x13 SLOAD PUSH1 0x40 DUP1 MLOAD PUSH4 0x15AB88C9 PUSH1 0xE3 SHL DUP2 MSTORE SWAP1 MLOAD SWAP2 SWAP1 SWAP4 AND SWAP3 PUSH4 0xAD5C4648 SWAP3 PUSH1 0x4 DUP1 DUP4 ADD SWAP4 SWAP2 SWAP3 DUP3 SWAP1 SUB ADD DUP2 DUP7 GAS STATICCALL ISZERO DUP1 ISZERO PUSH2 0x1137 JUMPI RETURNDATASIZE PUSH0 DUP1 RETURNDATACOPY RETURNDATASIZE PUSH0 REVERT JUMPDEST POP POP POP POP PUSH1 0x40 MLOAD RETURNDATASIZE PUSH1 0x1F NOT PUSH1 0x1F DUP3 ADD AND DUP3 ADD DUP1 PUSH1 0x40 MSTORE POP DUP2 ADD SWAP1 PUSH2 0x115B SWAP2 SWAP1 PUSH2 0x1655 JUMP JUMPDEST DUP2 PUSH1 0x1 DUP2 MLOAD DUP2 LT PUSH2 0x116E JUMPI PUSH2 0x116E PUSH2 0x16F8 JUMP JUMPDEST PUSH1 0x1 PUSH1 0x1 PUSH1 0xA0 SHL SUB SWAP3 DUP4 AND PUSH1 0x20 SWAP2 DUP3 MUL SWAP3 SWAP1 SWAP3 ADD ADD MSTORE PUSH1 0x13 SLOAD PUSH2 0x1194 SWAP2 ADDRESS SWAP2 AND DUP5 PUSH2 0x96B JUMP JUMPDEST PUSH1 0x13 SLOAD PUSH1 0x40 MLOAD PUSH4 0x791AC947 PUSH1 0xE0 SHL DUP2 MSTORE PUSH1 0x1 PUSH1 0x1 PUSH1 0xA0 SHL SUB SWAP1 SWAP2 AND SWAP1 PUSH4 0x791AC947 SWAP1 PUSH2 0x11CC SWAP1 DUP6 SWAP1 PUSH0 SWAP1 DUP7 SWAP1 ADDRESS SWAP1 TIMESTAMP SWAP1 PUSH1 0x4 ADD PUSH2 0x170C JUMP JUMPDEST PUSH0 PUSH1 0x40 MLOAD DUP1 DUP4 SUB DUP2 PUSH0 DUP8 DUP1 EXTCODESIZE ISZERO DUP1 ISZERO PUSH2 0x11E3 JUMPI PUSH0 DUP1 REVERT JUMPDEST POP GAS CALL ISZERO DUP1 ISZERO PUSH2 0x11F5 JUMPI RETURNDATASIZE PUSH0 DUP1 RETURNDATACOPY RETURNDATASIZE PUSH0 REVERT JUMPDEST POP POP PUSH1 0x14 DUP1 SLOAD PUSH1 0xFF PUSH1 0xA8 SHL NOT AND SWAP1 SSTORE POP POP POP POP JUMP JUMPDEST PUSH1 0x6 SLOAD PUSH1 0x40 MLOAD PUSH2 0x100 SWAP1 SWAP2 DIV PUSH1 0x1 PUSH1 0x1 PUSH1 0xA0 SHL SUB AND SWAP1 PUSH2 0x8FC DUP4 ISZERO MUL SWAP1 DUP4 SWAP1 PUSH0 DUP2 DUP2 DUP2 DUP6 DUP9 DUP9 CALL SWAP4 POP POP POP POP ISZERO DUP1 ISZERO PUSH2 0x481 JUMPI RETURNDATASIZE PUSH0 DUP1 RETURNDATACOPY RETURNDATASIZE PUSH0 REVERT JUMPDEST PUSH0 DUP3 PUSH0 SUB PUSH2 0x1254 JUMPI POP PUSH0 PUSH2 0x3A3 JUMP JUMPDEST PUSH0 PUSH2 0x125F DUP4 DUP6 PUSH2 0x1609 JUMP JUMPDEST SWAP1 POP DUP3 PUSH2 0x126C DUP6 DUP4 PUSH2 0x177D JUMP JUMPDEST EQ PUSH2 0x12C3 JUMPI PUSH1 0x40 MLOAD PUSH3 0x461BCD PUSH1 0xE5 SHL DUP2 MSTORE PUSH1 0x20 PUSH1 0x4 DUP3 ADD MSTORE PUSH1 0x21 PUSH1 0x24 DUP3 ADD MSTORE PUSH32 0x536166654D6174683A206D756C7469706C69636174696F6E206F766572666C6F PUSH1 0x44 DUP3 ADD MSTORE PUSH1 0x77 PUSH1 0xF8 SHL PUSH1 0x64 DUP3 ADD MSTORE PUSH1 0x84 ADD PUSH2 0x4AE JUMP JUMPDEST SWAP4 SWAP3 POP POP POP JUMP JUMPDEST PUSH0 PUSH2 0x12C3 DUP4 DUP4 PUSH1 0x40 MLOAD DUP1 PUSH1 0x40 ADD PUSH1 0x40 MSTORE DUP1 PUSH1 0x1A DUP2 MSTORE PUSH1 0x20 ADD PUSH32 0x536166654D6174683A206469766973696F6E206279207A65726F000000000000 DUP2 MSTORE POP PUSH2 0x13BE JUMP JUMPDEST PUSH0 DUP2 DUP4 GT PUSH2 0x1319 JUMPI DUP3 PUSH2 0x12C3 JUMP JUMPDEST POP SWAP2 SWAP1 POP JUMP JUMPDEST PUSH0 DUP1 PUSH2 0x132B DUP4 DUP6 PUSH2 0x16BA JUMP JUMPDEST SWAP1 POP DUP4 DUP2 LT ISZERO PUSH2 0x12C3 JUMPI PUSH1 0x40 MLOAD PUSH3 0x461BCD PUSH1 0xE5 SHL DUP2 MSTORE PUSH1 0x20 PUSH1 0x4 DUP3 ADD MSTORE PUSH1 0x1B PUSH1 0x24 DUP3 ADD MSTORE PUSH32 0x536166654D6174683A206164646974696F6E206F766572666C6F770000000000 PUSH1 0x44 DUP3 ADD MSTORE PUSH1 0x64 ADD PUSH2 0x4AE JUMP JUMPDEST PUSH0 PUSH2 0x12C3 DUP4 DUP4 PUSH1 0x40 MLOAD DUP1 PUSH1 0x40 ADD PUSH1 0x40 MSTORE DUP1 PUSH1 0x1E DUP2 MSTORE PUSH1 0x20 ADD PUSH32 0x536166654D6174683A207375627472616374696F6E206F766572666C6F770000 DUP2 MSTORE POP PUSH2 0x1062 JUMP JUMPDEST PUSH0 DUP2 DUP4 PUSH2 0x13DE JUMPI PUSH1 0x40 MLOAD PUSH3 0x461BCD PUSH1 0xE5 SHL DUP2 MSTORE PUSH1 0x4 ADD PUSH2 0x4AE SWAP2 SWAP1 PUSH2 0x13EA JUMP JUMPDEST POP PUSH0 PUSH2 0x1091 DUP5 DUP7 PUSH2 0x177D JUMP JUMPDEST PUSH0 PUSH1 0x20 DUP1 DUP4 MSTORE DUP4 MLOAD DUP1 PUSH1 0x20 DUP6 ADD MSTORE PUSH0 JUMPDEST DUP2 DUP2 LT ISZERO PUSH2 0x1416 JUMPI DUP6 DUP2 ADD DUP4 ADD MLOAD DUP6 DUP3 ADD PUSH1 0x40 ADD MSTORE DUP3 ADD PUSH2 0x13FA JUMP JUMPDEST POP PUSH0 PUSH1 0x40 DUP3 DUP7 ADD ADD MSTORE PUSH1 0x40 PUSH1 0x1F NOT PUSH1 0x1F DUP4 ADD AND DUP6 ADD ADD SWAP3 POP POP POP SWAP3 SWAP2 POP POP JUMP JUMPDEST PUSH1 0x1 PUSH1 0x1 PUSH1 0xA0 SHL SUB DUP2 AND DUP2 EQ PUSH2 0x144A JUMPI PUSH0 DUP1 REVERT JUMPDEST POP JUMP JUMPDEST PUSH0 DUP1 PUSH1 0x40 DUP4 DUP6 SUB SLT ISZERO PUSH2 0x145E JUMPI PUSH0 DUP1 REVERT JUMPDEST DUP3 CALLDATALOAD PUSH2 0x1469 DUP2 PUSH2 0x1436 JUMP JUMPDEST SWAP5 PUSH1 0x20 SWAP4 SWAP1 SWAP4 ADD CALLDATALOAD SWAP4 POP POP POP JUMP JUMPDEST PUSH0 DUP1 PUSH0 PUSH1 0x60 DUP5 DUP7 SUB SLT ISZERO PUSH2 0x1489 JUMPI PUSH0 DUP1 REVERT JUMPDEST DUP4 CALLDATALOAD PUSH2 0x1494 DUP2 PUSH2 0x1436 JUMP JUMPDEST SWAP3 POP PUSH1 0x20 DUP5 ADD CALLDATALOAD PUSH2 0x14A4 DUP2 PUSH2 0x1436 JUMP JUMPDEST SWAP3 SWAP6 SWAP3 SWAP5 POP POP POP PUSH1 0x40 SWAP2 SWAP1 SWAP2 ADD CALLDATALOAD SWAP1 JUMP JUMPDEST PUSH0 PUSH1 0x20 DUP3 DUP5 SUB SLT ISZERO PUSH2 0x14C5 JUMPI PUSH0 DUP1 REVERT JUMPDEST DUP2 CALLDATALOAD PUSH2 0x12C3 DUP2 PUSH2 0x1436 JUMP JUMPDEST PUSH0 DUP1 PUSH1 0x40 DUP4 DUP6 SUB SLT ISZERO PUSH2 0x14E1 JUMPI PUSH0 DUP1 REVERT JUMPDEST DUP3 CALLDATALOAD PUSH2 0x14EC DUP2 PUSH2 0x1436 JUMP JUMPDEST SWAP2 POP PUSH1 0x20 DUP4 ADD CALLDATALOAD PUSH2 0x14FC DUP2 PUSH2 0x1436 JUMP JUMPDEST DUP1 SWAP2 POP POP SWAP3 POP SWAP3 SWAP1 POP JUMP JUMPDEST PUSH4 0x4E487B71 PUSH1 0xE0 SHL PUSH0 MSTORE PUSH1 0x11 PUSH1 0x4 MSTORE PUSH1 0x24 PUSH0 REVERT JUMPDEST PUSH1 0x1 DUP2 DUP2 JUMPDEST DUP1 DUP6 GT ISZERO PUSH2 0x1555 JUMPI DUP2 PUSH0 NOT DIV DUP3 GT ISZERO PUSH2 0x153B JUMPI PUSH2 0x153B PUSH2 0x1507 JUMP JUMPDEST DUP1 DUP6 AND ISZERO PUSH2 0x1548 JUMPI SWAP2 DUP2 MUL SWAP2 JUMPDEST SWAP4 DUP5 SHR SWAP4 SWAP1 DUP1 MUL SWAP1 PUSH2 0x1520 JUMP JUMPDEST POP SWAP3 POP SWAP3 SWAP1 POP JUMP JUMPDEST PUSH0 DUP3 PUSH2 0x156B JUMPI POP PUSH1 0x1 PUSH2 0x3A3 JUMP JUMPDEST DUP2 PUSH2 0x1577 JUMPI POP PUSH0 PUSH2 0x3A3 JUMP JUMPDEST DUP2 PUSH1 0x1 DUP2 EQ PUSH2 0x158D JUMPI PUSH1 0x2 DUP2 EQ PUSH2 0x1597 JUMPI PUSH2 0x15B3 JUMP JUMPDEST PUSH1 0x1 SWAP2 POP POP PUSH2 0x3A3 JUMP JUMPDEST PUSH1 0xFF DUP5 GT ISZERO PUSH2 0x15A8 JUMPI PUSH2 0x15A8 PUSH2 0x1507 JUMP JUMPDEST POP POP PUSH1 0x1 DUP3 SHL PUSH2 0x3A3 JUMP JUMPDEST POP PUSH1 0x20 DUP4 LT PUSH2 0x133 DUP4 LT AND PUSH1 0x4E DUP5 LT PUSH1 0xB DUP5 LT AND OR ISZERO PUSH2 0x15D6 JUMPI POP DUP2 DUP2 EXP PUSH2 0x3A3 JUMP JUMPDEST PUSH2 0x15E0 DUP4 DUP4 PUSH2 0x151B JUMP JUMPDEST DUP1 PUSH0 NOT DIV DUP3 GT ISZERO PUSH2 0x15F3 JUMPI PUSH2 0x15F3 PUSH2 0x1507 JUMP JUMPDEST MUL SWAP4 SWAP3 POP POP POP JUMP JUMPDEST PUSH0 PUSH2 0x12C3 PUSH1 0xFF DUP5 AND DUP4 PUSH2 0x155D JUMP JUMPDEST DUP1 DUP3 MUL DUP2 ISZERO DUP3 DUP3 DIV DUP5 EQ OR PUSH2 0x3A3 JUMPI PUSH2 0x3A3 PUSH2 0x1507 JUMP JUMPDEST PUSH1 0x20 DUP1 DUP3 MSTORE DUP2 DUP2 ADD MSTORE PUSH32 0x4F776E61626C653A2063616C6C6572206973206E6F7420746865206F776E6572 PUSH1 0x40 DUP3 ADD MSTORE PUSH1 0x60 ADD SWAP1 JUMP JUMPDEST PUSH0 PUSH1 0x20 DUP3 DUP5 SUB SLT ISZERO PUSH2 0x1665 JUMPI PUSH0 DUP1 REVERT JUMPDEST DUP2 MLOAD PUSH2 0x12C3 DUP2 PUSH2 0x1436 JUMP JUMPDEST PUSH0 DUP1 PUSH0 PUSH1 0x60 DUP5 DUP7 SUB SLT ISZERO PUSH2 0x1682 JUMPI PUSH0 DUP1 REVERT JUMPDEST DUP4 MLOAD SWAP3 POP PUSH1 0x20 DUP5 ADD MLOAD SWAP2 POP PUSH1 0x40 DUP5 ADD MLOAD SWAP1 POP SWAP3 POP SWAP3 POP SWAP3 JUMP JUMPDEST PUSH0 PUSH1 0x20 DUP3 DUP5 SUB SLT ISZERO PUSH2 0x16AB JUMPI PUSH0 DUP1 REVERT JUMPDEST DUP2 MLOAD DUP1 ISZERO ISZERO DUP2 EQ PUSH2 0x12C3 JUMPI PUSH0 DUP1 REVERT JUMPDEST DUP1 DUP3 ADD DUP1 DUP3 GT ISZERO PUSH2 0x3A3 JUMPI PUSH2 0x3A3 PUSH2 0x1507 JUMP JUMPDEST PUSH0 PUSH1 0x1 DUP3 ADD PUSH2 0x16DE JUMPI PUSH2 0x16DE PUSH2 0x1507 JUMP JUMPDEST POP PUSH1 0x1 ADD SWAP1 JUMP JUMPDEST DUP2 DUP2 SUB DUP2 DUP2 GT ISZERO PUSH2 0x3A3 JUMPI PUSH2 0x3A3 PUSH2 0x1507 JUMP JUMPDEST PUSH4 0x4E487B71 PUSH1 0xE0 SHL PUSH0 MSTORE PUSH1 0x32 PUSH1 0x4 MSTORE PUSH1 0x24 PUSH0 REVERT JUMPDEST PUSH0 PUSH1 0xA0 DUP3 ADD DUP8 DUP4 MSTORE PUSH1 0x20 DUP8 PUSH1 0x20 DUP6 ADD MSTORE PUSH1 0xA0 PUSH1 0x40 DUP6 ADD MSTORE DUP2 DUP8 MLOAD DUP1 DUP5 MSTORE PUSH1 0xC0 DUP7 ADD SWAP2 POP PUSH1 0x20 DUP10 ADD SWAP4 POP PUSH0 JUMPDEST DUP2 DUP2 LT ISZERO PUSH2 0x175C JUMPI DUP5 MLOAD PUSH1 0x1 PUSH1 0x1 PUSH1 0xA0 SHL SUB AND DUP4 MSTORE SWAP4 DUP4 ADD SWAP4 SWAP2 DUP4 ADD SWAP2 PUSH1 0x1 ADD PUSH2 0x1737 JUMP JUMPDEST POP POP PUSH1 0x1 PUSH1 0x1 PUSH1 0xA0 SHL SUB SWAP7 SWAP1 SWAP7 AND PUSH1 0x60 DUP6 ADD MSTORE POP POP POP PUSH1 0x80 ADD MSTORE SWAP4 SWAP3 POP POP POP JUMP JUMPDEST PUSH0 DUP3 PUSH2 0x1797 JUMPI PUSH4 0x4E487B71 PUSH1 0xE0 SHL PUSH0 MSTORE PUSH1 0x12 PUSH1 0x4 MSTORE PUSH1 0x24 PUSH0 REVERT JUMPDEST POP DIV SWAP1 JUMP INVALID GASLIMIT MSTORE NUMBER ORIGIN ADDRESS GASPRICE KECCAK256 PUSH21 0x72616E7366657220616D6F756E7420657863656564 PUSH20 0x20616C6C6F77616E6365A2646970667358221220 TIMESTAMP 0xD9 0x2F CALLDATALOAD 0xC1 0xD2 BALANCE PUSH21 0x612AE348E092CE1810FD677C97C0768F24D065AEE5 0xD0 0xA5 0xB9 PUSH5 0x736F6C6343 STOP ADDMOD OR STOP CALLER "
				},
				"gasEstimates": {
					"creation": {
						"codeDepositCost": "1227600",
						"executionCost": "infinite",
						"totalCost": "infinite"
					},
					"external": {
						"_maxTaxSwap()": "2362",
						"_maxTxAmount()": "2339",
						"_maxWalletSize()": "2383",
						"_taxSwapThreshold()": "2338",
						"allowance(address,address)": "infinite",
						"approve(address,uint256)": "24633",
						"balanceOf(address)": "2617",
						"decimals()": "221",
						"manualSwap()": "infinite",
						"name()": "infinite",
						"openTrading()": "infinite",
						"owner()": "2366",
						"removeLimits()": "infinite",
						"renounceOwnership()": "30272",
						"symbol()": "infinite",
						"totalSupply()": "infinite",
						"transfer(address,uint256)": "infinite",
						"transferDelayEnabled()": "2375",
						"transferFrom(address,address,uint256)": "infinite"
					},
					"internal": {
						"_approve(address,address,uint256)": "infinite",
						"_transfer(address,address,uint256)": "infinite",
						"min(uint256,uint256)": "60",
						"sendETHToFee(uint256)": "infinite",
						"swapTokensForEth(uint256)": "infinite"
					}
				},
				"methodIdentifiers": {
					"_maxTaxSwap()": "0faee56f",
					"_maxTxAmount()": "7d1db4a5",
					"_maxWalletSize()": "8f9a55c0",
					"_taxSwapThreshold()": "bf474bed",
					"allowance(address,address)": "dd62ed3e",
					"approve(address,uint256)": "095ea7b3",
					"balanceOf(address)": "70a08231",
					"decimals()": "313ce567",
					"manualSwap()": "51bc3c85",
					"name()": "06fdde03",
					"openTrading()": "c9567bf9",
					"owner()": "8da5cb5b",
					"removeLimits()": "751039fc",
					"renounceOwnership()": "715018a6",
					"symbol()": "95d89b41",
					"totalSupply()": "18160ddd",
					"transfer(address,uint256)": "a9059cbb",
					"transferDelayEnabled()": "c876d0b9",
					"transferFrom(address,address,uint256)": "23b872dd"
				}
			},
			"storageLayout": {
				"storage": [
					{
						"astId": 228,
						"contract": "ethtoken.sol:xyztoken",
						"label": "_owner",
						"offset": 0,
						"slot": "0",
						"type": "t_address"
					},
					{
						"astId": 366,
						"contract": "ethtoken.sol:xyztoken",
						"label": "_balances",
						"offset": 0,
						"slot": "1",
						"type": "t_mapping(t_address,t_uint256)"
					},
					{
						"astId": 372,
						"contract": "ethtoken.sol:xyztoken",
						"label": "_allowances",
						"offset": 0,
						"slot": "2",
						"type": "t_mapping(t_address,t_mapping(t_address,t_uint256))"
					},
					{
						"astId": 376,
						"contract": "ethtoken.sol:xyztoken",
						"label": "_isExcludedFromFee",
						"offset": 0,
						"slot": "3",
						"type": "t_mapping(t_address,t_bool)"
					},
					{
						"astId": 380,
						"contract": "ethtoken.sol:xyztoken",
						"label": "bots",
						"offset": 0,
						"slot": "4",
						"type": "t_mapping(t_address,t_bool)"
					},
					{
						"astId": 384,
						"contract": "ethtoken.sol:xyztoken",
						"label": "_holderLastTransferTimestamp",
						"offset": 0,
						"slot": "5",
						"type": "t_mapping(t_address,t_uint256)"
					},
					{
						"astId": 387,
						"contract": "ethtoken.sol:xyztoken",
						"label": "transferDelayEnabled",
						"offset": 0,
						"slot": "6",
						"type": "t_bool"
					},
					{
						"astId": 389,
						"contract": "ethtoken.sol:xyztoken",
						"label": "_taxWallet",
						"offset": 1,
						"slot": "6",
						"type": "t_address_payable"
					},
					{
						"astId": 392,
						"contract": "ethtoken.sol:xyztoken",
						"label": "_initialBuyTax",
						"offset": 0,
						"slot": "7",
						"type": "t_uint256"
					},
					{
						"astId": 395,
						"contract": "ethtoken.sol:xyztoken",
						"label": "_initialSellTax",
						"offset": 0,
						"slot": "8",
						"type": "t_uint256"
					},
					{
						"astId": 398,
						"contract": "ethtoken.sol:xyztoken",
						"label": "_finalBuyTax",
						"offset": 0,
						"slot": "9",
						"type": "t_uint256"
					},
					{
						"astId": 401,
						"contract": "ethtoken.sol:xyztoken",
						"label": "_finalSellTax",
						"offset": 0,
						"slot": "10",
						"type": "t_uint256"
					},
					{
						"astId": 404,
						"contract": "ethtoken.sol:xyztoken",
						"label": "_reduceBuyTaxAt",
						"offset": 0,
						"slot": "11",
						"type": "t_uint256"
					},
					{
						"astId": 407,
						"contract": "ethtoken.sol:xyztoken",
						"label": "_reduceSellTaxAt",
						"offset": 0,
						"slot": "12",
						"type": "t_uint256"
					},
					{
						"astId": 410,
						"contract": "ethtoken.sol:xyztoken",
						"label": "_preventSwapBefore",
						"offset": 0,
						"slot": "13",
						"type": "t_uint256"
					},
					{
						"astId": 413,
						"contract": "ethtoken.sol:xyztoken",
						"label": "_buyCount",
						"offset": 0,
						"slot": "14",
						"type": "t_uint256"
					},
					{
						"astId": 436,
						"contract": "ethtoken.sol:xyztoken",
						"label": "_maxTxAmount",
						"offset": 0,
						"slot": "15",
						"type": "t_uint256"
					},
					{
						"astId": 443,
						"contract": "ethtoken.sol:xyztoken",
						"label": "_maxWalletSize",
						"offset": 0,
						"slot": "16",
						"type": "t_uint256"
					},
					{
						"astId": 450,
						"contract": "ethtoken.sol:xyztoken",
						"label": "_taxSwapThreshold",
						"offset": 0,
						"slot": "17",
						"type": "t_uint256"
					},
					{
						"astId": 457,
						"contract": "ethtoken.sol:xyztoken",
						"label": "_maxTaxSwap",
						"offset": 0,
						"slot": "18",
						"type": "t_uint256"
					},
					{
						"astId": 460,
						"contract": "ethtoken.sol:xyztoken",
						"label": "uniswapV2Router",
						"offset": 0,
						"slot": "19",
						"type": "t_contract(IUniswapV2Router02)353"
					},
					{
						"astId": 462,
						"contract": "ethtoken.sol:xyztoken",
						"label": "uniswapV2Pair",
						"offset": 0,
						"slot": "20",
						"type": "t_address"
					},
					{
						"astId": 464,
						"contract": "ethtoken.sol:xyztoken",
						"label": "tradingOpen",
						"offset": 20,
						"slot": "20",
						"type": "t_bool"
					},
					{
						"astId": 467,
						"contract": "ethtoken.sol:xyztoken",
						"label": "inSwap",
						"offset": 21,
						"slot": "20",
						"type": "t_bool"
					},
					{
						"astId": 470,
						"contract": "ethtoken.sol:xyztoken",
						"label": "swapEnabled",
						"offset": 22,
						"slot": "20",
						"type": "t_bool"
					}
				],
				"types": {
					"t_address": {
						"encoding": "inplace",
						"label": "address",
						"numberOfBytes": "20"
					},
					"t_address_payable": {
						"encoding": "inplace",
						"label": "address payable",
						"numberOfBytes": "20"
					},
					"t_bool": {
						"encoding": "inplace",
						"label": "bool",
						"numberOfBytes": "1"
					},
					"t_contract(IUniswapV2Router02)353": {
						"encoding": "inplace",
						"label": "contract IUniswapV2Router02",
						"numberOfBytes": "20"
					},
					"t_mapping(t_address,t_bool)": {
						"encoding": "mapping",
						"key": "t_address",
						"label": "mapping(address => bool)",
						"numberOfBytes": "32",
						"value": "t_bool"
					},
					"t_mapping(t_address,t_mapping(t_address,t_uint256))": {
						"encoding": "mapping",
						"key": "t_address",
						"label": "mapping(address => mapping(address => uint256))",
						"numberOfBytes": "32",
						"value": "t_mapping(t_address,t_uint256)"
					},
					"t_mapping(t_address,t_uint256)": {
						"encoding": "mapping",
						"key": "t_address",
						"label": "mapping(address => uint256)",
						"numberOfBytes": "32",
						"value": "t_uint256"
					},
					"t_uint256": {
						"encoding": "inplace",
						"label": "uint256",
						"numberOfBytes": "32"
					}
				}
			},
			"userdoc": {
				"kind": "user",
				"methods": {},
				"version": 1
			}
		}
	}
}